{
  "_format": "hh-sol-artifact-1",
  "contractName": "TomaasRWN",
  "sourceName": "contracts/TomaasRWN.sol",
  "abi": [
    {
      "inputs": [],
      "stateMutability": "nonpayable",
      "type": "constructor"
    },
    {
      "anonymous": false,
      "inputs": [
        {
          "indexed": true,
          "internalType": "address",
          "name": "owner",
          "type": "address"
        },
        {
          "indexed": true,
          "internalType": "address",
          "name": "approved",
          "type": "address"
        },
        {
          "indexed": true,
          "internalType": "uint256",
          "name": "tokenId",
          "type": "uint256"
        }
      ],
      "name": "Approval",
      "type": "event"
    },
    {
      "anonymous": false,
      "inputs": [
        {
          "indexed": true,
          "internalType": "address",
          "name": "owner",
          "type": "address"
        },
        {
          "indexed": true,
          "internalType": "address",
          "name": "operator",
          "type": "address"
        },
        {
          "indexed": false,
          "internalType": "bool",
          "name": "approved",
          "type": "bool"
        }
      ],
      "name": "ApprovalForAll",
      "type": "event"
    },
    {
      "anonymous": false,
      "inputs": [
        {
          "indexed": true,
          "internalType": "address",
          "name": "owner",
          "type": "address"
        },
        {
          "indexed": false,
          "internalType": "uint256",
          "name": "tokenId",
          "type": "uint256"
        },
        {
          "indexed": false,
          "internalType": "uint256",
          "name": "amount",
          "type": "uint256"
        }
      ],
      "name": "ClaimEarnings",
      "type": "event"
    },
    {
      "anonymous": false,
      "inputs": [
        {
          "indexed": true,
          "internalType": "address",
          "name": "owner",
          "type": "address"
        },
        {
          "indexed": false,
          "internalType": "uint256",
          "name": "count",
          "type": "uint256"
        },
        {
          "indexed": false,
          "internalType": "uint256",
          "name": "amount",
          "type": "uint256"
        }
      ],
      "name": "ClaimEarningsAllRented",
      "type": "event"
    },
    {
      "anonymous": false,
      "inputs": [
        {
          "indexed": true,
          "internalType": "address",
          "name": "owner",
          "type": "address"
        },
        {
          "indexed": false,
          "internalType": "uint256[]",
          "name": "tokenIds",
          "type": "uint256[]"
        },
        {
          "indexed": false,
          "internalType": "uint256",
          "name": "amount",
          "type": "uint256"
        }
      ],
      "name": "ClaimEarningsMultiple",
      "type": "event"
    },
    {
      "anonymous": false,
      "inputs": [
        {
          "indexed": false,
          "internalType": "uint8",
          "name": "version",
          "type": "uint8"
        }
      ],
      "name": "Initialized",
      "type": "event"
    },
    {
      "anonymous": false,
      "inputs": [
        {
          "indexed": false,
          "internalType": "string",
          "name": "name",
          "type": "string"
        },
        {
          "indexed": false,
          "internalType": "address",
          "name": "acceptedToken",
          "type": "address"
        },
        {
          "indexed": false,
          "internalType": "uint256",
          "name": "svcStartDate",
          "type": "uint256"
        },
        {
          "indexed": false,
          "internalType": "uint64",
          "name": "usefulLife",
          "type": "uint64"
        },
        {
          "indexed": false,
          "internalType": "uint256",
          "name": "price",
          "type": "uint256"
        }
      ],
      "name": "NewTRN",
      "type": "event"
    },
    {
      "anonymous": false,
      "inputs": [
        {
          "indexed": true,
          "internalType": "address",
          "name": "previousOwner",
          "type": "address"
        },
        {
          "indexed": true,
          "internalType": "address",
          "name": "newOwner",
          "type": "address"
        }
      ],
      "name": "OwnershipTransferred",
      "type": "event"
    },
    {
      "anonymous": false,
      "inputs": [
        {
          "indexed": false,
          "internalType": "address",
          "name": "account",
          "type": "address"
        }
      ],
      "name": "Paused",
      "type": "event"
    },
    {
      "anonymous": false,
      "inputs": [
        {
          "indexed": true,
          "internalType": "address",
          "name": "renter",
          "type": "address"
        },
        {
          "indexed": false,
          "internalType": "uint256",
          "name": "tokenId",
          "type": "uint256"
        },
        {
          "indexed": false,
          "internalType": "uint256",
          "name": "amount",
          "type": "uint256"
        },
        {
          "indexed": false,
          "internalType": "string",
          "name": "reportUri",
          "type": "string"
        }
      ],
      "name": "PayOutEarnings",
      "type": "event"
    },
    {
      "anonymous": false,
      "inputs": [
        {
          "indexed": true,
          "internalType": "address",
          "name": "renter",
          "type": "address"
        },
        {
          "indexed": false,
          "internalType": "uint256",
          "name": "amount",
          "type": "uint256"
        },
        {
          "indexed": false,
          "internalType": "string",
          "name": "reportUri",
          "type": "string"
        }
      ],
      "name": "PayOutEarningsAllRented",
      "type": "event"
    },
    {
      "anonymous": false,
      "inputs": [
        {
          "indexed": true,
          "internalType": "address",
          "name": "renter",
          "type": "address"
        },
        {
          "indexed": false,
          "internalType": "uint256[]",
          "name": "tokenIds",
          "type": "uint256[]"
        },
        {
          "indexed": false,
          "internalType": "uint256",
          "name": "amount",
          "type": "uint256"
        },
        {
          "indexed": false,
          "internalType": "string",
          "name": "reportUri",
          "type": "string"
        }
      ],
      "name": "PayOutEarningsMultiple",
      "type": "event"
    },
    {
      "anonymous": false,
      "inputs": [
        {
          "indexed": true,
          "internalType": "address",
          "name": "from",
          "type": "address"
        },
        {
          "indexed": true,
          "internalType": "address",
          "name": "to",
          "type": "address"
        },
        {
          "indexed": true,
          "internalType": "uint256",
          "name": "tokenId",
          "type": "uint256"
        }
      ],
      "name": "Transfer",
      "type": "event"
    },
    {
      "anonymous": false,
      "inputs": [
        {
          "indexed": false,
          "internalType": "address",
          "name": "account",
          "type": "address"
        }
      ],
      "name": "Unpaused",
      "type": "event"
    },
    {
      "anonymous": false,
      "inputs": [
        {
          "indexed": true,
          "internalType": "uint256",
          "name": "tokenId",
          "type": "uint256"
        },
        {
          "indexed": true,
          "internalType": "address",
          "name": "user",
          "type": "address"
        },
        {
          "indexed": false,
          "internalType": "uint64",
          "name": "expires",
          "type": "uint64"
        }
      ],
      "name": "UpdateUser",
      "type": "event"
    },
    {
      "anonymous": false,
      "inputs": [
        {
          "indexed": true,
          "internalType": "address",
          "name": "user",
          "type": "address"
        },
        {
          "indexed": false,
          "internalType": "uint64",
          "name": "expires",
          "type": "uint64"
        },
        {
          "indexed": false,
          "internalType": "uint256[]",
          "name": "tokenIds",
          "type": "uint256[]"
        }
      ],
      "name": "UpdateUsers",
      "type": "event"
    },
    {
      "inputs": [
        {
          "internalType": "address",
          "name": "to",
          "type": "address"
        },
        {
          "internalType": "uint256",
          "name": "tokenId",
          "type": "uint256"
        }
      ],
      "name": "approve",
      "outputs": [],
      "stateMutability": "nonpayable",
      "type": "function"
    },
    {
      "inputs": [
        {
          "internalType": "address",
          "name": "owner",
          "type": "address"
        }
      ],
      "name": "balanceOf",
      "outputs": [
        {
          "internalType": "uint256",
          "name": "",
          "type": "uint256"
        }
      ],
      "stateMutability": "view",
      "type": "function"
    },
    {
      "inputs": [
        {
          "internalType": "uint256",
          "name": "tokenId",
          "type": "uint256"
        }
      ],
      "name": "claimEarnings",
      "outputs": [],
      "stateMutability": "nonpayable",
      "type": "function"
    },
    {
      "inputs": [],
      "name": "claimEarningsAllRented",
      "outputs": [
        {
          "internalType": "uint256",
          "name": "",
          "type": "uint256"
        }
      ],
      "stateMutability": "nonpayable",
      "type": "function"
    },
    {
      "inputs": [],
      "name": "countOfRented",
      "outputs": [
        {
          "internalType": "uint256",
          "name": "",
          "type": "uint256"
        }
      ],
      "stateMutability": "view",
      "type": "function"
    },
    {
      "inputs": [],
      "name": "getAcceptedToken",
      "outputs": [
        {
          "internalType": "address",
          "name": "",
          "type": "address"
        }
      ],
      "stateMutability": "view",
      "type": "function"
    },
    {
      "inputs": [
        {
          "internalType": "uint256",
          "name": "tokenId",
          "type": "uint256"
        }
      ],
      "name": "getApproved",
      "outputs": [
        {
          "internalType": "address",
          "name": "",
          "type": "address"
        }
      ],
      "stateMutability": "view",
      "type": "function"
    },
    {
      "inputs": [],
      "name": "getBookValue",
      "outputs": [
        {
          "internalType": "uint256",
          "name": "",
          "type": "uint256"
        }
      ],
      "stateMutability": "view",
      "type": "function"
    },
    {
      "inputs": [],
      "name": "getFeeRate",
      "outputs": [
        {
          "internalType": "uint256",
          "name": "",
          "type": "uint256"
        }
      ],
      "stateMutability": "view",
      "type": "function"
    },
    {
      "inputs": [
        {
          "internalType": "address",
          "name": "renter",
          "type": "address"
        }
      ],
      "name": "getRentedList",
      "outputs": [
        {
          "internalType": "uint256[]",
          "name": "",
          "type": "uint256[]"
        }
      ],
      "stateMutability": "view",
      "type": "function"
    },
    {
      "inputs": [
        {
          "internalType": "string",
          "name": "_name",
          "type": "string"
        },
        {
          "internalType": "address",
          "name": "acceptedToken",
          "type": "address"
        },
        {
          "internalType": "uint256",
          "name": "svcStartDate",
          "type": "uint256"
        },
        {
          "internalType": "uint64",
          "name": "usefulLife",
          "type": "uint64"
        },
        {
          "internalType": "uint256",
          "name": "price",
          "type": "uint256"
        }
      ],
      "name": "initialize",
      "outputs": [],
      "stateMutability": "nonpayable",
      "type": "function"
    },
    {
      "inputs": [
        {
          "internalType": "address",
          "name": "owner",
          "type": "address"
        },
        {
          "internalType": "address",
          "name": "operator",
          "type": "address"
        }
      ],
      "name": "isApprovedForAll",
      "outputs": [
        {
          "internalType": "bool",
          "name": "",
          "type": "bool"
        }
      ],
      "stateMutability": "view",
      "type": "function"
    },
    {
      "inputs": [],
      "name": "name",
      "outputs": [
        {
          "internalType": "string",
          "name": "",
          "type": "string"
        }
      ],
      "stateMutability": "view",
      "type": "function"
    },
    {
      "inputs": [],
      "name": "owner",
      "outputs": [
        {
          "internalType": "address",
          "name": "",
          "type": "address"
        }
      ],
      "stateMutability": "view",
      "type": "function"
    },
    {
      "inputs": [
        {
          "internalType": "uint256",
          "name": "tokenId",
          "type": "uint256"
        }
      ],
      "name": "ownerOf",
      "outputs": [
        {
          "internalType": "address",
          "name": "",
          "type": "address"
        }
      ],
      "stateMutability": "view",
      "type": "function"
    },
    {
      "inputs": [],
      "name": "pause",
      "outputs": [],
      "stateMutability": "nonpayable",
      "type": "function"
    },
    {
      "inputs": [],
      "name": "paused",
      "outputs": [
        {
          "internalType": "bool",
          "name": "",
          "type": "bool"
        }
      ],
      "stateMutability": "view",
      "type": "function"
    },
    {
      "inputs": [
        {
          "internalType": "uint256",
          "name": "tokenId",
          "type": "uint256"
        },
        {
          "internalType": "uint256",
          "name": "amount",
          "type": "uint256"
        },
        {
          "internalType": "string",
          "name": "reportUri",
          "type": "string"
        }
      ],
      "name": "payOutEarnings",
      "outputs": [],
      "stateMutability": "nonpayable",
      "type": "function"
    },
    {
      "inputs": [
        {
          "internalType": "uint256",
          "name": "amount",
          "type": "uint256"
        },
        {
          "internalType": "string",
          "name": "reportUri",
          "type": "string"
        }
      ],
      "name": "payOutEarningsAllRented",
      "outputs": [],
      "stateMutability": "nonpayable",
      "type": "function"
    },
    {
      "inputs": [
        {
          "internalType": "uint256",
          "name": "amount",
          "type": "uint256"
        },
        {
          "internalType": "uint256[]",
          "name": "tokenIds",
          "type": "uint256[]"
        },
        {
          "internalType": "string",
          "name": "reportUri",
          "type": "string"
        }
      ],
      "name": "payOutEarningsMultiple",
      "outputs": [],
      "stateMutability": "nonpayable",
      "type": "function"
    },
    {
      "inputs": [],
      "name": "renounceOwnership",
      "outputs": [],
      "stateMutability": "nonpayable",
      "type": "function"
    },
    {
      "inputs": [
        {
          "internalType": "address",
          "name": "to",
          "type": "address"
        },
        {
          "internalType": "string",
          "name": "uri",
          "type": "string"
        }
      ],
      "name": "safeMint",
      "outputs": [],
      "stateMutability": "nonpayable",
      "type": "function"
    },
    {
      "inputs": [
        {
          "internalType": "address",
          "name": "to",
          "type": "address"
        },
        {
          "internalType": "string",
          "name": "uri",
          "type": "string"
        },
        {
          "internalType": "uint64",
          "name": "number",
          "type": "uint64"
        }
      ],
      "name": "safeMintMultiple",
      "outputs": [],
      "stateMutability": "nonpayable",
      "type": "function"
    },
    {
      "inputs": [
        {
          "internalType": "address",
          "name": "to",
          "type": "address"
        },
        {
          "internalType": "string",
          "name": "uri",
          "type": "string"
        },
        {
          "internalType": "uint64",
          "name": "number",
          "type": "uint64"
        },
        {
          "internalType": "address",
          "name": "user",
          "type": "address"
        },
        {
          "internalType": "uint64",
          "name": "expires",
          "type": "uint64"
        }
      ],
      "name": "safeMintMultipleAndSetUser",
      "outputs": [],
      "stateMutability": "nonpayable",
      "type": "function"
    },
    {
      "inputs": [
        {
          "internalType": "address",
          "name": "from",
          "type": "address"
        },
        {
          "internalType": "address",
          "name": "to",
          "type": "address"
        },
        {
          "internalType": "uint256",
          "name": "tokenId",
          "type": "uint256"
        }
      ],
      "name": "safeTransferFrom",
      "outputs": [],
      "stateMutability": "nonpayable",
      "type": "function"
    },
    {
      "inputs": [
        {
          "internalType": "address",
          "name": "from",
          "type": "address"
        },
        {
          "internalType": "address",
          "name": "to",
          "type": "address"
        },
        {
          "internalType": "uint256",
          "name": "tokenId",
          "type": "uint256"
        },
        {
          "internalType": "bytes",
          "name": "data",
          "type": "bytes"
        }
      ],
      "name": "safeTransferFrom",
      "outputs": [],
      "stateMutability": "nonpayable",
      "type": "function"
    },
    {
      "inputs": [
        {
          "internalType": "address",
          "name": "operator",
          "type": "address"
        },
        {
          "internalType": "bool",
          "name": "approved",
          "type": "bool"
        }
      ],
      "name": "setApprovalForAll",
      "outputs": [],
      "stateMutability": "nonpayable",
      "type": "function"
    },
    {
      "inputs": [
        {
          "internalType": "uint256",
          "name": "rate",
          "type": "uint256"
        }
      ],
      "name": "setFeeRate",
      "outputs": [],
      "stateMutability": "nonpayable",
      "type": "function"
    },
    {
      "inputs": [
        {
          "internalType": "uint256",
          "name": "tokenId",
          "type": "uint256"
        },
        {
          "internalType": "address",
          "name": "user",
          "type": "address"
        },
        {
          "internalType": "uint64",
          "name": "expires",
          "type": "uint64"
        }
      ],
      "name": "setUser",
      "outputs": [],
      "stateMutability": "nonpayable",
      "type": "function"
    },
    {
      "inputs": [
        {
          "internalType": "address",
          "name": "user",
          "type": "address"
        },
        {
          "internalType": "uint64",
          "name": "expires",
          "type": "uint64"
        },
        {
          "internalType": "uint256[]",
          "name": "tokenIds",
          "type": "uint256[]"
        }
      ],
      "name": "setUserMultiple",
      "outputs": [],
      "stateMutability": "nonpayable",
      "type": "function"
    },
    {
      "inputs": [
        {
          "internalType": "bytes4",
          "name": "interfaceId",
          "type": "bytes4"
        }
      ],
      "name": "supportsInterface",
      "outputs": [
        {
          "internalType": "bool",
          "name": "",
          "type": "bool"
        }
      ],
      "stateMutability": "view",
      "type": "function"
    },
    {
      "inputs": [],
      "name": "symbol",
      "outputs": [
        {
          "internalType": "string",
          "name": "",
          "type": "string"
        }
      ],
      "stateMutability": "view",
      "type": "function"
    },
    {
      "inputs": [
        {
          "internalType": "uint256",
          "name": "tokenId",
          "type": "uint256"
        }
      ],
      "name": "tokenURI",
      "outputs": [
        {
          "internalType": "string",
          "name": "",
          "type": "string"
        }
      ],
      "stateMutability": "view",
      "type": "function"
    },
    {
      "inputs": [],
      "name": "totalDistributedEarnings",
      "outputs": [
        {
          "internalType": "uint256",
          "name": "",
          "type": "uint256"
        }
      ],
      "stateMutability": "view",
      "type": "function"
    },
    {
      "inputs": [],
      "name": "totalSupply",
      "outputs": [
        {
          "internalType": "uint256",
          "name": "",
          "type": "uint256"
        }
      ],
      "stateMutability": "view",
      "type": "function"
    },
    {
      "inputs": [
        {
          "internalType": "address",
          "name": "from",
          "type": "address"
        },
        {
          "internalType": "address",
          "name": "to",
          "type": "address"
        },
        {
          "internalType": "uint256",
          "name": "tokenId",
          "type": "uint256"
        }
      ],
      "name": "transferFrom",
      "outputs": [],
      "stateMutability": "nonpayable",
      "type": "function"
    },
    {
      "inputs": [
        {
          "internalType": "address",
          "name": "newOwner",
          "type": "address"
        }
      ],
      "name": "transferOwnership",
      "outputs": [],
      "stateMutability": "nonpayable",
      "type": "function"
    },
    {
      "inputs": [
        {
          "internalType": "uint256",
          "name": "tokenId",
          "type": "uint256"
        }
      ],
      "name": "unClaimedEarnings",
      "outputs": [
        {
          "internalType": "uint256",
          "name": "",
          "type": "uint256"
        }
      ],
      "stateMutability": "view",
      "type": "function"
    },
    {
      "inputs": [],
      "name": "unClaimedEarningsAll",
      "outputs": [
        {
          "internalType": "uint256",
          "name": "",
          "type": "uint256"
        }
      ],
      "stateMutability": "view",
      "type": "function"
    },
    {
      "inputs": [],
      "name": "unpause",
      "outputs": [],
      "stateMutability": "nonpayable",
      "type": "function"
    },
    {
      "inputs": [
        {
          "internalType": "uint256",
          "name": "tokenId",
          "type": "uint256"
        }
      ],
      "name": "userExpires",
      "outputs": [
        {
          "internalType": "uint256",
          "name": "",
          "type": "uint256"
        }
      ],
      "stateMutability": "view",
      "type": "function"
    },
    {
      "inputs": [
        {
          "internalType": "uint256",
          "name": "tokenId",
          "type": "uint256"
        }
      ],
      "name": "userOf",
      "outputs": [
        {
          "internalType": "address",
          "name": "",
          "type": "address"
        }
      ],
      "stateMutability": "view",
      "type": "function"
    }
  ],
  "bytecode": "0x60806040523480156200001157600080fd5b506200001c62000022565b620000e4565b600054610100900460ff16156200008f5760405162461bcd60e51b815260206004820152602760248201527f496e697469616c697a61626c653a20636f6e747261637420697320696e697469604482015266616c697a696e6760c81b606482015260840160405180910390fd5b60005460ff9081161015620000e2576000805460ff191660ff9081179091556040519081527f7f26b83ff96e1f2b6a682f133852f6798a09c465da95921460cefb38474024989060200160405180910390a15b565b613feb80620000f46000396000f3fe608060405234801561001057600080fd5b506004361061025e5760003560e01c806384e5eed011610146578063c87b56dd116100c3578063e985e9c511610087578063e985e9c5146104ef578063ea791b5714610502578063ecefa65014610515578063f2fde38b14610528578063f89174341461053b578063fce5831f1461054357600080fd5b8063c87b56dd14610490578063cf727cfa146104a3578063d204c45e146104b6578063d5e1de1c146104c9578063e030565e146104dc57600080fd5b8063a22cb4651161010a578063a22cb46514610431578063a928934f14610444578063b88d4fde14610457578063be7d33cc1461046a578063c2f1f14a1461047d57600080fd5b806384e5eed0146103ea5780638da5cb5b146103f35780638fc88c481461040457806395d89b4114610417578063a18f4ba01461041f57600080fd5b8063358c71ab116101df5780636352211e116101a35780636352211e1461039857806370a08231146103ab57806370bbbe97146103be578063715018a6146103c7578063731427b6146103cf5780638456cb59146103e257600080fd5b8063358c71ab1461033f5780633f4ba83a1461035f57806342842e0e1461036757806345596e2e1461037a5780635c975abb1461038d57600080fd5b80630db1544a116102265780630db1544a146102f657806318160ddd1461030957806323b872dd1461031157806324b1babf146103245780632e2d651e1461033757600080fd5b806301ffc9a71461026357806306fdde031461028b578063081812fc146102a0578063095ea7b3146102cb5780630a757176146102e0575b600080fd5b610276610271366004613317565b61054b565b60405190151581526020015b60405180910390f35b610293610576565b6040516102829190613384565b6102b36102ae366004613397565b610608565b6040516001600160a01b039091168152602001610282565b6102de6102d93660046133c7565b61062f565b005b6102e8610749565b604051908152602001610282565b6102de6103043660046134ae565b610798565b6102e8610ac4565b6102de61031f366004613580565b610ad5565b6102de610332366004613397565b610b06565b6102e8610e8c565b61035261034d3660046135bc565b6111f7565b6040516102829190613612565b6102de611202565b6102de610375366004613580565b611214565b6102de610388366004613397565b61122f565b60c95460ff16610276565b6102b36103a6366004613397565b61123d565b6102e86103b93660046135bc565b61129d565b610167546102e8565b6102de611323565b6102de6103dd36600461363c565b611335565b6102de611512565b610162546102e8565b60fb546001600160a01b03166102b3565b6102e8610412366004613397565b611522565b61029361156d565b610161546001600160a01b03166102b3565b6102de61043f3660046136b9565b61157c565b6102de6104523660046136f0565b61158b565b6102de61046536600461374d565b6115ea565b6102de6104783660046137c8565b611622565b6102b361048b366004613397565b611877565b61029361049e366004613397565b6118a7565b6102de6104b136600461380d565b6118d7565b6102de6104c436600461389d565b611ae8565b6102e86104d7366004613397565b611b21565b6102de6104ea3660046138ea565b611b5c565b6102766104fd36600461391d565b611cb3565b6102de610510366004613950565b611ce1565b6102de6105233660046139cf565b611dfd565b6102de6105363660046135bc565b611fb4565b6102e861202a565b6102e86120d2565b60006001600160e01b03198216632b424ad760e21b1480610570575061057082612129565b92915050565b606060658054610585906139ff565b80601f01602080910402602001604051908101604052809291908181526020018280546105b1906139ff565b80156105fe5780601f106105d3576101008083540402835291602001916105fe565b820191906000526020600020905b8154815290600101906020018083116105e157829003601f168201915b5050505050905090565b600061061382612179565b506000908152606960205260409020546001600160a01b031690565b600061063a8261123d565b9050806001600160a01b0316836001600160a01b0316036106ac5760405162461bcd60e51b815260206004820152602160248201527f4552433732313a20617070726f76616c20746f2063757272656e74206f776e656044820152603960f91b60648201526084015b60405180910390fd5b336001600160a01b03821614806106c857506106c88133611cb3565b61073a5760405162461bcd60e51b815260206004820152603d60248201527f4552433732313a20617070726f76652063616c6c6572206973206e6f7420746f60448201527f6b656e206f776e6572206f7220617070726f76656420666f7220616c6c00000060648201526084016106a3565b61074483836121c9565b505050565b600080805b61015f5481101561079257600061076482612237565b6001600160a01b031614610780578161077c81613a49565b9250505b8061078a81613a49565b91505061074e565b50919050565b6107a0612288565b60008084116107c15760405162461bcd60e51b81526004016106a390613a62565b60008351116108085760405162461bcd60e51b815260206004820152601360248201527252574e3a20746f6b656e49647349735a65726f60681b60448201526064016106a3565b610161546040516370a0823160e01b81523360048201526001600160a01b0390911690859082906370a0823190602401602060405180830381865afa158015610855573d6000803e3d6000fd5b505050506040513d601f19601f820116820180604052508101906108799190613a8d565b10156108975760405162461bcd60e51b81526004016106a390613aa6565b6040516323b872dd60e01b8152336004820152306024820152604481018690526001600160a01b038216906323b872dd906064016020604051808303816000875af11580156108ea573d6000803e3d6000fd5b505050506040513d601f19601f8201168201806040525081019061090e9190613ad5565b61092a5760405162461bcd60e51b81526004016106a390613af2565b83516109369086613b1f565b915060005b8451811015610a605761096685828151811061095957610959613b41565b60200260200101516122e3565b6109825760405162461bcd60e51b81526004016106a390613b57565b336001600160a01b031661016060008784815181106109a3576109a3613b41565b6020908102919091018101518252810191909152604001600020546001600160a01b031614610a0b5760405162461bcd60e51b8152602060048201526014602482015273292ba71d1039b2b73232b924b9a737ba2ab9b2b960611b60448201526064016106a3565b826101666000878481518110610a2357610a23613b41565b602002602001015181526020019081526020016000206000828254610a489190613b85565b90915550819050610a5881613a49565b91505061093b565b50846101676000828254610a749190613b85565b909155505060405133907f7e99d5dcc623345d8c2e9e60cbc204d80ebc1fe8b7e343f9a6e7332f5f3deebf90610aaf90879089908890613b98565b60405180910390a25050610744600161012d55565b6000610ad061015f5490565b905090565b610adf3382612308565b610afb5760405162461bcd60e51b81526004016106a390613bc3565b610744838383612367565b610b0e612288565b610b17816122e3565b610b335760405162461bcd60e51b81526004016106a390613b57565b33610b3d8261123d565b6001600160a01b031614610b835760405162461bcd60e51b815260206004820152600d60248201526c292ba71d103737ba27bbb732b960991b60448201526064016106a3565b6000818152610166602052604090205480610bd95760405162461bcd60e51b815260206004820152601660248201527552574e3a206e6f4561726e696e6773546f436c61696d60501b60448201526064016106a3565b60006127106101625483610bed9190613c10565b610bf79190613b1f565b90506000610c058284613c27565b610161546040516370a0823160e01b81523060048201529192506001600160a01b031690849082906370a0823190602401602060405180830381865afa158015610c53573d6000803e3d6000fd5b505050506040513d601f19601f82011682018060405250810190610c779190613a8d565b1015610c955760405162461bcd60e51b81526004016106a390613aa6565b60405163a9059cbb60e01b8152336004820152602481018390526001600160a01b0382169063a9059cbb906044016020604051808303816000875af1158015610ce2573d6000803e3d6000fd5b505050506040513d601f19601f82011682018060405250810190610d069190613ad5565b610d4e5760405162461bcd60e51b8152602060048201526019602482015278292ba71d103a3930b739b332b92330b4b632b22a37aab9b2b960391b60448201526064016106a3565b806001600160a01b031663a9059cbb610d6f60fb546001600160a01b031690565b6040516001600160e01b031960e084901b1681526001600160a01b039091166004820152602481018690526044016020604051808303816000875af1158015610dbc573d6000803e3d6000fd5b505050506040513d601f19601f82011682018060405250810190610de09190613ad5565b610e2c5760405162461bcd60e51b815260206004820152601d60248201527f52574e3a207472616e736665724661696c6564546f50726f746f636f6c00000060448201526064016106a3565b60008581526101666020908152604080832092909255815187815290810186905233917fb1a896c7da442357bd9510515e310e230797d0acd2d051a790d5d39af5ee045f910160405180910390a250505050610e89600161012d55565b50565b6000610e96612288565b60008060005b61015f54811015610f0b5733610eb18261123d565b6001600160a01b031603610ef95760008181526101666020526040902054610ed99084613b85565b60008281526101666020526040812055925081610ef581613a49565b9250505b80610f0381613a49565b915050610e9c565b5060008211610f555760405162461bcd60e51b815260206004820152601660248201527552574e3a206e6f4561726e696e6773546f436c61696d60501b60448201526064016106a3565b60006127106101625484610f699190613c10565b610f739190613b1f565b90506000610f818285613c27565b610161546040516370a0823160e01b81523060048201529192506001600160a01b031690859082906370a0823190602401602060405180830381865afa158015610fcf573d6000803e3d6000fd5b505050506040513d601f19601f82011682018060405250810190610ff39190613a8d565b10156110115760405162461bcd60e51b81526004016106a390613aa6565b60405163a9059cbb60e01b8152336004820152602481018390526001600160a01b0382169063a9059cbb906044016020604051808303816000875af115801561105e573d6000803e3d6000fd5b505050506040513d601f19601f820116820180604052508101906110829190613ad5565b6110ca5760405162461bcd60e51b8152602060048201526019602482015278292ba71d103a3930b739b332b92330b4b632b22a37aab9b2b960391b60448201526064016106a3565b806001600160a01b031663a9059cbb6110eb60fb546001600160a01b031690565b6040516001600160e01b031960e084901b1681526001600160a01b039091166004820152602481018690526044016020604051808303816000875af1158015611138573d6000803e3d6000fd5b505050506040513d601f19601f8201168201806040525081019061115c9190613ad5565b6111a85760405162461bcd60e51b815260206004820152601d60248201527f52574e3a207472616e736665724661696c6564546f50726f746f636f6c00000060448201526064016106a3565b604080518581526020810187905233917f2aab050d6a034d1257b8706bd89cce5b637b0d8ff6668919d10f1fc1cbeb9942910160405180910390a25093505050506111f4600161012d55565b90565b6060610570826124d8565b61120a6125ab565b611212612605565b565b610744838383604051806020016040528060008152506115ea565b6112376125ab565b61016255565b6000818152606760205260408120546001600160a01b0316806105705760405162461bcd60e51b8152602060048201526018602482015277115490cdcc8c4e881a5b9d985b1a59081d1bdad95b88125160421b60448201526064016106a3565b60006001600160a01b0382166113075760405162461bcd60e51b815260206004820152602960248201527f4552433732313a2061646472657373207a65726f206973206e6f7420612076616044820152683634b21037bbb732b960b91b60648201526084016106a3565b506001600160a01b031660009081526068602052604090205490565b61132b6125ab565b6112126000612657565b600054610100900460ff16158080156113555750600054600160ff909116105b8061136f5750303b15801561136f575060005460ff166001145b6113d25760405162461bcd60e51b815260206004820152602e60248201527f496e697469616c697a61626c653a20636f6e747261637420697320616c72656160448201526d191e481a5b9a5d1a585b1a5e995960921b60648201526084016106a3565b6000805460ff1916600117905580156113f5576000805461ff0019166101001790555b60646101625561016180546001600160a01b0319166001600160a01b038716179055610163849055610164805467ffffffffffffffff19166001600160401b0385161790556101658290556040805180820190915260038152622a292760e91b60208201526114659087906126a9565b61146d6126da565b611475612701565b61147d612730565b61148561275f565b7f18e28ddf0b81d96348107094a18af74f541fefd93e093ee4f101ec102fedf98d86868686866040516114bc959493929190613c3a565b60405180910390a1801561150a576000805461ff0019169055604051600181527f7f26b83ff96e1f2b6a682f133852f6798a09c465da95921460cefb38474024989060200160405180910390a15b505050505050565b61151a6125ab565b61121261278e565b600061152d826122e3565b6115495760405162461bcd60e51b81526004016106a390613b57565b5060009081526101606020526040902054600160a01b90046001600160401b031690565b606060668054610585906139ff565b6115873383836127cb565b5050565b6115936125ab565b6000805b826001600160401b03168110156115e35761015f5491506115bd61015f80546001019055565b6115c78583612899565b6115d182856128b3565b806115db81613a49565b915050611597565b5050505050565b6115f43383612308565b6116105760405162461bcd60e51b81526004016106a390613bc3565b61161c84848484612937565b50505050565b61162a612288565b6000821161164a5760405162461bcd60e51b81526004016106a390613a62565b611653836122e3565b61166f5760405162461bcd60e51b81526004016106a390613b57565b600083815261016060205260409020546001600160a01b031633146116cd5760405162461bcd60e51b8152602060048201526014602482015273292ba71d1039b2b73232b924b9a737ba2ab9b2b960611b60448201526064016106a3565b610161546040516370a0823160e01b81523360048201526001600160a01b0390911690839082906370a0823190602401602060405180830381865afa15801561171a573d6000803e3d6000fd5b505050506040513d601f19601f8201168201806040525081019061173e9190613a8d565b101561175c5760405162461bcd60e51b81526004016106a390613aa6565b6040516323b872dd60e01b8152336004820152306024820152604481018490526001600160a01b038216906323b872dd906064016020604051808303816000875af11580156117af573d6000803e3d6000fd5b505050506040513d601f19601f820116820180604052508101906117d39190613ad5565b6117ef5760405162461bcd60e51b81526004016106a390613af2565b600084815261016660205260408120805485929061180e908490613b85565b925050819055508261016760008282546118289190613b85565b909155505060405133907fc62b719aa3418a4ea16f22271b8911ee606cdd45d8c8398dd3257788d11f7c3b9061186390879087908790613c83565b60405180910390a250610744600161012d55565b6000611882826122e3565b61189e5760405162461bcd60e51b81526004016106a390613b57565b61057082612237565b60606118b2826122e3565b6118ce5760405162461bcd60e51b81526004016106a390613b57565b6105708261296a565b60005b81811015611a9c576119038383838181106118f7576118f7613b41565b905060200201356122e3565b61191f5760405162461bcd60e51b81526004016106a390613b57565b6119413384848481811061193557611935613b41565b90506020020135612308565b6119835760405162461bcd60e51b8152602060048201526013602482015272292ba71d103737ba27bbb732b927b920b8383960691b60448201526064016106a3565b60006119a684848481811061199a5761199a613b41565b90506020020135612237565b90506001600160a01b038116156119f4576001600160a01b0381166000908152610168602052604090206119f2908585858181106119e6576119e6613b41565b90506020020135612a72565b505b60006101606000868686818110611a0d57611a0d613b41565b60209081029290920135835250818101929092526040908101600090812080546001600160a01b038c166001600160e01b03199091168117600160a01b6001600160401b038d1602178255825261016890935220909150611a8690868686818110611a7a57611a7a613b41565b90506020020135612a85565b5050508080611a9490613a49565b9150506118da565b50836001600160a01b03167fdcf77e0e938282128beeea6a61d2bc91e62320864279f2238d2e030f703de672848484604051611ada93929190613cab565b60405180910390a250505050565b611af06125ab565b6000611afc61015f5490565b9050611b0d61015f80546001019055565b611b178382612899565b61074481836128b3565b6000611b2c826122e3565b611b485760405162461bcd60e51b81526004016106a390613b57565b506000908152610166602052604090205490565b611b65836122e3565b611b815760405162461bcd60e51b81526004016106a390613b57565b611b8b3384612308565b611bcd5760405162461bcd60e51b8152602060048201526013602482015272292ba71d103737ba27bbb732b927b920b8383960691b60448201526064016106a3565b6000611bd884612237565b90506001600160a01b03811615611c0e576001600160a01b038116600090815261016860205260409020611c0c9085612a72565b505b60008481526101606020908152604080832080546001600160a01b0388166001600160e01b03199091168117600160a01b6001600160401b038916021782558452610168909252909120611c629086612a85565b506040516001600160401b03841681526001600160a01b0385169086907f4e06b4e7000e659094299b3533b47b6aa8ad048e95e872d23d1f4ee55af89cfe9060200160405180910390a35050505050565b6001600160a01b039182166000908152606a6020908152604080832093909416825291909152205460ff1690565b611ce96125ab565b6000805b846001600160401b0316811015611df45761015f549150611d1361015f80546001019055565b611d1d8783612899565b611d2782876128b3565b6040805180820182526001600160a01b038087168083526001600160401b03808816602080860191825260008981526101608252878120965187549351909416600160a01b026001600160e01b0319909316939095169290921717909355815261016890915220611d989083612a85565b506040516001600160401b03841681526001600160a01b0385169083907f4e06b4e7000e659094299b3533b47b6aa8ad048e95e872d23d1f4ee55af89cfe9060200160405180910390a380611dec81613a49565b915050611ced565b50505050505050565b611e05612288565b610161546001600160a01b031682611e2f5760405162461bcd60e51b81526004016106a390613a62565b6040516370a0823160e01b815233600482015283906001600160a01b038316906370a0823190602401602060405180830381865afa158015611e75573d6000803e3d6000fd5b505050506040513d601f19601f82011682018060405250810190611e999190613a8d565b1015611eb75760405162461bcd60e51b81526004016106a390613aa6565b6040516323b872dd60e01b8152336004820152306024820152604481018490526001600160a01b038216906323b872dd906064016020604051808303816000875af1158015611f0a573d6000803e3d6000fd5b505050506040513d601f19601f82011682018060405250810190611f2e9190613ad5565b611f4a5760405162461bcd60e51b81526004016106a390613af2565b611f543384612a91565b826101676000828254611f679190613b85565b909155505060405133907feba431e0c18f57c742d0e1456d7fbd9faf23c7e197d70098e2db712aed47237a90611fa09086908690613cf5565b60405180910390a250611587600161012d55565b611fbc6125ab565b6001600160a01b0381166120215760405162461bcd60e51b815260206004820152602660248201527f4f776e61626c653a206e6577206f776e657220697320746865207a65726f206160448201526564647265737360d01b60648201526084016106a3565b610e8981612657565b610165546101645460009162015180918390612051906001600160401b031661016d613d0e565b612064906001600160401b031683613b1f565b905060006120728442613b1f565b6101645461208b906001600160401b031661016d613d0e565b6001600160401b031685610163600001546120a69190613b1f565b6120b09190613b85565b6120ba9190613c27565b905060006120c88284613c10565b9695505050505050565b600080805b61015f5481101561079257336120ec8261123d565b6001600160a01b03160361211757600081815261016660205260409020546121149083613b85565b91505b8061212181613a49565b9150506120d7565b60006001600160e01b031982166380ac58cd60e01b148061215a57506001600160e01b03198216635b5e139f60e01b145b8061057057506301ffc9a760e01b6001600160e01b0319831614610570565b612182816122e3565b610e895760405162461bcd60e51b8152602060048201526018602482015277115490cdcc8c4e881a5b9d985b1a59081d1bdad95b88125160421b60448201526064016106a3565b600081815260696020526040902080546001600160a01b0319166001600160a01b03841690811790915581906121fe8261123d565b6001600160a01b03167f8c5be1e5ebec7d5bd14f71427d1e84f3dd0314c0f7b2291e5b200ac8c7c3b92560405160405180910390a45050565b6000818152610160602052604081205442600160a01b9091046001600160401b03161061227b5750600090815261016060205260409020546001600160a01b031690565b506000919050565b919050565b600261012d54036122db5760405162461bcd60e51b815260206004820152601f60248201527f5265656e7472616e637947756172643a207265656e7472616e742063616c6c0060448201526064016106a3565b600261012d55565b6000908152606760205260409020546001600160a01b0316151590565b600161012d55565b6000806123148361123d565b9050806001600160a01b0316846001600160a01b0316148061233b575061233b8185611cb3565b8061235f5750836001600160a01b031661235484610608565b6001600160a01b0316145b949350505050565b826001600160a01b031661237a8261123d565b6001600160a01b0316146123a05760405162461bcd60e51b81526004016106a390613d39565b6001600160a01b0382166124025760405162461bcd60e51b8152602060048201526024808201527f4552433732313a207472616e7366657220746f20746865207a65726f206164646044820152637265737360e01b60648201526084016106a3565b61240f8383836001612b8d565b826001600160a01b03166124228261123d565b6001600160a01b0316146124485760405162461bcd60e51b81526004016106a390613d39565b600081815260696020908152604080832080546001600160a01b03199081169091556001600160a01b0387811680865260688552838620805460001901905590871680865283862080546001019055868652606790945282852080549092168417909155905184937fddf252ad1be2c89b69c2b068fc378daa952ba7f163c4a11628f55a4df523b3ef91a4505050565b6001600160a01b038116600090815261016860205260408120606091906124fe90612b9a565b90506000816001600160401b0381111561251a5761251a6133f1565b604051908082528060200260200182016040528015612543578160200160208202803683370190505b50905060005b828110156125a3576001600160a01b0385166000908152610168602052604090206125749082612ba4565b82828151811061258657612586613b41565b60209081029190910101528061259b81613a49565b915050612549565b509392505050565b60fb546001600160a01b031633146112125760405162461bcd60e51b815260206004820181905260248201527f4f776e61626c653a2063616c6c6572206973206e6f7420746865206f776e657260448201526064016106a3565b61260d612bb0565b60c9805460ff191690557f5db9ee0a495bf2e6ff9c91a7834c1ba4fdd244a5e8aa4e537bd38aeae4b073aa335b6040516001600160a01b03909116815260200160405180910390a1565b60fb80546001600160a01b038381166001600160a01b0319831681179093556040519116919082907f8be0079c531659141344cd1fd0a4f28419497f9722a3daafe3b4186f6b6457e090600090a35050565b600054610100900460ff166126d05760405162461bcd60e51b81526004016106a390613d7e565b6115878282612bf9565b600054610100900460ff166112125760405162461bcd60e51b81526004016106a390613d7e565b600054610100900460ff166127285760405162461bcd60e51b81526004016106a390613d7e565b611212612c39565b600054610100900460ff166127575760405162461bcd60e51b81526004016106a390613d7e565b611212612c6c565b600054610100900460ff166127865760405162461bcd60e51b81526004016106a390613d7e565b611212612c9c565b612796612cc3565b60c9805460ff191660011790557f62e78cea01bee320cd4e420270b5ea74000d11b0c9f74754ebdbfc544b05a25861263a3390565b816001600160a01b0316836001600160a01b03160361282c5760405162461bcd60e51b815260206004820152601960248201527f4552433732313a20617070726f766520746f2063616c6c65720000000000000060448201526064016106a3565b6001600160a01b038381166000818152606a6020908152604080832094871680845294825291829020805460ff191686151590811790915591519182527f17307eab39ab6107e8899845ad3d59bd9653f200f220920489ca2b5937696c31910160405180910390a3505050565b611587828260405180602001604052806000815250612d09565b6128bc826122e3565b61291f5760405162461bcd60e51b815260206004820152602e60248201527f45524337323155524953746f726167653a2055524920736574206f66206e6f6e60448201526d32bc34b9ba32b73a103a37b5b2b760911b60648201526084016106a3565b60008281526097602052604090206107448282613e0f565b612942848484612367565b61294e84848484612d3c565b61161c5760405162461bcd60e51b81526004016106a390613ece565b606061297582612179565b6000828152609760205260408120805461298e906139ff565b80601f01602080910402602001604051908101604052809291908181526020018280546129ba906139ff565b8015612a075780601f106129dc57610100808354040283529160200191612a07565b820191906000526020600020905b8154815290600101906020018083116129ea57829003601f168201915b505050505090506000612a2560408051602081019091526000815290565b90508051600003612a37575092915050565b815115612a69578082604051602001612a51929190613f20565b60405160208183030381529060405292505050919050565b61235f84612e3d565b6000612a7e8383612eb0565b9392505050565b6000612a7e8383612fa3565b6001600160a01b03821660009081526101686020526040812081908190612ab790612b9a565b905060008111612b155760405162461bcd60e51b8152602060048201526024808201527f52656e7420636f756e74206d7573742062652067726561746572207468616e206044820152637a65726f60e01b60648201526084016106a3565b612b1f8185613b1f565b925060005b8181101561150a576001600160a01b038616600090815261016860205260409020612b4f9082612ba4565b92508361016660008581526020019081526020016000206000828254612b759190613b85565b90915550819050612b8581613a49565b915050612b24565b612b95612cc3565b61161c565b6000610570825490565b6000612a7e8383612ff2565b60c95460ff166112125760405162461bcd60e51b815260206004820152601460248201527314185d5cd8589b194e881b9bdd081c185d5cd95960621b60448201526064016106a3565b600054610100900460ff16612c205760405162461bcd60e51b81526004016106a390613d7e565b6065612c2c8382613e0f565b5060666107448282613e0f565b600054610100900460ff16612c605760405162461bcd60e51b81526004016106a390613d7e565b60c9805460ff19169055565b600054610100900460ff16612c935760405162461bcd60e51b81526004016106a390613d7e565b61121233612657565b600054610100900460ff166123005760405162461bcd60e51b81526004016106a390613d7e565b60c95460ff16156112125760405162461bcd60e51b815260206004820152601060248201526f14185d5cd8589b194e881c185d5cd95960821b60448201526064016106a3565b612d13838361301c565b612d206000848484612d3c565b6107445760405162461bcd60e51b81526004016106a390613ece565b60006001600160a01b0384163b15612e3257604051630a85bd0160e11b81526001600160a01b0385169063150b7a0290612d80903390899088908890600401613f4f565b6020604051808303816000875af1925050508015612dbb575060408051601f3d908101601f19168201909252612db891810190613f82565b60015b612e18573d808015612de9576040519150601f19603f3d011682016040523d82523d6000602084013e612dee565b606091505b508051600003612e105760405162461bcd60e51b81526004016106a390613ece565b805181602001fd5b6001600160e01b031916630a85bd0160e11b14905061235f565b506001949350505050565b6060612e4882612179565b6000612e5f60408051602081019091526000815290565b90506000815111612e7f5760405180602001604052806000815250612a7e565b80612e8984613197565b604051602001612e9a929190613f20565b6040516020818303038152906040529392505050565b60008181526001830160205260408120548015612f99576000612ed4600183613c27565b8554909150600090612ee890600190613c27565b9050818114612f4d576000866000018281548110612f0857612f08613b41565b9060005260206000200154905080876000018481548110612f2b57612f2b613b41565b6000918252602080832090910192909255918252600188019052604090208390555b8554869080612f5e57612f5e613f9f565b600190038181906000526020600020016000905590558560010160008681526020019081526020016000206000905560019350505050610570565b6000915050610570565b6000818152600183016020526040812054612fea57508154600181810184556000848152602080822090930184905584548482528286019093526040902091909155610570565b506000610570565b600082600001828154811061300957613009613b41565b9060005260206000200154905092915050565b6001600160a01b0382166130725760405162461bcd60e51b815260206004820181905260248201527f4552433732313a206d696e7420746f20746865207a65726f206164647265737360448201526064016106a3565b61307b816122e3565b156130c85760405162461bcd60e51b815260206004820152601c60248201527f4552433732313a20746f6b656e20616c7265616479206d696e7465640000000060448201526064016106a3565b6130d6600083836001612b8d565b6130df816122e3565b1561312c5760405162461bcd60e51b815260206004820152601c60248201527f4552433732313a20746f6b656e20616c7265616479206d696e7465640000000060448201526064016106a3565b6001600160a01b038216600081815260686020908152604080832080546001019055848352606790915280822080546001600160a01b0319168417905551839291907fddf252ad1be2c89b69c2b068fc378daa952ba7f163c4a11628f55a4df523b3ef908290a45050565b606060006131a483613229565b60010190506000816001600160401b038111156131c3576131c36133f1565b6040519080825280601f01601f1916602001820160405280156131ed576020820181803683370190505b5090508181016020015b600019016f181899199a1a9b1b9c1cb0b131b232b360811b600a86061a8153600a85049450846131f757509392505050565b60008072184f03e93ff9f4daa797ed6e38ed64bf6a1f0160401b83106132685772184f03e93ff9f4daa797ed6e38ed64bf6a1f0160401b830492506040015b6d04ee2d6d415b85acef81000000008310613294576d04ee2d6d415b85acef8100000000830492506020015b662386f26fc1000083106132b257662386f26fc10000830492506010015b6305f5e10083106132ca576305f5e100830492506008015b61271083106132de57612710830492506004015b606483106132f0576064830492506002015b600a83106105705760010192915050565b6001600160e01b031981168114610e8957600080fd5b60006020828403121561332957600080fd5b8135612a7e81613301565b60005b8381101561334f578181015183820152602001613337565b50506000910152565b60008151808452613370816020860160208601613334565b601f01601f19169290920160200192915050565b602081526000612a7e6020830184613358565b6000602082840312156133a957600080fd5b5035919050565b80356001600160a01b038116811461228357600080fd5b600080604083850312156133da57600080fd5b6133e3836133b0565b946020939093013593505050565b634e487b7160e01b600052604160045260246000fd5b604051601f8201601f191681016001600160401b038111828210171561342f5761342f6133f1565b604052919050565b60006001600160401b03831115613450576134506133f1565b613463601f8401601f1916602001613407565b905082815283838301111561347757600080fd5b828260208301376000602084830101529392505050565b600082601f83011261349f57600080fd5b612a7e83833560208501613437565b6000806000606084860312156134c357600080fd5b833592506020808501356001600160401b03808211156134e257600080fd5b818701915087601f8301126134f657600080fd5b813581811115613508576135086133f1565b8060051b613517858201613407565b918252838101850191858101908b84111561353157600080fd5b948601945b8386101561354f57853582529486019490860190613536565b9750505050604087013592508083111561356857600080fd5b50506135768682870161348e565b9150509250925092565b60008060006060848603121561359557600080fd5b61359e846133b0565b92506135ac602085016133b0565b9150604084013590509250925092565b6000602082840312156135ce57600080fd5b612a7e826133b0565b600081518084526020808501945080840160005b83811015613607578151875295820195908201906001016135eb565b509495945050505050565b602081526000612a7e60208301846135d7565b80356001600160401b038116811461228357600080fd5b600080600080600060a0868803121561365457600080fd5b85356001600160401b0381111561366a57600080fd5b6136768882890161348e565b955050613685602087016133b0565b93506040860135925061369a60608701613625565b949793965091946080013592915050565b8015158114610e8957600080fd5b600080604083850312156136cc57600080fd5b6136d5836133b0565b915060208301356136e5816136ab565b809150509250929050565b60008060006060848603121561370557600080fd5b61370e846133b0565b925060208401356001600160401b0381111561372957600080fd5b6137358682870161348e565b92505061374460408501613625565b90509250925092565b6000806000806080858703121561376357600080fd5b61376c856133b0565b935061377a602086016133b0565b92506040850135915060608501356001600160401b0381111561379c57600080fd5b8501601f810187136137ad57600080fd5b6137bc87823560208401613437565b91505092959194509250565b6000806000606084860312156137dd57600080fd5b833592506020840135915060408401356001600160401b0381111561380157600080fd5b6135768682870161348e565b6000806000806060858703121561382357600080fd5b61382c856133b0565b935061383a60208601613625565b925060408501356001600160401b038082111561385657600080fd5b818701915087601f83011261386a57600080fd5b81358181111561387957600080fd5b8860208260051b850101111561388e57600080fd5b95989497505060200194505050565b600080604083850312156138b057600080fd5b6138b9836133b0565b915060208301356001600160401b038111156138d457600080fd5b6138e08582860161348e565b9150509250929050565b6000806000606084860312156138ff57600080fd5b8335925061390f602085016133b0565b915061374460408501613625565b6000806040838503121561393057600080fd5b613939836133b0565b9150613947602084016133b0565b90509250929050565b600080600080600060a0868803121561396857600080fd5b613971866133b0565b945060208601356001600160401b0381111561398c57600080fd5b6139988882890161348e565b9450506139a760408701613625565b92506139b5606087016133b0565b91506139c360808701613625565b90509295509295909350565b600080604083850312156139e257600080fd5b8235915060208301356001600160401b038111156138d457600080fd5b600181811c90821680613a1357607f821691505b60208210810361079257634e487b7160e01b600052602260045260246000fd5b634e487b7160e01b600052601160045260246000fd5b600060018201613a5b57613a5b613a33565b5060010190565b60208082526011908201527052574e3a20616d6f756e7449735a65726f60781b604082015260600190565b600060208284031215613a9f57600080fd5b5051919050565b60208082526015908201527452574e3a206e6f74456e6f75676842616c616e636560581b604082015260600190565b600060208284031215613ae757600080fd5b8151612a7e816136ab565b6020808252601390820152721495d38e881d1c985b9cd9995c91985a5b1959606a1b604082015260600190565b600082613b3c57634e487b7160e01b600052601260045260246000fd5b500490565b634e487b7160e01b600052603260045260246000fd5b60208082526014908201527352574e3a20746f6b656e446f65734e6f7445786960601b604082015260600190565b8082018082111561057057610570613a33565b606081526000613bab60608301866135d7565b84602084015282810360408401526120c88185613358565b6020808252602d908201527f4552433732313a2063616c6c6572206973206e6f7420746f6b656e206f776e6560408201526c1c881bdc88185c1c1c9bdd9959609a1b606082015260800190565b808202811582820484141761057057610570613a33565b8181038181111561057057610570613a33565b60a081526000613c4d60a0830188613358565b6001600160a01b039690961660208301525060408101939093526001600160401b03919091166060830152608090910152919050565b838152826020820152606060408201526000613ca26060830184613358565b95945050505050565b6001600160401b0384168152604060208201819052810182905260006001600160fb1b03831115613cdb57600080fd5b8260051b8085606085013791909101606001949350505050565b82815260406020820152600061235f6040830184613358565b6001600160401b03818116838216028082169190828114613d3157613d31613a33565b505092915050565b60208082526025908201527f4552433732313a207472616e736665722066726f6d20696e636f72726563742060408201526437bbb732b960d91b606082015260800190565b6020808252602b908201527f496e697469616c697a61626c653a20636f6e7472616374206973206e6f74206960408201526a6e697469616c697a696e6760a81b606082015260800190565b601f82111561074457600081815260208120601f850160051c81016020861015613df05750805b601f850160051c820191505b8181101561150a57828155600101613dfc565b81516001600160401b03811115613e2857613e286133f1565b613e3c81613e3684546139ff565b84613dc9565b602080601f831160018114613e715760008415613e595750858301515b600019600386901b1c1916600185901b17855561150a565b600085815260208120601f198616915b82811015613ea057888601518255948401946001909101908401613e81565b5085821015613ebe5787850151600019600388901b60f8161c191681555b5050505050600190811b01905550565b60208082526032908201527f4552433732313a207472616e7366657220746f206e6f6e20455243373231526560408201527131b2b4bb32b91034b6b83632b6b2b73a32b960711b606082015260800190565b60008351613f32818460208801613334565b835190830190613f46818360208801613334565b01949350505050565b6001600160a01b03858116825284166020820152604081018390526080606082018190526000906120c890830184613358565b600060208284031215613f9457600080fd5b8151612a7e81613301565b634e487b7160e01b600052603160045260246000fdfea264697066735822122039d10a5bccea3d4a2d332298de8bea4977a529cfa6756839509a99448ce30e3a64736f6c63430008110033",
  "linkReferences": {},
  "deployedLinkReferences": {}
}