{
  "_format": "hh-sol-artifact-1",
  "contractName": "TomaasStaking",
  "sourceName": "contracts/TomaasStaking.sol",
  "abi": [
    {
      "inputs": [],
      "stateMutability": "nonpayable",
      "type": "constructor"
    },
    {
      "anonymous": false,
      "inputs": [
        {
          "indexed": true,
          "internalType": "address",
          "name": "tlnAddr",
          "type": "address"
        },
        {
          "indexed": false,
          "internalType": "address",
          "name": "tokenAddr",
          "type": "address"
        },
        {
          "indexed": false,
          "internalType": "uint256",
          "name": "price",
          "type": "uint256"
        },
        {
          "indexed": false,
          "internalType": "uint256[]",
          "name": "rates",
          "type": "uint256[]"
        }
      ],
      "name": "AddTLNAddress",
      "type": "event"
    },
    {
      "anonymous": false,
      "inputs": [
        {
          "indexed": true,
          "internalType": "address",
          "name": "trnAddr",
          "type": "address"
        },
        {
          "indexed": false,
          "internalType": "address",
          "name": "acceptedToken",
          "type": "address"
        },
        {
          "indexed": false,
          "internalType": "uint256",
          "name": "revenueShareRatio",
          "type": "uint256"
        }
      ],
      "name": "AddTRNAddress",
      "type": "event"
    },
    {
      "anonymous": false,
      "inputs": [
        {
          "indexed": true,
          "internalType": "address",
          "name": "tlnAddr",
          "type": "address"
        },
        {
          "indexed": true,
          "internalType": "address",
          "name": "staker",
          "type": "address"
        },
        {
          "indexed": false,
          "internalType": "uint256",
          "name": "amount",
          "type": "uint256"
        }
      ],
      "name": "Claim",
      "type": "event"
    },
    {
      "anonymous": false,
      "inputs": [
        {
          "indexed": true,
          "internalType": "address",
          "name": "trnAddr",
          "type": "address"
        },
        {
          "indexed": false,
          "internalType": "uint256",
          "name": "amount",
          "type": "uint256"
        },
        {
          "indexed": false,
          "internalType": "uint256",
          "name": "countOfTRNs",
          "type": "uint256"
        }
      ],
      "name": "ClaimFromTRNs",
      "type": "event"
    },
    {
      "anonymous": false,
      "inputs": [
        {
          "indexed": false,
          "internalType": "uint8",
          "name": "version",
          "type": "uint8"
        }
      ],
      "name": "Initialized",
      "type": "event"
    },
    {
      "anonymous": false,
      "inputs": [
        {
          "indexed": true,
          "internalType": "address",
          "name": "previousOwner",
          "type": "address"
        },
        {
          "indexed": true,
          "internalType": "address",
          "name": "newOwner",
          "type": "address"
        }
      ],
      "name": "OwnershipTransferred",
      "type": "event"
    },
    {
      "anonymous": false,
      "inputs": [
        {
          "indexed": false,
          "internalType": "address",
          "name": "account",
          "type": "address"
        }
      ],
      "name": "Paused",
      "type": "event"
    },
    {
      "anonymous": false,
      "inputs": [
        {
          "indexed": true,
          "internalType": "address",
          "name": "trnAddr",
          "type": "address"
        },
        {
          "indexed": true,
          "internalType": "address",
          "name": "buyer",
          "type": "address"
        },
        {
          "indexed": false,
          "internalType": "uint256[]",
          "name": "tokenIds",
          "type": "uint256[]"
        }
      ],
      "name": "SellTRNsToPool",
      "type": "event"
    },
    {
      "anonymous": false,
      "inputs": [
        {
          "indexed": true,
          "internalType": "address",
          "name": "tlnAddr",
          "type": "address"
        },
        {
          "indexed": true,
          "internalType": "address",
          "name": "staker",
          "type": "address"
        },
        {
          "indexed": false,
          "internalType": "uint256[]",
          "name": "tokenIds",
          "type": "uint256[]"
        }
      ],
      "name": "StakeTLNs",
      "type": "event"
    },
    {
      "anonymous": false,
      "inputs": [
        {
          "indexed": false,
          "internalType": "address",
          "name": "account",
          "type": "address"
        }
      ],
      "name": "Unpaused",
      "type": "event"
    },
    {
      "anonymous": false,
      "inputs": [
        {
          "indexed": true,
          "internalType": "address",
          "name": "tlnAddr",
          "type": "address"
        },
        {
          "indexed": true,
          "internalType": "address",
          "name": "staker",
          "type": "address"
        },
        {
          "indexed": false,
          "internalType": "uint256",
          "name": "tokenId",
          "type": "uint256"
        }
      ],
      "name": "UnstakeTLNs",
      "type": "event"
    },
    {
      "inputs": [
        {
          "internalType": "address",
          "name": "tlnAddr",
          "type": "address"
        },
        {
          "internalType": "address",
          "name": "tokenAddr",
          "type": "address"
        },
        {
          "internalType": "uint256",
          "name": "price",
          "type": "uint256"
        },
        {
          "internalType": "uint256[]",
          "name": "rates",
          "type": "uint256[]"
        }
      ],
      "name": "addTLNAddress",
      "outputs": [],
      "stateMutability": "nonpayable",
      "type": "function"
    },
    {
      "inputs": [
        {
          "internalType": "address",
          "name": "trnAddr",
          "type": "address"
        },
        {
          "internalType": "address",
          "name": "acceptedToken",
          "type": "address"
        },
        {
          "internalType": "uint256",
          "name": "revenueShareRatio",
          "type": "uint256"
        }
      ],
      "name": "addTRNAddress",
      "outputs": [],
      "stateMutability": "nonpayable",
      "type": "function"
    },
    {
      "inputs": [
        {
          "internalType": "address",
          "name": "trnAddr",
          "type": "address"
        }
      ],
      "name": "buyTRNsFromList",
      "outputs": [],
      "stateMutability": "nonpayable",
      "type": "function"
    },
    {
      "inputs": [
        {
          "internalType": "address",
          "name": "tlnAddr",
          "type": "address"
        }
      ],
      "name": "claim",
      "outputs": [],
      "stateMutability": "nonpayable",
      "type": "function"
    },
    {
      "inputs": [
        {
          "internalType": "address",
          "name": "trnAddr",
          "type": "address"
        }
      ],
      "name": "claimFromTRNs",
      "outputs": [],
      "stateMutability": "nonpayable",
      "type": "function"
    },
    {
      "inputs": [
        {
          "internalType": "address",
          "name": "tlnAddr",
          "type": "address"
        }
      ],
      "name": "getInfoTLN",
      "outputs": [
        {
          "components": [
            {
              "internalType": "contract TomaasLPN",
              "name": "tomaasLPN",
              "type": "address"
            },
            {
              "internalType": "contract IERC20Upgradeable",
              "name": "acceptedToken",
              "type": "address"
            },
            {
              "internalType": "uint256",
              "name": "price",
              "type": "uint256"
            },
            {
              "internalType": "uint256[]",
              "name": "interestRates",
              "type": "uint256[]"
            },
            {
              "internalType": "uint256[]",
              "name": "rewardsPerDay",
              "type": "uint256[]"
            }
          ],
          "internalType": "struct TomaasStaking.InfoTLN",
          "name": "infoTLN",
          "type": "tuple"
        }
      ],
      "stateMutability": "view",
      "type": "function"
    },
    {
      "inputs": [
        {
          "internalType": "address",
          "name": "trnAddr",
          "type": "address"
        }
      ],
      "name": "getInfoTRN",
      "outputs": [
        {
          "components": [
            {
              "internalType": "contract TomaasRWN",
              "name": "tomaasRWN",
              "type": "address"
            },
            {
              "internalType": "contract IERC20Upgradeable",
              "name": "acceptedToken",
              "type": "address"
            },
            {
              "internalType": "uint256",
              "name": "revenueShareRatio",
              "type": "uint256"
            }
          ],
          "internalType": "struct TomaasStaking.InfoTRN",
          "name": "infoTRN",
          "type": "tuple"
        }
      ],
      "stateMutability": "view",
      "type": "function"
    },
    {
      "inputs": [],
      "name": "initialize",
      "outputs": [],
      "stateMutability": "nonpayable",
      "type": "function"
    },
    {
      "inputs": [
        {
          "internalType": "address",
          "name": "trnAddr",
          "type": "address"
        }
      ],
      "name": "lengthOfTRNsToPurchase",
      "outputs": [
        {
          "internalType": "uint256",
          "name": "length",
          "type": "uint256"
        }
      ],
      "stateMutability": "view",
      "type": "function"
    },
    {
      "inputs": [
        {
          "internalType": "address",
          "name": "tlnAddr",
          "type": "address"
        }
      ],
      "name": "listOfTLNs",
      "outputs": [
        {
          "internalType": "uint256[]",
          "name": "tokenIds",
          "type": "uint256[]"
        }
      ],
      "stateMutability": "view",
      "type": "function"
    },
    {
      "inputs": [],
      "name": "listTRNAddress",
      "outputs": [
        {
          "components": [
            {
              "internalType": "contract TomaasRWN",
              "name": "tomaasRWN",
              "type": "address"
            },
            {
              "internalType": "contract IERC20Upgradeable",
              "name": "acceptedToken",
              "type": "address"
            },
            {
              "internalType": "uint256",
              "name": "revenueShareRatio",
              "type": "uint256"
            }
          ],
          "internalType": "struct TomaasStaking.InfoTRN[]",
          "name": "",
          "type": "tuple[]"
        }
      ],
      "stateMutability": "view",
      "type": "function"
    },
    {
      "inputs": [
        {
          "internalType": "address",
          "name": "operator",
          "type": "address"
        },
        {
          "internalType": "address",
          "name": "from",
          "type": "address"
        },
        {
          "internalType": "uint256",
          "name": "tokenId",
          "type": "uint256"
        },
        {
          "internalType": "bytes",
          "name": "data",
          "type": "bytes"
        }
      ],
      "name": "onERC721Received",
      "outputs": [
        {
          "internalType": "bytes4",
          "name": "",
          "type": "bytes4"
        }
      ],
      "stateMutability": "view",
      "type": "function"
    },
    {
      "inputs": [],
      "name": "owner",
      "outputs": [
        {
          "internalType": "address",
          "name": "",
          "type": "address"
        }
      ],
      "stateMutability": "view",
      "type": "function"
    },
    {
      "inputs": [],
      "name": "pause",
      "outputs": [],
      "stateMutability": "nonpayable",
      "type": "function"
    },
    {
      "inputs": [],
      "name": "paused",
      "outputs": [
        {
          "internalType": "bool",
          "name": "",
          "type": "bool"
        }
      ],
      "stateMutability": "view",
      "type": "function"
    },
    {
      "inputs": [],
      "name": "renounceOwnership",
      "outputs": [],
      "stateMutability": "nonpayable",
      "type": "function"
    },
    {
      "inputs": [
        {
          "internalType": "address",
          "name": "trnAddr",
          "type": "address"
        },
        {
          "internalType": "uint256[]",
          "name": "tokenIds",
          "type": "uint256[]"
        }
      ],
      "name": "sellTRNsToPool",
      "outputs": [],
      "stateMutability": "nonpayable",
      "type": "function"
    },
    {
      "inputs": [
        {
          "internalType": "address",
          "name": "trnAddr",
          "type": "address"
        },
        {
          "internalType": "uint256",
          "name": "price",
          "type": "uint256"
        }
      ],
      "name": "setPriceOfTRN",
      "outputs": [],
      "stateMutability": "nonpayable",
      "type": "function"
    },
    {
      "inputs": [
        {
          "internalType": "address",
          "name": "tlnAddr",
          "type": "address"
        },
        {
          "internalType": "uint256[]",
          "name": "tokenIds",
          "type": "uint256[]"
        }
      ],
      "name": "stakeTLNs",
      "outputs": [],
      "stateMutability": "nonpayable",
      "type": "function"
    },
    {
      "inputs": [],
      "name": "totalStakedTokens",
      "outputs": [
        {
          "internalType": "uint256",
          "name": "",
          "type": "uint256"
        }
      ],
      "stateMutability": "view",
      "type": "function"
    },
    {
      "inputs": [
        {
          "internalType": "address",
          "name": "newOwner",
          "type": "address"
        }
      ],
      "name": "transferOwnership",
      "outputs": [],
      "stateMutability": "nonpayable",
      "type": "function"
    },
    {
      "inputs": [
        {
          "internalType": "address",
          "name": "tlnAddr",
          "type": "address"
        },
        {
          "internalType": "uint256",
          "name": "tokenId",
          "type": "uint256"
        }
      ],
      "name": "unStakeTLN",
      "outputs": [],
      "stateMutability": "nonpayable",
      "type": "function"
    },
    {
      "inputs": [],
      "name": "unpause",
      "outputs": [],
      "stateMutability": "nonpayable",
      "type": "function"
    }
  ],
  "bytecode": "0x60806040523480156200001157600080fd5b506200001c62000022565b620000e4565b600054610100900460ff16156200008f5760405162461bcd60e51b815260206004820152602760248201527f496e697469616c697a61626c653a20636f6e747261637420697320696e697469604482015266616c697a696e6760c81b606482015260840160405180910390fd5b60005460ff9081161015620000e2576000805460ff191660ff9081179091556040519081527f7f26b83ff96e1f2b6a682f133852f6798a09c465da95921460cefb38474024989060200160405180910390a15b565b6137ff80620000f46000396000f3fe608060405234801561001057600080fd5b506004361061014d5760003560e01c80638129fc1c116100c35780639f3fecb61161007c5780639f3fecb6146102c7578063bc40d3aa146102e7578063cb34f215146102fa578063d2dcc8e31461031a578063da4b19451461032d578063f2fde38b1461034057600080fd5b80638129fc1c14610254578063841875781461025c5780638456cb591461027157806389af0195146102795780638da5cb5b1461029957806399d75aa1146102b457600080fd5b806340f33b921161011557806340f33b92146101ea578063470b0def146101fd5780635c975abb1461021057806369b853ef14610226578063715018a6146102395780637665273c1461024157600080fd5b8063150b7a02146101525780631e83409a146101a85780632adcdc40146101bd5780633ae73259146101d05780633f4ba83a146101e2575b600080fd5b61018a610160366004613104565b7f150b7a023d4804d13e8c85fb27262cb750cf6ba9f9dd3bb30d90f482ceeb4b1f95945050505050565b6040516001600160e01b031990911681526020015b60405180910390f35b6101bb6101b63660046131a3565b610353565b005b6101bb6101cb3660046131c0565b610588565b60d6545b60405190815260200161019f565b6101bb610676565b6101bb6101f83660046132b2565b610688565b6101bb61020b3660046132b2565b610cc5565b60975460ff16604051901515815260200161019f565b6101bb610234366004613302565b611126565b6101bb61116f565b6101bb61024f3660046131a3565b611181565b6101bb611362565b610264611482565b60405161019f919061332e565b6101bb611588565b61028c6102873660046131a3565b611598565b60405161019f919061339e565b6065546040516001600160a01b03909116815260200161019f565b6101bb6102c2366004613302565b611664565b6102da6102d53660046131a3565b611913565b60405161019f9190613408565b6101bb6102f5366004613474565b611abe565b61030d6103083660046131a3565b611e3e565b60405161019f91906134e0565b6101bb6103283660046131a3565b611f88565b6101d461033b3660046131a3565b6124aa565b6101bb61034e3660046131a3565b6124f8565b61035b61256e565b6103636125c7565b600060d554116103b15760405162461bcd60e51b815260206004820152601460248201527354533a206e6f207374616b656420746f6b656e7360601b60448201526064015b60405180910390fd5b60006103bd823361260d565b9050600081116103fe5760405162461bcd60e51b815260206004820152600c60248201526b054533a20616d6f756e743d360a41b60448201526064016103a8565b8060d560008282546104109190613509565b90915550506001600160a01b038216600090815260d360209081526040808320338452909152812042905561044483611913565b602081015160405163a9059cbb60e01b8152336004820152602481018590529192506001600160a01b03169063a9059cbb906044016020604051808303816000875af1158015610498573d6000803e3d6000fd5b505050506040513d601f19601f820116820180604052508101906104bc919061351c565b6105085760405162461bcd60e51b815260206004820152601960248201527f54533a207472616e7366657220746f6b656e206661696c65640000000000000060448201526064016103a8565b61053a6040518060400160405280601081526020016f636c61696d20616d6f756e743a20257360801b815250836128d7565b60405182815233906001600160a01b038516907f70eb43c4a8ae8c40502dcf22436c509c28d6ff421cf07c491be56984bd9870689060200160405180910390a3505061058560018055565b50565b610590612922565b60ca805461ffff908116600090815260c9602052604080822080546001600160a01b03808a166001600160a01b0319928316179092558554851684528284206001018054928916929091169190911790558354831682528120600201849055825490911691906105ff8361353e565b91906101000a81548161ffff021916908361ffff16021790555050826001600160a01b03167fd2678e38a3553371eff62fc36a783bd86a2eee5c65f44da394138dbfff1bf74983836040516106699291906001600160a01b03929092168252602082015260400190565b60405180910390a2505050565b61067e612922565b61068661297c565b565b61069061256e565b6106986125c7565b6106a1826129ce565b6106bd5760405162461bcd60e51b81526004016103a89061355f565b60008151116107045760405162461bcd60e51b81526020600482015260136024820152721514ce88139bc81514939cc81d1bc81cd95b1b606a1b60448201526064016103a8565b60405163e985e9c560e01b815233600482015230602482015282906001600160a01b0382169063e985e9c590604401602060405180830381865afa158015610750573d6000803e3d6000fd5b505050506040513d601f19601f82011682018060405250810190610774919061351c565b6107bb5760405162461bcd60e51b81526020600482015260186024820152771514ce88139bdd08185c1c1c9bdd995908199bdc88185b1b60421b60448201526064016103a8565b6001600160a01b038316600090815260ce60205260409020548061081c5760405162461bcd60e51b81526020600482015260186024820152771514ce88141c9a58d9481bd988151493881b9bdd081cd95d60421b60448201526064016103a8565b600081845161082b919061358a565b9050600080600090508260d754106108465785519150610866565b8360d75461085491906135b7565b91508186516108639190613509565b90505b6000610872858461358a565b9050600061087f89611598565b602001516040516370a0823160e01b815230600482015290915082906001600160a01b038316906370a0823190602401602060405180830381865afa1580156108cc573d6000803e3d6000fd5b505050506040513d601f19601f820116820180604052508101906108f091906135cb565b101561093e5760405162461bcd60e51b815260206004820152601c60248201527f544d3a206e6f7420656e6f75676820746f6b656e2062616c616e63650000000060448201526064016103a8565b60008467ffffffffffffffff81111561095957610959613201565b604051908082528060200260200182016040528015610982578160200160208202803683370190505b50905060005b85811015610b555760008a82815181106109a4576109a46135e4565b6020026020010151905060008a6001600160a01b0316636352211e836040518263ffffffff1660e01b81526004016109de91815260200190565b602060405180830381865afa1580156109fb573d6000803e3d6000fd5b505050506040513d601f19601f82011682018060405250810190610a1f91906135fa565b90506001600160a01b0381163014610a795760405162461bcd60e51b815260206004820152601960248201527f54533a2054524e206e6f74206f776e656420627920706f6f6c0000000000000060448201526064016103a8565b604051632142170760e11b81526001600160a01b038c16906342842e0e90610aa990849030908790600401613617565b600060405180830381600087803b158015610ac357600080fd5b505af1158015610ad7573d6000803e3d6000fd5b5050506001600160a01b038e16600090815260cd60205260409020610afd915083612a8b565b506001600160a01b038d16600090815260cf60205260409020610b209083612a9e565b5081848481518110610b3457610b346135e4565b60200260200101818152505050508080610b4d9061363b565b915050610988565b5060405163a9059cbb60e01b8152336004820152602481018490526001600160a01b0383169063a9059cbb906044016020604051808303816000875af1158015610ba3573d6000803e3d6000fd5b505050506040513d601f19601f82011682018060405250810190610bc7919061351c565b508260d56000828254610bda9190613509565b90915550508315610c65576000848a51610bf49190613509565b9050805b8a51811015610c625760008b8281518110610c1557610c156135e4565b60200260200101519050610c4d60cd60008f6001600160a01b03166001600160a01b0316815260200190815260200160002082612a8b565b50508080610c5a9061363b565b915050610bf8565b50505b306001600160a01b03168a6001600160a01b03167f32ffae8ccc1ecdf2aab4ea113e39e83c9972a044497703db0e0cd354600cf78083604051610ca891906134e0565b60405180910390a35050505050505050610cc160018055565b5050565b610ccd61256e565b610cd56125c7565b6000610ce083611913565b8051835191925090610d2b5760405162461bcd60e51b815260206004820152601460248201527354533a204e6f20544c4e7320746f207374616b6560601b60448201526064016103a8565b60405163e985e9c560e01b81523360048201523060248201526001600160a01b0382169063e985e9c590604401602060405180830381865afa158015610d75573d6000803e3d6000fd5b505050506040513d601f19601f82011682018060405250810190610d99919061351c565b610de05760405162461bcd60e51b81526020600482015260186024820152771514ce88139bdd08185c1c1c9bdd995908199bdc88185b1b60421b60448201526064016103a8565b600082604001518451610df3919061358a565b60208401516040516370a0823160e01b81526001600160a01b0388811660048301529293508392909116906370a0823190602401602060405180830381865afa158015610e44573d6000803e3d6000fd5b505050506040513d601f19601f82011682018060405250810190610e6891906135cb565b1015610eb65760405162461bcd60e51b815260206004820152601c60248201527f54533a206e6f7420656e6f75676820746f6b656e2062616c616e63650000000060448201526064016103a8565b60005b8451811015610fde576000858281518110610ed657610ed66135e4565b60200260200101519050836001600160a01b03166342842e0e3330846040518463ffffffff1660e01b8152600401610f1093929190613617565b600060405180830381600087803b158015610f2a57600080fd5b505af1158015610f3e573d6000803e3d6000fd5b5050604051632e1a7d4d60e01b8152600481018490526001600160a01b0387169250632e1a7d4d9150602401600060405180830381600087803b158015610f8457600080fd5b505af1158015610f98573d6000803e3d6000fd5b5050506001600160a01b038816600090815260d2602090815260408083203384529091529020610fc9915082612a8b565b50508080610fd69061363b565b915050610eb9565b50835160d66000828254610ff29190613654565b925050819055508060d7600082825461100b9190613654565b90915550506001600160a01b038516600090815260d9602090815260408083203384529091528120549003611061576001600160a01b038516600090815260d36020908152604080832033845290915290204290555b6001600160a01b038516600081815260d8602090815260408083203380855290835281842094845260d983528184208185528084528285208054865295845282852042905560d654865486529285206001908101939093559084529091528254909291906110d0908490613654565b909155505060405133906001600160a01b038716907f3f1d6292b9b4cd901acb52fd56c9620b455884300556019f26847f5f5956278f906111129088906134e0565b60405180910390a3505050610cc160018055565b61112e612922565b611137826129ce565b6111535760405162461bcd60e51b81526004016103a89061355f565b6001600160a01b03909116600090815260ce6020526040902055565b611177612922565b6106866000612aaa565b611189612922565b61119161256e565b61119a816129ce565b6111b65760405162461bcd60e51b81526004016103a89061355f565b6001600160a01b038116600090815260cf602052604081206111d790612afc565b90506000811161121d5760405162461bcd60e51b81526020600482015260116024820152701514ce88139bc81514939cc81bdddb9959607a1b60448201526064016103a8565b60008290506000816001600160a01b0316632e2d651e6040518163ffffffff1660e01b81526004016020604051808303816000875af1158015611264573d6000803e3d6000fd5b505050506040513d601f19601f8201168201806040525081019061128891906135cb565b90508060000361129a57505050611359565b8060d460008282546112ac9190613654565b925050819055508060d560008282546112c59190613654565b90915550506001600160a01b038416600081815260d06020908152604080832060d18084528285208054865291845291842042905593835290528154919061130c8361363b565b909155505060408051828152602081018590526001600160a01b038616917fd45faa58a4ae1d7bbde51c194a52ab6127cc422bbdc393058ac270c5613702d1910160405180910390a25050505b61058560018055565b600054610100900460ff16158080156113825750600054600160ff909116105b8061139c5750303b15801561139c575060005460ff166001145b6113ff5760405162461bcd60e51b815260206004820152602e60248201527f496e697469616c697a61626c653a20636f6e747261637420697320616c72656160448201526d191e481a5b9a5d1a585b1a5e995960921b60648201526084016103a8565b6000805460ff191660011790558015611422576000805461ff0019166101001790555b61142a612b06565b611432612b35565b61143a612b64565b8015610585576000805461ff0019169055604051600181527f7f26b83ff96e1f2b6a682f133852f6798a09c465da95921460cefb38474024989060200160405180910390a150565b60ca5460609060009061ffff1667ffffffffffffffff8111156114a7576114a7613201565b6040519080825280602002602001820160405280156114f257816020015b60408051606081018252600080825260208083018290529282015282526000199092019101816114c55790505b50905060005b60ca5461ffff90811690821610156115825761ffff8116600081815260c96020908152604091829020825160608101845281546001600160a01b0390811682526001830154169281019290925260020154918101919091528351909184918110611564576115646135e4565b6020026020010181905250808061157a9061353e565b9150506114f8565b50919050565b611590612922565b610686612b93565b60408051606081018252600080825260208201819052918101829052905b60ca5461ffff908116908216101561164b5761ffff8116600090815260c960205260409020546001600160a01b038085169116036116395761ffff16600090815260c96020908152604091829020825160608101845281546001600160a01b03908116825260018301541692810192909252600201549181019190915292915050565b806116438161353e565b9150506115b6565b5060405162461bcd60e51b81526004016103a89061355f565b61166c61256e565b6116746125c7565b600061167f83611913565b8051604080830151602084015191516370a0823160e01b8152306004820152939450919282916001600160a01b0316906370a0823190602401602060405180830381865afa1580156116d5573d6000803e3d6000fd5b505050506040513d601f19601f820116820180604052508101906116f991906135cb565b10156117475760405162461bcd60e51b815260206004820152601c60248201527f54533a206e6f7420656e6f75676820746f6b656e2062616c616e63650000000060448201526064016103a8565b604051632142170760e11b81526001600160a01b038316906342842e0e9061177790309033908990600401613617565b600060405180830381600087803b15801561179157600080fd5b505af11580156117a5573d6000803e3d6000fd5b5050604051636215be7760e01b8152600481018790526001600160a01b0385169250636215be779150602401600060405180830381600087803b1580156117eb57600080fd5b505af11580156117ff573d6000803e3d6000fd5b5050506001600160a01b038616600090815260d2602090815260408083203384529091529020611830915085612a9e565b50600160d660008282546118449190613509565b925050819055508060d7600082825461185d9190613509565b90915550506001600160a01b038516600081815260d8602090815260408083203380855290835281842094845260d983528184208185528084528285208054865295845282852042905560d654865486529285206001908101939093559084529091528254909291906118d1908490613654565b909155505060405184815233906001600160a01b038716907f7b27bce7bf7aa41550b7036466196a4945982919995548af33e981397cad095990602001611112565b6040805160a08101825260008082526020820181905291810182905260608082018190526080820152905b60cc5461ffff9081169082161015611a815761ffff8116600090815260cb60205260409020546001600160a01b03808516911603611a6f5761ffff8116600090815260cb6020908152604091829020825160a08101845281546001600160a01b039081168252600183015416818401526002820154818501526003820180548551818602810186019096528086529194929360608601939290830182828015611a0657602002820191906000526020600020905b8154815260200190600101908083116119f2575b5050505050815260200160048201805480602002602001604051908101604052809291908181526020018280548015611a5e57602002820191906000526020600020905b815481526020019060010190808311611a4a575b505050505081525050915050919050565b80611a798161353e565b91505061193e565b5060405162461bcd60e51b81526020600482015260116024820152701514ce88151313881b9bdd08195e1a5cdd607a1b60448201526064016103a8565b611ac6612922565b611acf84612bd0565b15611b145760405162461bcd60e51b81526020600482015260156024820152741514ce8815131388185b1c9958591e48195e1a5cdd605a1b60448201526064016103a8565b60008211611b525760405162461bcd60e51b815260206004820152600b60248201526a054533a2070726963653d360ac1b60448201526064016103a8565b6000815111611b985760405162461bcd60e51b8152602060048201526012602482015271054533a207261746573206c656e6774683d360741b60448201526064016103a8565b80518067ffffffffffffffff811115611bb357611bb3613201565b604051908082528060200260200182016040528015611bdc578160200160208202803683370190505b5060cc5461ffff16600090815260cb602090815260409091208251611c0b93600390920192919091019061308f565b508067ffffffffffffffff811115611c2557611c25613201565b604051908082528060200260200182016040528015611c4e578160200160208202803683370190505b5060cc5461ffff16600090815260cb602090815260409091208251611c7d93600490920192919091019061308f565b5060005b81811015611d6757828181518110611c9b57611c9b6135e4565b60209081029190910181015160cc5461ffff16600090815260cb9092526040909120600301805483908110611cd257611cd26135e4565b906000526020600020018190555061016d612710848381518110611cf857611cf86135e4565b602002602001015186611d0b919061358a565b611d1591906135b7565b611d1f91906135b7565b60cc5461ffff16600090815260cb60205260409020600401805483908110611d4957611d496135e4565b60009182526020909120015580611d5f8161363b565b915050611c81565b5060cc805461ffff908116600090815260cb602052604080822080546001600160a01b03808c166001600160a01b0319928316179092558554851684528284206001018054928b1692909116919091179055835483168252812060020186905582549091169190611dd78361353e565b91906101000a81548161ffff021916908361ffff16021790555050846001600160a01b03167fbf1079bb0d233b03156a8d5ce7972d6454b7b21a44b354921850c70e0e4c64bf858585604051611e2f93929190613667565b60405180910390a25050505050565b6060611e4982612bd0565b611e895760405162461bcd60e51b81526020600482015260116024820152701514ce88151313881b9bdd08195e1a5cdd607a1b60448201526064016103a8565b6001600160a01b038216600090815260d2602090815260408083203384529091528120611eb590612afc565b905080600003611ed5575050604080516000815260208101909152919050565b8067ffffffffffffffff811115611eee57611eee613201565b604051908082528060200260200182016040528015611f17578160200160208202803683370190505b50915060005b81811015611f81576001600160a01b038416600090815260d2602090815260408083203384529091529020611f529082612c84565b838281518110611f6457611f646135e4565b602090810291909101015280611f798161363b565b915050611f1d565b5050919050565b611f90612922565b611f9861256e565b600080611fa483611598565b6001600160a01b038416600090815260cd60205260409020909150611fc890612afc565b91506000821161201a5760405162461bcd60e51b815260206004820152601760248201527f54533a204e6f2054524e7320746f20707572636861736500000000000000000060448201526064016103a8565b6001600160a01b038316600090815260ce60205260409020548061207b5760405162461bcd60e51b81526020600482015260186024820152771514ce88141c9a58d9481bd988151493881b9bdd081cd95d60421b60448201526064016103a8565b6000612087828561358a565b905060008160d7541061209b5750836120ac565b8260d7546120a991906135b7565b90505b8560006120b9858461358a565b90508060d754101561210d5760405162461bcd60e51b815260206004820152601c60248201527f54533a204e6f7420656e6f756768207374616b656420746f6b656e730000000060448201526064016103a8565b60208601516040516370a0823160e01b815230600482015282906001600160a01b038316906370a0823190602401602060405180830381865afa158015612158573d6000803e3d6000fd5b505050506040513d601f19601f8201168201806040525081019061217c91906135cb565b10156121ca5760405162461bcd60e51b815260206004820152601c60248201527f544d3a206e6f7420656e6f75676820746f6b656e2062616c616e63650000000060448201526064016103a8565b60008467ffffffffffffffff8111156121e5576121e5613201565b60405190808252806020026020018201604052801561220e578160200160208202803683370190505b50905060005b858110156123dd576001600160a01b038b16600090815260cd6020526040812061223e9083612c84565b6040516331a9108f60e11b8152600481018290529091506000906001600160a01b03881690636352211e90602401602060405180830381865afa158015612289573d6000803e3d6000fd5b505050506040513d601f19601f820116820180604052508101906122ad91906135fa565b604051632142170760e11b81529091506001600160a01b038816906342842e0e906122e090849030908790600401613617565b600060405180830381600087803b1580156122fa57600080fd5b505af115801561230e573d6000803e3d6000fd5b505060405163a9059cbb60e01b81526001600160a01b038481166004830152602482018e90528816925063a9059cbb91506044016020604051808303816000875af1158015612361573d6000803e3d6000fd5b505050506040513d601f19601f82011682018060405250810190612385919061351c565b506001600160a01b038d16600090815260cf602052604090206123a89083612a8b565b50818484815181106123bc576123bc6135e4565b602002602001018181525050505080806123d59061363b565b915050612214565b5060005b815181101561243b576001600160a01b038b16600090815260cd602052604090208251612428919084908490811061241b5761241b6135e4565b6020026020010151612a9e565b50806124338161363b565b9150506123e1565b508260d7600082825461244e9190613509565b909155505060405130906001600160a01b038c16907f32ffae8ccc1ecdf2aab4ea113e39e83c9972a044497703db0e0cd354600cf780906124909085906134e0565b60405180910390a350505050505050505061058560018055565b60006124b5826129ce565b6124d15760405162461bcd60e51b81526004016103a89061355f565b6001600160a01b038216600090815260cd602052604090206124f290612afc565b92915050565b612500612922565b6001600160a01b0381166125655760405162461bcd60e51b815260206004820152602660248201527f4f776e61626c653a206e6577206f776e657220697320746865207a65726f206160448201526564647265737360d01b60648201526084016103a8565b61058581612aaa565b6002600154036125c05760405162461bcd60e51b815260206004820152601f60248201527f5265656e7472616e637947756172643a207265656e7472616e742063616c6c0060448201526064016103a8565b6002600155565b60975460ff16156106865760405162461bcd60e51b815260206004820152601060248201526f14185d5cd8589b194e881c185d5cd95960821b60448201526064016103a8565b6001600160a01b03808316600090815260d360209081526040808320938516835292905290812054819081612643868684612c90565b6001600160a01b03808816600090815260d960209081526040808320938a168352928152908290205482516060810190935260228084529394509261269192916137a8908301398383612d1d565b60008061269f600184613509565b60000361273c576001600160a01b03808a16600090815260d860209081526040808320938c168352928152828220828052905220546126de9042613509565b6001600160a01b03808b16600090815260d860209081526040808320938d16835292815282822082805290522060010154909250905061272b82826127228c611913565b60800151612d69565b6127359087613654565b95506128ca565b6000612749600185613509565b90505b8481106128c857600061277c60405180604001604052806005815260200164693a20257360d81b815250836128d7565b612787600186613509565b82036127945750426127dc565b6001600160a01b03808c16600090815260d860209081526040808320938e168352929052908120906127c7846001613654565b81526020019081526020016000206000015490505b6001600160a01b03808c16600090815260d860209081526040808320938e168352928152828220858352905220546128149082613509565b6001600160a01b03808d16600090815260d860209081526040808320938f168352928152828220868352815290829020600101548251808401909352601f83527f6475726174696f6e3a2025732c20636f756e744f665374616b65643a202573009183019190915291955090935061288d908585612d1d565b61289b84846127228e611913565b6128a59089613654565b9750816000036128b557506128c8565b50806128c08161368e565b91505061274c565b505b5093979650505050505050565b610cc182826040516024016128ed9291906136eb565b60408051601f198184030181529190526020810180516001600160e01b0316632d839cb360e21b179052612e2f565b60018055565b6065546001600160a01b031633146106865760405162461bcd60e51b815260206004820181905260248201527f4f776e61626c653a2063616c6c6572206973206e6f7420746865206f776e657260448201526064016103a8565b612984612e50565b6097805460ff191690557f5db9ee0a495bf2e6ff9c91a7834c1ba4fdd244a5e8aa4e537bd38aeae4b073aa335b6040516001600160a01b03909116815260200160405180910390a1565b60006001600160a01b038216612a165760405162461bcd60e51b815260206004820152600d60248201526c04c503a2074726e416464723d3609c1b60448201526064016103a8565b60ca5461ffff16600003612a2c57506000919050565b60005b60ca5461ffff9081169082161015612a825761ffff8116600090815260c960205260409020546001600160a01b03808516911603612a705750600192915050565b80612a7a8161353e565b915050612a2f565b50600092915050565b6000612a978383612e99565b9392505050565b6000612a978383612ee8565b606580546001600160a01b038381166001600160a01b0319831681179093556040519116919082907f8be0079c531659141344cd1fd0a4f28419497f9722a3daafe3b4186f6b6457e090600090a35050565b60006124f2825490565b600054610100900460ff16612b2d5760405162461bcd60e51b81526004016103a89061370d565b610686612fdb565b600054610100900460ff16612b5c5760405162461bcd60e51b81526004016103a89061370d565b61068661300e565b600054610100900460ff16612b8b5760405162461bcd60e51b81526004016103a89061370d565b61068661303e565b612b9b6125c7565b6097805460ff191660011790557f62e78cea01bee320cd4e420270b5ea74000d11b0c9f74754ebdbfc544b05a2586129b13390565b60006001600160a01b038216612c185760405162461bcd60e51b815260206004820152600d60248201526c054533a20746c6e416464723d3609c1b60448201526064016103a8565b60ca5461ffff16600003612c2e57506000919050565b60005b60cc5461ffff9081169082161015612a825761ffff8116600090815260cb60205260409020546001600160a01b03808516911603612c725750600192915050565b80612c7c8161353e565b915050612c31565b6000612a978383613065565b6001600160a01b03808416600090815260d9602090815260408083209386168352929052908120548190815b81811015612d12576001600160a01b03808816600090815260d860209081526040808320938a168352928152828220848352905220548511612d0057809250612d12565b80612d0a8161363b565b915050612cbc565b509095945050505050565b612d64838383604051602401612d3593929190613758565b60408051601f198184030181529190526020810180516001600160e01b031663ca47c4eb60e01b179052612e2f565b505050565b805160009081908190612d7c90866135b7565b90506000612d8d62015180886135b7565b90508460018651612d9e9190613509565b81518110612dae57612dae6135e4565b60200260200101518282612dc2919061358a565b612dcc919061358a565b612dd69084613654565b92506000855187612de7919061377d565b9050858181518110612dfb57612dfb6135e4565b60200260200101518183612e0f919061358a565b612e19919061358a565b612e239085613654565b98975050505050505050565b80516a636f6e736f6c652e6c6f67602083016000808483855afa5050505050565b60975460ff166106865760405162461bcd60e51b815260206004820152601460248201527314185d5cd8589b194e881b9bdd081c185d5cd95960621b60448201526064016103a8565b6000818152600183016020526040812054612ee0575081546001818101845560008481526020808220909301849055845484825282860190935260409020919091556124f2565b5060006124f2565b60008181526001830160205260408120548015612fd1576000612f0c600183613509565b8554909150600090612f2090600190613509565b9050818114612f85576000866000018281548110612f4057612f406135e4565b9060005260206000200154905080876000018481548110612f6357612f636135e4565b6000918252602080832090910192909255918252600188019052604090208390555b8554869080612f9657612f96613791565b6001900381819060005260206000200160009055905585600101600086815260200190815260200160002060009055600193505050506124f2565b60009150506124f2565b600054610100900460ff166130025760405162461bcd60e51b81526004016103a89061370d565b6097805460ff19169055565b600054610100900460ff166130355760405162461bcd60e51b81526004016103a89061370d565b61068633612aaa565b600054610100900460ff1661291c5760405162461bcd60e51b81526004016103a89061370d565b600082600001828154811061307c5761307c6135e4565b9060005260206000200154905092915050565b8280548282559060005260206000209081019282156130ca579160200282015b828111156130ca5782518255916020019190600101906130af565b506130d69291506130da565b5090565b5b808211156130d657600081556001016130db565b6001600160a01b038116811461058557600080fd5b60008060008060006080868803121561311c57600080fd5b8535613127816130ef565b94506020860135613137816130ef565b935060408601359250606086013567ffffffffffffffff8082111561315b57600080fd5b818801915088601f83011261316f57600080fd5b81358181111561317e57600080fd5b89602082850101111561319057600080fd5b9699959850939650602001949392505050565b6000602082840312156131b557600080fd5b8135612a97816130ef565b6000806000606084860312156131d557600080fd5b83356131e0816130ef565b925060208401356131f0816130ef565b929592945050506040919091013590565b634e487b7160e01b600052604160045260246000fd5b600082601f83011261322857600080fd5b8135602067ffffffffffffffff8083111561324557613245613201565b8260051b604051601f19603f8301168101818110848211171561326a5761326a613201565b60405293845285810183019383810192508785111561328857600080fd5b83870191505b848210156132a75781358352918301919083019061328e565b979650505050505050565b600080604083850312156132c557600080fd5b82356132d0816130ef565b9150602083013567ffffffffffffffff8111156132ec57600080fd5b6132f885828601613217565b9150509250929050565b6000806040838503121561331557600080fd5b8235613320816130ef565b946020939093013593505050565b6020808252825182820181905260009190848201906040850190845b818110156133925761337f83855180516001600160a01b03908116835260208083015190911690830152604090810151910152565b928401926060929092019160010161334a565b50909695505050505050565b81516001600160a01b0390811682526020808401519091169082015260408083015190820152606081016124f2565b600081518084526020808501945080840160005b838110156133fd578151875295820195908201906001016133e1565b509495945050505050565b60208152600060018060a01b038084511660208401528060208501511660408401525060408301516060830152606083015160a0608084015261344e60c08401826133cd565b90506080840151601f198483030160a085015261346b82826133cd565b95945050505050565b6000806000806080858703121561348a57600080fd5b8435613495816130ef565b935060208501356134a5816130ef565b925060408501359150606085013567ffffffffffffffff8111156134c857600080fd5b6134d487828801613217565b91505092959194509250565b602081526000612a9760208301846133cd565b634e487b7160e01b600052601160045260246000fd5b818103818111156124f2576124f26134f3565b60006020828403121561352e57600080fd5b81518015158114612a9757600080fd5b600061ffff808316818103613555576135556134f3565b6001019392505050565b6020808252601190820152701514ce88151493881b9bdd08195e1a5cdd607a1b604082015260600190565b80820281158282048414176124f2576124f26134f3565b634e487b7160e01b600052601260045260246000fd5b6000826135c6576135c66135a1565b500490565b6000602082840312156135dd57600080fd5b5051919050565b634e487b7160e01b600052603260045260246000fd5b60006020828403121561360c57600080fd5b8151612a97816130ef565b6001600160a01b039384168152919092166020820152604081019190915260600190565b60006001820161364d5761364d6134f3565b5060010190565b808201808211156124f2576124f26134f3565b60018060a01b038416815282602082015260606040820152600061346b60608301846133cd565b60008161369d5761369d6134f3565b506000190190565b6000815180845260005b818110156136cb576020818501810151868301820152016136af565b506000602082860101526020601f19601f83011685010191505092915050565b6040815260006136fe60408301856136a5565b90508260208301529392505050565b6020808252602b908201527f496e697469616c697a61626c653a20636f6e7472616374206973206e6f74206960408201526a6e697469616c697a696e6760a81b606082015260800190565b60608152600061376b60608301866136a5565b60208301949094525060400152919050565b60008261378c5761378c6135a1565b500690565b634e487b7160e01b600052603160045260246000fdfe696e6465783a2025732c20636f756e744f665374616b65486973746f72793a202573a26469706673582212203ee6798c6ea8220231cc5f854c1267325257c9ebf84f78e3a2c932cd92b83aff64736f6c63430008110033",
  "linkReferences": {},
  "deployedLinkReferences": {}
}