{
  "_format": "hh-sol-artifact-1",
  "contractName": "TomaasLending",
  "sourceName": "contracts/TomaasLending.sol",
  "abi": [
    {
      "inputs": [],
      "stateMutability": "nonpayable",
      "type": "constructor"
    },
    {
      "anonymous": false,
      "inputs": [
        {
          "indexed": true,
          "internalType": "address",
          "name": "owner",
          "type": "address"
        },
        {
          "indexed": true,
          "internalType": "address",
          "name": "collection",
          "type": "address"
        },
        {
          "indexed": false,
          "internalType": "address",
          "name": "tokenAddress",
          "type": "address"
        },
        {
          "indexed": false,
          "internalType": "uint256",
          "name": "revenueShareRatio",
          "type": "uint256"
        }
      ],
      "name": "AddNewCollection",
      "type": "event"
    },
    {
      "anonymous": false,
      "inputs": [
        {
          "indexed": false,
          "internalType": "uint8",
          "name": "version",
          "type": "uint8"
        }
      ],
      "name": "Initialized",
      "type": "event"
    },
    {
      "anonymous": false,
      "inputs": [
        {
          "indexed": true,
          "internalType": "address",
          "name": "nftAddress",
          "type": "address"
        },
        {
          "indexed": false,
          "internalType": "uint256",
          "name": "tokenId",
          "type": "uint256"
        }
      ],
      "name": "NFTListed",
      "type": "event"
    },
    {
      "anonymous": false,
      "inputs": [
        {
          "indexed": true,
          "internalType": "address",
          "name": "nftAddress",
          "type": "address"
        },
        {
          "indexed": false,
          "internalType": "uint256",
          "name": "tokenId",
          "type": "uint256"
        }
      ],
      "name": "NFTUnlisted",
      "type": "event"
    },
    {
      "anonymous": false,
      "inputs": [
        {
          "indexed": true,
          "internalType": "address",
          "name": "nftAddress",
          "type": "address"
        },
        {
          "indexed": true,
          "internalType": "address",
          "name": "owner",
          "type": "address"
        }
      ],
      "name": "NFTsListed",
      "type": "event"
    },
    {
      "anonymous": false,
      "inputs": [
        {
          "indexed": true,
          "internalType": "address",
          "name": "nftAddress",
          "type": "address"
        },
        {
          "indexed": true,
          "internalType": "address",
          "name": "owner",
          "type": "address"
        }
      ],
      "name": "NFTsUnlisted",
      "type": "event"
    },
    {
      "anonymous": false,
      "inputs": [
        {
          "indexed": true,
          "internalType": "address",
          "name": "previousOwner",
          "type": "address"
        },
        {
          "indexed": true,
          "internalType": "address",
          "name": "newOwner",
          "type": "address"
        }
      ],
      "name": "OwnershipTransferred",
      "type": "event"
    },
    {
      "anonymous": false,
      "inputs": [
        {
          "indexed": false,
          "internalType": "address",
          "name": "account",
          "type": "address"
        }
      ],
      "name": "Paused",
      "type": "event"
    },
    {
      "anonymous": false,
      "inputs": [
        {
          "indexed": true,
          "internalType": "address",
          "name": "nftAddr",
          "type": "address"
        },
        {
          "indexed": true,
          "internalType": "address",
          "name": "renterAddr",
          "type": "address"
        }
      ],
      "name": "RenterRegistered",
      "type": "event"
    },
    {
      "anonymous": false,
      "inputs": [
        {
          "indexed": true,
          "internalType": "address",
          "name": "nftAddr",
          "type": "address"
        },
        {
          "indexed": true,
          "internalType": "address",
          "name": "renterAddr",
          "type": "address"
        }
      ],
      "name": "RenterUnregistered",
      "type": "event"
    },
    {
      "anonymous": false,
      "inputs": [
        {
          "indexed": true,
          "internalType": "address",
          "name": "nftAddress",
          "type": "address"
        },
        {
          "indexed": true,
          "internalType": "address",
          "name": "renter",
          "type": "address"
        },
        {
          "indexed": true,
          "internalType": "uint64",
          "name": "settlementDate",
          "type": "uint64"
        },
        {
          "indexed": false,
          "internalType": "string",
          "name": "reportUri",
          "type": "string"
        }
      ],
      "name": "SettlementReportAdded",
      "type": "event"
    },
    {
      "anonymous": false,
      "inputs": [
        {
          "indexed": true,
          "internalType": "address",
          "name": "nftAddress",
          "type": "address"
        },
        {
          "indexed": true,
          "internalType": "address",
          "name": "renter",
          "type": "address"
        },
        {
          "indexed": true,
          "internalType": "uint64",
          "name": "settlementDate",
          "type": "uint64"
        },
        {
          "indexed": false,
          "internalType": "string",
          "name": "reportUri",
          "type": "string"
        }
      ],
      "name": "SettlementReportUpdated",
      "type": "event"
    },
    {
      "anonymous": false,
      "inputs": [
        {
          "indexed": false,
          "internalType": "address",
          "name": "account",
          "type": "address"
        }
      ],
      "name": "Unpaused",
      "type": "event"
    },
    {
      "inputs": [
        {
          "internalType": "address",
          "name": "nftAddress",
          "type": "address"
        },
        {
          "internalType": "uint256",
          "name": "revenueShareRatio",
          "type": "uint256"
        }
      ],
      "name": "addCollection",
      "outputs": [
        {
          "internalType": "uint16",
          "name": "",
          "type": "uint16"
        }
      ],
      "stateMutability": "nonpayable",
      "type": "function"
    },
    {
      "inputs": [
        {
          "internalType": "uint16",
          "name": "index",
          "type": "uint16"
        }
      ],
      "name": "getCollectionAt",
      "outputs": [
        {
          "components": [
            {
              "internalType": "contract TomaasRWN",
              "name": "tomaasRWN",
              "type": "address"
            },
            {
              "internalType": "contract IERC20Upgradeable",
              "name": "acceptedToken",
              "type": "address"
            },
            {
              "internalType": "uint256",
              "name": "revenueShareRatio",
              "type": "uint256"
            }
          ],
          "internalType": "struct TomaasLending.CollectionInfo",
          "name": "",
          "type": "tuple"
        }
      ],
      "stateMutability": "view",
      "type": "function"
    },
    {
      "inputs": [
        {
          "internalType": "address",
          "name": "nftAddress",
          "type": "address"
        }
      ],
      "name": "getCollectionIndex",
      "outputs": [
        {
          "internalType": "uint16",
          "name": "",
          "type": "uint16"
        }
      ],
      "stateMutability": "view",
      "type": "function"
    },
    {
      "inputs": [
        {
          "internalType": "address",
          "name": "nftAddress",
          "type": "address"
        }
      ],
      "name": "getCollectionInfo",
      "outputs": [
        {
          "components": [
            {
              "internalType": "contract TomaasRWN",
              "name": "tomaasRWN",
              "type": "address"
            },
            {
              "internalType": "contract IERC20Upgradeable",
              "name": "acceptedToken",
              "type": "address"
            },
            {
              "internalType": "uint256",
              "name": "revenueShareRatio",
              "type": "uint256"
            }
          ],
          "internalType": "struct TomaasLending.CollectionInfo",
          "name": "",
          "type": "tuple"
        }
      ],
      "stateMutability": "view",
      "type": "function"
    },
    {
      "inputs": [],
      "name": "getCollections",
      "outputs": [
        {
          "components": [
            {
              "internalType": "contract TomaasRWN",
              "name": "tomaasRWN",
              "type": "address"
            },
            {
              "internalType": "contract IERC20Upgradeable",
              "name": "acceptedToken",
              "type": "address"
            },
            {
              "internalType": "uint256",
              "name": "revenueShareRatio",
              "type": "uint256"
            }
          ],
          "internalType": "struct TomaasLending.CollectionInfo[]",
          "name": "",
          "type": "tuple[]"
        }
      ],
      "stateMutability": "view",
      "type": "function"
    },
    {
      "inputs": [
        {
          "internalType": "address",
          "name": "nftAddress",
          "type": "address"
        }
      ],
      "name": "getCountOfNFTsListed",
      "outputs": [
        {
          "internalType": "uint256",
          "name": "",
          "type": "uint256"
        }
      ],
      "stateMutability": "view",
      "type": "function"
    },
    {
      "inputs": [
        {
          "internalType": "address",
          "name": "nftAddress",
          "type": "address"
        }
      ],
      "name": "getListingNFTs",
      "outputs": [
        {
          "internalType": "uint256[]",
          "name": "",
          "type": "uint256[]"
        }
      ],
      "stateMutability": "view",
      "type": "function"
    },
    {
      "inputs": [
        {
          "internalType": "address",
          "name": "nftAddress",
          "type": "address"
        }
      ],
      "name": "getRevenueShareRatio",
      "outputs": [
        {
          "internalType": "uint256",
          "name": "",
          "type": "uint256"
        }
      ],
      "stateMutability": "view",
      "type": "function"
    },
    {
      "inputs": [
        {
          "internalType": "address",
          "name": "nftAddr",
          "type": "address"
        },
        {
          "internalType": "address",
          "name": "renterAddr",
          "type": "address"
        },
        {
          "internalType": "uint256",
          "name": "index",
          "type": "uint256"
        }
      ],
      "name": "getSettlementReport",
      "outputs": [
        {
          "internalType": "string",
          "name": "",
          "type": "string"
        }
      ],
      "stateMutability": "view",
      "type": "function"
    },
    {
      "inputs": [
        {
          "internalType": "address",
          "name": "nftAddr",
          "type": "address"
        },
        {
          "internalType": "address",
          "name": "renterAddr",
          "type": "address"
        }
      ],
      "name": "getSettlementReportCount",
      "outputs": [
        {
          "internalType": "uint256",
          "name": "",
          "type": "uint256"
        }
      ],
      "stateMutability": "view",
      "type": "function"
    },
    {
      "inputs": [
        {
          "internalType": "address",
          "name": "nftAddr",
          "type": "address"
        },
        {
          "internalType": "address",
          "name": "renterAddr",
          "type": "address"
        },
        {
          "internalType": "uint256",
          "name": "number",
          "type": "uint256"
        }
      ],
      "name": "getSettlementReportsFromLast",
      "outputs": [
        {
          "internalType": "string[]",
          "name": "",
          "type": "string[]"
        }
      ],
      "stateMutability": "view",
      "type": "function"
    },
    {
      "inputs": [],
      "name": "initialize",
      "outputs": [],
      "stateMutability": "nonpayable",
      "type": "function"
    },
    {
      "inputs": [
        {
          "internalType": "address",
          "name": "nftAddress",
          "type": "address"
        },
        {
          "internalType": "uint256",
          "name": "tokenId",
          "type": "uint256"
        }
      ],
      "name": "isListedNFT",
      "outputs": [
        {
          "internalType": "bool",
          "name": "",
          "type": "bool"
        }
      ],
      "stateMutability": "view",
      "type": "function"
    },
    {
      "inputs": [
        {
          "internalType": "address",
          "name": "nftAddr",
          "type": "address"
        }
      ],
      "name": "listRenters",
      "outputs": [
        {
          "internalType": "address[]",
          "name": "",
          "type": "address[]"
        }
      ],
      "stateMutability": "view",
      "type": "function"
    },
    {
      "inputs": [
        {
          "internalType": "address",
          "name": "nftAddress",
          "type": "address"
        },
        {
          "internalType": "uint256",
          "name": "tokenId",
          "type": "uint256"
        }
      ],
      "name": "listingNFT",
      "outputs": [],
      "stateMutability": "nonpayable",
      "type": "function"
    },
    {
      "inputs": [
        {
          "internalType": "address",
          "name": "nftAddress",
          "type": "address"
        }
      ],
      "name": "listingNFTOwn",
      "outputs": [],
      "stateMutability": "nonpayable",
      "type": "function"
    },
    {
      "inputs": [],
      "name": "owner",
      "outputs": [
        {
          "internalType": "address",
          "name": "",
          "type": "address"
        }
      ],
      "stateMutability": "view",
      "type": "function"
    },
    {
      "inputs": [],
      "name": "pause",
      "outputs": [],
      "stateMutability": "nonpayable",
      "type": "function"
    },
    {
      "inputs": [],
      "name": "paused",
      "outputs": [
        {
          "internalType": "bool",
          "name": "",
          "type": "bool"
        }
      ],
      "stateMutability": "view",
      "type": "function"
    },
    {
      "inputs": [
        {
          "internalType": "address",
          "name": "nftAddr",
          "type": "address"
        },
        {
          "internalType": "address",
          "name": "renterAddr",
          "type": "address"
        }
      ],
      "name": "registerRenter",
      "outputs": [],
      "stateMutability": "nonpayable",
      "type": "function"
    },
    {
      "inputs": [],
      "name": "renounceOwnership",
      "outputs": [],
      "stateMutability": "nonpayable",
      "type": "function"
    },
    {
      "inputs": [
        {
          "internalType": "address",
          "name": "nftAddress",
          "type": "address"
        },
        {
          "internalType": "uint64",
          "name": "expires",
          "type": "uint64"
        }
      ],
      "name": "rentAllNFTInCollection",
      "outputs": [],
      "stateMutability": "nonpayable",
      "type": "function"
    },
    {
      "inputs": [
        {
          "internalType": "address",
          "name": "nftAddress",
          "type": "address"
        },
        {
          "internalType": "uint256",
          "name": "tokenId",
          "type": "uint256"
        },
        {
          "internalType": "uint64",
          "name": "expires",
          "type": "uint64"
        }
      ],
      "name": "rentNFTInCollection",
      "outputs": [],
      "stateMutability": "nonpayable",
      "type": "function"
    },
    {
      "inputs": [
        {
          "internalType": "address",
          "name": "nftAddress",
          "type": "address"
        },
        {
          "internalType": "address",
          "name": "to",
          "type": "address"
        },
        {
          "internalType": "string",
          "name": "uri",
          "type": "string"
        }
      ],
      "name": "safeMintNFT",
      "outputs": [],
      "stateMutability": "nonpayable",
      "type": "function"
    },
    {
      "inputs": [
        {
          "internalType": "address",
          "name": "nftAddr",
          "type": "address"
        },
        {
          "internalType": "address",
          "name": "renterAddr",
          "type": "address"
        },
        {
          "internalType": "uint64",
          "name": "settlementDate",
          "type": "uint64"
        },
        {
          "internalType": "string",
          "name": "reportUri",
          "type": "string"
        }
      ],
      "name": "storeSettlementReport",
      "outputs": [],
      "stateMutability": "nonpayable",
      "type": "function"
    },
    {
      "inputs": [
        {
          "internalType": "address",
          "name": "newOwner",
          "type": "address"
        }
      ],
      "name": "transferOwnership",
      "outputs": [],
      "stateMutability": "nonpayable",
      "type": "function"
    },
    {
      "inputs": [
        {
          "internalType": "address",
          "name": "nftAddr",
          "type": "address"
        },
        {
          "internalType": "address",
          "name": "renterAddr",
          "type": "address"
        }
      ],
      "name": "unRegisterRenter",
      "outputs": [],
      "stateMutability": "nonpayable",
      "type": "function"
    },
    {
      "inputs": [
        {
          "internalType": "address",
          "name": "nftAddress",
          "type": "address"
        },
        {
          "internalType": "uint256",
          "name": "tokenId",
          "type": "uint256"
        }
      ],
      "name": "unlistingNFT",
      "outputs": [],
      "stateMutability": "nonpayable",
      "type": "function"
    },
    {
      "inputs": [
        {
          "internalType": "address",
          "name": "nftAddress",
          "type": "address"
        }
      ],
      "name": "unlistingNFTOwn",
      "outputs": [],
      "stateMutability": "nonpayable",
      "type": "function"
    },
    {
      "inputs": [],
      "name": "unpause",
      "outputs": [],
      "stateMutability": "nonpayable",
      "type": "function"
    }
  ],
  "bytecode": "0x60806040523480156200001157600080fd5b506200001c62000022565b620000e4565b600054610100900460ff16156200008f5760405162461bcd60e51b815260206004820152602760248201527f496e697469616c697a61626c653a20636f6e747261637420697320696e697469604482015266616c697a696e6760c81b606482015260840160405180910390fd5b60005460ff9081161015620000e2576000805460ff191660ff9081179091556040519081527f7f26b83ff96e1f2b6a682f133852f6798a09c465da95921460cefb38474024989060200160405180910390a15b565b612f0680620000f46000396000f3fe608060405234801561001057600080fd5b50600436106101da5760003560e01c80636b0ed54411610104578063898e5133116100a25780639bb6085f116100715780639bb6085f14610435578063a9bb8f4a14610448578063e435ea6b14610468578063f2fde38b1461047b57600080fd5b8063898e5133146103e15780638da5cb5b146103f45780639056a04b1461040f5780639140b34d1461042257600080fd5b80637479b43a116100de5780637479b43a146103ab5780638129fc1c146103be57806382ca1153146103c65780638456cb59146103d957600080fd5b80636b0ed5441461037057806370a18f3e14610390578063715018a6146103a357600080fd5b806332596c9b1161017c57806346e635861161014b57806346e635861461031d5780635c975abb1461033257806360a310b31461033d57806362f5870e1461035057600080fd5b806332596c9b146102cc57806339208177146102df5780633f4ba83a146102f25780634690a8b1146102fa57600080fd5b80632294a1b5116101b85780632294a1b51461024057806325507b9d146102605780632881153a14610280578063299e10f61461029357600080fd5b80630e23968a146101df57806319f101fa146102055780631cedb26f1461022b575b600080fd5b6101f26101ed3660046126be565b61048e565b6040519081526020015b60405180910390f35b6102186102133660046126db565b6104e5565b60405161ffff90911681526020016101fc565b61023e6102393660046126be565b6106cb565b005b61025361024e366004612707565b610884565b6040516101fc919061278e565b61027361026e366004612707565b610a33565b6040516101fc91906127f0565b61023e61028e3660046128a5565b610b11565b6101f26102a1366004612906565b6001600160a01b03918216600090815260cb6020908152604080832093909416825291909152205490565b61023e6102da36600461295b565b610b99565b61023e6102ed3660046126db565b610c41565b61023e610ea8565b61030d6103083660046126db565b610eba565b60405190151581526020016101fc565b610325610ee3565b6040516101fc9190612999565b60975460ff1661030d565b61023e61034b366004612906565b610fe8565b61036361035e366004612a09565b6110ca565b6040516101fc9190612a2d565b61038361037e3660046126be565b611159565b6040516101fc9190612a5c565b61023e61039e366004612906565b611267565b61023e611351565b6102186103b93660046126be565b611363565b61023e611442565b61023e6103d4366004612a94565b611563565b61023e6117da565b61023e6103ef366004612ac9565b6117ea565b6065546040516001600160a01b0390911681526020016101fc565b61036361041d3660046126be565b611abc565b6101f26104303660046126be565b611b59565b61023e6104433660046126be565b611bad565b61045b6104563660046126be565b611e28565b6040516101fc9190612b3b565b61023e6104763660046126db565b611f06565b61023e6104893660046126be565b612045565b6000610499826120bb565b6104be5760405162461bcd60e51b81526004016104b590612b7c565b60405180910390fd5b6001600160a01b038216600090815260cc602052604090206104df9061218d565b92915050565b60006104ef612197565b6104f76121f1565b6001600160a01b03831661053e5760405162461bcd60e51b815260206004820152600e60248201526d04c503a204e465420416464723d360941b60448201526064016104b5565b60008390506000816001600160a01b031663a18f4ba06040518163ffffffff1660e01b8152600401602060405180830381865afa158015610583573d6000803e3d6000fd5b505050506040513d601f19601f820116820180604052508101906105a79190612ba3565b604080516060810182526001600160a01b03808616825280841660208084019182528385018a815260ca805461ffff908116600090815260c9909452968320955186549086166001600160a01b031991821617875593516001870180549190961694169390931790935591516002909301929092558154939450929091169161062f83612bd6565b91906101000a81548161ffff021916908361ffff16021790555050846001600160a01b0316336001600160a01b03167fceb5ec421b2c3eb5ba54929f41e2232f8eda845f040bcf073906e88dec3fa5a983876040516106a39291906001600160a01b03929092168252602082015260400190565b60405180910390a360ca546106be9060019061ffff16612bf7565b925050506104df60018055565b60006106d682611363565b61ffff8116600090815260c9602090815260408083205481516318160ddd60e01b8152915194955092936001600160a01b03909316926318160ddd926004808401939192918290030181865afa158015610734573d6000803e3d6000fd5b505050506040513d601f19601f820116820180604052508101906107589190612c12565b90506000811161077a5760405162461bcd60e51b81526004016104b590612c2b565b60005b818110156108485761ffff8316600090815260c96020526040908190205490516331a9108f60e11b81526004810183905233916001600160a01b031690636352211e90602401602060405180830381865afa1580156107e0573d6000803e3d6000fd5b505050506040513d601f19601f820116820180604052508101906108049190612ba3565b6001600160a01b031603610836576001600160a01b038416600090815260cc602052604090206108349082612250565b505b8061084081612c50565b91505061077d565b5060405133906001600160a01b038516907f03e24eee7b5830b2958546585dd678cae28f234eee1044c82c713051313f201f90600090a3505050565b6001600160a01b03808416600090815260cb6020908152604080832093861683529290522054606090808311156108b9578092505b6000836001600160401b038111156108d3576108d3612803565b60405190808252806020026020018201604052801561090657816020015b60608152602001906001900390816108f15790505b50905060005b84811015610a29576001600160a01b03808816600090815260cb60209081526040808320938a1683529290522060016109458386612c69565b61094f9190612c69565b8154811061095f5761095f612c7c565b9060005260206000209060020201600101805461097b90612c92565b80601f01602080910402602001604051908101604052809291908181526020018280546109a790612c92565b80156109f45780601f106109c9576101008083540402835291602001916109f4565b820191906000526020600020905b8154815290600101906020018083116109d757829003601f168201915b5050505050828281518110610a0b57610a0b612c7c565b60200260200101819052508080610a2190612c50565b91505061090c565b5095945050505050565b6001600160a01b03808416600090815260cb6020908152604080832093861683529290522080546060919083908110610a6e57610a6e612c7c565b90600052602060002090600202016001018054610a8a90612c92565b80601f0160208091040260200160405190810160405280929190818152602001828054610ab690612c92565b8015610b035780601f10610ad857610100808354040283529160200191610b03565b820191906000526020600020905b815481529060010190602001808311610ae657829003601f168201915b505050505090509392505050565b6000610b1c84611363565b61ffff8116600090815260c9602052604090819020549051636902622f60e11b81529192506001600160a01b03169063d204c45e90610b619086908690600401612cc6565b600060405180830381600087803b158015610b7b57600080fd5b505af1158015610b8f573d6000803e3d6000fd5b5050505050505050565b610ba16121f1565b6000610bac84611363565b61ffff8116600090815260c96020526040908190205490516370182b2f60e11b8152600481018690523360248201526001600160401b03851660448201529192506001600160a01b03169063e030565e90606401600060405180830381600087803b158015610c1a57600080fd5b505af1158015610c2e573d6000803e3d6000fd5b5050505050610c3c60018055565b505050565b6000610c4c83611363565b61ffff8116600090815260c96020526040908190205490516331a9108f60e11b8152600481018590529192506001600160a01b03169033908290636352211e90602401602060405180830381865afa158015610cac573d6000803e3d6000fd5b505050506040513d601f19601f82011682018060405250810190610cd09190612ba3565b6001600160a01b031614610d155760405162461bcd60e51b815260206004820152600c60248201526b26281d103737ba27bbb732b960a11b60448201526064016104b5565b60405163020604bf60e21b81526004810184905230906001600160a01b0383169063081812fc90602401602060405180830381865afa158015610d5c573d6000803e3d6000fd5b505050506040513d601f19601f82011682018060405250810190610d809190612ba3565b6001600160a01b03161480610dfe575060405163e985e9c560e01b81523360048201523060248201526001600160a01b0382169063e985e9c590604401602060405180830381865afa158015610dda573d6000803e3d6000fd5b505050506040513d601f19601f82011682018060405250810190610dfe9190612cf2565b610e3c5760405162461bcd60e51b815260206004820152600f60248201526e13140e881b9bdd105c1c1c9bdd9959608a1b60448201526064016104b5565b6001600160a01b038416600090815260cc60205260409020610e5e908461225c565b50836001600160a01b03167ff472bb8b2e698cee5cf56e4982e2ebb6690f88b55ea3a02d609bf32bcded382284604051610e9a91815260200190565b60405180910390a250505050565b610eb0612197565b610eb8612268565b565b6001600160a01b038216600090815260cc60205260408120610edc90836122ba565b9392505050565b60ca5460609060009061ffff166001600160401b03811115610f0757610f07612803565b604051908082528060200260200182016040528015610f5257816020015b6040805160608101825260008082526020808301829052928201528252600019909201910181610f255790505b50905060005b60ca5461ffff9081169082161015610fe25761ffff8116600081815260c96020908152604091829020825160608101845281546001600160a01b0390811682526001830154169281019290925260020154918101919091528351909184918110610fc457610fc4612c7c565b60200260200101819052508080610fda90612bd6565b915050610f58565b50919050565b610ff0612197565b6001600160a01b038116600090815260cd602052604090205460ff1661104d5760405162461bcd60e51b815260206004820152601260248201527115130e881b9bdd081c9959da5cdd195c995960721b60448201526064016104b5565b6001600160a01b03808216600090815260cd60209081526040808320805460ff19169055928516825260ce90522061108590826122d2565b50806001600160a01b0316826001600160a01b03167fff62c5ec1a3cf51d41070c9fb8590eb1eba1496f3506af6ffdd2d37334daabaa60405160405180910390a35050565b604080516060810182526000808252602082018190529181019190915260ca5461ffff908116908316106111105760405162461bcd60e51b81526004016104b590612d14565b5061ffff16600090815260c96020908152604091829020825160608101845281546001600160a01b03908116825260018301541692810192909252600201549181019190915290565b6060611164826120bb565b6111805760405162461bcd60e51b81526004016104b590612b7c565b6001600160a01b038216600090815260cc602052604081206111a19061218d565b6001600160401b038111156111b8576111b8612803565b6040519080825280602002602001820160405280156111e1578160200160208202803683370190505b50905060005b6001600160a01b038416600090815260cc602052604090206112089061218d565b811015611260576001600160a01b038416600090815260cc6020526040902061123190826122e7565b82828151811061124357611243612c7c565b60209081029190910101528061125881612c50565b9150506111e7565b5092915050565b61126f612197565b6001600160a01b038116600090815260cd602052604090205460ff16156112d15760405162461bcd60e51b815260206004820152601660248201527515130e88185b1c9958591e481c9959da5cdd195c995960521b60448201526064016104b5565b6001600160a01b03808216600090815260cd60209081526040808320805460ff19166001179055928516825260ce90522061130c90826122f3565b50806001600160a01b0316826001600160a01b03167fd53e517281c4758c330fc24ed8c05d4bc6dfc025d1e8795a9f0498c72fa9198860405160405180910390a35050565b611359612197565b610eb86000612308565b60006001600160a01b03821661138b5760405162461bcd60e51b81526004016104b590612d3b565b60ca5461ffff166000036113d65760405162461bcd60e51b81526020600482015260126024820152714c503a206e6f20636f6c6c656374696f6e7360701b60448201526064016104b5565b60005b60ca5461ffff90811690821610156114295761ffff8116600090815260c960205260409020546001600160a01b038085169116036114175792915050565b8061142181612bd6565b9150506113d9565b5060405162461bcd60e51b81526004016104b590612b7c565b600054610100900460ff16158080156114625750600054600160ff909116105b8061147c5750303b15801561147c575060005460ff166001145b6114df5760405162461bcd60e51b815260206004820152602e60248201527f496e697469616c697a61626c653a20636f6e747261637420697320616c72656160448201526d191e481a5b9a5d1a585b1a5e995960921b60648201526084016104b5565b6000805460ff191660011790558015611502576000805461ff0019166101001790555b61150a61235a565b611512612389565b61151a6123b8565b8015611560576000805461ff0019169055604051600181527f7f26b83ff96e1f2b6a682f133852f6798a09c465da95921460cefb38474024989060200160405180910390a15b50565b61156b6121f1565b6001600160a01b0382166115915760405162461bcd60e51b81526004016104b590612d3b565b600061159c83611363565b61ffff8116600090815260c9602090815260408083205481516318160ddd60e01b8152915194955092936001600160a01b03909316926318160ddd926004808401939192918290030181865afa1580156115fa573d6000803e3d6000fd5b505050506040513d601f19601f8201168201806040525081019061161e9190612c12565b9050600081116116405760405162461bcd60e51b81526004016104b590612c2b565b60005b818110156117265761ffff8316600090815260c96020526040808220549051636178f8a560e11b8152600481018490526001600160a01b039091169063c2f1f14a90602401602060405180830381865afa1580156116a5573d6000803e3d6000fd5b505050506040513d601f19601f820116820180604052508101906116c99190612ba3565b6001600160a01b0316146117145760405162461bcd60e51b81526020600482015260126024820152714c503a2069734e6f74417661696c61626c6560701b60448201526064016104b5565b8061171e81612c50565b915050611643565b5060005b818110156117ca5761ffff8316600090815260c96020526040908190205490516370182b2f60e11b8152600481018390523360248201526001600160401b03861660448201526001600160a01b039091169063e030565e90606401600060405180830381600087803b15801561179f57600080fd5b505af11580156117b3573d6000803e3d6000fd5b5050505080806117c290612c50565b91505061172a565b5050506117d660018055565b5050565b6117e2612197565b610eb86123e7565b6117f2612197565b6117fb846120bb565b6118375760405162461bcd60e51b815260206004820152600d60248201526c15130e881b9bdd08199bdd5b99609a1b60448201526064016104b5565b6000826001600160401b0316116118835760405162461bcd60e51b815260206004820152601060248201526f544c3a20696e76616c6964206461746560801b60448201526064016104b5565b60005b6001600160a01b03808616600090815260cb60209081526040808320938816835292905220548110156119da576001600160a01b03808616600090815260cb6020908152604080832093881683529290522080546001600160401b0385169190839081106118f6576118f6612c7c565b60009182526020909120600290910201546001600160401b0316036119c8576001600160a01b03808616600090815260cb6020908152604080832093881683529290522080548391908390811061194f5761194f612c7c565b9060005260206000209060020201600101908161196c9190612db0565b50826001600160401b0316846001600160a01b0316866001600160a01b03167f16135bb324622d6c33bdcaebde68117495d7c8ef0742cc620629f4a907b34b23856040516119ba91906127f0565b60405180910390a450611ab6565b806119d281612c50565b915050611886565b506001600160a01b03848116600090815260cb60209081526040808320938716835292815282822083518085019094526001600160401b038681168552848301868152825460018082018555938652939094208551600290940201805467ffffffffffffffff19169390911692909217825591519091820190611a5d9082612db0565b505050816001600160401b0316836001600160a01b0316856001600160a01b03167f34e64dc37edb8bfc932bf9430ddb0323ed0de1b7563b69d5f9b605ffac98627e84604051611aad91906127f0565b60405180910390a45b50505050565b6040805160608101825260008082526020820181905291810182905290611ae283611363565b60ca5490915061ffff90811690821610611b0e5760405162461bcd60e51b81526004016104b590612d14565b61ffff16600090815260c96020908152604091829020825160608101845281546001600160a01b03908116825260018301541692810192909252600201549181019190915292915050565b600080611b6583611363565b60ca5490915061ffff90811690821610611b915760405162461bcd60e51b81526004016104b590612d14565b61ffff16600090815260c9602052604090206002015492915050565b6000611bb882611363565b61ffff8116600090815260c9602090815260408083205481516318160ddd60e01b8152915194955092936001600160a01b03909316926318160ddd926004808401939192918290030181865afa158015611c16573d6000803e3d6000fd5b505050506040513d601f19601f82011682018060405250810190611c3a9190612c12565b905060008111611c5c5760405162461bcd60e51b81526004016104b590612c2b565b61ffff8216600090815260c960205260409081902054905163e985e9c560e01b81523360048201523060248201526001600160a01b039091169063e985e9c590604401602060405180830381865afa158015611cbc573d6000803e3d6000fd5b505050506040513d601f19601f82011682018060405250810190611ce09190612cf2565b611d1e5760405162461bcd60e51b815260206004820152600f60248201526e13140e881b9bdd105c1c1c9bdd9959608a1b60448201526064016104b5565b60005b81811015611dec5761ffff8316600090815260c96020526040908190205490516331a9108f60e11b81526004810183905233916001600160a01b031690636352211e90602401602060405180830381865afa158015611d84573d6000803e3d6000fd5b505050506040513d601f19601f82011682018060405250810190611da89190612ba3565b6001600160a01b031603611dda576001600160a01b038416600090815260cc60205260409020611dd8908261225c565b505b80611de481612c50565b915050611d21565b5060405133906001600160a01b038516907f7faef2df1074db3e12877b650931359f98ed5540057b176fb2cc6693c491855f90600090a3505050565b6001600160a01b038116600090815260ce6020526040812060609190611e4d9061218d565b90506000816001600160401b03811115611e6957611e69612803565b604051908082528060200260200182016040528015611e92578160200160208202803683370190505b50905060005b82811015611efe576001600160a01b038516600090815260ce60205260409020611ec290826122e7565b828281518110611ed457611ed4612c7c565b6001600160a01b039092166020928302919091019091015280611ef681612c50565b915050611e98565b509392505050565b6000611f1183611363565b61ffff8116600090815260c96020526040908190205490516331a9108f60e11b81526004810185905291925033916001600160a01b0390911690636352211e90602401602060405180830381865afa158015611f71573d6000803e3d6000fd5b505050506040513d601f19601f82011682018060405250810190611f959190612ba3565b6001600160a01b031614611fda5760405162461bcd60e51b815260206004820152600c60248201526b26281d103737ba27bbb732b960a11b60448201526064016104b5565b6001600160a01b038316600090815260cc60205260409020611ffc9083612250565b50826001600160a01b03167f8a7922f72dc2a50a632acdde12b7d222aefa2fdb7f3ca1364b419734569d0e808360405161203891815260200190565b60405180910390a2505050565b61204d612197565b6001600160a01b0381166120b25760405162461bcd60e51b815260206004820152602660248201527f4f776e61626c653a206e6577206f776e657220697320746865207a65726f206160448201526564647265737360d01b60648201526084016104b5565b61156081612308565b60006001600160a01b0382166120e35760405162461bcd60e51b81526004016104b590612d3b565b60ca5461ffff1660000361212e5760405162461bcd60e51b81526020600482015260126024820152714c503a206e6f20636f6c6c656374696f6e7360701b60448201526064016104b5565b60005b60ca5461ffff90811690821610156121845761ffff8116600090815260c960205260409020546001600160a01b038085169116036121725750600192915050565b8061217c81612bd6565b915050612131565b50600092915050565b60006104df825490565b6065546001600160a01b03163314610eb85760405162461bcd60e51b815260206004820181905260248201527f4f776e61626c653a2063616c6c6572206973206e6f7420746865206f776e657260448201526064016104b5565b6002600154036122435760405162461bcd60e51b815260206004820152601f60248201527f5265656e7472616e637947756172643a207265656e7472616e742063616c6c0060448201526064016104b5565b6002600155565b60018055565b6000610edc8383612424565b6000610edc8383612517565b612270612566565b6097805460ff191690557f5db9ee0a495bf2e6ff9c91a7834c1ba4fdd244a5e8aa4e537bd38aeae4b073aa335b6040516001600160a01b03909116815260200160405180910390a1565b60008181526001830160205260408120541515610edc565b6000610edc836001600160a01b038416612424565b6000610edc83836125af565b6000610edc836001600160a01b038416612517565b606580546001600160a01b038381166001600160a01b0319831681179093556040519116919082907f8be0079c531659141344cd1fd0a4f28419497f9722a3daafe3b4186f6b6457e090600090a35050565b600054610100900460ff166123815760405162461bcd60e51b81526004016104b590612e6f565b610eb86125d9565b600054610100900460ff166123b05760405162461bcd60e51b81526004016104b590612e6f565b610eb861260c565b600054610100900460ff166123df5760405162461bcd60e51b81526004016104b590612e6f565b610eb861263c565b6123ef612663565b6097805460ff191660011790557f62e78cea01bee320cd4e420270b5ea74000d11b0c9f74754ebdbfc544b05a25861229d3390565b6000818152600183016020526040812054801561250d576000612448600183612c69565b855490915060009061245c90600190612c69565b90508181146124c157600086600001828154811061247c5761247c612c7c565b906000526020600020015490508087600001848154811061249f5761249f612c7c565b6000918252602080832090910192909255918252600188019052604090208390555b85548690806124d2576124d2612eba565b6001900381819060005260206000200160009055905585600101600086815260200190815260200160002060009055600193505050506104df565b60009150506104df565b600081815260018301602052604081205461255e575081546001818101845560008481526020808220909301849055845484825282860190935260409020919091556104df565b5060006104df565b60975460ff16610eb85760405162461bcd60e51b815260206004820152601460248201527314185d5cd8589b194e881b9bdd081c185d5cd95960621b60448201526064016104b5565b60008260000182815481106125c6576125c6612c7c565b9060005260206000200154905092915050565b600054610100900460ff166126005760405162461bcd60e51b81526004016104b590612e6f565b6097805460ff19169055565b600054610100900460ff166126335760405162461bcd60e51b81526004016104b590612e6f565b610eb833612308565b600054610100900460ff1661224a5760405162461bcd60e51b81526004016104b590612e6f565b60975460ff1615610eb85760405162461bcd60e51b815260206004820152601060248201526f14185d5cd8589b194e881c185d5cd95960821b60448201526064016104b5565b6001600160a01b038116811461156057600080fd5b6000602082840312156126d057600080fd5b8135610edc816126a9565b600080604083850312156126ee57600080fd5b82356126f9816126a9565b946020939093013593505050565b60008060006060848603121561271c57600080fd5b8335612727816126a9565b92506020840135612737816126a9565b929592945050506040919091013590565b6000815180845260005b8181101561276e57602081850181015186830182015201612752565b506000602082860101526020601f19601f83011685010191505092915050565b6000602080830181845280855180835260408601915060408160051b870101925083870160005b828110156127e357603f198886030184526127d1858351612748565b945092850192908501906001016127b5565b5092979650505050505050565b602081526000610edc6020830184612748565b634e487b7160e01b600052604160045260246000fd5b600082601f83011261282a57600080fd5b81356001600160401b038082111561284457612844612803565b604051601f8301601f19908116603f0116810190828211818310171561286c5761286c612803565b8160405283815286602085880101111561288557600080fd5b836020870160208301376000602085830101528094505050505092915050565b6000806000606084860312156128ba57600080fd5b83356128c5816126a9565b925060208401356128d5816126a9565b915060408401356001600160401b038111156128f057600080fd5b6128fc86828701612819565b9150509250925092565b6000806040838503121561291957600080fd5b8235612924816126a9565b91506020830135612934816126a9565b809150509250929050565b80356001600160401b038116811461295657600080fd5b919050565b60008060006060848603121561297057600080fd5b833561297b816126a9565b9250602084013591506129906040850161293f565b90509250925092565b6020808252825182820181905260009190848201906040850190845b818110156129fd576129ea83855180516001600160a01b03908116835260208083015190911690830152604090810151910152565b92840192606092909201916001016129b5565b50909695505050505050565b600060208284031215612a1b57600080fd5b813561ffff81168114610edc57600080fd5b81516001600160a01b0390811682526020808401519091169082015260408083015190820152606081016104df565b6020808252825182820181905260009190848201906040850190845b818110156129fd57835183529284019291840191600101612a78565b60008060408385031215612aa757600080fd5b8235612ab2816126a9565b9150612ac06020840161293f565b90509250929050565b60008060008060808587031215612adf57600080fd5b8435612aea816126a9565b93506020850135612afa816126a9565b9250612b086040860161293f565b915060608501356001600160401b03811115612b2357600080fd5b612b2f87828801612819565b91505092959194509250565b6020808252825182820181905260009190848201906040850190845b818110156129fd5783516001600160a01b031683529284019291840191600101612b57565b6020808252600d908201526c13140e881b9bdd08199bdd5b99609a1b604082015260600190565b600060208284031215612bb557600080fd5b8151610edc816126a9565b634e487b7160e01b600052601160045260246000fd5b600061ffff808316818103612bed57612bed612bc0565b6001019392505050565b61ffff82811682821603908082111561126057611260612bc0565b600060208284031215612c2457600080fd5b5051919050565b6020808252600b908201526a4c503a206e6f204e46547360a81b604082015260600190565b600060018201612c6257612c62612bc0565b5060010190565b818103818111156104df576104df612bc0565b634e487b7160e01b600052603260045260246000fd5b600181811c90821680612ca657607f821691505b602082108103610fe257634e487b7160e01b600052602260045260246000fd5b6001600160a01b0383168152604060208201819052600090612cea90830184612748565b949350505050565b600060208284031215612d0457600080fd5b81518015158114610edc57600080fd5b6020808252600d908201526c26281d1037baba27b32137bab760991b604082015260600190565b6020808252600d908201526c04c503a206e6674416464723d3609c1b604082015260600190565b601f821115610c3c57600081815260208120601f850160051c81016020861015612d895750805b601f850160051c820191505b81811015612da857828155600101612d95565b505050505050565b81516001600160401b03811115612dc957612dc9612803565b612ddd81612dd78454612c92565b84612d62565b602080601f831160018114612e125760008415612dfa5750858301515b600019600386901b1c1916600185901b178555612da8565b600085815260208120601f198616915b82811015612e4157888601518255948401946001909101908401612e22565b5085821015612e5f5787850151600019600388901b60f8161c191681555b5050505050600190811b01905550565b6020808252602b908201527f496e697469616c697a61626c653a20636f6e7472616374206973206e6f74206960408201526a6e697469616c697a696e6760a81b606082015260800190565b634e487b7160e01b600052603160045260246000fdfea264697066735822122017631894e9fc52e4b2d11e123a3db3df12b09923d0e61c318799c4f1e3bcb2e964736f6c63430008110033",
  "linkReferences": {},
  "deployedLinkReferences": {}
}