{
  "_format": "hh-sol-artifact-1",
  "contractName": "TomaasRWN",
  "sourceName": "contracts/TomaasRWN.sol",
  "abi": [
    {
      "inputs": [
        {
          "internalType": "string",
          "name": "_name",
          "type": "string"
        },
        {
          "internalType": "address",
          "name": "acceptedToken",
          "type": "address"
        },
        {
          "internalType": "uint256",
          "name": "svcStartDate",
          "type": "uint256"
        },
        {
          "internalType": "uint64",
          "name": "usefulLife",
          "type": "uint64"
        },
        {
          "internalType": "uint256",
          "name": "price",
          "type": "uint256"
        }
      ],
      "stateMutability": "nonpayable",
      "type": "constructor"
    },
    {
      "anonymous": false,
      "inputs": [
        {
          "indexed": true,
          "internalType": "address",
          "name": "owner",
          "type": "address"
        },
        {
          "indexed": true,
          "internalType": "address",
          "name": "approved",
          "type": "address"
        },
        {
          "indexed": true,
          "internalType": "uint256",
          "name": "tokenId",
          "type": "uint256"
        }
      ],
      "name": "Approval",
      "type": "event"
    },
    {
      "anonymous": false,
      "inputs": [
        {
          "indexed": true,
          "internalType": "address",
          "name": "owner",
          "type": "address"
        },
        {
          "indexed": true,
          "internalType": "address",
          "name": "operator",
          "type": "address"
        },
        {
          "indexed": false,
          "internalType": "bool",
          "name": "approved",
          "type": "bool"
        }
      ],
      "name": "ApprovalForAll",
      "type": "event"
    },
    {
      "anonymous": false,
      "inputs": [
        {
          "indexed": false,
          "internalType": "uint256",
          "name": "_fromTokenId",
          "type": "uint256"
        },
        {
          "indexed": false,
          "internalType": "uint256",
          "name": "_toTokenId",
          "type": "uint256"
        }
      ],
      "name": "BatchMetadataUpdate",
      "type": "event"
    },
    {
      "anonymous": false,
      "inputs": [
        {
          "indexed": true,
          "internalType": "address",
          "name": "owner",
          "type": "address"
        },
        {
          "indexed": false,
          "internalType": "uint256",
          "name": "tokenId",
          "type": "uint256"
        },
        {
          "indexed": false,
          "internalType": "uint256",
          "name": "amount",
          "type": "uint256"
        }
      ],
      "name": "ClaimEarnings",
      "type": "event"
    },
    {
      "anonymous": false,
      "inputs": [
        {
          "indexed": true,
          "internalType": "address",
          "name": "owner",
          "type": "address"
        },
        {
          "indexed": false,
          "internalType": "uint256",
          "name": "count",
          "type": "uint256"
        },
        {
          "indexed": false,
          "internalType": "uint256",
          "name": "amount",
          "type": "uint256"
        }
      ],
      "name": "ClaimEarningsAllRented",
      "type": "event"
    },
    {
      "anonymous": false,
      "inputs": [
        {
          "indexed": true,
          "internalType": "address",
          "name": "owner",
          "type": "address"
        },
        {
          "indexed": false,
          "internalType": "uint256[]",
          "name": "tokenIds",
          "type": "uint256[]"
        },
        {
          "indexed": false,
          "internalType": "uint256",
          "name": "amount",
          "type": "uint256"
        }
      ],
      "name": "ClaimEarningsMultiple",
      "type": "event"
    },
    {
      "anonymous": false,
      "inputs": [
        {
          "indexed": false,
          "internalType": "uint256",
          "name": "_tokenId",
          "type": "uint256"
        }
      ],
      "name": "MetadataUpdate",
      "type": "event"
    },
    {
      "anonymous": false,
      "inputs": [
        {
          "indexed": false,
          "internalType": "string",
          "name": "name",
          "type": "string"
        },
        {
          "indexed": false,
          "internalType": "address",
          "name": "acceptedToken",
          "type": "address"
        },
        {
          "indexed": false,
          "internalType": "uint256",
          "name": "svcStartDate",
          "type": "uint256"
        },
        {
          "indexed": false,
          "internalType": "uint64",
          "name": "usefulLife",
          "type": "uint64"
        },
        {
          "indexed": false,
          "internalType": "uint256",
          "name": "price",
          "type": "uint256"
        }
      ],
      "name": "NewTRN",
      "type": "event"
    },
    {
      "anonymous": false,
      "inputs": [
        {
          "indexed": true,
          "internalType": "address",
          "name": "previousOwner",
          "type": "address"
        },
        {
          "indexed": true,
          "internalType": "address",
          "name": "newOwner",
          "type": "address"
        }
      ],
      "name": "OwnershipTransferred",
      "type": "event"
    },
    {
      "anonymous": false,
      "inputs": [
        {
          "indexed": false,
          "internalType": "address",
          "name": "account",
          "type": "address"
        }
      ],
      "name": "Paused",
      "type": "event"
    },
    {
      "anonymous": false,
      "inputs": [
        {
          "indexed": true,
          "internalType": "address",
          "name": "renter",
          "type": "address"
        },
        {
          "indexed": false,
          "internalType": "uint256",
          "name": "tokenId",
          "type": "uint256"
        },
        {
          "indexed": false,
          "internalType": "uint256",
          "name": "amount",
          "type": "uint256"
        },
        {
          "indexed": false,
          "internalType": "string",
          "name": "reportUri",
          "type": "string"
        }
      ],
      "name": "PayOutEarnings",
      "type": "event"
    },
    {
      "anonymous": false,
      "inputs": [
        {
          "indexed": true,
          "internalType": "address",
          "name": "renter",
          "type": "address"
        },
        {
          "indexed": false,
          "internalType": "uint256",
          "name": "amount",
          "type": "uint256"
        },
        {
          "indexed": false,
          "internalType": "string",
          "name": "reportUri",
          "type": "string"
        }
      ],
      "name": "PayOutEarningsAllRented",
      "type": "event"
    },
    {
      "anonymous": false,
      "inputs": [
        {
          "indexed": true,
          "internalType": "address",
          "name": "renter",
          "type": "address"
        },
        {
          "indexed": false,
          "internalType": "uint256[]",
          "name": "tokenIds",
          "type": "uint256[]"
        },
        {
          "indexed": false,
          "internalType": "uint256",
          "name": "amount",
          "type": "uint256"
        },
        {
          "indexed": false,
          "internalType": "string",
          "name": "reportUri",
          "type": "string"
        }
      ],
      "name": "PayOutEarningsMultiple",
      "type": "event"
    },
    {
      "anonymous": false,
      "inputs": [
        {
          "indexed": true,
          "internalType": "address",
          "name": "from",
          "type": "address"
        },
        {
          "indexed": true,
          "internalType": "address",
          "name": "to",
          "type": "address"
        },
        {
          "indexed": true,
          "internalType": "uint256",
          "name": "tokenId",
          "type": "uint256"
        }
      ],
      "name": "Transfer",
      "type": "event"
    },
    {
      "anonymous": false,
      "inputs": [
        {
          "indexed": false,
          "internalType": "address",
          "name": "account",
          "type": "address"
        }
      ],
      "name": "Unpaused",
      "type": "event"
    },
    {
      "anonymous": false,
      "inputs": [
        {
          "indexed": true,
          "internalType": "uint256",
          "name": "tokenId",
          "type": "uint256"
        },
        {
          "indexed": true,
          "internalType": "address",
          "name": "user",
          "type": "address"
        },
        {
          "indexed": false,
          "internalType": "uint64",
          "name": "expires",
          "type": "uint64"
        }
      ],
      "name": "UpdateUser",
      "type": "event"
    },
    {
      "anonymous": false,
      "inputs": [
        {
          "indexed": true,
          "internalType": "address",
          "name": "user",
          "type": "address"
        },
        {
          "indexed": false,
          "internalType": "uint64",
          "name": "expires",
          "type": "uint64"
        },
        {
          "indexed": false,
          "internalType": "uint256[]",
          "name": "tokenIds",
          "type": "uint256[]"
        }
      ],
      "name": "UpdateUsers",
      "type": "event"
    },
    {
      "inputs": [
        {
          "internalType": "address",
          "name": "to",
          "type": "address"
        },
        {
          "internalType": "uint256",
          "name": "tokenId",
          "type": "uint256"
        }
      ],
      "name": "approve",
      "outputs": [],
      "stateMutability": "nonpayable",
      "type": "function"
    },
    {
      "inputs": [
        {
          "internalType": "address",
          "name": "owner",
          "type": "address"
        }
      ],
      "name": "balanceOf",
      "outputs": [
        {
          "internalType": "uint256",
          "name": "",
          "type": "uint256"
        }
      ],
      "stateMutability": "view",
      "type": "function"
    },
    {
      "inputs": [
        {
          "internalType": "uint256",
          "name": "tokenId",
          "type": "uint256"
        }
      ],
      "name": "claimEarnings",
      "outputs": [],
      "stateMutability": "nonpayable",
      "type": "function"
    },
    {
      "inputs": [],
      "name": "claimEarningsAllRented",
      "outputs": [
        {
          "internalType": "uint256",
          "name": "",
          "type": "uint256"
        }
      ],
      "stateMutability": "nonpayable",
      "type": "function"
    },
    {
      "inputs": [],
      "name": "countOfRented",
      "outputs": [
        {
          "internalType": "uint256",
          "name": "",
          "type": "uint256"
        }
      ],
      "stateMutability": "view",
      "type": "function"
    },
    {
      "inputs": [],
      "name": "getAcceptedToken",
      "outputs": [
        {
          "internalType": "address",
          "name": "",
          "type": "address"
        }
      ],
      "stateMutability": "view",
      "type": "function"
    },
    {
      "inputs": [
        {
          "internalType": "uint256",
          "name": "tokenId",
          "type": "uint256"
        }
      ],
      "name": "getApproved",
      "outputs": [
        {
          "internalType": "address",
          "name": "",
          "type": "address"
        }
      ],
      "stateMutability": "view",
      "type": "function"
    },
    {
      "inputs": [],
      "name": "getBookValue",
      "outputs": [
        {
          "internalType": "uint256",
          "name": "",
          "type": "uint256"
        }
      ],
      "stateMutability": "view",
      "type": "function"
    },
    {
      "inputs": [],
      "name": "getFeeRate",
      "outputs": [
        {
          "internalType": "uint256",
          "name": "",
          "type": "uint256"
        }
      ],
      "stateMutability": "view",
      "type": "function"
    },
    {
      "inputs": [
        {
          "internalType": "address",
          "name": "renter",
          "type": "address"
        }
      ],
      "name": "getRentedList",
      "outputs": [
        {
          "internalType": "uint256[]",
          "name": "",
          "type": "uint256[]"
        }
      ],
      "stateMutability": "view",
      "type": "function"
    },
    {
      "inputs": [
        {
          "internalType": "address",
          "name": "owner",
          "type": "address"
        },
        {
          "internalType": "address",
          "name": "operator",
          "type": "address"
        }
      ],
      "name": "isApprovedForAll",
      "outputs": [
        {
          "internalType": "bool",
          "name": "",
          "type": "bool"
        }
      ],
      "stateMutability": "view",
      "type": "function"
    },
    {
      "inputs": [],
      "name": "name",
      "outputs": [
        {
          "internalType": "string",
          "name": "",
          "type": "string"
        }
      ],
      "stateMutability": "view",
      "type": "function"
    },
    {
      "inputs": [],
      "name": "owner",
      "outputs": [
        {
          "internalType": "address",
          "name": "",
          "type": "address"
        }
      ],
      "stateMutability": "view",
      "type": "function"
    },
    {
      "inputs": [
        {
          "internalType": "uint256",
          "name": "tokenId",
          "type": "uint256"
        }
      ],
      "name": "ownerOf",
      "outputs": [
        {
          "internalType": "address",
          "name": "",
          "type": "address"
        }
      ],
      "stateMutability": "view",
      "type": "function"
    },
    {
      "inputs": [],
      "name": "pause",
      "outputs": [],
      "stateMutability": "nonpayable",
      "type": "function"
    },
    {
      "inputs": [],
      "name": "paused",
      "outputs": [
        {
          "internalType": "bool",
          "name": "",
          "type": "bool"
        }
      ],
      "stateMutability": "view",
      "type": "function"
    },
    {
      "inputs": [
        {
          "internalType": "uint256",
          "name": "tokenId",
          "type": "uint256"
        },
        {
          "internalType": "uint256",
          "name": "amount",
          "type": "uint256"
        },
        {
          "internalType": "string",
          "name": "reportUri",
          "type": "string"
        }
      ],
      "name": "payOutEarnings",
      "outputs": [],
      "stateMutability": "nonpayable",
      "type": "function"
    },
    {
      "inputs": [
        {
          "internalType": "uint256",
          "name": "amount",
          "type": "uint256"
        },
        {
          "internalType": "string",
          "name": "reportUri",
          "type": "string"
        }
      ],
      "name": "payOutEarningsAllRented",
      "outputs": [],
      "stateMutability": "nonpayable",
      "type": "function"
    },
    {
      "inputs": [
        {
          "internalType": "uint256",
          "name": "amount",
          "type": "uint256"
        },
        {
          "internalType": "uint256[]",
          "name": "tokenIds",
          "type": "uint256[]"
        },
        {
          "internalType": "string",
          "name": "reportUri",
          "type": "string"
        }
      ],
      "name": "payOutEarningsMultiple",
      "outputs": [],
      "stateMutability": "nonpayable",
      "type": "function"
    },
    {
      "inputs": [],
      "name": "renounceOwnership",
      "outputs": [],
      "stateMutability": "nonpayable",
      "type": "function"
    },
    {
      "inputs": [
        {
          "internalType": "address",
          "name": "to",
          "type": "address"
        },
        {
          "internalType": "string",
          "name": "uri",
          "type": "string"
        }
      ],
      "name": "safeMint",
      "outputs": [],
      "stateMutability": "nonpayable",
      "type": "function"
    },
    {
      "inputs": [
        {
          "internalType": "address",
          "name": "to",
          "type": "address"
        },
        {
          "internalType": "string",
          "name": "uri",
          "type": "string"
        },
        {
          "internalType": "uint64",
          "name": "number",
          "type": "uint64"
        }
      ],
      "name": "safeMintMultiple",
      "outputs": [],
      "stateMutability": "nonpayable",
      "type": "function"
    },
    {
      "inputs": [
        {
          "internalType": "address",
          "name": "to",
          "type": "address"
        },
        {
          "internalType": "string",
          "name": "uri",
          "type": "string"
        },
        {
          "internalType": "uint64",
          "name": "number",
          "type": "uint64"
        },
        {
          "internalType": "address",
          "name": "user",
          "type": "address"
        },
        {
          "internalType": "uint64",
          "name": "expires",
          "type": "uint64"
        }
      ],
      "name": "safeMintMultipleAndSetUser",
      "outputs": [],
      "stateMutability": "nonpayable",
      "type": "function"
    },
    {
      "inputs": [
        {
          "internalType": "address",
          "name": "from",
          "type": "address"
        },
        {
          "internalType": "address",
          "name": "to",
          "type": "address"
        },
        {
          "internalType": "uint256",
          "name": "tokenId",
          "type": "uint256"
        }
      ],
      "name": "safeTransferFrom",
      "outputs": [],
      "stateMutability": "nonpayable",
      "type": "function"
    },
    {
      "inputs": [
        {
          "internalType": "address",
          "name": "from",
          "type": "address"
        },
        {
          "internalType": "address",
          "name": "to",
          "type": "address"
        },
        {
          "internalType": "uint256",
          "name": "tokenId",
          "type": "uint256"
        },
        {
          "internalType": "bytes",
          "name": "data",
          "type": "bytes"
        }
      ],
      "name": "safeTransferFrom",
      "outputs": [],
      "stateMutability": "nonpayable",
      "type": "function"
    },
    {
      "inputs": [
        {
          "internalType": "address",
          "name": "operator",
          "type": "address"
        },
        {
          "internalType": "bool",
          "name": "approved",
          "type": "bool"
        }
      ],
      "name": "setApprovalForAll",
      "outputs": [],
      "stateMutability": "nonpayable",
      "type": "function"
    },
    {
      "inputs": [
        {
          "internalType": "uint256",
          "name": "rate",
          "type": "uint256"
        }
      ],
      "name": "setFeeRate",
      "outputs": [],
      "stateMutability": "nonpayable",
      "type": "function"
    },
    {
      "inputs": [
        {
          "internalType": "uint256",
          "name": "tokenId",
          "type": "uint256"
        },
        {
          "internalType": "address",
          "name": "user",
          "type": "address"
        },
        {
          "internalType": "uint64",
          "name": "expires",
          "type": "uint64"
        }
      ],
      "name": "setUser",
      "outputs": [],
      "stateMutability": "nonpayable",
      "type": "function"
    },
    {
      "inputs": [
        {
          "internalType": "address",
          "name": "user",
          "type": "address"
        },
        {
          "internalType": "uint64",
          "name": "expires",
          "type": "uint64"
        },
        {
          "internalType": "uint256[]",
          "name": "tokenIds",
          "type": "uint256[]"
        }
      ],
      "name": "setUserMultiple",
      "outputs": [],
      "stateMutability": "nonpayable",
      "type": "function"
    },
    {
      "inputs": [
        {
          "internalType": "bytes4",
          "name": "interfaceId",
          "type": "bytes4"
        }
      ],
      "name": "supportsInterface",
      "outputs": [
        {
          "internalType": "bool",
          "name": "",
          "type": "bool"
        }
      ],
      "stateMutability": "view",
      "type": "function"
    },
    {
      "inputs": [],
      "name": "symbol",
      "outputs": [
        {
          "internalType": "string",
          "name": "",
          "type": "string"
        }
      ],
      "stateMutability": "view",
      "type": "function"
    },
    {
      "inputs": [
        {
          "internalType": "uint256",
          "name": "tokenId",
          "type": "uint256"
        }
      ],
      "name": "tokenURI",
      "outputs": [
        {
          "internalType": "string",
          "name": "",
          "type": "string"
        }
      ],
      "stateMutability": "view",
      "type": "function"
    },
    {
      "inputs": [],
      "name": "totalDistributedEarnings",
      "outputs": [
        {
          "internalType": "uint256",
          "name": "",
          "type": "uint256"
        }
      ],
      "stateMutability": "view",
      "type": "function"
    },
    {
      "inputs": [],
      "name": "totalSupply",
      "outputs": [
        {
          "internalType": "uint256",
          "name": "",
          "type": "uint256"
        }
      ],
      "stateMutability": "view",
      "type": "function"
    },
    {
      "inputs": [
        {
          "internalType": "address",
          "name": "from",
          "type": "address"
        },
        {
          "internalType": "address",
          "name": "to",
          "type": "address"
        },
        {
          "internalType": "uint256",
          "name": "tokenId",
          "type": "uint256"
        }
      ],
      "name": "transferFrom",
      "outputs": [],
      "stateMutability": "nonpayable",
      "type": "function"
    },
    {
      "inputs": [
        {
          "internalType": "address",
          "name": "newOwner",
          "type": "address"
        }
      ],
      "name": "transferOwnership",
      "outputs": [],
      "stateMutability": "nonpayable",
      "type": "function"
    },
    {
      "inputs": [
        {
          "internalType": "uint256",
          "name": "tokenId",
          "type": "uint256"
        }
      ],
      "name": "unClaimedEarnings",
      "outputs": [
        {
          "internalType": "uint256",
          "name": "",
          "type": "uint256"
        }
      ],
      "stateMutability": "view",
      "type": "function"
    },
    {
      "inputs": [],
      "name": "unClaimedEarningsAll",
      "outputs": [
        {
          "internalType": "uint256",
          "name": "",
          "type": "uint256"
        }
      ],
      "stateMutability": "view",
      "type": "function"
    },
    {
      "inputs": [],
      "name": "unpause",
      "outputs": [],
      "stateMutability": "nonpayable",
      "type": "function"
    },
    {
      "inputs": [
        {
          "internalType": "uint256",
          "name": "tokenId",
          "type": "uint256"
        }
      ],
      "name": "userExpires",
      "outputs": [
        {
          "internalType": "uint256",
          "name": "",
          "type": "uint256"
        }
      ],
      "stateMutability": "view",
      "type": "function"
    },
    {
      "inputs": [
        {
          "internalType": "uint256",
          "name": "tokenId",
          "type": "uint256"
        }
      ],
      "name": "userOf",
      "outputs": [
        {
          "internalType": "address",
          "name": "",
          "type": "address"
        }
      ],
      "stateMutability": "view",
      "type": "function"
    }
  ],
  "bytecode": "0x60806040523480156200001157600080fd5b50604051620040af380380620040af8339810160408190526200003491620001e7565b6040805180820190915260038152622a292760e91b6020820152859060006200005e838262000369565b5060016200006d828262000369565b50506007805460ff191690555062000085336200011c565b60016008556064600c55600b80546001600160a01b0319166001600160a01b038616179055600d839055600e80546001600160401b0319166001600160401b038416179055600f8190556040517f18e28ddf0b81d96348107094a18af74f541fefd93e093ee4f101ec102fedf98d9062000109908790879087908790879062000435565b60405180910390a1505050505062000498565b600780546001600160a01b03838116610100818102610100600160a81b031985161790945560405193909204169182907f8be0079c531659141344cd1fd0a4f28419497f9722a3daafe3b4186f6b6457e090600090a35050565b634e487b7160e01b600052604160045260246000fd5b60005b83811015620001a95781810151838201526020016200018f565b50506000910152565b80516001600160a01b0381168114620001ca57600080fd5b919050565b80516001600160401b0381168114620001ca57600080fd5b600080600080600060a086880312156200020057600080fd5b85516001600160401b03808211156200021857600080fd5b818801915088601f8301126200022d57600080fd5b81518181111562000242576200024262000176565b604051601f8201601f19908116603f011681019083821181831017156200026d576200026d62000176565b816040528281528b60208487010111156200028757600080fd5b6200029a8360208301602088016200018c565b8099505050505050620002b060208701620001b2565b935060408601519250620002c760608701620001cf565b9150608086015190509295509295909350565b600181811c90821680620002ef57607f821691505b6020821081036200031057634e487b7160e01b600052602260045260246000fd5b50919050565b601f8211156200036457600081815260208120601f850160051c810160208610156200033f5750805b601f850160051c820191505b8181101562000360578281556001016200034b565b5050505b505050565b81516001600160401b0381111562000385576200038562000176565b6200039d81620003968454620002da565b8462000316565b602080601f831160018114620003d55760008415620003bc5750858301515b600019600386901b1c1916600185901b17855562000360565b600085815260208120601f198616915b828110156200040657888601518255948401946001909101908401620003e5565b5085821015620004255787850151600019600388901b60f8161c191681555b5050505050600190811b01905550565b60a08152600086518060a0840152620004568160c0850160208b016200018c565b6001600160a01b039690961660208301525060408101939093526001600160401b03919091166060830152608082015260c0601f909201601f19160101919050565b613c0780620004a86000396000f3fe608060405234801561001057600080fd5b50600436106102535760003560e01c806384e5eed011610146578063c87b56dd116100c3578063e985e9c511610087578063e985e9c5146104d3578063ea791b57146104e6578063ecefa650146104f9578063f2fde38b1461050c578063f89174341461051f578063fce5831f1461052757600080fd5b8063c87b56dd14610474578063cf727cfa14610487578063d204c45e1461049a578063d5e1de1c146104ad578063e030565e146104c057600080fd5b8063a22cb4651161010a578063a22cb46514610415578063a928934f14610428578063b88d4fde1461043b578063be7d33cc1461044e578063c2f1f14a1461046157600080fd5b806384e5eed0146103cb5780638da5cb5b146103d35780638fc88c48146103e957806395d89b41146103fc578063a18f4ba01461040457600080fd5b8063358c71ab116101d45780636352211e116101985780636352211e1461038d57806370a08231146103a057806370bbbe97146103b3578063715018a6146103bb5780638456cb59146103c357600080fd5b8063358c71ab146103345780633f4ba83a1461035457806342842e0e1461035c57806345596e2e1461036f5780635c975abb1461038257600080fd5b80630db1544a1161021b5780630db1544a146102eb57806318160ddd146102fe57806323b872dd1461030657806324b1babf146103195780632e2d651e1461032c57600080fd5b806301ffc9a71461025857806306fdde0314610280578063081812fc14610295578063095ea7b3146102c05780630a757176146102d5575b600080fd5b61026b610266366004613014565b61052f565b60405190151581526020015b60405180910390f35b61028861055a565b6040516102779190613081565b6102a86102a3366004613094565b6105ec565b6040516001600160a01b039091168152602001610277565b6102d36102ce3660046130c4565b610613565b005b6102dd61072d565b604051908152602001610277565b6102d36102f93660046131ab565b61077b565b6102dd610aa2565b6102d361031436600461327d565b610ab2565b6102d3610327366004613094565b610ae3565b6102dd610e6a565b6103476103423660046132b9565b6111d5565b604051610277919061330f565b6102d36111e0565b6102d361036a36600461327d565b6111f2565b6102d361037d366004613094565b61120d565b60075460ff1661026b565b6102a861039b366004613094565b61121a565b6102dd6103ae3660046132b9565b61127a565b6011546102dd565b6102d3611300565b6102d3611312565b600c546102dd565b60075461010090046001600160a01b03166102a8565b6102dd6103f7366004613094565b611322565b61028861136c565b600b546001600160a01b03166102a8565b6102d3610423366004613330565b61137b565b6102d361043636600461337e565b61138a565b6102d36104493660046133db565b6113e7565b6102d361045c366004613456565b61141f565b6102a861046f366004613094565b61166f565b610288610482366004613094565b61169f565b6102d361049536600461349b565b6116cf565b6102d36104a836600461352b565b6118dd565b6102dd6104bb366004613094565b611914565b6102d36104ce366004613578565b61194e565b61026b6104e13660046135ab565b611aa2565b6102d36104f43660046135de565b611ad0565b6102d361050736600461365d565b611c50565b6102d361051a3660046132b9565b611e04565b6102dd611e7a565b6102dd611f1e565b60006001600160e01b03198216632b424ad760e21b1480610554575061055482611f73565b92915050565b6060600080546105699061368d565b80601f01602080910402602001604051908101604052809291908181526020018280546105959061368d565b80156105e25780601f106105b7576101008083540402835291602001916105e2565b820191906000526020600020905b8154815290600101906020018083116105c557829003601f168201915b5050505050905090565b60006105f782611f98565b506000908152600460205260409020546001600160a01b031690565b600061061e8261121a565b9050806001600160a01b0316836001600160a01b0316036106905760405162461bcd60e51b815260206004820152602160248201527f4552433732313a20617070726f76616c20746f2063757272656e74206f776e656044820152603960f91b60648201526084015b60405180910390fd5b336001600160a01b03821614806106ac57506106ac8133611aa2565b61071e5760405162461bcd60e51b815260206004820152603d60248201527f4552433732313a20617070726f76652063616c6c6572206973206e6f7420746f60448201527f6b656e206f776e6572206f7220617070726f76656420666f7220616c6c0000006064820152608401610687565b6107288383611fe8565b505050565b600080805b60095481101561077557600061074782612056565b6001600160a01b031614610763578161075f816136d7565b9250505b8061076d816136d7565b915050610732565b50919050565b6107836120a5565b60008084116107a45760405162461bcd60e51b8152600401610687906136f0565b60008351116107eb5760405162461bcd60e51b815260206004820152601360248201527252574e3a20746f6b656e49647349735a65726f60681b6044820152606401610687565b600b546040516370a0823160e01b81523360048201526001600160a01b0390911690859082906370a0823190602401602060405180830381865afa158015610837573d6000803e3d6000fd5b505050506040513d601f19601f8201168201806040525081019061085b919061371b565b10156108795760405162461bcd60e51b815260040161068790613734565b6040516323b872dd60e01b8152336004820152306024820152604481018690526001600160a01b038216906323b872dd906064016020604051808303816000875af11580156108cc573d6000803e3d6000fd5b505050506040513d601f19601f820116820180604052508101906108f09190613763565b61090c5760405162461bcd60e51b815260040161068790613780565b835161091890866137ad565b915060005b8451811015610a405761094885828151811061093b5761093b6137cf565b60200260200101516120fe565b6109645760405162461bcd60e51b8152600401610687906137e5565b336001600160a01b0316600a6000878481518110610984576109846137cf565b6020908102919091018101518252810191909152604001600020546001600160a01b0316146109ec5760405162461bcd60e51b8152602060048201526014602482015273292ba71d1039b2b73232b924b9a737ba2ab9b2b960611b6044820152606401610687565b8260106000878481518110610a0357610a036137cf565b602002602001015181526020019081526020016000206000828254610a289190613813565b90915550819050610a38816136d7565b91505061091d565b508460116000828254610a539190613813565b909155505060405133907f7e99d5dcc623345d8c2e9e60cbc204d80ebc1fe8b7e343f9a6e7332f5f3deebf90610a8e90879089908890613826565b60405180910390a250506107286001600855565b6000610aad60095490565b905090565b610abc338261211b565b610ad85760405162461bcd60e51b815260040161068790613851565b61072883838361217a565b610aeb6120a5565b610af4816120fe565b610b105760405162461bcd60e51b8152600401610687906137e5565b33610b1a8261121a565b6001600160a01b031614610b605760405162461bcd60e51b815260206004820152600d60248201526c292ba71d103737ba27bbb732b960991b6044820152606401610687565b60008181526010602052604090205480610bb55760405162461bcd60e51b815260206004820152601660248201527552574e3a206e6f4561726e696e6773546f436c61696d60501b6044820152606401610687565b6000612710600c5483610bc8919061389e565b610bd291906137ad565b90506000610be082846138b5565b600b546040516370a0823160e01b81523060048201529192506001600160a01b031690849082906370a0823190602401602060405180830381865afa158015610c2d573d6000803e3d6000fd5b505050506040513d601f19601f82011682018060405250810190610c51919061371b565b1015610c6f5760405162461bcd60e51b815260040161068790613734565b60405163a9059cbb60e01b8152336004820152602481018390526001600160a01b0382169063a9059cbb906044016020604051808303816000875af1158015610cbc573d6000803e3d6000fd5b505050506040513d601f19601f82011682018060405250810190610ce09190613763565b610d285760405162461bcd60e51b8152602060048201526019602482015278292ba71d103a3930b739b332b92330b4b632b22a37aab9b2b960391b6044820152606401610687565b806001600160a01b031663a9059cbb610d4f6007546001600160a01b036101009091041690565b6040516001600160e01b031960e084901b1681526001600160a01b039091166004820152602481018690526044016020604051808303816000875af1158015610d9c573d6000803e3d6000fd5b505050506040513d601f19601f82011682018060405250810190610dc09190613763565b610e0c5760405162461bcd60e51b815260206004820152601d60248201527f52574e3a207472616e736665724661696c6564546f50726f746f636f6c0000006044820152606401610687565b600085815260106020908152604080832092909255815187815290810186905233917fb1a896c7da442357bd9510515e310e230797d0acd2d051a790d5d39af5ee045f910160405180910390a250505050610e676001600855565b50565b6000610e746120a5565b60008060005b600954811015610ee65733610e8e8261121a565b6001600160a01b031603610ed457600081815260106020526040902054610eb59084613813565b600082815260106020526040812055925081610ed0816136d7565b9250505b80610ede816136d7565b915050610e7a565b5060008211610f305760405162461bcd60e51b815260206004820152601660248201527552574e3a206e6f4561726e696e6773546f436c61696d60501b6044820152606401610687565b6000612710600c5484610f43919061389e565b610f4d91906137ad565b90506000610f5b82856138b5565b600b546040516370a0823160e01b81523060048201529192506001600160a01b031690859082906370a0823190602401602060405180830381865afa158015610fa8573d6000803e3d6000fd5b505050506040513d601f19601f82011682018060405250810190610fcc919061371b565b1015610fea5760405162461bcd60e51b815260040161068790613734565b60405163a9059cbb60e01b8152336004820152602481018390526001600160a01b0382169063a9059cbb906044016020604051808303816000875af1158015611037573d6000803e3d6000fd5b505050506040513d601f19601f8201168201806040525081019061105b9190613763565b6110a35760405162461bcd60e51b8152602060048201526019602482015278292ba71d103a3930b739b332b92330b4b632b22a37aab9b2b960391b6044820152606401610687565b806001600160a01b031663a9059cbb6110ca6007546001600160a01b036101009091041690565b6040516001600160e01b031960e084901b1681526001600160a01b039091166004820152602481018690526044016020604051808303816000875af1158015611117573d6000803e3d6000fd5b505050506040513d601f19601f8201168201806040525081019061113b9190613763565b6111875760405162461bcd60e51b815260206004820152601d60248201527f52574e3a207472616e736665724661696c6564546f50726f746f636f6c0000006044820152606401610687565b604080518581526020810187905233917f2aab050d6a034d1257b8706bd89cce5b637b0d8ff6668919d10f1fc1cbeb9942910160405180910390a25093505050506111d26001600855565b90565b6060610554826122eb565b6111e86123bc565b6111f061241c565b565b610728838383604051806020016040528060008152506113e7565b6112156123bc565b600c55565b6000818152600260205260408120546001600160a01b0316806105545760405162461bcd60e51b8152602060048201526018602482015277115490cdcc8c4e881a5b9d985b1a59081d1bdad95b88125160421b6044820152606401610687565b60006001600160a01b0382166112e45760405162461bcd60e51b815260206004820152602960248201527f4552433732313a2061646472657373207a65726f206973206e6f7420612076616044820152683634b21037bbb732b960b91b6064820152608401610687565b506001600160a01b031660009081526003602052604090205490565b6113086123bc565b6111f0600061246e565b61131a6123bc565b6111f06124c8565b600061132d826120fe565b6113495760405162461bcd60e51b8152600401610687906137e5565b506000908152600a6020526040902054600160a01b90046001600160401b031690565b6060600180546105699061368d565b611386338383612505565b5050565b6113926123bc565b6000805b826001600160401b03168110156113e05760095491506113ba600980546001019055565b6113c485836125d3565b6113ce82856125ed565b806113d8816136d7565b915050611396565b5050505050565b6113f1338361211b565b61140d5760405162461bcd60e51b815260040161068790613851565b611419848484846126a9565b50505050565b6114276120a5565b600082116114475760405162461bcd60e51b8152600401610687906136f0565b611450836120fe565b61146c5760405162461bcd60e51b8152600401610687906137e5565b6000838152600a60205260409020546001600160a01b031633146114c95760405162461bcd60e51b8152602060048201526014602482015273292ba71d1039b2b73232b924b9a737ba2ab9b2b960611b6044820152606401610687565b600b546040516370a0823160e01b81523360048201526001600160a01b0390911690839082906370a0823190602401602060405180830381865afa158015611515573d6000803e3d6000fd5b505050506040513d601f19601f82011682018060405250810190611539919061371b565b10156115575760405162461bcd60e51b815260040161068790613734565b6040516323b872dd60e01b8152336004820152306024820152604481018490526001600160a01b038216906323b872dd906064016020604051808303816000875af11580156115aa573d6000803e3d6000fd5b505050506040513d601f19601f820116820180604052508101906115ce9190613763565b6115ea5760405162461bcd60e51b815260040161068790613780565b60008481526010602052604081208054859290611608908490613813565b9250508190555082601160008282546116219190613813565b909155505060405133907fc62b719aa3418a4ea16f22271b8911ee606cdd45d8c8398dd3257788d11f7c3b9061165c908790879087906138c8565b60405180910390a2506107286001600855565b600061167a826120fe565b6116965760405162461bcd60e51b8152600401610687906137e5565b61055482612056565b60606116aa826120fe565b6116c65760405162461bcd60e51b8152600401610687906137e5565b610554826126dc565b60005b81811015611891576116fb8383838181106116ef576116ef6137cf565b905060200201356120fe565b6117175760405162461bcd60e51b8152600401610687906137e5565b6117393384848481811061172d5761172d6137cf565b9050602002013561211b565b61177b5760405162461bcd60e51b8152602060048201526013602482015272292ba71d103737ba27bbb732b927b920b8383960691b6044820152606401610687565b600061179e848484818110611792576117926137cf565b90506020020135612056565b90506001600160a01b038116156117eb576001600160a01b03811660009081526012602052604090206117e9908585858181106117dd576117dd6137cf565b905060200201356127e4565b505b6000600a6000868686818110611803576118036137cf565b60209081029290920135835250818101929092526040908101600090812080546001600160a01b038c166001600160e01b03199091168117600160a01b6001600160401b038d1602178255825260129093522090915061187b9086868681811061186f5761186f6137cf565b905060200201356127f7565b5050508080611889906136d7565b9150506116d2565b50836001600160a01b03167fdcf77e0e938282128beeea6a61d2bc91e62320864279f2238d2e030f703de6728484846040516118cf939291906138f0565b60405180910390a250505050565b6118e56123bc565b60006118f060095490565b9050611900600980546001019055565b61190a83826125d3565b61072881836125ed565b600061191f826120fe565b61193b5760405162461bcd60e51b8152600401610687906137e5565b5060009081526010602052604090205490565b611957836120fe565b6119735760405162461bcd60e51b8152600401610687906137e5565b61197d338461211b565b6119bf5760405162461bcd60e51b8152602060048201526013602482015272292ba71d103737ba27bbb732b927b920b8383960691b6044820152606401610687565b60006119ca84612056565b90506001600160a01b038116156119ff576001600160a01b03811660009081526012602052604090206119fd90856127e4565b505b6000848152600a6020908152604080832080546001600160a01b0388166001600160e01b03199091168117600160a01b6001600160401b0389160217825584526012909252909120611a5190866127f7565b506040516001600160401b03841681526001600160a01b0385169086907f4e06b4e7000e659094299b3533b47b6aa8ad048e95e872d23d1f4ee55af89cfe9060200160405180910390a35050505050565b6001600160a01b03918216600090815260056020908152604080832093909416825291909152205460ff1690565b611ad86123bc565b600080846001600160401b03166001600160401b03811115611afc57611afc6130ee565b604051908082528060200260200182016040528015611b25578160200160208202803683370190505b50905060005b856001600160401b0316811015611c03576009549250611b4f600980546001019055565b611b5988846125d3565b611b6383886125ed565b6040805180820182526001600160a01b038088168083526001600160401b03808916602080860191825260008a8152600a8252878120965187549351909416600160a01b026001600160e01b03199093169390951692909217179093558152601290915220611bd290846127f7565b5082828281518110611be657611be66137cf565b602090810291909101015280611bfb816136d7565b915050611b2b565b50836001600160a01b03167fdcf77e0e938282128beeea6a61d2bc91e62320864279f2238d2e030f703de6728483604051611c3f92919061393a565b60405180910390a250505050505050565b611c586120a5565b600b546001600160a01b031682611c815760405162461bcd60e51b8152600401610687906136f0565b6040516370a0823160e01b815233600482015283906001600160a01b038316906370a0823190602401602060405180830381865afa158015611cc7573d6000803e3d6000fd5b505050506040513d601f19601f82011682018060405250810190611ceb919061371b565b1015611d095760405162461bcd60e51b815260040161068790613734565b6040516323b872dd60e01b8152336004820152306024820152604481018490526001600160a01b038216906323b872dd906064016020604051808303816000875af1158015611d5c573d6000803e3d6000fd5b505050506040513d601f19601f82011682018060405250810190611d809190613763565b611d9c5760405162461bcd60e51b815260040161068790613780565b611da63384612803565b8260116000828254611db89190613813565b909155505060405133907feba431e0c18f57c742d0e1456d7fbd9faf23c7e197d70098e2db712aed47237a90611df1908690869061395c565b60405180910390a2506113866001600855565b611e0c6123bc565b6001600160a01b038116611e715760405162461bcd60e51b815260206004820152602660248201527f4f776e61626c653a206e6577206f776e657220697320746865207a65726f206160448201526564647265737360d01b6064820152608401610687565b610e678161246e565b600f54600e5460009162015180918390611e9f906001600160401b031661016d613975565b611eb2906001600160401b0316836137ad565b90506000611ec084426137ad565b600e54611ed8906001600160401b031661016d613975565b6001600160401b031685600d60000154611ef291906137ad565b611efc9190613813565b611f0691906138b5565b90506000611f14828461389e565b9695505050505050565b600080805b6009548110156107755733611f378261121a565b6001600160a01b031603611f6157600081815260106020526040902054611f5e9083613813565b91505b80611f6b816136d7565b915050611f23565b60006001600160e01b03198216632483248360e11b1480610554575061055482612904565b611fa1816120fe565b610e675760405162461bcd60e51b8152602060048201526018602482015277115490cdcc8c4e881a5b9d985b1a59081d1bdad95b88125160421b6044820152606401610687565b600081815260046020526040902080546001600160a01b0319166001600160a01b038416908117909155819061201d8261121a565b6001600160a01b03167f8c5be1e5ebec7d5bd14f71427d1e84f3dd0314c0f7b2291e5b200ac8c7c3b92560405160405180910390a45050565b6000818152600a602052604081205442600160a01b9091046001600160401b03161061209857506000908152600a60205260409020546001600160a01b031690565b506000919050565b919050565b6002600854036120f75760405162461bcd60e51b815260206004820152601f60248201527f5265656e7472616e637947756172643a207265656e7472616e742063616c6c006044820152606401610687565b6002600855565b6000908152600260205260409020546001600160a01b0316151590565b6000806121278361121a565b9050806001600160a01b0316846001600160a01b0316148061214e575061214e8185611aa2565b806121725750836001600160a01b0316612167846105ec565b6001600160a01b0316145b949350505050565b826001600160a01b031661218d8261121a565b6001600160a01b0316146121b35760405162461bcd60e51b8152600401610687906139a0565b6001600160a01b0382166122155760405162461bcd60e51b8152602060048201526024808201527f4552433732313a207472616e7366657220746f20746865207a65726f206164646044820152637265737360e01b6064820152608401610687565b6122228383836001612954565b826001600160a01b03166122358261121a565b6001600160a01b03161461225b5760405162461bcd60e51b8152600401610687906139a0565b600081815260046020908152604080832080546001600160a01b03199081169091556001600160a01b0387811680865260038552838620805460001901905590871680865283862080546001019055868652600290945282852080549092168417909155905184937fddf252ad1be2c89b69c2b068fc378daa952ba7f163c4a11628f55a4df523b3ef91a4505050565b6001600160a01b03811660009081526012602052604081206060919061231090612961565b90506000816001600160401b0381111561232c5761232c6130ee565b604051908082528060200260200182016040528015612355578160200160208202803683370190505b50905060005b828110156123b4576001600160a01b0385166000908152601260205260409020612385908261296b565b828281518110612397576123976137cf565b6020908102919091010152806123ac816136d7565b91505061235b565b509392505050565b6007546001600160a01b036101009091041633146111f05760405162461bcd60e51b815260206004820181905260248201527f4f776e61626c653a2063616c6c6572206973206e6f7420746865206f776e65726044820152606401610687565b612424612977565b6007805460ff191690557f5db9ee0a495bf2e6ff9c91a7834c1ba4fdd244a5e8aa4e537bd38aeae4b073aa335b6040516001600160a01b03909116815260200160405180910390a1565b600780546001600160a01b03838116610100818102610100600160a81b031985161790945560405193909204169182907f8be0079c531659141344cd1fd0a4f28419497f9722a3daafe3b4186f6b6457e090600090a35050565b6124d06129c0565b6007805460ff191660011790557f62e78cea01bee320cd4e420270b5ea74000d11b0c9f74754ebdbfc544b05a2586124513390565b816001600160a01b0316836001600160a01b0316036125665760405162461bcd60e51b815260206004820152601960248201527f4552433732313a20617070726f766520746f2063616c6c6572000000000000006044820152606401610687565b6001600160a01b03838116600081815260056020908152604080832094871680845294825291829020805460ff191686151590811790915591519182527f17307eab39ab6107e8899845ad3d59bd9653f200f220920489ca2b5937696c31910160405180910390a3505050565b611386828260405180602001604052806000815250612a06565b6125f6826120fe565b6126595760405162461bcd60e51b815260206004820152602e60248201527f45524337323155524953746f726167653a2055524920736574206f66206e6f6e60448201526d32bc34b9ba32b73a103a37b5b2b760911b6064820152608401610687565b60008281526006602052604090206126718282613a2b565b506040518281527ff8e1a15aba9398e019f0b49df1a4fde98ee17ae345cb5f6b5e2c27f5033e8ce79060200160405180910390a15050565b6126b484848461217a565b6126c084848484612a39565b6114195760405162461bcd60e51b815260040161068790613aea565b60606126e782611f98565b600082815260066020526040812080546127009061368d565b80601f016020809104026020016040519081016040528092919081815260200182805461272c9061368d565b80156127795780601f1061274e57610100808354040283529160200191612779565b820191906000526020600020905b81548152906001019060200180831161275c57829003601f168201915b50505050509050600061279760408051602081019091526000815290565b905080516000036127a9575092915050565b8151156127db5780826040516020016127c3929190613b3c565b60405160208183030381529060405292505050919050565b61217284612b3a565b60006127f08383612bad565b9392505050565b60006127f08383612ca0565b6001600160a01b03821660009081526012602052604081208190819061282890612961565b9050600081116128865760405162461bcd60e51b8152602060048201526024808201527f52656e7420636f756e74206d7573742062652067726561746572207468616e206044820152637a65726f60e01b6064820152608401610687565b61289081856137ad565b925060005b818110156128fc576001600160a01b03861660009081526012602052604090206128bf908261296b565b9250836010600085815260200190815260200160002060008282546128e49190613813565b909155508190506128f4816136d7565b915050612895565b505050505050565b60006001600160e01b031982166380ac58cd60e01b148061293557506001600160e01b03198216635b5e139f60e01b145b8061055457506301ffc9a760e01b6001600160e01b0319831614610554565b61295c6129c0565b611419565b6000610554825490565b60006127f08383612cef565b60075460ff166111f05760405162461bcd60e51b815260206004820152601460248201527314185d5cd8589b194e881b9bdd081c185d5cd95960621b6044820152606401610687565b60075460ff16156111f05760405162461bcd60e51b815260206004820152601060248201526f14185d5cd8589b194e881c185d5cd95960821b6044820152606401610687565b612a108383612d19565b612a1d6000848484612a39565b6107285760405162461bcd60e51b815260040161068790613aea565b60006001600160a01b0384163b15612b2f57604051630a85bd0160e11b81526001600160a01b0385169063150b7a0290612a7d903390899088908890600401613b6b565b6020604051808303816000875af1925050508015612ab8575060408051601f3d908101601f19168201909252612ab591810190613b9e565b60015b612b15573d808015612ae6576040519150601f19603f3d011682016040523d82523d6000602084013e612aeb565b606091505b508051600003612b0d5760405162461bcd60e51b815260040161068790613aea565b805181602001fd5b6001600160e01b031916630a85bd0160e11b149050612172565b506001949350505050565b6060612b4582611f98565b6000612b5c60408051602081019091526000815290565b90506000815111612b7c57604051806020016040528060008152506127f0565b80612b8684612e94565b604051602001612b97929190613b3c565b6040516020818303038152906040529392505050565b60008181526001830160205260408120548015612c96576000612bd16001836138b5565b8554909150600090612be5906001906138b5565b9050818114612c4a576000866000018281548110612c0557612c056137cf565b9060005260206000200154905080876000018481548110612c2857612c286137cf565b6000918252602080832090910192909255918252600188019052604090208390555b8554869080612c5b57612c5b613bbb565b600190038181906000526020600020016000905590558560010160008681526020019081526020016000206000905560019350505050610554565b6000915050610554565b6000818152600183016020526040812054612ce757508154600181810184556000848152602080822090930184905584548482528286019093526040902091909155610554565b506000610554565b6000826000018281548110612d0657612d066137cf565b9060005260206000200154905092915050565b6001600160a01b038216612d6f5760405162461bcd60e51b815260206004820181905260248201527f4552433732313a206d696e7420746f20746865207a65726f20616464726573736044820152606401610687565b612d78816120fe565b15612dc55760405162461bcd60e51b815260206004820152601c60248201527f4552433732313a20746f6b656e20616c7265616479206d696e746564000000006044820152606401610687565b612dd3600083836001612954565b612ddc816120fe565b15612e295760405162461bcd60e51b815260206004820152601c60248201527f4552433732313a20746f6b656e20616c7265616479206d696e746564000000006044820152606401610687565b6001600160a01b038216600081815260036020908152604080832080546001019055848352600290915280822080546001600160a01b0319168417905551839291907fddf252ad1be2c89b69c2b068fc378daa952ba7f163c4a11628f55a4df523b3ef908290a45050565b60606000612ea183612f26565b60010190506000816001600160401b03811115612ec057612ec06130ee565b6040519080825280601f01601f191660200182016040528015612eea576020820181803683370190505b5090508181016020015b600019016f181899199a1a9b1b9c1cb0b131b232b360811b600a86061a8153600a8504945084612ef457509392505050565b60008072184f03e93ff9f4daa797ed6e38ed64bf6a1f0160401b8310612f655772184f03e93ff9f4daa797ed6e38ed64bf6a1f0160401b830492506040015b6d04ee2d6d415b85acef81000000008310612f91576d04ee2d6d415b85acef8100000000830492506020015b662386f26fc100008310612faf57662386f26fc10000830492506010015b6305f5e1008310612fc7576305f5e100830492506008015b6127108310612fdb57612710830492506004015b60648310612fed576064830492506002015b600a83106105545760010192915050565b6001600160e01b031981168114610e6757600080fd5b60006020828403121561302657600080fd5b81356127f081612ffe565b60005b8381101561304c578181015183820152602001613034565b50506000910152565b6000815180845261306d816020860160208601613031565b601f01601f19169290920160200192915050565b6020815260006127f06020830184613055565b6000602082840312156130a657600080fd5b5035919050565b80356001600160a01b03811681146120a057600080fd5b600080604083850312156130d757600080fd5b6130e0836130ad565b946020939093013593505050565b634e487b7160e01b600052604160045260246000fd5b604051601f8201601f191681016001600160401b038111828210171561312c5761312c6130ee565b604052919050565b60006001600160401b0383111561314d5761314d6130ee565b613160601f8401601f1916602001613104565b905082815283838301111561317457600080fd5b828260208301376000602084830101529392505050565b600082601f83011261319c57600080fd5b6127f083833560208501613134565b6000806000606084860312156131c057600080fd5b833592506020808501356001600160401b03808211156131df57600080fd5b818701915087601f8301126131f357600080fd5b813581811115613205576132056130ee565b8060051b613214858201613104565b918252838101850191858101908b84111561322e57600080fd5b948601945b8386101561324c57853582529486019490860190613233565b9750505050604087013592508083111561326557600080fd5b50506132738682870161318b565b9150509250925092565b60008060006060848603121561329257600080fd5b61329b846130ad565b92506132a9602085016130ad565b9150604084013590509250925092565b6000602082840312156132cb57600080fd5b6127f0826130ad565b600081518084526020808501945080840160005b83811015613304578151875295820195908201906001016132e8565b509495945050505050565b6020815260006127f060208301846132d4565b8015158114610e6757600080fd5b6000806040838503121561334357600080fd5b61334c836130ad565b9150602083013561335c81613322565b809150509250929050565b80356001600160401b03811681146120a057600080fd5b60008060006060848603121561339357600080fd5b61339c846130ad565b925060208401356001600160401b038111156133b757600080fd5b6133c38682870161318b565b9250506133d260408501613367565b90509250925092565b600080600080608085870312156133f157600080fd5b6133fa856130ad565b9350613408602086016130ad565b92506040850135915060608501356001600160401b0381111561342a57600080fd5b8501601f8101871361343b57600080fd5b61344a87823560208401613134565b91505092959194509250565b60008060006060848603121561346b57600080fd5b833592506020840135915060408401356001600160401b0381111561348f57600080fd5b6132738682870161318b565b600080600080606085870312156134b157600080fd5b6134ba856130ad565b93506134c860208601613367565b925060408501356001600160401b03808211156134e457600080fd5b818701915087601f8301126134f857600080fd5b81358181111561350757600080fd5b8860208260051b850101111561351c57600080fd5b95989497505060200194505050565b6000806040838503121561353e57600080fd5b613547836130ad565b915060208301356001600160401b0381111561356257600080fd5b61356e8582860161318b565b9150509250929050565b60008060006060848603121561358d57600080fd5b8335925061359d602085016130ad565b91506133d260408501613367565b600080604083850312156135be57600080fd5b6135c7836130ad565b91506135d5602084016130ad565b90509250929050565b600080600080600060a086880312156135f657600080fd5b6135ff866130ad565b945060208601356001600160401b0381111561361a57600080fd5b6136268882890161318b565b94505061363560408701613367565b9250613643606087016130ad565b915061365160808701613367565b90509295509295909350565b6000806040838503121561367057600080fd5b8235915060208301356001600160401b0381111561356257600080fd5b600181811c908216806136a157607f821691505b60208210810361077557634e487b7160e01b600052602260045260246000fd5b634e487b7160e01b600052601160045260246000fd5b6000600182016136e9576136e96136c1565b5060010190565b60208082526011908201527052574e3a20616d6f756e7449735a65726f60781b604082015260600190565b60006020828403121561372d57600080fd5b5051919050565b60208082526015908201527452574e3a206e6f74456e6f75676842616c616e636560581b604082015260600190565b60006020828403121561377557600080fd5b81516127f081613322565b6020808252601390820152721495d38e881d1c985b9cd9995c91985a5b1959606a1b604082015260600190565b6000826137ca57634e487b7160e01b600052601260045260246000fd5b500490565b634e487b7160e01b600052603260045260246000fd5b60208082526014908201527352574e3a20746f6b656e446f65734e6f7445786960601b604082015260600190565b80820180821115610554576105546136c1565b60608152600061383960608301866132d4565b8460208401528281036040840152611f148185613055565b6020808252602d908201527f4552433732313a2063616c6c6572206973206e6f7420746f6b656e206f776e6560408201526c1c881bdc88185c1c1c9bdd9959609a1b606082015260800190565b8082028115828204841417610554576105546136c1565b81810381811115610554576105546136c1565b8381528260208201526060604082015260006138e76060830184613055565b95945050505050565b6001600160401b0384168152604060208201819052810182905260006001600160fb1b0383111561392057600080fd5b8260051b8085606085013791909101606001949350505050565b6001600160401b038316815260406020820152600061217260408301846132d4565b8281526040602082015260006121726040830184613055565b6001600160401b03818116838216028082169190828114613998576139986136c1565b505092915050565b60208082526025908201527f4552433732313a207472616e736665722066726f6d20696e636f72726563742060408201526437bbb732b960d91b606082015260800190565b601f82111561072857600081815260208120601f850160051c81016020861015613a0c5750805b601f850160051c820191505b818110156128fc57828155600101613a18565b81516001600160401b03811115613a4457613a446130ee565b613a5881613a52845461368d565b846139e5565b602080601f831160018114613a8d5760008415613a755750858301515b600019600386901b1c1916600185901b1785556128fc565b600085815260208120601f198616915b82811015613abc57888601518255948401946001909101908401613a9d565b5085821015613ada5787850151600019600388901b60f8161c191681555b5050505050600190811b01905550565b60208082526032908201527f4552433732313a207472616e7366657220746f206e6f6e20455243373231526560408201527131b2b4bb32b91034b6b83632b6b2b73a32b960711b606082015260800190565b60008351613b4e818460208801613031565b835190830190613b62818360208801613031565b01949350505050565b6001600160a01b0385811682528416602082015260408101839052608060608201819052600090611f1490830184613055565b600060208284031215613bb057600080fd5b81516127f081612ffe565b634e487b7160e01b600052603160045260246000fdfea264697066735822122001bab3e56eef876b8913d2924e5273d3a8f0da8d1f9a6552703e46e2ea5584ef64736f6c63430008110033",
  "linkReferences": {},
  "deployedLinkReferences": {}
}