{
  "_format": "hh-sol-artifact-1",
  "contractName": "TomaasStaking",
  "sourceName": "contracts/TomaasStaking.sol",
  "abi": [
    {
      "inputs": [],
      "stateMutability": "nonpayable",
      "type": "constructor"
    },
    {
      "anonymous": false,
      "inputs": [
        {
          "indexed": true,
          "internalType": "address",
          "name": "tlnAddr",
          "type": "address"
        },
        {
          "indexed": false,
          "internalType": "address",
          "name": "tokenAddr",
          "type": "address"
        },
        {
          "indexed": false,
          "internalType": "uint256",
          "name": "price",
          "type": "uint256"
        },
        {
          "indexed": false,
          "internalType": "uint256[]",
          "name": "rates",
          "type": "uint256[]"
        }
      ],
      "name": "AddTLNAddress",
      "type": "event"
    },
    {
      "anonymous": false,
      "inputs": [
        {
          "indexed": true,
          "internalType": "address",
          "name": "trnAddr",
          "type": "address"
        },
        {
          "indexed": false,
          "internalType": "address",
          "name": "acceptedToken",
          "type": "address"
        },
        {
          "indexed": false,
          "internalType": "uint256",
          "name": "revenueShareRatio",
          "type": "uint256"
        }
      ],
      "name": "AddTRNAddress",
      "type": "event"
    },
    {
      "anonymous": false,
      "inputs": [
        {
          "indexed": true,
          "internalType": "address",
          "name": "tlnAddr",
          "type": "address"
        },
        {
          "indexed": true,
          "internalType": "address",
          "name": "staker",
          "type": "address"
        },
        {
          "indexed": false,
          "internalType": "uint256",
          "name": "amount",
          "type": "uint256"
        }
      ],
      "name": "Claim",
      "type": "event"
    },
    {
      "anonymous": false,
      "inputs": [
        {
          "indexed": true,
          "internalType": "address",
          "name": "trnAddr",
          "type": "address"
        },
        {
          "indexed": false,
          "internalType": "uint256",
          "name": "amount",
          "type": "uint256"
        },
        {
          "indexed": false,
          "internalType": "uint256",
          "name": "countOfTRNs",
          "type": "uint256"
        }
      ],
      "name": "ClaimFromTRNs",
      "type": "event"
    },
    {
      "anonymous": false,
      "inputs": [
        {
          "indexed": true,
          "internalType": "address",
          "name": "previousOwner",
          "type": "address"
        },
        {
          "indexed": true,
          "internalType": "address",
          "name": "newOwner",
          "type": "address"
        }
      ],
      "name": "OwnershipTransferred",
      "type": "event"
    },
    {
      "anonymous": false,
      "inputs": [
        {
          "indexed": false,
          "internalType": "address",
          "name": "account",
          "type": "address"
        }
      ],
      "name": "Paused",
      "type": "event"
    },
    {
      "anonymous": false,
      "inputs": [
        {
          "indexed": true,
          "internalType": "address",
          "name": "trnAddr",
          "type": "address"
        },
        {
          "indexed": true,
          "internalType": "address",
          "name": "buyer",
          "type": "address"
        },
        {
          "indexed": false,
          "internalType": "uint256[]",
          "name": "tokenIds",
          "type": "uint256[]"
        }
      ],
      "name": "SellTRNsToPool",
      "type": "event"
    },
    {
      "anonymous": false,
      "inputs": [
        {
          "indexed": true,
          "internalType": "address",
          "name": "trnAddr",
          "type": "address"
        },
        {
          "indexed": false,
          "internalType": "uint256",
          "name": "price",
          "type": "uint256"
        }
      ],
      "name": "SetPriceOfTRN",
      "type": "event"
    },
    {
      "anonymous": false,
      "inputs": [
        {
          "indexed": true,
          "internalType": "address",
          "name": "tlnAddr",
          "type": "address"
        },
        {
          "indexed": true,
          "internalType": "address",
          "name": "staker",
          "type": "address"
        },
        {
          "indexed": false,
          "internalType": "uint256[]",
          "name": "tokenIds",
          "type": "uint256[]"
        }
      ],
      "name": "StakeTLNs",
      "type": "event"
    },
    {
      "anonymous": false,
      "inputs": [
        {
          "indexed": false,
          "internalType": "address",
          "name": "account",
          "type": "address"
        }
      ],
      "name": "Unpaused",
      "type": "event"
    },
    {
      "anonymous": false,
      "inputs": [
        {
          "indexed": true,
          "internalType": "address",
          "name": "tlnAddr",
          "type": "address"
        },
        {
          "indexed": true,
          "internalType": "address",
          "name": "staker",
          "type": "address"
        },
        {
          "indexed": false,
          "internalType": "uint256",
          "name": "tokenId",
          "type": "uint256"
        }
      ],
      "name": "UnstakeTLNs",
      "type": "event"
    },
    {
      "inputs": [
        {
          "internalType": "address",
          "name": "tlnAddr",
          "type": "address"
        },
        {
          "internalType": "address",
          "name": "tokenAddr",
          "type": "address"
        },
        {
          "internalType": "uint256",
          "name": "price",
          "type": "uint256"
        },
        {
          "internalType": "uint256[]",
          "name": "rates",
          "type": "uint256[]"
        }
      ],
      "name": "addTLNAddress",
      "outputs": [],
      "stateMutability": "nonpayable",
      "type": "function"
    },
    {
      "inputs": [
        {
          "internalType": "address",
          "name": "trnAddr",
          "type": "address"
        },
        {
          "internalType": "address",
          "name": "acceptedToken",
          "type": "address"
        },
        {
          "internalType": "uint256",
          "name": "revenueShareRatio",
          "type": "uint256"
        }
      ],
      "name": "addTRNAddress",
      "outputs": [],
      "stateMutability": "nonpayable",
      "type": "function"
    },
    {
      "inputs": [],
      "name": "balanceOfRewards",
      "outputs": [
        {
          "internalType": "uint256",
          "name": "",
          "type": "uint256"
        }
      ],
      "stateMutability": "view",
      "type": "function"
    },
    {
      "inputs": [
        {
          "internalType": "address",
          "name": "trnAddr",
          "type": "address"
        }
      ],
      "name": "buyTRNsFromList",
      "outputs": [],
      "stateMutability": "nonpayable",
      "type": "function"
    },
    {
      "inputs": [
        {
          "internalType": "address",
          "name": "tlnAddr",
          "type": "address"
        }
      ],
      "name": "claim",
      "outputs": [],
      "stateMutability": "nonpayable",
      "type": "function"
    },
    {
      "inputs": [
        {
          "internalType": "address",
          "name": "trnAddr",
          "type": "address"
        }
      ],
      "name": "claimFromTRNs",
      "outputs": [],
      "stateMutability": "nonpayable",
      "type": "function"
    },
    {
      "inputs": [
        {
          "internalType": "address",
          "name": "tlnAddr",
          "type": "address"
        }
      ],
      "name": "getInfoTLN",
      "outputs": [
        {
          "components": [
            {
              "internalType": "contract TomaasLPN",
              "name": "tomaasLPN",
              "type": "address"
            },
            {
              "internalType": "contract IERC20",
              "name": "acceptedToken",
              "type": "address"
            },
            {
              "internalType": "uint256",
              "name": "price",
              "type": "uint256"
            },
            {
              "internalType": "uint256[]",
              "name": "interestRates",
              "type": "uint256[]"
            },
            {
              "internalType": "uint256[]",
              "name": "rewardsPerDay",
              "type": "uint256[]"
            }
          ],
          "internalType": "struct TomaasStaking.InfoTLN",
          "name": "infoTLN",
          "type": "tuple"
        }
      ],
      "stateMutability": "view",
      "type": "function"
    },
    {
      "inputs": [
        {
          "internalType": "address",
          "name": "trnAddr",
          "type": "address"
        }
      ],
      "name": "getInfoTRN",
      "outputs": [
        {
          "components": [
            {
              "internalType": "contract TomaasRWN",
              "name": "tomaasRWN",
              "type": "address"
            },
            {
              "internalType": "contract IERC20",
              "name": "acceptedToken",
              "type": "address"
            },
            {
              "internalType": "uint256",
              "name": "revenueShareRatio",
              "type": "uint256"
            }
          ],
          "internalType": "struct TomaasStaking.InfoTRN",
          "name": "infoTRN",
          "type": "tuple"
        }
      ],
      "stateMutability": "view",
      "type": "function"
    },
    {
      "inputs": [
        {
          "internalType": "address",
          "name": "trnAddr",
          "type": "address"
        }
      ],
      "name": "lengthOfTRNsToPurchase",
      "outputs": [
        {
          "internalType": "uint256",
          "name": "length",
          "type": "uint256"
        }
      ],
      "stateMutability": "view",
      "type": "function"
    },
    {
      "inputs": [
        {
          "internalType": "address",
          "name": "tlnAddr",
          "type": "address"
        }
      ],
      "name": "listOfTLNs",
      "outputs": [
        {
          "internalType": "uint256[]",
          "name": "tokenIds",
          "type": "uint256[]"
        }
      ],
      "stateMutability": "view",
      "type": "function"
    },
    {
      "inputs": [],
      "name": "listTRNAddress",
      "outputs": [
        {
          "components": [
            {
              "internalType": "contract TomaasRWN",
              "name": "tomaasRWN",
              "type": "address"
            },
            {
              "internalType": "contract IERC20",
              "name": "acceptedToken",
              "type": "address"
            },
            {
              "internalType": "uint256",
              "name": "revenueShareRatio",
              "type": "uint256"
            }
          ],
          "internalType": "struct TomaasStaking.InfoTRN[]",
          "name": "",
          "type": "tuple[]"
        }
      ],
      "stateMutability": "view",
      "type": "function"
    },
    {
      "inputs": [
        {
          "internalType": "address",
          "name": "operator",
          "type": "address"
        },
        {
          "internalType": "address",
          "name": "from",
          "type": "address"
        },
        {
          "internalType": "uint256",
          "name": "tokenId",
          "type": "uint256"
        },
        {
          "internalType": "bytes",
          "name": "data",
          "type": "bytes"
        }
      ],
      "name": "onERC721Received",
      "outputs": [
        {
          "internalType": "bytes4",
          "name": "",
          "type": "bytes4"
        }
      ],
      "stateMutability": "view",
      "type": "function"
    },
    {
      "inputs": [],
      "name": "owner",
      "outputs": [
        {
          "internalType": "address",
          "name": "",
          "type": "address"
        }
      ],
      "stateMutability": "view",
      "type": "function"
    },
    {
      "inputs": [],
      "name": "pause",
      "outputs": [],
      "stateMutability": "nonpayable",
      "type": "function"
    },
    {
      "inputs": [],
      "name": "paused",
      "outputs": [
        {
          "internalType": "bool",
          "name": "",
          "type": "bool"
        }
      ],
      "stateMutability": "view",
      "type": "function"
    },
    {
      "inputs": [
        {
          "internalType": "address",
          "name": "tlnAddr",
          "type": "address"
        }
      ],
      "name": "remainingRewards",
      "outputs": [
        {
          "internalType": "uint256",
          "name": "",
          "type": "uint256"
        }
      ],
      "stateMutability": "view",
      "type": "function"
    },
    {
      "inputs": [],
      "name": "renounceOwnership",
      "outputs": [],
      "stateMutability": "nonpayable",
      "type": "function"
    },
    {
      "inputs": [
        {
          "internalType": "address",
          "name": "trnAddr",
          "type": "address"
        },
        {
          "internalType": "uint256[]",
          "name": "tokenIds",
          "type": "uint256[]"
        }
      ],
      "name": "sellTRNsToPool",
      "outputs": [],
      "stateMutability": "nonpayable",
      "type": "function"
    },
    {
      "inputs": [
        {
          "internalType": "address",
          "name": "trnAddr",
          "type": "address"
        },
        {
          "internalType": "uint256",
          "name": "price",
          "type": "uint256"
        }
      ],
      "name": "setPriceOfTRN",
      "outputs": [],
      "stateMutability": "nonpayable",
      "type": "function"
    },
    {
      "inputs": [
        {
          "internalType": "address",
          "name": "tlnAddr",
          "type": "address"
        },
        {
          "internalType": "uint256[]",
          "name": "tokenIds",
          "type": "uint256[]"
        }
      ],
      "name": "stakeTLNs",
      "outputs": [],
      "stateMutability": "nonpayable",
      "type": "function"
    },
    {
      "inputs": [],
      "name": "totalClaimedRewards",
      "outputs": [
        {
          "internalType": "uint256",
          "name": "",
          "type": "uint256"
        }
      ],
      "stateMutability": "view",
      "type": "function"
    },
    {
      "inputs": [],
      "name": "totalStakedTokens",
      "outputs": [
        {
          "internalType": "uint256",
          "name": "",
          "type": "uint256"
        }
      ],
      "stateMutability": "view",
      "type": "function"
    },
    {
      "inputs": [
        {
          "internalType": "address",
          "name": "newOwner",
          "type": "address"
        }
      ],
      "name": "transferOwnership",
      "outputs": [],
      "stateMutability": "nonpayable",
      "type": "function"
    },
    {
      "inputs": [
        {
          "internalType": "address",
          "name": "tlnAddr",
          "type": "address"
        },
        {
          "internalType": "uint256",
          "name": "tokenId",
          "type": "uint256"
        }
      ],
      "name": "unStakeTLN",
      "outputs": [],
      "stateMutability": "nonpayable",
      "type": "function"
    },
    {
      "inputs": [],
      "name": "unpause",
      "outputs": [],
      "stateMutability": "nonpayable",
      "type": "function"
    }
  ],
  "bytecode": "0x60806040523480156200001157600080fd5b506001600055620000223362000035565b6001805460ff60a01b1916905562000087565b600180546001600160a01b038381166001600160a01b0319831681179093556040519116919082907f8be0079c531659141344cd1fd0a4f28419497f9722a3daafe3b4186f6b6457e090600090a35050565b6133fe80620000976000396000f3fe608060405234801561001057600080fd5b50600436106101725760003560e01c80637665273c116100de5780639f3fecb611610097578063d2dcc8e311610071578063d2dcc8e314610359578063d578ceab1461036c578063da4b194514610374578063f2fde38b1461038757600080fd5b80639f3fecb614610306578063bc40d3aa14610326578063cb34f2151461033957600080fd5b80637665273c14610288578063841875781461029b5780638456cb59146102b057806389af0195146102b85780638da5cb5b146102d857806399d75aa1146102f357600080fd5b806340f33b921161013057806340f33b9214610217578063470b0def1461022a5780635c975abb1461023d57806366fc623e1461025a57806369b853ef1461026d578063715018a61461028057600080fd5b806284fc3c14610177578063150b7a021461018e5780631e83409a146101df5780632adcdc40146101f45780633ae73259146102075780633f4ba83a1461020f575b600080fd5b600e545b6040519081526020015b60405180910390f35b6101c661019c366004612dfd565b7f150b7a023d4804d13e8c85fb27262cb750cf6ba9f9dd3bb30d90f482ceeb4b1f95945050505050565b6040516001600160e01b03199091168152602001610185565b6101f26101ed366004612e9c565b61039a565b005b6101f2610202366004612eb9565b61059e565b600f5461017b565b6101f261068c565b6101f2610225366004612fab565b61069e565b6101f2610238366004612fab565b610cdc565b600154600160a01b900460ff166040519015158152602001610185565b61017b610268366004612e9c565b61113e565b6101f261027b366004612ffb565b611150565b6101f26111d6565b6101f2610296366004612e9c565b6111e8565b6102a36113ca565b6040516101859190613027565b6101f26114d0565b6102cb6102c6366004612e9c565b6114e0565b6040516101859190613097565b6001546040516001600160a01b039091168152602001610185565b6101f2610301366004612ffb565b6115ac565b610319610314366004612e9c565b61185b565b6040516101859190613101565b6101f261033436600461316d565b611a06565b61034c610347366004612e9c565b611d83565b60405161018591906131d9565b6101f2610367366004612e9c565b611ecd565b600d5461017b565b61017b610382366004612e9c565b6123f0565b6101f2610395366004612e9c565b612438565b6103a26124ae565b6103aa612507565b6000600e54116103f85760405162461bcd60e51b815260206004820152601460248201527354533a206e6f207374616b656420746f6b656e7360601b60448201526064015b60405180910390fd5b60006104048233612554565b9050600081116104455760405162461bcd60e51b815260206004820152600c60248201526b054533a20616d6f756e743d360a41b60448201526064016103ef565b80600e60008282546104579190613202565b90915550506001600160a01b0382166000908152600c60209081526040808320338452909152812042905561048b8361185b565b602081015160405163a9059cbb60e01b8152336004820152602481018590529192506001600160a01b03169063a9059cbb906044016020604051808303816000875af11580156104df573d6000803e3d6000fd5b505050506040513d601f19601f820116820180604052508101906105039190613215565b61054f5760405162461bcd60e51b815260206004820152601960248201527f54533a207472616e7366657220746f6b656e206661696c65640000000000000060448201526064016103ef565b60405182815233906001600160a01b038516907f70eb43c4a8ae8c40502dcf22436c509c28d6ff421cf07c491be56984bd9870689060200160405180910390a3505061059b6001600055565b50565b6105a661278f565b6003805461ffff908116600090815260026020819052604080832080546001600160a01b03808b166001600160a01b0319928316179092558654861685528285206001018054928a16929091169190911790558454841683528220018490558254909116919061061583613237565b91906101000a81548161ffff021916908361ffff16021790555050826001600160a01b03167fd2678e38a3553371eff62fc36a783bd86a2eee5c65f44da394138dbfff1bf749838360405161067f9291906001600160a01b03929092168252602082015260400190565b60405180910390a2505050565b61069461278f565b61069c6127e9565b565b6106a66124ae565b6106ae612507565b6106b78261283e565b6106d35760405162461bcd60e51b81526004016103ef90613258565b600081511161071a5760405162461bcd60e51b81526020600482015260136024820152721514ce88139bc81514939cc81d1bc81cd95b1b606a1b60448201526064016103ef565b60405163e985e9c560e01b815233600482015230602482015282906001600160a01b0382169063e985e9c590604401602060405180830381865afa158015610766573d6000803e3d6000fd5b505050506040513d601f19601f8201168201806040525081019061078a9190613215565b6107d15760405162461bcd60e51b81526020600482015260186024820152771514ce88139bdd08185c1c1c9bdd995908199bdc88185b1b60421b60448201526064016103ef565b6001600160a01b038316600090815260076020526040902054806108325760405162461bcd60e51b81526020600482015260186024820152771514ce88141c9a58d9481bd988151493881b9bdd081cd95d60421b60448201526064016103ef565b60008184516108419190613283565b905060008060009050826010541061085c578551915061087c565b8360105461086a91906132b0565b91508186516108799190613202565b90505b60006108888584613283565b90506000610895896114e0565b602001516040516370a0823160e01b815230600482015290915082906001600160a01b038316906370a0823190602401602060405180830381865afa1580156108e2573d6000803e3d6000fd5b505050506040513d601f19601f8201168201806040525081019061090691906132c4565b10156109545760405162461bcd60e51b815260206004820152601c60248201527f544d3a206e6f7420656e6f75676820746f6b656e2062616c616e63650000000060448201526064016103ef565b60008467ffffffffffffffff81111561096f5761096f612efa565b604051908082528060200260200182016040528015610998578160200160208202803683370190505b50905060005b85811015610b6b5760008a82815181106109ba576109ba6132dd565b6020026020010151905060008a6001600160a01b0316636352211e836040518263ffffffff1660e01b81526004016109f491815260200190565b602060405180830381865afa158015610a11573d6000803e3d6000fd5b505050506040513d601f19601f82011682018060405250810190610a3591906132f3565b90506001600160a01b0381163014610a8f5760405162461bcd60e51b815260206004820152601960248201527f54533a2054524e206e6f74206f776e656420627920706f6f6c0000000000000060448201526064016103ef565b604051632142170760e11b81526001600160a01b038c16906342842e0e90610abf90849030908790600401613310565b600060405180830381600087803b158015610ad957600080fd5b505af1158015610aed573d6000803e3d6000fd5b5050506001600160a01b038e166000908152600660205260409020610b139150836128fb565b506001600160a01b038d166000908152600860205260409020610b36908361290e565b5081848481518110610b4a57610b4a6132dd565b60200260200101818152505050508080610b6390613334565b91505061099e565b5060405163a9059cbb60e01b8152336004820152602481018490526001600160a01b0383169063a9059cbb906044016020604051808303816000875af1158015610bb9573d6000803e3d6000fd5b505050506040513d601f19601f82011682018060405250810190610bdd9190613215565b5082600e6000828254610bf09190613202565b90915550508315610c7b576000848a51610c0a9190613202565b9050805b8a51811015610c785760008b8281518110610c2b57610c2b6132dd565b60200260200101519050610c63600660008f6001600160a01b03166001600160a01b03168152602001908152602001600020826128fb565b50508080610c7090613334565b915050610c0e565b50505b306001600160a01b03168a6001600160a01b03167f32ffae8ccc1ecdf2aab4ea113e39e83c9972a044497703db0e0cd354600cf78083604051610cbe91906131d9565b60405180910390a35050505050505050610cd86001600055565b5050565b610ce46124ae565b610cec612507565b6000610cf78361185b565b8051835191925090610d425760405162461bcd60e51b815260206004820152601460248201527354533a204e6f20544c4e7320746f207374616b6560601b60448201526064016103ef565b60405163e985e9c560e01b81523360048201523060248201526001600160a01b0382169063e985e9c590604401602060405180830381865afa158015610d8c573d6000803e3d6000fd5b505050506040513d601f19601f82011682018060405250810190610db09190613215565b610df75760405162461bcd60e51b81526020600482015260186024820152771514ce88139bdd08185c1c1c9bdd995908199bdc88185b1b60421b60448201526064016103ef565b600082604001518451610e0a9190613283565b60208401516040516370a0823160e01b81526001600160a01b0388811660048301529293508392909116906370a0823190602401602060405180830381865afa158015610e5b573d6000803e3d6000fd5b505050506040513d601f19601f82011682018060405250810190610e7f91906132c4565b1015610ecd5760405162461bcd60e51b815260206004820152601c60248201527f54533a206e6f7420656e6f75676820746f6b656e2062616c616e63650000000060448201526064016103ef565b60005b8451811015610ff5576000858281518110610eed57610eed6132dd565b60200260200101519050836001600160a01b03166342842e0e3330846040518463ffffffff1660e01b8152600401610f2793929190613310565b600060405180830381600087803b158015610f4157600080fd5b505af1158015610f55573d6000803e3d6000fd5b5050604051632e1a7d4d60e01b8152600481018490526001600160a01b0387169250632e1a7d4d9150602401600060405180830381600087803b158015610f9b57600080fd5b505af1158015610faf573d6000803e3d6000fd5b5050506001600160a01b0388166000908152600b602090815260408083203384529091529020610fe09150826128fb565b50508080610fed90613334565b915050610ed0565b508351600f6000828254611009919061334d565b925050819055508060106000828254611022919061334d565b90915550506001600160a01b03851660009081526012602090815260408083203384529091528120549003611078576001600160a01b0385166000908152600c6020908152604080832033845290915290204290555b6001600160a01b0385166000818152601160209081526040808320338085529083528184209484526012835281842081855280845282852080548652958452828520429055600f54865486529285206001908101939093559084529091528254909291906110e790849061334d565b909155505060405133906001600160a01b038716907f3f1d6292b9b4cd901acb52fd56c9620b455884300556019f26847f5f5956278f906111299088906131d9565b60405180910390a3505050610cd86001600055565b600061114a8233612554565b92915050565b61115861278f565b6111618261283e565b61117d5760405162461bcd60e51b81526004016103ef90613258565b6001600160a01b03821660008181526007602052604090819020839055517f3196c33e063dfc250bc3c5ccb79883bacac04c76d7c5a6858343d6500919b62a906111ca9084815260200190565b60405180910390a25050565b6111de61278f565b61069c600061291a565b6111f061278f565b6111f86124ae565b6112018161283e565b61121d5760405162461bcd60e51b81526004016103ef90613258565b6001600160a01b038116600090815260086020526040812061123e9061296c565b9050600081116112845760405162461bcd60e51b81526020600482015260116024820152701514ce88139bc81514939cc81bdddb9959607a1b60448201526064016103ef565b60008290506000816001600160a01b0316632e2d651e6040518163ffffffff1660e01b81526004016020604051808303816000875af11580156112cb573d6000803e3d6000fd5b505050506040513d601f19601f820116820180604052508101906112ef91906132c4565b905080600003611301575050506113c0565b80600d6000828254611313919061334d565b9250508190555080600e600082825461132c919061334d565b90915550506001600160a01b0384166000818152600960209081526040808320600a8084528285208054865291845291842042905593835290528154919061137383613334565b909155505060408051828152602081018590526001600160a01b038616917fd45faa58a4ae1d7bbde51c194a52ab6127cc422bbdc393058ac270c5613702d1910160405180910390a25050505b61059b6001600055565b60035460609060009061ffff1667ffffffffffffffff8111156113ef576113ef612efa565b60405190808252806020026020018201604052801561143a57816020015b604080516060810182526000808252602080830182905292820152825260001990920191018161140d5790505b50905060005b60035461ffff90811690821610156114ca5761ffff8116600081815260026020818152604092839020835160608101855281546001600160a01b03908116825260018301541692810192909252909101549181019190915283519091849181106114ac576114ac6132dd565b602002602001018190525080806114c290613237565b915050611440565b50919050565b6114d861278f565b61069c612976565b60408051606081018252600080825260208201819052918101829052905b60035461ffff90811690821610156115935761ffff81166000908152600260205260409020546001600160a01b038085169116036115815761ffff16600090815260026020818152604092839020835160608101855281546001600160a01b03908116825260018301541692810192909252909101549181019190915292915050565b8061158b81613237565b9150506114fe565b5060405162461bcd60e51b81526004016103ef90613258565b6115b46124ae565b6115bc612507565b60006115c78361185b565b8051604080830151602084015191516370a0823160e01b8152306004820152939450919282916001600160a01b0316906370a0823190602401602060405180830381865afa15801561161d573d6000803e3d6000fd5b505050506040513d601f19601f8201168201806040525081019061164191906132c4565b101561168f5760405162461bcd60e51b815260206004820152601c60248201527f54533a206e6f7420656e6f75676820746f6b656e2062616c616e63650000000060448201526064016103ef565b604051632142170760e11b81526001600160a01b038316906342842e0e906116bf90309033908990600401613310565b600060405180830381600087803b1580156116d957600080fd5b505af11580156116ed573d6000803e3d6000fd5b5050604051636215be7760e01b8152600481018790526001600160a01b0385169250636215be779150602401600060405180830381600087803b15801561173357600080fd5b505af1158015611747573d6000803e3d6000fd5b5050506001600160a01b0386166000908152600b60209081526040808320338452909152902061177891508561290e565b506001600f600082825461178c9190613202565b9250508190555080601060008282546117a59190613202565b90915550506001600160a01b0385166000818152601160209081526040808320338085529083528184209484526012835281842081855280845282852080548652958452828520429055600f548654865292852060019081019390935590845290915282549092919061181990849061334d565b909155505060405184815233906001600160a01b038716907f7b27bce7bf7aa41550b7036466196a4945982919995548af33e981397cad095990602001611129565b6040805160a08101825260008082526020820181905291810182905260608082018190526080820152905b60055461ffff90811690821610156119c95761ffff81166000908152600460205260409020546001600160a01b038085169116036119b75761ffff8116600090815260046020908152604091829020825160a08101845281546001600160a01b03908116825260018301541681840152600282015481850152600382018054855181860281018601909652808652919492936060860193929083018282801561194e57602002820191906000526020600020905b81548152602001906001019080831161193a575b50505050508152602001600482018054806020026020016040519081016040528092919081815260200182805480156119a657602002820191906000526020600020905b815481526020019060010190808311611992575b505050505081525050915050919050565b806119c181613237565b915050611886565b5060405162461bcd60e51b81526020600482015260116024820152701514ce88151313881b9bdd08195e1a5cdd607a1b60448201526064016103ef565b611a0e61278f565b611a17846129b9565b15611a5c5760405162461bcd60e51b81526020600482015260156024820152741514ce8815131388185b1c9958591e48195e1a5cdd605a1b60448201526064016103ef565b60008211611a9a5760405162461bcd60e51b815260206004820152600b60248201526a054533a2070726963653d360ac1b60448201526064016103ef565b6000815111611ae05760405162461bcd60e51b8152602060048201526012602482015271054533a207261746573206c656e6774683d360741b60448201526064016103ef565b80518067ffffffffffffffff811115611afb57611afb612efa565b604051908082528060200260200182016040528015611b24578160200160208202803683370190505b5060055461ffff1660009081526004602090815260409091208251611b53936003909201929190910190612d88565b508067ffffffffffffffff811115611b6d57611b6d612efa565b604051908082528060200260200182016040528015611b96578160200160208202803683370190505b5060055461ffff1660009081526004602081815260409092208351611bc19491909201920190612d88565b5060005b81811015611cac57828181518110611bdf57611bdf6132dd565b60209081029190910181015160055461ffff16600090815260049092526040909120600301805483908110611c1657611c166132dd565b906000526020600020018190555061016d612710848381518110611c3c57611c3c6132dd565b602002602001015186611c4f9190613283565b611c5991906132b0565b611c6391906132b0565b60055461ffff16600090815260046020819052604090912001805483908110611c8e57611c8e6132dd565b60009182526020909120015580611ca481613334565b915050611bc5565b506005805461ffff90811660009081526004602052604080822080546001600160a01b03808c166001600160a01b0319928316179092558554851684528284206001018054928b1692909116919091179055835483168252812060020186905582549091169190611d1c83613237565b91906101000a81548161ffff021916908361ffff16021790555050846001600160a01b03167fbf1079bb0d233b03156a8d5ce7972d6454b7b21a44b354921850c70e0e4c64bf858585604051611d7493929190613360565b60405180910390a25050505050565b6060611d8e826129b9565b611dce5760405162461bcd60e51b81526020600482015260116024820152701514ce88151313881b9bdd08195e1a5cdd607a1b60448201526064016103ef565b6001600160a01b0382166000908152600b602090815260408083203384529091528120611dfa9061296c565b905080600003611e1a575050604080516000815260208101909152919050565b8067ffffffffffffffff811115611e3357611e33612efa565b604051908082528060200260200182016040528015611e5c578160200160208202803683370190505b50915060005b81811015611ec6576001600160a01b0384166000908152600b602090815260408083203384529091529020611e979082612a6d565b838281518110611ea957611ea96132dd565b602090810291909101015280611ebe81613334565b915050611e62565b5050919050565b611ed561278f565b611edd6124ae565b600080611ee9836114e0565b6001600160a01b0384166000908152600660205260409020909150611f0d9061296c565b915060008211611f5f5760405162461bcd60e51b815260206004820152601760248201527f54533a204e6f2054524e7320746f20707572636861736500000000000000000060448201526064016103ef565b6001600160a01b03831660009081526007602052604090205480611fc05760405162461bcd60e51b81526020600482015260186024820152771514ce88141c9a58d9481bd988151493881b9bdd081cd95d60421b60448201526064016103ef565b6000611fcc8285613283565b905060008160105410611fe0575083611ff1565b82601054611fee91906132b0565b90505b856000611ffe8584613283565b90508060105410156120525760405162461bcd60e51b815260206004820152601c60248201527f54533a204e6f7420656e6f756768207374616b656420746f6b656e730000000060448201526064016103ef565b60208601516040516370a0823160e01b815230600482015282906001600160a01b038316906370a0823190602401602060405180830381865afa15801561209d573d6000803e3d6000fd5b505050506040513d601f19601f820116820180604052508101906120c191906132c4565b101561210f5760405162461bcd60e51b815260206004820152601c60248201527f544d3a206e6f7420656e6f75676820746f6b656e2062616c616e63650000000060448201526064016103ef565b60008467ffffffffffffffff81111561212a5761212a612efa565b604051908082528060200260200182016040528015612153578160200160208202803683370190505b50905060005b85811015612322576001600160a01b038b1660009081526006602052604081206121839083612a6d565b6040516331a9108f60e11b8152600481018290529091506000906001600160a01b03881690636352211e90602401602060405180830381865afa1580156121ce573d6000803e3d6000fd5b505050506040513d601f19601f820116820180604052508101906121f291906132f3565b604051632142170760e11b81529091506001600160a01b038816906342842e0e9061222590849030908790600401613310565b600060405180830381600087803b15801561223f57600080fd5b505af1158015612253573d6000803e3d6000fd5b505060405163a9059cbb60e01b81526001600160a01b038481166004830152602482018e90528816925063a9059cbb91506044016020604051808303816000875af11580156122a6573d6000803e3d6000fd5b505050506040513d601f19601f820116820180604052508101906122ca9190613215565b506001600160a01b038d1660009081526008602052604090206122ed90836128fb565b5081848481518110612301576123016132dd565b6020026020010181815250505050808061231a90613334565b915050612159565b5060005b8151811015612380576001600160a01b038b166000908152600660205260409020825161236d9190849084908110612360576123606132dd565b602002602001015161290e565b508061237881613334565b915050612326565b5082601060008282546123939190613202565b909155505060405130906001600160a01b038c16907f32ffae8ccc1ecdf2aab4ea113e39e83c9972a044497703db0e0cd354600cf780906123d59085906131d9565b60405180910390a350505050505050505061059b6001600055565b60006123fb8261283e565b6124175760405162461bcd60e51b81526004016103ef90613258565b6001600160a01b038216600090815260066020526040902061114a9061296c565b61244061278f565b6001600160a01b0381166124a55760405162461bcd60e51b815260206004820152602660248201527f4f776e61626c653a206e6577206f776e657220697320746865207a65726f206160448201526564647265737360d01b60648201526084016103ef565b61059b8161291a565b6002600054036125005760405162461bcd60e51b815260206004820152601f60248201527f5265656e7472616e637947756172643a207265656e7472616e742063616c6c0060448201526064016103ef565b6002600055565b600154600160a01b900460ff161561069c5760405162461bcd60e51b815260206004820152601060248201526f14185d5cd8589b194e881c185d5cd95960821b60448201526064016103ef565b6001600160a01b038083166000908152600c6020908152604080832093851683529290529081205481908161258a868684612a79565b6001600160a01b038088166000908152601260209081526040808320938a16835292905290812054919250806125c1600184613202565b60000361265e576001600160a01b03808a166000908152601160209081526040808320938c168352928152828220828052905220546126009042613202565b6001600160a01b03808b166000908152601160209081526040808320938d16835292815282822082805290522060010154909250905061264d82826126448c61185b565b60800151612b06565b612657908761334d565b9550612782565b600061266b600185613202565b90505b848110612780576000612682600186613202565b820361268f5750426126d7565b6001600160a01b03808c166000908152601160209081526040808320938e168352929052908120906126c284600161334d565b81526020019081526020016000206000015490505b6001600160a01b03808c166000908152601160209081526040808320938e1683529281528282208583529052205461270f9082613202565b6001600160a01b03808d166000908152601160209081526040808320938f16835292815282822086835290522060010154909450925061275384846126448e61185b565b61275d908961334d565b97508160000361276d5750612780565b508061277881613387565b91505061266e565b505b5093979650505050505050565b6001546001600160a01b0316331461069c5760405162461bcd60e51b815260206004820181905260248201527f4f776e61626c653a2063616c6c6572206973206e6f7420746865206f776e657260448201526064016103ef565b6127f1612bcc565b6001805460ff60a01b191690557f5db9ee0a495bf2e6ff9c91a7834c1ba4fdd244a5e8aa4e537bd38aeae4b073aa335b6040516001600160a01b03909116815260200160405180910390a1565b60006001600160a01b0382166128865760405162461bcd60e51b815260206004820152600d60248201526c04c503a2074726e416464723d3609c1b60448201526064016103ef565b60035461ffff1660000361289c57506000919050565b60005b60035461ffff90811690821610156128f25761ffff81166000908152600260205260409020546001600160a01b038085169116036128e05750600192915050565b806128ea81613237565b91505061289f565b50600092915050565b60006129078383612c1c565b9392505050565b60006129078383612c6b565b600180546001600160a01b038381166001600160a01b0319831681179093556040519116919082907f8be0079c531659141344cd1fd0a4f28419497f9722a3daafe3b4186f6b6457e090600090a35050565b600061114a825490565b61297e612507565b6001805460ff60a01b1916600160a01b1790557f62e78cea01bee320cd4e420270b5ea74000d11b0c9f74754ebdbfc544b05a2586128213390565b60006001600160a01b038216612a015760405162461bcd60e51b815260206004820152600d60248201526c054533a20746c6e416464723d3609c1b60448201526064016103ef565b60035461ffff16600003612a1757506000919050565b60005b60055461ffff90811690821610156128f25761ffff81166000908152600460205260409020546001600160a01b03808516911603612a5b5750600192915050565b80612a6581613237565b915050612a1a565b60006129078383612d5e565b6001600160a01b0380841660009081526012602090815260408083209386168352929052908120548190815b81811015612afb576001600160a01b038088166000908152601160209081526040808320938a168352928152828220848352905220548511612ae957809250612afb565b80612af381613334565b915050612aa5565b509095945050505050565b805160009081908190612b1990866132b0565b90506000612b2a62015180886132b0565b90508460018651612b3b9190613202565b81518110612b4b57612b4b6132dd565b60200260200101518282612b5f9190613283565b612b699190613283565b612b73908461334d565b92506000855187612b84919061339e565b9050858181518110612b9857612b986132dd565b60200260200101518183612bac9190613283565b612bb69190613283565b612bc0908561334d565b98975050505050505050565b600154600160a01b900460ff1661069c5760405162461bcd60e51b815260206004820152601460248201527314185d5cd8589b194e881b9bdd081c185d5cd95960621b60448201526064016103ef565b6000818152600183016020526040812054612c635750815460018181018455600084815260208082209093018490558454848252828601909352604090209190915561114a565b50600061114a565b60008181526001830160205260408120548015612d54576000612c8f600183613202565b8554909150600090612ca390600190613202565b9050818114612d08576000866000018281548110612cc357612cc36132dd565b9060005260206000200154905080876000018481548110612ce657612ce66132dd565b6000918252602080832090910192909255918252600188019052604090208390555b8554869080612d1957612d196133b2565b60019003818190600052602060002001600090559055856001016000868152602001908152602001600020600090556001935050505061114a565b600091505061114a565b6000826000018281548110612d7557612d756132dd565b9060005260206000200154905092915050565b828054828255906000526020600020908101928215612dc3579160200282015b82811115612dc3578251825591602001919060010190612da8565b50612dcf929150612dd3565b5090565b5b80821115612dcf5760008155600101612dd4565b6001600160a01b038116811461059b57600080fd5b600080600080600060808688031215612e1557600080fd5b8535612e2081612de8565b94506020860135612e3081612de8565b935060408601359250606086013567ffffffffffffffff80821115612e5457600080fd5b818801915088601f830112612e6857600080fd5b813581811115612e7757600080fd5b896020828501011115612e8957600080fd5b9699959850939650602001949392505050565b600060208284031215612eae57600080fd5b813561290781612de8565b600080600060608486031215612ece57600080fd5b8335612ed981612de8565b92506020840135612ee981612de8565b929592945050506040919091013590565b634e487b7160e01b600052604160045260246000fd5b600082601f830112612f2157600080fd5b8135602067ffffffffffffffff80831115612f3e57612f3e612efa565b8260051b604051601f19603f83011681018181108482111715612f6357612f63612efa565b604052938452858101830193838101925087851115612f8157600080fd5b83870191505b84821015612fa057813583529183019190830190612f87565b979650505050505050565b60008060408385031215612fbe57600080fd5b8235612fc981612de8565b9150602083013567ffffffffffffffff811115612fe557600080fd5b612ff185828601612f10565b9150509250929050565b6000806040838503121561300e57600080fd5b823561301981612de8565b946020939093013593505050565b6020808252825182820181905260009190848201906040850190845b8181101561308b5761307883855180516001600160a01b03908116835260208083015190911690830152604090810151910152565b9284019260609290920191600101613043565b50909695505050505050565b81516001600160a01b03908116825260208084015190911690820152604080830151908201526060810161114a565b600081518084526020808501945080840160005b838110156130f6578151875295820195908201906001016130da565b509495945050505050565b60208152600060018060a01b038084511660208401528060208501511660408401525060408301516060830152606083015160a0608084015261314760c08401826130c6565b90506080840151601f198483030160a085015261316482826130c6565b95945050505050565b6000806000806080858703121561318357600080fd5b843561318e81612de8565b9350602085013561319e81612de8565b925060408501359150606085013567ffffffffffffffff8111156131c157600080fd5b6131cd87828801612f10565b91505092959194509250565b60208152600061290760208301846130c6565b634e487b7160e01b600052601160045260246000fd5b8181038181111561114a5761114a6131ec565b60006020828403121561322757600080fd5b8151801515811461290757600080fd5b600061ffff80831681810361324e5761324e6131ec565b6001019392505050565b6020808252601190820152701514ce88151493881b9bdd08195e1a5cdd607a1b604082015260600190565b808202811582820484141761114a5761114a6131ec565b634e487b7160e01b600052601260045260246000fd5b6000826132bf576132bf61329a565b500490565b6000602082840312156132d657600080fd5b5051919050565b634e487b7160e01b600052603260045260246000fd5b60006020828403121561330557600080fd5b815161290781612de8565b6001600160a01b039384168152919092166020820152604081019190915260600190565b600060018201613346576133466131ec565b5060010190565b8082018082111561114a5761114a6131ec565b60018060a01b038416815282602082015260606040820152600061316460608301846130c6565b600081613396576133966131ec565b506000190190565b6000826133ad576133ad61329a565b500690565b634e487b7160e01b600052603160045260246000fdfea26469706673582212202169f5b3087ab2f1cd2defb47e8c786ba02cf70b8636961d5399fbb3b062ffd064736f6c63430008110033",
  "linkReferences": {},
  "deployedLinkReferences": {}
}