{
  "_format": "hh-sol-artifact-1",
  "contractName": "TomaasStakingPool",
  "sourceName": "contracts/TomaasStakingPool.sol",
  "abi": [
    {
      "inputs": [],
      "stateMutability": "nonpayable",
      "type": "constructor"
    },
    {
      "anonymous": false,
      "inputs": [
        {
          "indexed": false,
          "internalType": "bool",
          "name": "status",
          "type": "bool"
        }
      ],
      "name": "ClaimableStatusUpdated",
      "type": "event"
    },
    {
      "anonymous": false,
      "inputs": [
        {
          "indexed": true,
          "internalType": "address",
          "name": "user",
          "type": "address"
        },
        {
          "indexed": false,
          "internalType": "uint256",
          "name": "tokenId",
          "type": "uint256"
        }
      ],
      "name": "EmergencyUnstake",
      "type": "event"
    },
    {
      "anonymous": false,
      "inputs": [
        {
          "indexed": false,
          "internalType": "uint8",
          "name": "version",
          "type": "uint8"
        }
      ],
      "name": "Initialized",
      "type": "event"
    },
    {
      "anonymous": false,
      "inputs": [
        {
          "indexed": true,
          "internalType": "address",
          "name": "previousOwner",
          "type": "address"
        },
        {
          "indexed": true,
          "internalType": "address",
          "name": "newOwner",
          "type": "address"
        }
      ],
      "name": "OwnershipTransferred",
      "type": "event"
    },
    {
      "anonymous": false,
      "inputs": [
        {
          "indexed": true,
          "internalType": "address",
          "name": "user",
          "type": "address"
        },
        {
          "indexed": false,
          "internalType": "uint256",
          "name": "reward",
          "type": "uint256"
        }
      ],
      "name": "RewardPaid",
      "type": "event"
    },
    {
      "anonymous": false,
      "inputs": [
        {
          "indexed": false,
          "internalType": "address",
          "name": "owner",
          "type": "address"
        },
        {
          "indexed": false,
          "internalType": "uint256",
          "name": "amount",
          "type": "uint256"
        }
      ],
      "name": "Staked",
      "type": "event"
    },
    {
      "anonymous": false,
      "inputs": [
        {
          "indexed": false,
          "internalType": "address",
          "name": "owner",
          "type": "address"
        },
        {
          "indexed": false,
          "internalType": "uint256",
          "name": "amount",
          "type": "uint256"
        }
      ],
      "name": "Unstaked",
      "type": "event"
    },
    {
      "inputs": [
        {
          "internalType": "uint256",
          "name": "_tokenId",
          "type": "uint256"
        }
      ],
      "name": "getOwnerOfStakedToken",
      "outputs": [
        {
          "internalType": "address",
          "name": "owner",
          "type": "address"
        }
      ],
      "stateMutability": "view",
      "type": "function"
    },
    {
      "inputs": [
        {
          "internalType": "address",
          "name": "_userAddress",
          "type": "address"
        }
      ],
      "name": "getStakedTokens",
      "outputs": [
        {
          "internalType": "uint256[]",
          "name": "tokenids",
          "type": "uint256[]"
        }
      ],
      "stateMutability": "view",
      "type": "function"
    },
    {
      "inputs": [],
      "name": "initStaking",
      "outputs": [],
      "stateMutability": "nonpayable",
      "type": "function"
    },
    {
      "inputs": [
        {
          "internalType": "contract TomaasLPN",
          "name": "_liquidityProviderNft",
          "type": "address"
        },
        {
          "internalType": "contract ITokenForRewards",
          "name": "_tokenForRewards",
          "type": "address"
        },
        {
          "internalType": "contract TomaasMarketplace",
          "name": "_marketplace",
          "type": "address"
        }
      ],
      "name": "initialize",
      "outputs": [],
      "stateMutability": "nonpayable",
      "type": "function"
    },
    {
      "inputs": [],
      "name": "liquidityProviderNft",
      "outputs": [
        {
          "internalType": "contract TomaasLPN",
          "name": "",
          "type": "address"
        }
      ],
      "stateMutability": "view",
      "type": "function"
    },
    {
      "inputs": [],
      "name": "marketplace",
      "outputs": [
        {
          "internalType": "contract TomaasMarketplace",
          "name": "",
          "type": "address"
        }
      ],
      "stateMutability": "view",
      "type": "function"
    },
    {
      "inputs": [
        {
          "internalType": "address",
          "name": "",
          "type": "address"
        },
        {
          "internalType": "address",
          "name": "",
          "type": "address"
        },
        {
          "internalType": "uint256",
          "name": "",
          "type": "uint256"
        },
        {
          "internalType": "bytes",
          "name": "",
          "type": "bytes"
        }
      ],
      "name": "onERC721Received",
      "outputs": [
        {
          "internalType": "bytes4",
          "name": "",
          "type": "bytes4"
        }
      ],
      "stateMutability": "nonpayable",
      "type": "function"
    },
    {
      "inputs": [],
      "name": "owner",
      "outputs": [
        {
          "internalType": "address",
          "name": "",
          "type": "address"
        }
      ],
      "stateMutability": "view",
      "type": "function"
    },
    {
      "inputs": [],
      "name": "realWorldNft",
      "outputs": [
        {
          "internalType": "contract TomaasRWN",
          "name": "",
          "type": "address"
        }
      ],
      "stateMutability": "view",
      "type": "function"
    },
    {
      "inputs": [],
      "name": "renounceOwnership",
      "outputs": [],
      "stateMutability": "nonpayable",
      "type": "function"
    },
    {
      "inputs": [],
      "name": "rewardsClaimable",
      "outputs": [
        {
          "internalType": "bool",
          "name": "",
          "type": "bool"
        }
      ],
      "stateMutability": "view",
      "type": "function"
    },
    {
      "inputs": [
        {
          "internalType": "bool",
          "name": "_enabled",
          "type": "bool"
        }
      ],
      "name": "setRewardsClaimable",
      "outputs": [],
      "stateMutability": "nonpayable",
      "type": "function"
    },
    {
      "inputs": [
        {
          "internalType": "uint256",
          "name": "tokenId",
          "type": "uint256"
        }
      ],
      "name": "stakeToken",
      "outputs": [],
      "stateMutability": "nonpayable",
      "type": "function"
    },
    {
      "inputs": [
        {
          "internalType": "uint256[]",
          "name": "tokenIds",
          "type": "uint256[]"
        }
      ],
      "name": "stakeTokens",
      "outputs": [],
      "stateMutability": "nonpayable",
      "type": "function"
    },
    {
      "inputs": [],
      "name": "stakedTotal",
      "outputs": [
        {
          "internalType": "uint256",
          "name": "",
          "type": "uint256"
        }
      ],
      "stateMutability": "view",
      "type": "function"
    },
    {
      "inputs": [
        {
          "internalType": "address",
          "name": "",
          "type": "address"
        }
      ],
      "name": "stakerMap",
      "outputs": [
        {
          "internalType": "uint256",
          "name": "rewardsBalance",
          "type": "uint256"
        },
        {
          "internalType": "uint256",
          "name": "rewardsReleased",
          "type": "uint256"
        }
      ],
      "stateMutability": "view",
      "type": "function"
    },
    {
      "inputs": [],
      "name": "stakingStartTime",
      "outputs": [
        {
          "internalType": "uint256",
          "name": "",
          "type": "uint256"
        }
      ],
      "stateMutability": "view",
      "type": "function"
    },
    {
      "inputs": [],
      "name": "tokenForRewards",
      "outputs": [
        {
          "internalType": "contract ITokenForRewards",
          "name": "",
          "type": "address"
        }
      ],
      "stateMutability": "view",
      "type": "function"
    },
    {
      "inputs": [
        {
          "internalType": "uint256",
          "name": "",
          "type": "uint256"
        }
      ],
      "name": "tokenOwnerMap",
      "outputs": [
        {
          "internalType": "address",
          "name": "",
          "type": "address"
        }
      ],
      "stateMutability": "view",
      "type": "function"
    },
    {
      "inputs": [
        {
          "internalType": "address",
          "name": "newOwner",
          "type": "address"
        }
      ],
      "name": "transferOwnership",
      "outputs": [],
      "stateMutability": "nonpayable",
      "type": "function"
    },
    {
      "inputs": [],
      "name": "unstakeAllTokens",
      "outputs": [],
      "stateMutability": "nonpayable",
      "type": "function"
    },
    {
      "inputs": [
        {
          "internalType": "uint256",
          "name": "_tokenId",
          "type": "uint256"
        }
      ],
      "name": "unstakeToken",
      "outputs": [],
      "stateMutability": "nonpayable",
      "type": "function"
    },
    {
      "inputs": [
        {
          "internalType": "uint256[]",
          "name": "tokenIds",
          "type": "uint256[]"
        }
      ],
      "name": "unstakeTokens",
      "outputs": [],
      "stateMutability": "nonpayable",
      "type": "function"
    }
  ],
  "bytecode": "0x608060405234801561001057600080fd5b5061001961001e565b6100de565b600054610100900460ff161561008a5760405162461bcd60e51b815260206004820152602760248201527f496e697469616c697a61626c653a20636f6e747261637420697320696e697469604482015266616c697a696e6760c81b606482015260840160405180910390fd5b60005460ff90811610156100dc576000805460ff191660ff9081179091556040519081527f7f26b83ff96e1f2b6a682f133852f6798a09c465da95921460cefb38474024989060200160405180910390a15b565b611419806100ed6000396000f3fe608060405234801561001057600080fd5b506004361061014d5760003560e01c80638eb99fac116100c3578063c0c53b8b1161007c578063c0c53b8b1461032f578063c782311c14610342578063cda6b84714610355578063d66692a714610368578063df462fdc14610371578063f2fde38b1461038457600080fd5b80638eb99fac146102b25780638fcc697a146102c5578063abc8c7af146102d8578063b4efa66d146102eb578063c05d04ed146102f3578063c092b2b31461031c57600080fd5b806363c28db11161011557806363c28db1146102105780636abfd1831461023057806370ea028f14610247578063715018a61461025a578063729cfe3b146102625780638da5cb5b146102a157600080fd5b8063150b7a02146101525780632cfb66881461018e578063306fa05a146101a35780634751acc3146101e45780635d85f3a114610208575b600080fd5b610170610160366004610fca565b630a85bd0160e11b949350505050565b6040516001600160e01b031990911681526020015b60405180910390f35b6101a161019c36600461108e565b610397565b005b6101cc6101b136600461108e565b6000908152609e60205260409020546001600160a01b031690565b6040516001600160a01b039091168152602001610185565b609a546101f890600160a01b900460ff1681565b6040519015158152602001610185565b6101a16103e3565b61022361021e3660046110a7565b610499565b60405161018591906110cb565b610239609b5481565b604051908152602001610185565b6101a161025536600461110f565b610505565b6101a1610568565b61028c6102703660046110a7565b609d602052600090815260409020600281015460039091015482565b60408051928352602083019190915201610185565b6065546001600160a01b03166101cc565b6098546101cc906001600160a01b031681565b6101a16102d33660046111b5565b61057c565b609a546101cc906001600160a01b031681565b6101a16105dc565b6101cc61030136600461108e565b609e602052600090815260409020546001600160a01b031681565b6099546101cc906001600160a01b031681565b6101a161033d3660046111d7565b610657565b6101a161035036600461110f565b6107a8565b6101a161036336600461108e565b61083d565b610239609c5481565b6097546101cc906001600160a01b031681565b6101a16103923660046110a7565b610869565b6000818152609e60205260409020546001600160a01b031633146103d65760405162461bcd60e51b81526004016103cd90611222565b60405180910390fd5b6103e033826108df565b50565b6103ec33610b1c565b336000908152609d602090815260408083208054825181850281018501909352808352919290919083018282801561044357602002820191906000526020600020905b81548152602001906001019080831161042f575b5050505050905060005b8151811015610495576104608251610b64565b6104833383838151811061047657610476611266565b60200260200101516108df565b8061048d81611292565b91505061044d565b5050565b6001600160a01b0381166000908152609d60209081526040918290208054835181840281018401909452808452606093928301828280156104f957602002820191906000526020600020905b8154815260200190600101908083116104e5575b50505050509050919050565b609b544210156105275760405162461bcd60e51b81526004016103cd906112ab565b60005b8151811015610495576105563383838151811061054957610549611266565b6020026020010151610ba9565b8061056081611292565b91505061052a565b610570610e42565b61057a6000610e9c565b565b610584610e42565b609a8054821515600160a01b0260ff60a01b199091161790556040517f4a113b1b56ac87c884bce0b1715ef967c43f546e247aa746d79d92335fe9f825906105d190831515815260200190565b60405180910390a150565b6105e4610e42565b609a54600160a81b900460ff161561063e5760405162461bcd60e51b815260206004820152601f60248201527f5374616b696e6720697320616c726561647920696e697469616c697a65642e0060448201526064016103cd565b42609b55609a805460ff60a81b1916600160a81b179055565b600054610100900460ff16158080156106775750600054600160ff909116105b806106915750303b158015610691575060005460ff166001145b6106f45760405162461bcd60e51b815260206004820152602e60248201527f496e697469616c697a61626c653a20636f6e747261637420697320616c72656160448201526d191e481a5b9a5d1a585b1a5e995960921b60648201526084016103cd565b6000805460ff191660011790558015610717576000805461ff0019166101001790555b61071f610eee565b609780546001600160a01b038086166001600160a01b03199283161790925560988054878416908316179055609a80549285169290911691909117905580156107a2576000805461ff0019169055604051600181527f7f26b83ff96e1f2b6a682f133852f6798a09c465da95921460cefb38474024989060200160405180910390a15b50505050565b60005b815181101561049557336001600160a01b0316609e60008484815181106107d4576107d4611266565b6020908102919091018101518252810191909152604001600020546001600160a01b0316146108155760405162461bcd60e51b81526004016103cd90611222565b61082b3383838151811061047657610476611266565b8061083581611292565b9150506107ab565b609b5442101561085f5760405162461bcd60e51b81526004016103cd906112ab565b6103e03382610ba9565b610871610e42565b6001600160a01b0381166108d65760405162461bcd60e51b815260206004820152602660248201527f4f776e61626c653a206e6577206f776e657220697320746865207a65726f206160448201526564647265737360d01b60648201526084016103cd565b6103e081610e9c565b6000818152609e60205260409020546001600160a01b038381169116146109185760405162461bcd60e51b81526004016103cd906112ee565b6001600160a01b038281166000818152609d60209081526040808320868452600181018352818420849055609e9092529182902080546001600160a01b03191690556098549151632142170760e11b81523060048201526024810193909352604483018590529216906342842e0e90606401600060405180830381600087803b1580156109a457600080fd5b505af11580156109b8573d6000803e3d6000fd5b5050604080516001600160a01b0387168152602081018690527f0f5bb82176feb1b5e747e28471aa92156a04d9f3ab9f45f28e2d704232b93f75935001905060405180910390a1609c8054906000610a0f83611335565b90915550508054600090610a259060019061134c565b90506000826000018281548110610a3e57610a3e611266565b90600052602060002001549050838103610a7e578254839080610a6357610a63611365565b60019003818190600052602060002001600090559055610b15565b825415610b155760005b8354811015610b135784846000018281548110610aa757610aa7611266565b906000526020600020015403610b015781846000018281548110610acd57610acd611266565b6000918252602090912001558354849080610aea57610aea611365565b600190038181906000526020600020016000905590555b80610b0b81611292565b915050610a88565b505b5050505050565b6040516001600160a01b03821660248201526103e09060440160408051601f198184030181529190526020810180516001600160e01b031663161765e160e11b179052610f1d565b6103e081604051602401610b7a91815260200190565b60408051601f198184030181529190526020810180516001600160e01b031663f82c50f160e01b179052610f1d565b609a54600160a81b900460ff16610bd25760405162461bcd60e51b81526004016103cd906112ab565b6098546040516331a9108f60e11b8152600481018390526001600160a01b03848116921690636352211e90602401602060405180830381865afa158015610c1d573d6000803e3d6000fd5b505050506040513d601f19601f82011682018060405250810190610c41919061137b565b6001600160a01b031614610c675760405162461bcd60e51b81526004016103cd906112ee565b6001600160a01b038281166000818152609d6020908152604080832080546001808201835582865284862090910188905587855281018352818420429055609e9092529182902080546001600160a01b031916909317909255609854905163095ea7b360e01b8152306004820152602481018590529192169063095ea7b390604401600060405180830381600087803b158015610d0357600080fd5b505af1158015610d17573d6000803e3d6000fd5b5050609854604051632142170760e11b81526001600160a01b0387811660048301523060248301526044820187905290911692506342842e0e9150606401600060405180830381600087803b158015610d6f57600080fd5b505af1158015610d83573d6000803e3d6000fd5b5050609854604051632e1a7d4d60e01b8152600481018690526001600160a01b039091169250632e1a7d4d9150602401600060405180830381600087803b158015610dcd57600080fd5b505af1158015610de1573d6000803e3d6000fd5b5050604080516001600160a01b0387168152602081018690527f9e71bc8eea02a63969f509818f2dafb9254532904319f9dbda79b67bd34a5f3d935001905060405180910390a1609c8054906000610e3883611292565b9190505550505050565b6065546001600160a01b0316331461057a5760405162461bcd60e51b815260206004820181905260248201527f4f776e61626c653a2063616c6c6572206973206e6f7420746865206f776e657260448201526064016103cd565b606580546001600160a01b038381166001600160a01b0319831681179093556040519116919082907f8be0079c531659141344cd1fd0a4f28419497f9722a3daafe3b4186f6b6457e090600090a35050565b600054610100900460ff16610f155760405162461bcd60e51b81526004016103cd90611398565b61057a610f3e565b80516a636f6e736f6c652e6c6f67602083016000808483855afa5050505050565b600054610100900460ff16610f655760405162461bcd60e51b81526004016103cd90611398565b61057a33610e9c565b6001600160a01b03811681146103e057600080fd5b634e487b7160e01b600052604160045260246000fd5b604051601f8201601f1916810167ffffffffffffffff81118282101715610fc257610fc2610f83565b604052919050565b60008060008060808587031215610fe057600080fd5b8435610feb81610f6e565b9350602085810135610ffc81610f6e565b935060408601359250606086013567ffffffffffffffff8082111561102057600080fd5b818801915088601f83011261103457600080fd5b81358181111561104657611046610f83565b611058601f8201601f19168501610f99565b9150808252898482850101111561106e57600080fd5b808484018584013760008482840101525080935050505092959194509250565b6000602082840312156110a057600080fd5b5035919050565b6000602082840312156110b957600080fd5b81356110c481610f6e565b9392505050565b6020808252825182820181905260009190848201906040850190845b81811015611103578351835292840192918401916001016110e7565b50909695505050505050565b6000602080838503121561112257600080fd5b823567ffffffffffffffff8082111561113a57600080fd5b818501915085601f83011261114e57600080fd5b81358181111561116057611160610f83565b8060051b9150611171848301610f99565b818152918301840191848101908884111561118b57600080fd5b938501935b838510156111a957843582529385019390850190611190565b98975050505050505050565b6000602082840312156111c757600080fd5b813580151581146110c457600080fd5b6000806000606084860312156111ec57600080fd5b83356111f781610f6e565b9250602084013561120781610f6e565b9150604084013561121781610f6e565b809150509250925092565b60208082526024908201527f53656e646572206973206e6f7420746865206f776e6572206f6620746865207460408201526337b5b2b760e11b606082015260800190565b634e487b7160e01b600052603260045260246000fd5b634e487b7160e01b600052601160045260246000fd5b6000600182016112a4576112a461127c565b5060010190565b60208082526023908201527f5374616b696e6720506f6f6c206973206e6f7420696e697469616c697a6564206040820152621e595d60ea1b606082015260800190565b60208082526027908201527f5468652055736572206973206e6f7420746865206f776e6572206f662074686960408201526639903a37b5b2b760c91b606082015260800190565b6000816113445761134461127c565b506000190190565b8181038181111561135f5761135f61127c565b92915050565b634e487b7160e01b600052603160045260246000fd5b60006020828403121561138d57600080fd5b81516110c481610f6e565b6020808252602b908201527f496e697469616c697a61626c653a20636f6e7472616374206973206e6f74206960408201526a6e697469616c697a696e6760a81b60608201526080019056fea2646970667358221220fe668e48d4c3bd1e49e9fa00b0f2c469bdaf9c970670bfe2b30e71b91daeb11264736f6c63430008110033",
  "linkReferences": {},
  "deployedLinkReferences": {}
}