{
  "_format": "hh-sol-artifact-1",
  "contractName": "TomaasLending",
  "sourceName": "contracts/TomaasLending.sol",
  "abi": [
    {
      "inputs": [],
      "stateMutability": "nonpayable",
      "type": "constructor"
    },
    {
      "anonymous": false,
      "inputs": [
        {
          "indexed": true,
          "internalType": "address",
          "name": "owner",
          "type": "address"
        },
        {
          "indexed": true,
          "internalType": "address",
          "name": "collection",
          "type": "address"
        },
        {
          "indexed": false,
          "internalType": "address",
          "name": "tokenAddress",
          "type": "address"
        },
        {
          "indexed": false,
          "internalType": "uint256",
          "name": "revenueShareRatio",
          "type": "uint256"
        }
      ],
      "name": "AddNewCollection",
      "type": "event"
    },
    {
      "anonymous": false,
      "inputs": [
        {
          "indexed": true,
          "internalType": "address",
          "name": "nftAddress",
          "type": "address"
        },
        {
          "indexed": false,
          "internalType": "uint256",
          "name": "tokenId",
          "type": "uint256"
        }
      ],
      "name": "NFTListed",
      "type": "event"
    },
    {
      "anonymous": false,
      "inputs": [
        {
          "indexed": true,
          "internalType": "address",
          "name": "nftAddress",
          "type": "address"
        },
        {
          "indexed": false,
          "internalType": "uint256",
          "name": "tokenId",
          "type": "uint256"
        }
      ],
      "name": "NFTUnlisted",
      "type": "event"
    },
    {
      "anonymous": false,
      "inputs": [
        {
          "indexed": true,
          "internalType": "address",
          "name": "nftAddress",
          "type": "address"
        },
        {
          "indexed": true,
          "internalType": "address",
          "name": "owner",
          "type": "address"
        }
      ],
      "name": "NFTsListed",
      "type": "event"
    },
    {
      "anonymous": false,
      "inputs": [
        {
          "indexed": true,
          "internalType": "address",
          "name": "nftAddress",
          "type": "address"
        },
        {
          "indexed": true,
          "internalType": "address",
          "name": "owner",
          "type": "address"
        }
      ],
      "name": "NFTsUnlisted",
      "type": "event"
    },
    {
      "anonymous": false,
      "inputs": [
        {
          "indexed": true,
          "internalType": "address",
          "name": "previousOwner",
          "type": "address"
        },
        {
          "indexed": true,
          "internalType": "address",
          "name": "newOwner",
          "type": "address"
        }
      ],
      "name": "OwnershipTransferred",
      "type": "event"
    },
    {
      "anonymous": false,
      "inputs": [
        {
          "indexed": false,
          "internalType": "address",
          "name": "account",
          "type": "address"
        }
      ],
      "name": "Paused",
      "type": "event"
    },
    {
      "anonymous": false,
      "inputs": [
        {
          "indexed": true,
          "internalType": "address",
          "name": "nftAddr",
          "type": "address"
        },
        {
          "indexed": true,
          "internalType": "address",
          "name": "renterAddr",
          "type": "address"
        }
      ],
      "name": "RenterRegistered",
      "type": "event"
    },
    {
      "anonymous": false,
      "inputs": [
        {
          "indexed": true,
          "internalType": "address",
          "name": "nftAddr",
          "type": "address"
        },
        {
          "indexed": true,
          "internalType": "address",
          "name": "renterAddr",
          "type": "address"
        }
      ],
      "name": "RenterUnregistered",
      "type": "event"
    },
    {
      "anonymous": false,
      "inputs": [
        {
          "indexed": true,
          "internalType": "address",
          "name": "nftAddress",
          "type": "address"
        },
        {
          "indexed": true,
          "internalType": "address",
          "name": "renter",
          "type": "address"
        },
        {
          "indexed": true,
          "internalType": "uint64",
          "name": "settlementDate",
          "type": "uint64"
        },
        {
          "indexed": false,
          "internalType": "string",
          "name": "reportUri",
          "type": "string"
        }
      ],
      "name": "SettlementReportAdded",
      "type": "event"
    },
    {
      "anonymous": false,
      "inputs": [
        {
          "indexed": true,
          "internalType": "address",
          "name": "nftAddress",
          "type": "address"
        },
        {
          "indexed": true,
          "internalType": "address",
          "name": "renter",
          "type": "address"
        },
        {
          "indexed": true,
          "internalType": "uint64",
          "name": "settlementDate",
          "type": "uint64"
        },
        {
          "indexed": false,
          "internalType": "string",
          "name": "reportUri",
          "type": "string"
        }
      ],
      "name": "SettlementReportUpdated",
      "type": "event"
    },
    {
      "anonymous": false,
      "inputs": [
        {
          "indexed": false,
          "internalType": "address",
          "name": "account",
          "type": "address"
        }
      ],
      "name": "Unpaused",
      "type": "event"
    },
    {
      "inputs": [
        {
          "internalType": "address",
          "name": "nftAddress",
          "type": "address"
        },
        {
          "internalType": "uint256",
          "name": "revenueShareRatio",
          "type": "uint256"
        }
      ],
      "name": "addCollection",
      "outputs": [
        {
          "internalType": "uint16",
          "name": "",
          "type": "uint16"
        }
      ],
      "stateMutability": "nonpayable",
      "type": "function"
    },
    {
      "inputs": [
        {
          "internalType": "uint16",
          "name": "index",
          "type": "uint16"
        }
      ],
      "name": "getCollectionAt",
      "outputs": [
        {
          "components": [
            {
              "internalType": "contract TomaasRWN",
              "name": "tomaasRWN",
              "type": "address"
            },
            {
              "internalType": "contract IERC20",
              "name": "acceptedToken",
              "type": "address"
            },
            {
              "internalType": "uint256",
              "name": "revenueShareRatio",
              "type": "uint256"
            }
          ],
          "internalType": "struct TomaasLending.CollectionInfo",
          "name": "",
          "type": "tuple"
        }
      ],
      "stateMutability": "view",
      "type": "function"
    },
    {
      "inputs": [
        {
          "internalType": "address",
          "name": "nftAddress",
          "type": "address"
        }
      ],
      "name": "getCollectionIndex",
      "outputs": [
        {
          "internalType": "uint16",
          "name": "",
          "type": "uint16"
        }
      ],
      "stateMutability": "view",
      "type": "function"
    },
    {
      "inputs": [
        {
          "internalType": "address",
          "name": "nftAddress",
          "type": "address"
        }
      ],
      "name": "getCollectionInfo",
      "outputs": [
        {
          "components": [
            {
              "internalType": "contract TomaasRWN",
              "name": "tomaasRWN",
              "type": "address"
            },
            {
              "internalType": "contract IERC20",
              "name": "acceptedToken",
              "type": "address"
            },
            {
              "internalType": "uint256",
              "name": "revenueShareRatio",
              "type": "uint256"
            }
          ],
          "internalType": "struct TomaasLending.CollectionInfo",
          "name": "",
          "type": "tuple"
        }
      ],
      "stateMutability": "view",
      "type": "function"
    },
    {
      "inputs": [],
      "name": "getCollections",
      "outputs": [
        {
          "components": [
            {
              "internalType": "contract TomaasRWN",
              "name": "tomaasRWN",
              "type": "address"
            },
            {
              "internalType": "contract IERC20",
              "name": "acceptedToken",
              "type": "address"
            },
            {
              "internalType": "uint256",
              "name": "revenueShareRatio",
              "type": "uint256"
            }
          ],
          "internalType": "struct TomaasLending.CollectionInfo[]",
          "name": "",
          "type": "tuple[]"
        }
      ],
      "stateMutability": "view",
      "type": "function"
    },
    {
      "inputs": [
        {
          "internalType": "address",
          "name": "nftAddress",
          "type": "address"
        }
      ],
      "name": "getCountOfNFTsListed",
      "outputs": [
        {
          "internalType": "uint256",
          "name": "",
          "type": "uint256"
        }
      ],
      "stateMutability": "view",
      "type": "function"
    },
    {
      "inputs": [
        {
          "internalType": "address",
          "name": "nftAddress",
          "type": "address"
        }
      ],
      "name": "getListingNFTs",
      "outputs": [
        {
          "internalType": "uint256[]",
          "name": "",
          "type": "uint256[]"
        }
      ],
      "stateMutability": "view",
      "type": "function"
    },
    {
      "inputs": [
        {
          "internalType": "address",
          "name": "nftAddress",
          "type": "address"
        }
      ],
      "name": "getRevenueShareRatio",
      "outputs": [
        {
          "internalType": "uint256",
          "name": "",
          "type": "uint256"
        }
      ],
      "stateMutability": "view",
      "type": "function"
    },
    {
      "inputs": [
        {
          "internalType": "address",
          "name": "nftAddr",
          "type": "address"
        },
        {
          "internalType": "address",
          "name": "renterAddr",
          "type": "address"
        },
        {
          "internalType": "uint256",
          "name": "index",
          "type": "uint256"
        }
      ],
      "name": "getSettlementReport",
      "outputs": [
        {
          "internalType": "string",
          "name": "",
          "type": "string"
        }
      ],
      "stateMutability": "view",
      "type": "function"
    },
    {
      "inputs": [
        {
          "internalType": "address",
          "name": "nftAddr",
          "type": "address"
        },
        {
          "internalType": "address",
          "name": "renterAddr",
          "type": "address"
        }
      ],
      "name": "getSettlementReportCount",
      "outputs": [
        {
          "internalType": "uint256",
          "name": "",
          "type": "uint256"
        }
      ],
      "stateMutability": "view",
      "type": "function"
    },
    {
      "inputs": [
        {
          "internalType": "address",
          "name": "nftAddr",
          "type": "address"
        },
        {
          "internalType": "address",
          "name": "renterAddr",
          "type": "address"
        },
        {
          "internalType": "uint256",
          "name": "number",
          "type": "uint256"
        }
      ],
      "name": "getSettlementReportsFromLast",
      "outputs": [
        {
          "internalType": "string[]",
          "name": "",
          "type": "string[]"
        }
      ],
      "stateMutability": "view",
      "type": "function"
    },
    {
      "inputs": [
        {
          "internalType": "address",
          "name": "nftAddress",
          "type": "address"
        },
        {
          "internalType": "uint256",
          "name": "tokenId",
          "type": "uint256"
        }
      ],
      "name": "isListedNFT",
      "outputs": [
        {
          "internalType": "bool",
          "name": "",
          "type": "bool"
        }
      ],
      "stateMutability": "view",
      "type": "function"
    },
    {
      "inputs": [
        {
          "internalType": "address",
          "name": "nftAddr",
          "type": "address"
        }
      ],
      "name": "listRenters",
      "outputs": [
        {
          "internalType": "address[]",
          "name": "",
          "type": "address[]"
        }
      ],
      "stateMutability": "view",
      "type": "function"
    },
    {
      "inputs": [
        {
          "internalType": "address",
          "name": "nftAddress",
          "type": "address"
        },
        {
          "internalType": "uint256",
          "name": "tokenId",
          "type": "uint256"
        }
      ],
      "name": "listingNFT",
      "outputs": [],
      "stateMutability": "nonpayable",
      "type": "function"
    },
    {
      "inputs": [
        {
          "internalType": "address",
          "name": "nftAddress",
          "type": "address"
        }
      ],
      "name": "listingNFTOwn",
      "outputs": [],
      "stateMutability": "nonpayable",
      "type": "function"
    },
    {
      "inputs": [],
      "name": "owner",
      "outputs": [
        {
          "internalType": "address",
          "name": "",
          "type": "address"
        }
      ],
      "stateMutability": "view",
      "type": "function"
    },
    {
      "inputs": [],
      "name": "pause",
      "outputs": [],
      "stateMutability": "nonpayable",
      "type": "function"
    },
    {
      "inputs": [],
      "name": "paused",
      "outputs": [
        {
          "internalType": "bool",
          "name": "",
          "type": "bool"
        }
      ],
      "stateMutability": "view",
      "type": "function"
    },
    {
      "inputs": [
        {
          "internalType": "address",
          "name": "nftAddr",
          "type": "address"
        },
        {
          "internalType": "address",
          "name": "renterAddr",
          "type": "address"
        }
      ],
      "name": "registerRenter",
      "outputs": [],
      "stateMutability": "nonpayable",
      "type": "function"
    },
    {
      "inputs": [],
      "name": "renounceOwnership",
      "outputs": [],
      "stateMutability": "nonpayable",
      "type": "function"
    },
    {
      "inputs": [
        {
          "internalType": "address",
          "name": "nftAddress",
          "type": "address"
        },
        {
          "internalType": "uint64",
          "name": "expires",
          "type": "uint64"
        }
      ],
      "name": "rentAllNFTInCollection",
      "outputs": [],
      "stateMutability": "nonpayable",
      "type": "function"
    },
    {
      "inputs": [
        {
          "internalType": "address",
          "name": "nftAddress",
          "type": "address"
        },
        {
          "internalType": "uint256",
          "name": "tokenId",
          "type": "uint256"
        },
        {
          "internalType": "uint64",
          "name": "expires",
          "type": "uint64"
        }
      ],
      "name": "rentNFTInCollection",
      "outputs": [],
      "stateMutability": "nonpayable",
      "type": "function"
    },
    {
      "inputs": [
        {
          "internalType": "address",
          "name": "nftAddress",
          "type": "address"
        },
        {
          "internalType": "address",
          "name": "to",
          "type": "address"
        },
        {
          "internalType": "string",
          "name": "uri",
          "type": "string"
        }
      ],
      "name": "safeMintNFT",
      "outputs": [],
      "stateMutability": "nonpayable",
      "type": "function"
    },
    {
      "inputs": [
        {
          "internalType": "address",
          "name": "nftAddr",
          "type": "address"
        },
        {
          "internalType": "address",
          "name": "renterAddr",
          "type": "address"
        },
        {
          "internalType": "uint64",
          "name": "settlementDate",
          "type": "uint64"
        },
        {
          "internalType": "string",
          "name": "reportUri",
          "type": "string"
        }
      ],
      "name": "storeSettlementReport",
      "outputs": [],
      "stateMutability": "nonpayable",
      "type": "function"
    },
    {
      "inputs": [
        {
          "internalType": "address",
          "name": "newOwner",
          "type": "address"
        }
      ],
      "name": "transferOwnership",
      "outputs": [],
      "stateMutability": "nonpayable",
      "type": "function"
    },
    {
      "inputs": [
        {
          "internalType": "address",
          "name": "nftAddr",
          "type": "address"
        },
        {
          "internalType": "address",
          "name": "renterAddr",
          "type": "address"
        }
      ],
      "name": "unRegisterRenter",
      "outputs": [],
      "stateMutability": "nonpayable",
      "type": "function"
    },
    {
      "inputs": [
        {
          "internalType": "address",
          "name": "nftAddress",
          "type": "address"
        },
        {
          "internalType": "uint256",
          "name": "tokenId",
          "type": "uint256"
        }
      ],
      "name": "unlistingNFT",
      "outputs": [],
      "stateMutability": "nonpayable",
      "type": "function"
    },
    {
      "inputs": [
        {
          "internalType": "address",
          "name": "nftAddress",
          "type": "address"
        }
      ],
      "name": "unlistingNFTOwn",
      "outputs": [],
      "stateMutability": "nonpayable",
      "type": "function"
    },
    {
      "inputs": [],
      "name": "unpause",
      "outputs": [],
      "stateMutability": "nonpayable",
      "type": "function"
    }
  ],
  "bytecode": "0x608060405234801561001057600080fd5b50600160005561001f33610031565b6001805460ff60a01b19169055610083565b600180546001600160a01b038381166001600160a01b0319831681179093556040519116919082907f8be0079c531659141344cd1fd0a4f28419497f9722a3daafe3b4186f6b6457e090600090a35050565b612c8b80620000936000396000f3fe608060405234801561001057600080fd5b50600436106101cf5760003560e01c806362f5870e11610104578063898e5133116100a25780639bb6085f116100715780639bb6085f14610429578063a9bb8f4a1461043c578063e435ea6b1461045c578063f2fde38b1461046f57600080fd5b8063898e5133146103d55780638da5cb5b146103e85780639056a04b146104035780639140b34d1461041657600080fd5b8063715018a6116100de578063715018a61461039f5780637479b43a146103a757806382ca1153146103ba5780638456cb59146103cd57600080fd5b806362f5870e1461034c5780636b0ed5441461036c57806370a18f3e1461038c57600080fd5b806332596c9b116101715780634690a8b11161014b5780634690a8b1146102ef57806346e63586146103125780635c975abb1461032757806360a310b31461033957600080fd5b806332596c9b146102c157806339208177146102d45780633f4ba83a146102e757600080fd5b80632294a1b5116101ad5780632294a1b51461023557806325507b9d146102555780632881153a14610275578063299e10f61461028857600080fd5b80630e23968a146101d457806319f101fa146101fa5780631cedb26f14610220575b600080fd5b6101e76101e236600461248e565b610482565b6040519081526020015b60405180910390f35b61020d6102083660046124ab565b6104d9565b60405161ffff90911681526020016101f1565b61023361022e36600461248e565b6106bc565b005b6102486102433660046124d7565b610875565b6040516101f1919061255e565b6102686102633660046124d7565b610a24565b6040516101f191906125c0565b610233610283366004612675565b610b02565b6101e76102963660046126d6565b6001600160a01b03918216600090815260046020908152604080832093909416825291909152205490565b6102336102cf36600461272b565b610b8a565b6102336102e23660046124ab565b610c33565b610233610e9a565b6103026102fd3660046124ab565b610eac565b60405190151581526020016101f1565b61031a610ed5565b6040516101f19190612769565b600154600160a01b900460ff16610302565b6102336103473660046126d6565b610fda565b61035f61035a3660046127d9565b6110bc565b6040516101f191906127fd565b61037f61037a36600461248e565b61114b565b6040516101f1919061282c565b61023361039a3660046126d6565b611259565b610233611343565b61020d6103b536600461248e565b611355565b6102336103c8366004612864565b611434565b6102336116ac565b6102336103e3366004612899565b6116bc565b6001546040516001600160a01b0390911681526020016101f1565b61035f61041136600461248e565b61198e565b6101e761042436600461248e565b611a2b565b61023361043736600461248e565b611a80565b61044f61044a36600461248e565b611cfb565b6040516101f1919061290b565b61023361046a3660046124ab565b611dd9565b61023361047d36600461248e565b611f18565b600061048d82611f91565b6104b25760405162461bcd60e51b81526004016104a99061294c565b60405180910390fd5b6001600160a01b03821660009081526005602052604090206104d390612063565b92915050565b60006104e361206d565b6104eb6120c7565b6001600160a01b0383166105325760405162461bcd60e51b815260206004820152600e60248201526d04c503a204e465420416464723d360941b60448201526064016104a9565b60008390506000816001600160a01b031663a18f4ba06040518163ffffffff1660e01b8152600401602060405180830381865afa158015610577573d6000803e3d6000fd5b505050506040513d601f19601f8201168201806040525081019061059b9190612973565b604080516060810182526001600160a01b03808616825280841660208084019182528385018a81526003805461ffff9081166000908152600294859052978820965187549087166001600160a01b03199182161788559451600188018054919097169516949094179094555193019290925580549394509216919061061f836129a6565b91906101000a81548161ffff021916908361ffff16021790555050846001600160a01b0316336001600160a01b03167fceb5ec421b2c3eb5ba54929f41e2232f8eda845f040bcf073906e88dec3fa5a983876040516106939291906001600160a01b03929092168252602082015260400190565b60405180910390a36003546106ae9060019061ffff166129c7565b925050506104d36001600055565b60006106c782611355565b61ffff811660009081526002602090815260408083205481516318160ddd60e01b8152915194955092936001600160a01b03909316926318160ddd926004808401939192918290030181865afa158015610725573d6000803e3d6000fd5b505050506040513d601f19601f8201168201806040525081019061074991906129e2565b90506000811161076b5760405162461bcd60e51b81526004016104a9906129fb565b60005b818110156108395761ffff8316600090815260026020526040908190205490516331a9108f60e11b81526004810183905233916001600160a01b031690636352211e90602401602060405180830381865afa1580156107d1573d6000803e3d6000fd5b505050506040513d601f19601f820116820180604052508101906107f59190612973565b6001600160a01b031603610827576001600160a01b03841660009081526005602052604090206108259082612120565b505b8061083181612a20565b91505061076e565b5060405133906001600160a01b038516907f03e24eee7b5830b2958546585dd678cae28f234eee1044c82c713051313f201f90600090a3505050565b6001600160a01b03808416600090815260046020908152604080832093861683529290522054606090808311156108aa578092505b6000836001600160401b038111156108c4576108c46125d3565b6040519080825280602002602001820160405280156108f757816020015b60608152602001906001900390816108e25790505b50905060005b84811015610a1a576001600160a01b038088166000908152600460209081526040808320938a1683529290522060016109368386612a39565b6109409190612a39565b8154811061095057610950612a4c565b9060005260206000209060020201600101805461096c90612a62565b80601f016020809104026020016040519081016040528092919081815260200182805461099890612a62565b80156109e55780601f106109ba576101008083540402835291602001916109e5565b820191906000526020600020905b8154815290600101906020018083116109c857829003601f168201915b50505050508282815181106109fc576109fc612a4c565b60200260200101819052508080610a1290612a20565b9150506108fd565b5095945050505050565b6001600160a01b03808416600090815260046020908152604080832093861683529290522080546060919083908110610a5f57610a5f612a4c565b90600052602060002090600202016001018054610a7b90612a62565b80601f0160208091040260200160405190810160405280929190818152602001828054610aa790612a62565b8015610af45780601f10610ac957610100808354040283529160200191610af4565b820191906000526020600020905b815481529060010190602001808311610ad757829003601f168201915b505050505090509392505050565b6000610b0d84611355565b61ffff811660009081526002602052604090819020549051636902622f60e11b81529192506001600160a01b03169063d204c45e90610b529086908690600401612a96565b600060405180830381600087803b158015610b6c57600080fd5b505af1158015610b80573d6000803e3d6000fd5b5050505050505050565b610b926120c7565b6000610b9d84611355565b61ffff8116600090815260026020526040908190205490516370182b2f60e11b8152600481018690523360248201526001600160401b03851660448201529192506001600160a01b03169063e030565e90606401600060405180830381600087803b158015610c0b57600080fd5b505af1158015610c1f573d6000803e3d6000fd5b5050505050610c2e6001600055565b505050565b6000610c3e83611355565b61ffff8116600090815260026020526040908190205490516331a9108f60e11b8152600481018590529192506001600160a01b03169033908290636352211e90602401602060405180830381865afa158015610c9e573d6000803e3d6000fd5b505050506040513d601f19601f82011682018060405250810190610cc29190612973565b6001600160a01b031614610d075760405162461bcd60e51b815260206004820152600c60248201526b26281d103737ba27bbb732b960a11b60448201526064016104a9565b60405163020604bf60e21b81526004810184905230906001600160a01b0383169063081812fc90602401602060405180830381865afa158015610d4e573d6000803e3d6000fd5b505050506040513d601f19601f82011682018060405250810190610d729190612973565b6001600160a01b03161480610df0575060405163e985e9c560e01b81523360048201523060248201526001600160a01b0382169063e985e9c590604401602060405180830381865afa158015610dcc573d6000803e3d6000fd5b505050506040513d601f19601f82011682018060405250810190610df09190612ac2565b610e2e5760405162461bcd60e51b815260206004820152600f60248201526e13140e881b9bdd105c1c1c9bdd9959608a1b60448201526064016104a9565b6001600160a01b0384166000908152600560205260409020610e50908461212c565b50836001600160a01b03167ff472bb8b2e698cee5cf56e4982e2ebb6690f88b55ea3a02d609bf32bcded382284604051610e8c91815260200190565b60405180910390a250505050565b610ea261206d565b610eaa612138565b565b6001600160a01b0382166000908152600560205260408120610ece908361218d565b9392505050565b60035460609060009061ffff166001600160401b03811115610ef957610ef96125d3565b604051908082528060200260200182016040528015610f4457816020015b6040805160608101825260008082526020808301829052928201528252600019909201910181610f175790505b50905060005b60035461ffff9081169082161015610fd45761ffff8116600081815260026020818152604092839020835160608101855281546001600160a01b0390811682526001830154169281019290925290910154918101919091528351909184918110610fb657610fb6612a4c565b60200260200101819052508080610fcc906129a6565b915050610f4a565b50919050565b610fe261206d565b6001600160a01b03811660009081526006602052604090205460ff1661103f5760405162461bcd60e51b815260206004820152601260248201527115130e881b9bdd081c9959da5cdd195c995960721b60448201526064016104a9565b6001600160a01b038082166000908152600660209081526040808320805460ff191690559285168252600790522061107790826121a5565b50806001600160a01b0316826001600160a01b03167fff62c5ec1a3cf51d41070c9fb8590eb1eba1496f3506af6ffdd2d37334daabaa60405160405180910390a35050565b604080516060810182526000808252602082018190529181019190915260035461ffff908116908316106111025760405162461bcd60e51b81526004016104a990612ae4565b5061ffff16600090815260026020818152604092839020835160608101855281546001600160a01b03908116825260018301541692810192909252909101549181019190915290565b606061115682611f91565b6111725760405162461bcd60e51b81526004016104a99061294c565b6001600160a01b038216600090815260056020526040812061119390612063565b6001600160401b038111156111aa576111aa6125d3565b6040519080825280602002602001820160405280156111d3578160200160208202803683370190505b50905060005b6001600160a01b03841660009081526005602052604090206111fa90612063565b811015611252576001600160a01b038416600090815260056020526040902061122390826121ba565b82828151811061123557611235612a4c565b60209081029190910101528061124a81612a20565b9150506111d9565b5092915050565b61126161206d565b6001600160a01b03811660009081526006602052604090205460ff16156112c35760405162461bcd60e51b815260206004820152601660248201527515130e88185b1c9958591e481c9959da5cdd195c995960521b60448201526064016104a9565b6001600160a01b038082166000908152600660209081526040808320805460ff19166001179055928516825260079052206112fe90826121c6565b50806001600160a01b0316826001600160a01b03167fd53e517281c4758c330fc24ed8c05d4bc6dfc025d1e8795a9f0498c72fa9198860405160405180910390a35050565b61134b61206d565b610eaa60006121db565b60006001600160a01b03821661137d5760405162461bcd60e51b81526004016104a990612b0b565b60035461ffff166000036113c85760405162461bcd60e51b81526020600482015260126024820152714c503a206e6f20636f6c6c656374696f6e7360701b60448201526064016104a9565b60005b60035461ffff908116908216101561141b5761ffff81166000908152600260205260409020546001600160a01b038085169116036114095792915050565b80611413816129a6565b9150506113cb565b5060405162461bcd60e51b81526004016104a99061294c565b61143c6120c7565b6001600160a01b0382166114625760405162461bcd60e51b81526004016104a990612b0b565b600061146d83611355565b61ffff811660009081526002602090815260408083205481516318160ddd60e01b8152915194955092936001600160a01b03909316926318160ddd926004808401939192918290030181865afa1580156114cb573d6000803e3d6000fd5b505050506040513d601f19601f820116820180604052508101906114ef91906129e2565b9050600081116115115760405162461bcd60e51b81526004016104a9906129fb565b60005b818110156115f75761ffff8316600090815260026020526040808220549051636178f8a560e11b8152600481018490526001600160a01b039091169063c2f1f14a90602401602060405180830381865afa158015611576573d6000803e3d6000fd5b505050506040513d601f19601f8201168201806040525081019061159a9190612973565b6001600160a01b0316146115e55760405162461bcd60e51b81526020600482015260126024820152714c503a2069734e6f74417661696c61626c6560701b60448201526064016104a9565b806115ef81612a20565b915050611514565b5060005b8181101561169b5761ffff8316600090815260026020526040908190205490516370182b2f60e11b8152600481018390523360248201526001600160401b03861660448201526001600160a01b039091169063e030565e90606401600060405180830381600087803b15801561167057600080fd5b505af1158015611684573d6000803e3d6000fd5b50505050808061169390612a20565b9150506115fb565b5050506116a86001600055565b5050565b6116b461206d565b610eaa61222d565b6116c461206d565b6116cd84611f91565b6117095760405162461bcd60e51b815260206004820152600d60248201526c15130e881b9bdd08199bdd5b99609a1b60448201526064016104a9565b6000826001600160401b0316116117555760405162461bcd60e51b815260206004820152601060248201526f544c3a20696e76616c6964206461746560801b60448201526064016104a9565b60005b6001600160a01b038086166000908152600460209081526040808320938816835292905220548110156118ac576001600160a01b03808616600090815260046020908152604080832093881683529290522080546001600160401b0385169190839081106117c8576117c8612a4c565b60009182526020909120600290910201546001600160401b03160361189a576001600160a01b03808616600090815260046020908152604080832093881683529290522080548391908390811061182157611821612a4c565b9060005260206000209060020201600101908161183e9190612b80565b50826001600160401b0316846001600160a01b0316866001600160a01b03167f16135bb324622d6c33bdcaebde68117495d7c8ef0742cc620629f4a907b34b238560405161188c91906125c0565b60405180910390a450611988565b806118a481612a20565b915050611758565b506001600160a01b038481166000908152600460209081526040808320938716835292815282822083518085019094526001600160401b038681168552848301868152825460018082018555938652939094208551600290940201805467ffffffffffffffff1916939091169290921782559151909182019061192f9082612b80565b505050816001600160401b0316836001600160a01b0316856001600160a01b03167f34e64dc37edb8bfc932bf9430ddb0323ed0de1b7563b69d5f9b605ffac98627e8460405161197f91906125c0565b60405180910390a45b50505050565b60408051606081018252600080825260208201819052918101829052906119b483611355565b60035490915061ffff908116908216106119e05760405162461bcd60e51b81526004016104a990612ae4565b61ffff16600090815260026020818152604092839020835160608101855281546001600160a01b03908116825260018301541692810192909252909101549181019190915292915050565b600080611a3783611355565b60035490915061ffff90811690821610611a635760405162461bcd60e51b81526004016104a990612ae4565b61ffff166000908152600260208190526040909120015492915050565b6000611a8b82611355565b61ffff811660009081526002602090815260408083205481516318160ddd60e01b8152915194955092936001600160a01b03909316926318160ddd926004808401939192918290030181865afa158015611ae9573d6000803e3d6000fd5b505050506040513d601f19601f82011682018060405250810190611b0d91906129e2565b905060008111611b2f5760405162461bcd60e51b81526004016104a9906129fb565b61ffff82166000908152600260205260409081902054905163e985e9c560e01b81523360048201523060248201526001600160a01b039091169063e985e9c590604401602060405180830381865afa158015611b8f573d6000803e3d6000fd5b505050506040513d601f19601f82011682018060405250810190611bb39190612ac2565b611bf15760405162461bcd60e51b815260206004820152600f60248201526e13140e881b9bdd105c1c1c9bdd9959608a1b60448201526064016104a9565b60005b81811015611cbf5761ffff8316600090815260026020526040908190205490516331a9108f60e11b81526004810183905233916001600160a01b031690636352211e90602401602060405180830381865afa158015611c57573d6000803e3d6000fd5b505050506040513d601f19601f82011682018060405250810190611c7b9190612973565b6001600160a01b031603611cad576001600160a01b0384166000908152600560205260409020611cab908261212c565b505b80611cb781612a20565b915050611bf4565b5060405133906001600160a01b038516907f7faef2df1074db3e12877b650931359f98ed5540057b176fb2cc6693c491855f90600090a3505050565b6001600160a01b038116600090815260076020526040812060609190611d2090612063565b90506000816001600160401b03811115611d3c57611d3c6125d3565b604051908082528060200260200182016040528015611d65578160200160208202803683370190505b50905060005b82811015611dd1576001600160a01b0385166000908152600760205260409020611d9590826121ba565b828281518110611da757611da7612a4c565b6001600160a01b039092166020928302919091019091015280611dc981612a20565b915050611d6b565b509392505050565b6000611de483611355565b61ffff8116600090815260026020526040908190205490516331a9108f60e11b81526004810185905291925033916001600160a01b0390911690636352211e90602401602060405180830381865afa158015611e44573d6000803e3d6000fd5b505050506040513d601f19601f82011682018060405250810190611e689190612973565b6001600160a01b031614611ead5760405162461bcd60e51b815260206004820152600c60248201526b26281d103737ba27bbb732b960a11b60448201526064016104a9565b6001600160a01b0383166000908152600560205260409020611ecf9083612120565b50826001600160a01b03167f8a7922f72dc2a50a632acdde12b7d222aefa2fdb7f3ca1364b419734569d0e8083604051611f0b91815260200190565b60405180910390a2505050565b611f2061206d565b6001600160a01b038116611f855760405162461bcd60e51b815260206004820152602660248201527f4f776e61626c653a206e6577206f776e657220697320746865207a65726f206160448201526564647265737360d01b60648201526084016104a9565b611f8e816121db565b50565b60006001600160a01b038216611fb95760405162461bcd60e51b81526004016104a990612b0b565b60035461ffff166000036120045760405162461bcd60e51b81526020600482015260126024820152714c503a206e6f20636f6c6c656374696f6e7360701b60448201526064016104a9565b60005b60035461ffff908116908216101561205a5761ffff81166000908152600260205260409020546001600160a01b038085169116036120485750600192915050565b80612052816129a6565b915050612007565b50600092915050565b60006104d3825490565b6001546001600160a01b03163314610eaa5760405162461bcd60e51b815260206004820181905260248201527f4f776e61626c653a2063616c6c6572206973206e6f7420746865206f776e657260448201526064016104a9565b6002600054036121195760405162461bcd60e51b815260206004820152601f60248201527f5265656e7472616e637947756172643a207265656e7472616e742063616c6c0060448201526064016104a9565b6002600055565b6000610ece8383612270565b6000610ece8383612363565b6121406123b2565b6001805460ff60a01b191690557f5db9ee0a495bf2e6ff9c91a7834c1ba4fdd244a5e8aa4e537bd38aeae4b073aa335b6040516001600160a01b03909116815260200160405180910390a1565b60008181526001830160205260408120541515610ece565b6000610ece836001600160a01b038416612270565b6000610ece8383612402565b6000610ece836001600160a01b038416612363565b600180546001600160a01b038381166001600160a01b0319831681179093556040519116919082907f8be0079c531659141344cd1fd0a4f28419497f9722a3daafe3b4186f6b6457e090600090a35050565b61223561242c565b6001805460ff60a01b1916600160a01b1790557f62e78cea01bee320cd4e420270b5ea74000d11b0c9f74754ebdbfc544b05a2586121703390565b60008181526001830160205260408120548015612359576000612294600183612a39565b85549091506000906122a890600190612a39565b905081811461230d5760008660000182815481106122c8576122c8612a4c565b90600052602060002001549050808760000184815481106122eb576122eb612a4c565b6000918252602080832090910192909255918252600188019052604090208390555b855486908061231e5761231e612c3f565b6001900381819060005260206000200160009055905585600101600086815260200190815260200160002060009055600193505050506104d3565b60009150506104d3565b60008181526001830160205260408120546123aa575081546001818101845560008481526020808220909301849055845484825282860190935260409020919091556104d3565b5060006104d3565b600154600160a01b900460ff16610eaa5760405162461bcd60e51b815260206004820152601460248201527314185d5cd8589b194e881b9bdd081c185d5cd95960621b60448201526064016104a9565b600082600001828154811061241957612419612a4c565b9060005260206000200154905092915050565b600154600160a01b900460ff1615610eaa5760405162461bcd60e51b815260206004820152601060248201526f14185d5cd8589b194e881c185d5cd95960821b60448201526064016104a9565b6001600160a01b0381168114611f8e57600080fd5b6000602082840312156124a057600080fd5b8135610ece81612479565b600080604083850312156124be57600080fd5b82356124c981612479565b946020939093013593505050565b6000806000606084860312156124ec57600080fd5b83356124f781612479565b9250602084013561250781612479565b929592945050506040919091013590565b6000815180845260005b8181101561253e57602081850181015186830182015201612522565b506000602082860101526020601f19601f83011685010191505092915050565b6000602080830181845280855180835260408601915060408160051b870101925083870160005b828110156125b357603f198886030184526125a1858351612518565b94509285019290850190600101612585565b5092979650505050505050565b602081526000610ece6020830184612518565b634e487b7160e01b600052604160045260246000fd5b600082601f8301126125fa57600080fd5b81356001600160401b0380821115612614576126146125d3565b604051601f8301601f19908116603f0116810190828211818310171561263c5761263c6125d3565b8160405283815286602085880101111561265557600080fd5b836020870160208301376000602085830101528094505050505092915050565b60008060006060848603121561268a57600080fd5b833561269581612479565b925060208401356126a581612479565b915060408401356001600160401b038111156126c057600080fd5b6126cc868287016125e9565b9150509250925092565b600080604083850312156126e957600080fd5b82356126f481612479565b9150602083013561270481612479565b809150509250929050565b80356001600160401b038116811461272657600080fd5b919050565b60008060006060848603121561274057600080fd5b833561274b81612479565b9250602084013591506127606040850161270f565b90509250925092565b6020808252825182820181905260009190848201906040850190845b818110156127cd576127ba83855180516001600160a01b03908116835260208083015190911690830152604090810151910152565b9284019260609290920191600101612785565b50909695505050505050565b6000602082840312156127eb57600080fd5b813561ffff81168114610ece57600080fd5b81516001600160a01b0390811682526020808401519091169082015260408083015190820152606081016104d3565b6020808252825182820181905260009190848201906040850190845b818110156127cd57835183529284019291840191600101612848565b6000806040838503121561287757600080fd5b823561288281612479565b91506128906020840161270f565b90509250929050565b600080600080608085870312156128af57600080fd5b84356128ba81612479565b935060208501356128ca81612479565b92506128d86040860161270f565b915060608501356001600160401b038111156128f357600080fd5b6128ff878288016125e9565b91505092959194509250565b6020808252825182820181905260009190848201906040850190845b818110156127cd5783516001600160a01b031683529284019291840191600101612927565b6020808252600d908201526c13140e881b9bdd08199bdd5b99609a1b604082015260600190565b60006020828403121561298557600080fd5b8151610ece81612479565b634e487b7160e01b600052601160045260246000fd5b600061ffff8083168181036129bd576129bd612990565b6001019392505050565b61ffff82811682821603908082111561125257611252612990565b6000602082840312156129f457600080fd5b5051919050565b6020808252600b908201526a4c503a206e6f204e46547360a81b604082015260600190565b600060018201612a3257612a32612990565b5060010190565b818103818111156104d3576104d3612990565b634e487b7160e01b600052603260045260246000fd5b600181811c90821680612a7657607f821691505b602082108103610fd457634e487b7160e01b600052602260045260246000fd5b6001600160a01b0383168152604060208201819052600090612aba90830184612518565b949350505050565b600060208284031215612ad457600080fd5b81518015158114610ece57600080fd5b6020808252600d908201526c26281d1037baba27b32137bab760991b604082015260600190565b6020808252600d908201526c04c503a206e6674416464723d3609c1b604082015260600190565b601f821115610c2e57600081815260208120601f850160051c81016020861015612b595750805b601f850160051c820191505b81811015612b7857828155600101612b65565b505050505050565b81516001600160401b03811115612b9957612b996125d3565b612bad81612ba78454612a62565b84612b32565b602080601f831160018114612be25760008415612bca5750858301515b600019600386901b1c1916600185901b178555612b78565b600085815260208120601f198616915b82811015612c1157888601518255948401946001909101908401612bf2565b5085821015612c2f5787850151600019600388901b60f8161c191681555b5050505050600190811b01905550565b634e487b7160e01b600052603160045260246000fdfea26469706673582212208e386fbcd360139dbcda975dd8884c56b35aea127d6bc30a4049677f4063bb8d64736f6c63430008110033",
  "linkReferences": {},
  "deployedLinkReferences": {}
}