{
  "_format": "hh-sol-artifact-1",
  "contractName": "TomaasStaking",
  "sourceName": "contracts/TomaasStaking.sol",
  "abi": [
    {
      "inputs": [],
      "stateMutability": "nonpayable",
      "type": "constructor"
    },
    {
      "anonymous": false,
      "inputs": [
        {
          "indexed": true,
          "internalType": "address",
          "name": "tlnAddr",
          "type": "address"
        },
        {
          "indexed": false,
          "internalType": "address",
          "name": "tokenAddr",
          "type": "address"
        },
        {
          "indexed": false,
          "internalType": "uint256",
          "name": "price",
          "type": "uint256"
        },
        {
          "indexed": false,
          "internalType": "uint256[]",
          "name": "rates",
          "type": "uint256[]"
        }
      ],
      "name": "AddTLNAddress",
      "type": "event"
    },
    {
      "anonymous": false,
      "inputs": [
        {
          "indexed": true,
          "internalType": "address",
          "name": "trnAddr",
          "type": "address"
        },
        {
          "indexed": false,
          "internalType": "address",
          "name": "acceptedToken",
          "type": "address"
        },
        {
          "indexed": false,
          "internalType": "uint256",
          "name": "revenueShareRatio",
          "type": "uint256"
        }
      ],
      "name": "AddTRNAddress",
      "type": "event"
    },
    {
      "anonymous": false,
      "inputs": [
        {
          "indexed": true,
          "internalType": "address",
          "name": "tlnAddr",
          "type": "address"
        },
        {
          "indexed": true,
          "internalType": "address",
          "name": "staker",
          "type": "address"
        },
        {
          "indexed": false,
          "internalType": "uint256",
          "name": "amount",
          "type": "uint256"
        }
      ],
      "name": "Claim",
      "type": "event"
    },
    {
      "anonymous": false,
      "inputs": [
        {
          "indexed": true,
          "internalType": "address",
          "name": "trnAddr",
          "type": "address"
        },
        {
          "indexed": false,
          "internalType": "uint256",
          "name": "amount",
          "type": "uint256"
        },
        {
          "indexed": false,
          "internalType": "uint256",
          "name": "countOfTRNs",
          "type": "uint256"
        }
      ],
      "name": "ClaimFromTRNs",
      "type": "event"
    },
    {
      "anonymous": false,
      "inputs": [
        {
          "indexed": false,
          "internalType": "uint8",
          "name": "version",
          "type": "uint8"
        }
      ],
      "name": "Initialized",
      "type": "event"
    },
    {
      "anonymous": false,
      "inputs": [
        {
          "indexed": true,
          "internalType": "address",
          "name": "previousOwner",
          "type": "address"
        },
        {
          "indexed": true,
          "internalType": "address",
          "name": "newOwner",
          "type": "address"
        }
      ],
      "name": "OwnershipTransferred",
      "type": "event"
    },
    {
      "anonymous": false,
      "inputs": [
        {
          "indexed": false,
          "internalType": "address",
          "name": "account",
          "type": "address"
        }
      ],
      "name": "Paused",
      "type": "event"
    },
    {
      "anonymous": false,
      "inputs": [
        {
          "indexed": true,
          "internalType": "address",
          "name": "trnAddr",
          "type": "address"
        },
        {
          "indexed": true,
          "internalType": "address",
          "name": "buyer",
          "type": "address"
        },
        {
          "indexed": false,
          "internalType": "uint256[]",
          "name": "tokenIds",
          "type": "uint256[]"
        }
      ],
      "name": "SellTRNsToPool",
      "type": "event"
    },
    {
      "anonymous": false,
      "inputs": [
        {
          "indexed": true,
          "internalType": "address",
          "name": "tlnAddr",
          "type": "address"
        },
        {
          "indexed": true,
          "internalType": "address",
          "name": "staker",
          "type": "address"
        },
        {
          "indexed": false,
          "internalType": "uint256[]",
          "name": "tokenIds",
          "type": "uint256[]"
        }
      ],
      "name": "StakeTLNs",
      "type": "event"
    },
    {
      "anonymous": false,
      "inputs": [
        {
          "indexed": false,
          "internalType": "address",
          "name": "account",
          "type": "address"
        }
      ],
      "name": "Unpaused",
      "type": "event"
    },
    {
      "anonymous": false,
      "inputs": [
        {
          "indexed": true,
          "internalType": "address",
          "name": "tlnAddr",
          "type": "address"
        },
        {
          "indexed": true,
          "internalType": "address",
          "name": "staker",
          "type": "address"
        },
        {
          "indexed": false,
          "internalType": "uint256",
          "name": "tokenId",
          "type": "uint256"
        }
      ],
      "name": "UnstakeTLNs",
      "type": "event"
    },
    {
      "inputs": [
        {
          "internalType": "address",
          "name": "tlnAddr",
          "type": "address"
        },
        {
          "internalType": "address",
          "name": "tokenAddr",
          "type": "address"
        },
        {
          "internalType": "uint256",
          "name": "price",
          "type": "uint256"
        },
        {
          "internalType": "uint256[]",
          "name": "rates",
          "type": "uint256[]"
        }
      ],
      "name": "addTLNAddress",
      "outputs": [],
      "stateMutability": "nonpayable",
      "type": "function"
    },
    {
      "inputs": [
        {
          "internalType": "address",
          "name": "trnAddr",
          "type": "address"
        },
        {
          "internalType": "address",
          "name": "acceptedToken",
          "type": "address"
        },
        {
          "internalType": "uint256",
          "name": "revenueShareRatio",
          "type": "uint256"
        }
      ],
      "name": "addTRNAddress",
      "outputs": [],
      "stateMutability": "nonpayable",
      "type": "function"
    },
    {
      "inputs": [],
      "name": "balanceOfRewards",
      "outputs": [
        {
          "internalType": "uint256",
          "name": "",
          "type": "uint256"
        }
      ],
      "stateMutability": "view",
      "type": "function"
    },
    {
      "inputs": [
        {
          "internalType": "address",
          "name": "trnAddr",
          "type": "address"
        }
      ],
      "name": "buyTRNsFromList",
      "outputs": [],
      "stateMutability": "nonpayable",
      "type": "function"
    },
    {
      "inputs": [
        {
          "internalType": "address",
          "name": "tlnAddr",
          "type": "address"
        }
      ],
      "name": "claim",
      "outputs": [],
      "stateMutability": "nonpayable",
      "type": "function"
    },
    {
      "inputs": [
        {
          "internalType": "address",
          "name": "trnAddr",
          "type": "address"
        }
      ],
      "name": "claimFromTRNs",
      "outputs": [],
      "stateMutability": "nonpayable",
      "type": "function"
    },
    {
      "inputs": [
        {
          "internalType": "address",
          "name": "tlnAddr",
          "type": "address"
        }
      ],
      "name": "getInfoTLN",
      "outputs": [
        {
          "components": [
            {
              "internalType": "contract TomaasLPN",
              "name": "tomaasLPN",
              "type": "address"
            },
            {
              "internalType": "contract IERC20Upgradeable",
              "name": "acceptedToken",
              "type": "address"
            },
            {
              "internalType": "uint256",
              "name": "price",
              "type": "uint256"
            },
            {
              "internalType": "uint256[]",
              "name": "interestRates",
              "type": "uint256[]"
            },
            {
              "internalType": "uint256[]",
              "name": "rewardsPerDay",
              "type": "uint256[]"
            }
          ],
          "internalType": "struct TomaasStaking.InfoTLN",
          "name": "infoTLN",
          "type": "tuple"
        }
      ],
      "stateMutability": "view",
      "type": "function"
    },
    {
      "inputs": [
        {
          "internalType": "address",
          "name": "trnAddr",
          "type": "address"
        }
      ],
      "name": "getInfoTRN",
      "outputs": [
        {
          "components": [
            {
              "internalType": "contract TomaasRWN",
              "name": "tomaasRWN",
              "type": "address"
            },
            {
              "internalType": "contract IERC20Upgradeable",
              "name": "acceptedToken",
              "type": "address"
            },
            {
              "internalType": "uint256",
              "name": "revenueShareRatio",
              "type": "uint256"
            }
          ],
          "internalType": "struct TomaasStaking.InfoTRN",
          "name": "infoTRN",
          "type": "tuple"
        }
      ],
      "stateMutability": "view",
      "type": "function"
    },
    {
      "inputs": [],
      "name": "initialize",
      "outputs": [],
      "stateMutability": "nonpayable",
      "type": "function"
    },
    {
      "inputs": [
        {
          "internalType": "address",
          "name": "trnAddr",
          "type": "address"
        }
      ],
      "name": "lengthOfTRNsToPurchase",
      "outputs": [
        {
          "internalType": "uint256",
          "name": "length",
          "type": "uint256"
        }
      ],
      "stateMutability": "view",
      "type": "function"
    },
    {
      "inputs": [
        {
          "internalType": "address",
          "name": "tlnAddr",
          "type": "address"
        }
      ],
      "name": "listOfTLNs",
      "outputs": [
        {
          "internalType": "uint256[]",
          "name": "tokenIds",
          "type": "uint256[]"
        }
      ],
      "stateMutability": "view",
      "type": "function"
    },
    {
      "inputs": [],
      "name": "listTRNAddress",
      "outputs": [
        {
          "components": [
            {
              "internalType": "contract TomaasRWN",
              "name": "tomaasRWN",
              "type": "address"
            },
            {
              "internalType": "contract IERC20Upgradeable",
              "name": "acceptedToken",
              "type": "address"
            },
            {
              "internalType": "uint256",
              "name": "revenueShareRatio",
              "type": "uint256"
            }
          ],
          "internalType": "struct TomaasStaking.InfoTRN[]",
          "name": "",
          "type": "tuple[]"
        }
      ],
      "stateMutability": "view",
      "type": "function"
    },
    {
      "inputs": [
        {
          "internalType": "address",
          "name": "operator",
          "type": "address"
        },
        {
          "internalType": "address",
          "name": "from",
          "type": "address"
        },
        {
          "internalType": "uint256",
          "name": "tokenId",
          "type": "uint256"
        },
        {
          "internalType": "bytes",
          "name": "data",
          "type": "bytes"
        }
      ],
      "name": "onERC721Received",
      "outputs": [
        {
          "internalType": "bytes4",
          "name": "",
          "type": "bytes4"
        }
      ],
      "stateMutability": "view",
      "type": "function"
    },
    {
      "inputs": [],
      "name": "owner",
      "outputs": [
        {
          "internalType": "address",
          "name": "",
          "type": "address"
        }
      ],
      "stateMutability": "view",
      "type": "function"
    },
    {
      "inputs": [],
      "name": "pause",
      "outputs": [],
      "stateMutability": "nonpayable",
      "type": "function"
    },
    {
      "inputs": [],
      "name": "paused",
      "outputs": [
        {
          "internalType": "bool",
          "name": "",
          "type": "bool"
        }
      ],
      "stateMutability": "view",
      "type": "function"
    },
    {
      "inputs": [
        {
          "internalType": "address",
          "name": "tlnAddr",
          "type": "address"
        }
      ],
      "name": "remainingRewards",
      "outputs": [
        {
          "internalType": "uint256",
          "name": "",
          "type": "uint256"
        }
      ],
      "stateMutability": "view",
      "type": "function"
    },
    {
      "inputs": [],
      "name": "renounceOwnership",
      "outputs": [],
      "stateMutability": "nonpayable",
      "type": "function"
    },
    {
      "inputs": [
        {
          "internalType": "address",
          "name": "trnAddr",
          "type": "address"
        },
        {
          "internalType": "uint256[]",
          "name": "tokenIds",
          "type": "uint256[]"
        }
      ],
      "name": "sellTRNsToPool",
      "outputs": [],
      "stateMutability": "nonpayable",
      "type": "function"
    },
    {
      "inputs": [
        {
          "internalType": "address",
          "name": "trnAddr",
          "type": "address"
        },
        {
          "internalType": "uint256",
          "name": "price",
          "type": "uint256"
        }
      ],
      "name": "setPriceOfTRN",
      "outputs": [],
      "stateMutability": "nonpayable",
      "type": "function"
    },
    {
      "inputs": [
        {
          "internalType": "address",
          "name": "tlnAddr",
          "type": "address"
        },
        {
          "internalType": "uint256[]",
          "name": "tokenIds",
          "type": "uint256[]"
        }
      ],
      "name": "stakeTLNs",
      "outputs": [],
      "stateMutability": "nonpayable",
      "type": "function"
    },
    {
      "inputs": [],
      "name": "totalClaimedRewards",
      "outputs": [
        {
          "internalType": "uint256",
          "name": "",
          "type": "uint256"
        }
      ],
      "stateMutability": "view",
      "type": "function"
    },
    {
      "inputs": [],
      "name": "totalStakedTokens",
      "outputs": [
        {
          "internalType": "uint256",
          "name": "",
          "type": "uint256"
        }
      ],
      "stateMutability": "view",
      "type": "function"
    },
    {
      "inputs": [
        {
          "internalType": "address",
          "name": "newOwner",
          "type": "address"
        }
      ],
      "name": "transferOwnership",
      "outputs": [],
      "stateMutability": "nonpayable",
      "type": "function"
    },
    {
      "inputs": [
        {
          "internalType": "address",
          "name": "tlnAddr",
          "type": "address"
        },
        {
          "internalType": "uint256",
          "name": "tokenId",
          "type": "uint256"
        }
      ],
      "name": "unStakeTLN",
      "outputs": [],
      "stateMutability": "nonpayable",
      "type": "function"
    },
    {
      "inputs": [],
      "name": "unpause",
      "outputs": [],
      "stateMutability": "nonpayable",
      "type": "function"
    }
  ],
  "bytecode": "0x60806040523480156200001157600080fd5b506200001c62000022565b620000e4565b600054610100900460ff16156200008f5760405162461bcd60e51b815260206004820152602760248201527f496e697469616c697a61626c653a20636f6e747261637420697320696e697469604482015266616c697a696e6760c81b606482015260840160405180910390fd5b60005460ff9081161015620000e2576000805460ff191660ff9081179091556040519081527f7f26b83ff96e1f2b6a682f133852f6798a09c465da95921460cefb38474024989060200160405180910390a15b565b61364c80620000f46000396000f3fe608060405234801561001057600080fd5b506004361061018d5760003560e01c80638129fc1c116100de5780639f3fecb611610097578063d2dcc8e311610071578063d2dcc8e314610375578063d578ceab14610388578063da4b194514610390578063f2fde38b146103a357600080fd5b80639f3fecb614610322578063bc40d3aa14610342578063cb34f2151461035557600080fd5b80638129fc1c146102af57806384187578146102b75780638456cb59146102cc57806389af0195146102d45780638da5cb5b146102f457806399d75aa11461030f57600080fd5b806340f33b921161014b57806366fc623e1161012557806366fc623e1461026e57806369b853ef14610281578063715018a6146102945780637665273c1461029c57600080fd5b806340f33b9214610232578063470b0def146102455780635c975abb1461025857600080fd5b806284fc3c14610192578063150b7a02146101a95780631e83409a146101fa5780632adcdc401461020f5780633ae73259146102225780633f4ba83a1461022a575b600080fd5b60d5545b6040519081526020015b60405180910390f35b6101e16101b7366004613000565b7f150b7a023d4804d13e8c85fb27262cb750cf6ba9f9dd3bb30d90f482ceeb4b1f95945050505050565b6040516001600160e01b031990911681526020016101a0565b61020d61020836600461309f565b6103b6565b005b61020d61021d3660046130bc565b6105b9565b60d654610196565b61020d6106a7565b61020d6102403660046131ae565b6106b9565b61020d6102533660046131ae565b610cf6565b60975460ff1660405190151581526020016101a0565b61019661027c36600461309f565b611157565b61020d61028f3660046131fe565b611169565b61020d6111b2565b61020d6102aa36600461309f565b6111c4565b61020d6113a5565b6102bf6114c5565b6040516101a0919061322a565b61020d6115cb565b6102e76102e236600461309f565b6115db565b6040516101a0919061329a565b6065546040516001600160a01b0390911681526020016101a0565b61020d61031d3660046131fe565b6116a7565b61033561033036600461309f565b611956565b6040516101a09190613304565b61020d610350366004613370565b611b01565b61036861036336600461309f565b611e81565b6040516101a091906133dc565b61020d61038336600461309f565b611fcb565b60d454610196565b61019661039e36600461309f565b6124ed565b61020d6103b136600461309f565b612535565b6103be6125ab565b6103c6612604565b600060d554116104145760405162461bcd60e51b815260206004820152601460248201527354533a206e6f207374616b656420746f6b656e7360601b60448201526064015b60405180910390fd5b6000610420823361264a565b9050600081116104615760405162461bcd60e51b815260206004820152600c60248201526b054533a20616d6f756e743d360a41b604482015260640161040b565b8060d560008282546104739190613405565b90915550506001600160a01b038216600090815260d36020908152604080832033845290915281204290556104a783611956565b602081015160405163a9059cbb60e01b8152336004820152602481018590529192506001600160a01b03169063a9059cbb906044016020604051808303816000875af11580156104fb573d6000803e3d6000fd5b505050506040513d601f19601f8201168201806040525081019061051f9190613418565b61056b5760405162461bcd60e51b815260206004820152601960248201527f54533a207472616e7366657220746f6b656e206661696c656400000000000000604482015260640161040b565b60405182815233906001600160a01b038516907f70eb43c4a8ae8c40502dcf22436c509c28d6ff421cf07c491be56984bd9870689060200160405180910390a350506105b660018055565b50565b6105c161288b565b60ca805461ffff908116600090815260c9602052604080822080546001600160a01b03808a166001600160a01b0319928316179092558554851684528284206001018054928916929091169190911790558354831682528120600201849055825490911691906106308361343a565b91906101000a81548161ffff021916908361ffff16021790555050826001600160a01b03167fd2678e38a3553371eff62fc36a783bd86a2eee5c65f44da394138dbfff1bf749838360405161069a9291906001600160a01b03929092168252602082015260400190565b60405180910390a2505050565b6106af61288b565b6106b76128e5565b565b6106c16125ab565b6106c9612604565b6106d282612937565b6106ee5760405162461bcd60e51b815260040161040b9061345b565b60008151116107355760405162461bcd60e51b81526020600482015260136024820152721514ce88139bc81514939cc81d1bc81cd95b1b606a1b604482015260640161040b565b60405163e985e9c560e01b815233600482015230602482015282906001600160a01b0382169063e985e9c590604401602060405180830381865afa158015610781573d6000803e3d6000fd5b505050506040513d601f19601f820116820180604052508101906107a59190613418565b6107ec5760405162461bcd60e51b81526020600482015260186024820152771514ce88139bdd08185c1c1c9bdd995908199bdc88185b1b60421b604482015260640161040b565b6001600160a01b038316600090815260ce60205260409020548061084d5760405162461bcd60e51b81526020600482015260186024820152771514ce88141c9a58d9481bd988151493881b9bdd081cd95d60421b604482015260640161040b565b600081845161085c9190613486565b9050600080600090508260d754106108775785519150610897565b8360d75461088591906134b3565b91508186516108949190613405565b90505b60006108a38584613486565b905060006108b0896115db565b602001516040516370a0823160e01b815230600482015290915082906001600160a01b038316906370a0823190602401602060405180830381865afa1580156108fd573d6000803e3d6000fd5b505050506040513d601f19601f8201168201806040525081019061092191906134c7565b101561096f5760405162461bcd60e51b815260206004820152601c60248201527f544d3a206e6f7420656e6f75676820746f6b656e2062616c616e636500000000604482015260640161040b565b60008467ffffffffffffffff81111561098a5761098a6130fd565b6040519080825280602002602001820160405280156109b3578160200160208202803683370190505b50905060005b85811015610b865760008a82815181106109d5576109d56134e0565b6020026020010151905060008a6001600160a01b0316636352211e836040518263ffffffff1660e01b8152600401610a0f91815260200190565b602060405180830381865afa158015610a2c573d6000803e3d6000fd5b505050506040513d601f19601f82011682018060405250810190610a5091906134f6565b90506001600160a01b0381163014610aaa5760405162461bcd60e51b815260206004820152601960248201527f54533a2054524e206e6f74206f776e656420627920706f6f6c00000000000000604482015260640161040b565b604051632142170760e11b81526001600160a01b038c16906342842e0e90610ada90849030908790600401613513565b600060405180830381600087803b158015610af457600080fd5b505af1158015610b08573d6000803e3d6000fd5b5050506001600160a01b038e16600090815260cd60205260409020610b2e9150836129f4565b506001600160a01b038d16600090815260cf60205260409020610b519083612a07565b5081848481518110610b6557610b656134e0565b60200260200101818152505050508080610b7e90613537565b9150506109b9565b5060405163a9059cbb60e01b8152336004820152602481018490526001600160a01b0383169063a9059cbb906044016020604051808303816000875af1158015610bd4573d6000803e3d6000fd5b505050506040513d601f19601f82011682018060405250810190610bf89190613418565b508260d56000828254610c0b9190613405565b90915550508315610c96576000848a51610c259190613405565b9050805b8a51811015610c935760008b8281518110610c4657610c466134e0565b60200260200101519050610c7e60cd60008f6001600160a01b03166001600160a01b03168152602001908152602001600020826129f4565b50508080610c8b90613537565b915050610c29565b50505b306001600160a01b03168a6001600160a01b03167f32ffae8ccc1ecdf2aab4ea113e39e83c9972a044497703db0e0cd354600cf78083604051610cd991906133dc565b60405180910390a35050505050505050610cf260018055565b5050565b610cfe6125ab565b610d06612604565b6000610d1183611956565b8051835191925090610d5c5760405162461bcd60e51b815260206004820152601460248201527354533a204e6f20544c4e7320746f207374616b6560601b604482015260640161040b565b60405163e985e9c560e01b81523360048201523060248201526001600160a01b0382169063e985e9c590604401602060405180830381865afa158015610da6573d6000803e3d6000fd5b505050506040513d601f19601f82011682018060405250810190610dca9190613418565b610e115760405162461bcd60e51b81526020600482015260186024820152771514ce88139bdd08185c1c1c9bdd995908199bdc88185b1b60421b604482015260640161040b565b600082604001518451610e249190613486565b60208401516040516370a0823160e01b81526001600160a01b0388811660048301529293508392909116906370a0823190602401602060405180830381865afa158015610e75573d6000803e3d6000fd5b505050506040513d601f19601f82011682018060405250810190610e9991906134c7565b1015610ee75760405162461bcd60e51b815260206004820152601c60248201527f54533a206e6f7420656e6f75676820746f6b656e2062616c616e636500000000604482015260640161040b565b60005b845181101561100f576000858281518110610f0757610f076134e0565b60200260200101519050836001600160a01b03166342842e0e3330846040518463ffffffff1660e01b8152600401610f4193929190613513565b600060405180830381600087803b158015610f5b57600080fd5b505af1158015610f6f573d6000803e3d6000fd5b5050604051632e1a7d4d60e01b8152600481018490526001600160a01b0387169250632e1a7d4d9150602401600060405180830381600087803b158015610fb557600080fd5b505af1158015610fc9573d6000803e3d6000fd5b5050506001600160a01b038816600090815260d2602090815260408083203384529091529020610ffa9150826129f4565b5050808061100790613537565b915050610eea565b50835160d660008282546110239190613550565b925050819055508060d7600082825461103c9190613550565b90915550506001600160a01b038516600090815260d9602090815260408083203384529091528120549003611092576001600160a01b038516600090815260d36020908152604080832033845290915290204290555b6001600160a01b038516600081815260d8602090815260408083203380855290835281842094845260d983528184208185528084528285208054865295845282852042905560d65486548652928520600190810193909355908452909152825490929190611101908490613550565b909155505060405133906001600160a01b038716907f3f1d6292b9b4cd901acb52fd56c9620b455884300556019f26847f5f5956278f906111439088906133dc565b60405180910390a3505050610cf260018055565b6000611163823361264a565b92915050565b61117161288b565b61117a82612937565b6111965760405162461bcd60e51b815260040161040b9061345b565b6001600160a01b03909116600090815260ce6020526040902055565b6111ba61288b565b6106b76000612a13565b6111cc61288b565b6111d46125ab565b6111dd81612937565b6111f95760405162461bcd60e51b815260040161040b9061345b565b6001600160a01b038116600090815260cf6020526040812061121a90612a65565b9050600081116112605760405162461bcd60e51b81526020600482015260116024820152701514ce88139bc81514939cc81bdddb9959607a1b604482015260640161040b565b60008290506000816001600160a01b0316632e2d651e6040518163ffffffff1660e01b81526004016020604051808303816000875af11580156112a7573d6000803e3d6000fd5b505050506040513d601f19601f820116820180604052508101906112cb91906134c7565b9050806000036112dd5750505061139c565b8060d460008282546112ef9190613550565b925050819055508060d560008282546113089190613550565b90915550506001600160a01b038416600081815260d06020908152604080832060d18084528285208054865291845291842042905593835290528154919061134f83613537565b909155505060408051828152602081018590526001600160a01b038616917fd45faa58a4ae1d7bbde51c194a52ab6127cc422bbdc393058ac270c5613702d1910160405180910390a25050505b6105b660018055565b600054610100900460ff16158080156113c55750600054600160ff909116105b806113df5750303b1580156113df575060005460ff166001145b6114425760405162461bcd60e51b815260206004820152602e60248201527f496e697469616c697a61626c653a20636f6e747261637420697320616c72656160448201526d191e481a5b9a5d1a585b1a5e995960921b606482015260840161040b565b6000805460ff191660011790558015611465576000805461ff0019166101001790555b61146d612a6f565b611475612a9e565b61147d612acd565b80156105b6576000805461ff0019169055604051600181527f7f26b83ff96e1f2b6a682f133852f6798a09c465da95921460cefb38474024989060200160405180910390a150565b60ca5460609060009061ffff1667ffffffffffffffff8111156114ea576114ea6130fd565b60405190808252806020026020018201604052801561153557816020015b60408051606081018252600080825260208083018290529282015282526000199092019101816115085790505b50905060005b60ca5461ffff90811690821610156115c55761ffff8116600081815260c96020908152604091829020825160608101845281546001600160a01b03908116825260018301541692810192909252600201549181019190915283519091849181106115a7576115a76134e0565b602002602001018190525080806115bd9061343a565b91505061153b565b50919050565b6115d361288b565b6106b7612afc565b60408051606081018252600080825260208201819052918101829052905b60ca5461ffff908116908216101561168e5761ffff8116600090815260c960205260409020546001600160a01b0380851691160361167c5761ffff16600090815260c96020908152604091829020825160608101845281546001600160a01b03908116825260018301541692810192909252600201549181019190915292915050565b806116868161343a565b9150506115f9565b5060405162461bcd60e51b815260040161040b9061345b565b6116af6125ab565b6116b7612604565b60006116c283611956565b8051604080830151602084015191516370a0823160e01b8152306004820152939450919282916001600160a01b0316906370a0823190602401602060405180830381865afa158015611718573d6000803e3d6000fd5b505050506040513d601f19601f8201168201806040525081019061173c91906134c7565b101561178a5760405162461bcd60e51b815260206004820152601c60248201527f54533a206e6f7420656e6f75676820746f6b656e2062616c616e636500000000604482015260640161040b565b604051632142170760e11b81526001600160a01b038316906342842e0e906117ba90309033908990600401613513565b600060405180830381600087803b1580156117d457600080fd5b505af11580156117e8573d6000803e3d6000fd5b5050604051636215be7760e01b8152600481018790526001600160a01b0385169250636215be779150602401600060405180830381600087803b15801561182e57600080fd5b505af1158015611842573d6000803e3d6000fd5b5050506001600160a01b038616600090815260d2602090815260408083203384529091529020611873915085612a07565b50600160d660008282546118879190613405565b925050819055508060d760008282546118a09190613405565b90915550506001600160a01b038516600081815260d8602090815260408083203380855290835281842094845260d983528184208185528084528285208054865295845282852042905560d65486548652928520600190810193909355908452909152825490929190611914908490613550565b909155505060405184815233906001600160a01b038716907f7b27bce7bf7aa41550b7036466196a4945982919995548af33e981397cad095990602001611143565b6040805160a08101825260008082526020820181905291810182905260608082018190526080820152905b60cc5461ffff9081169082161015611ac45761ffff8116600090815260cb60205260409020546001600160a01b03808516911603611ab25761ffff8116600090815260cb6020908152604091829020825160a08101845281546001600160a01b039081168252600183015416818401526002820154818501526003820180548551818602810186019096528086529194929360608601939290830182828015611a4957602002820191906000526020600020905b815481526020019060010190808311611a35575b5050505050815260200160048201805480602002602001604051908101604052809291908181526020018280548015611aa157602002820191906000526020600020905b815481526020019060010190808311611a8d575b505050505081525050915050919050565b80611abc8161343a565b915050611981565b5060405162461bcd60e51b81526020600482015260116024820152701514ce88151313881b9bdd08195e1a5cdd607a1b604482015260640161040b565b611b0961288b565b611b1284612b39565b15611b575760405162461bcd60e51b81526020600482015260156024820152741514ce8815131388185b1c9958591e48195e1a5cdd605a1b604482015260640161040b565b60008211611b955760405162461bcd60e51b815260206004820152600b60248201526a054533a2070726963653d360ac1b604482015260640161040b565b6000815111611bdb5760405162461bcd60e51b8152602060048201526012602482015271054533a207261746573206c656e6774683d360741b604482015260640161040b565b80518067ffffffffffffffff811115611bf657611bf66130fd565b604051908082528060200260200182016040528015611c1f578160200160208202803683370190505b5060cc5461ffff16600090815260cb602090815260409091208251611c4e936003909201929190910190612f8b565b508067ffffffffffffffff811115611c6857611c686130fd565b604051908082528060200260200182016040528015611c91578160200160208202803683370190505b5060cc5461ffff16600090815260cb602090815260409091208251611cc0936004909201929190910190612f8b565b5060005b81811015611daa57828181518110611cde57611cde6134e0565b60209081029190910181015160cc5461ffff16600090815260cb9092526040909120600301805483908110611d1557611d156134e0565b906000526020600020018190555061016d612710848381518110611d3b57611d3b6134e0565b602002602001015186611d4e9190613486565b611d5891906134b3565b611d6291906134b3565b60cc5461ffff16600090815260cb60205260409020600401805483908110611d8c57611d8c6134e0565b60009182526020909120015580611da281613537565b915050611cc4565b5060cc805461ffff908116600090815260cb602052604080822080546001600160a01b03808c166001600160a01b0319928316179092558554851684528284206001018054928b1692909116919091179055835483168252812060020186905582549091169190611e1a8361343a565b91906101000a81548161ffff021916908361ffff16021790555050846001600160a01b03167fbf1079bb0d233b03156a8d5ce7972d6454b7b21a44b354921850c70e0e4c64bf858585604051611e7293929190613563565b60405180910390a25050505050565b6060611e8c82612b39565b611ecc5760405162461bcd60e51b81526020600482015260116024820152701514ce88151313881b9bdd08195e1a5cdd607a1b604482015260640161040b565b6001600160a01b038216600090815260d2602090815260408083203384529091528120611ef890612a65565b905080600003611f18575050604080516000815260208101909152919050565b8067ffffffffffffffff811115611f3157611f316130fd565b604051908082528060200260200182016040528015611f5a578160200160208202803683370190505b50915060005b81811015611fc4576001600160a01b038416600090815260d2602090815260408083203384529091529020611f959082612bed565b838281518110611fa757611fa76134e0565b602090810291909101015280611fbc81613537565b915050611f60565b5050919050565b611fd361288b565b611fdb6125ab565b600080611fe7836115db565b6001600160a01b038416600090815260cd6020526040902090915061200b90612a65565b91506000821161205d5760405162461bcd60e51b815260206004820152601760248201527f54533a204e6f2054524e7320746f207075726368617365000000000000000000604482015260640161040b565b6001600160a01b038316600090815260ce6020526040902054806120be5760405162461bcd60e51b81526020600482015260186024820152771514ce88141c9a58d9481bd988151493881b9bdd081cd95d60421b604482015260640161040b565b60006120ca8285613486565b905060008160d754106120de5750836120ef565b8260d7546120ec91906134b3565b90505b8560006120fc8584613486565b90508060d75410156121505760405162461bcd60e51b815260206004820152601c60248201527f54533a204e6f7420656e6f756768207374616b656420746f6b656e7300000000604482015260640161040b565b60208601516040516370a0823160e01b815230600482015282906001600160a01b038316906370a0823190602401602060405180830381865afa15801561219b573d6000803e3d6000fd5b505050506040513d601f19601f820116820180604052508101906121bf91906134c7565b101561220d5760405162461bcd60e51b815260206004820152601c60248201527f544d3a206e6f7420656e6f75676820746f6b656e2062616c616e636500000000604482015260640161040b565b60008467ffffffffffffffff811115612228576122286130fd565b604051908082528060200260200182016040528015612251578160200160208202803683370190505b50905060005b85811015612420576001600160a01b038b16600090815260cd602052604081206122819083612bed565b6040516331a9108f60e11b8152600481018290529091506000906001600160a01b03881690636352211e90602401602060405180830381865afa1580156122cc573d6000803e3d6000fd5b505050506040513d601f19601f820116820180604052508101906122f091906134f6565b604051632142170760e11b81529091506001600160a01b038816906342842e0e9061232390849030908790600401613513565b600060405180830381600087803b15801561233d57600080fd5b505af1158015612351573d6000803e3d6000fd5b505060405163a9059cbb60e01b81526001600160a01b038481166004830152602482018e90528816925063a9059cbb91506044016020604051808303816000875af11580156123a4573d6000803e3d6000fd5b505050506040513d601f19601f820116820180604052508101906123c89190613418565b506001600160a01b038d16600090815260cf602052604090206123eb90836129f4565b50818484815181106123ff576123ff6134e0565b6020026020010181815250505050808061241890613537565b915050612257565b5060005b815181101561247e576001600160a01b038b16600090815260cd60205260409020825161246b919084908490811061245e5761245e6134e0565b6020026020010151612a07565b508061247681613537565b915050612424565b508260d760008282546124919190613405565b909155505060405130906001600160a01b038c16907f32ffae8ccc1ecdf2aab4ea113e39e83c9972a044497703db0e0cd354600cf780906124d39085906133dc565b60405180910390a35050505050505050506105b660018055565b60006124f882612937565b6125145760405162461bcd60e51b815260040161040b9061345b565b6001600160a01b038216600090815260cd6020526040902061116390612a65565b61253d61288b565b6001600160a01b0381166125a25760405162461bcd60e51b815260206004820152602660248201527f4f776e61626c653a206e6577206f776e657220697320746865207a65726f206160448201526564647265737360d01b606482015260840161040b565b6105b681612a13565b6002600154036125fd5760405162461bcd60e51b815260206004820152601f60248201527f5265656e7472616e637947756172643a207265656e7472616e742063616c6c00604482015260640161040b565b6002600155565b60975460ff16156106b75760405162461bcd60e51b815260206004820152601060248201526f14185d5cd8589b194e881c185d5cd95960821b604482015260640161040b565b6001600160a01b03808316600090815260d360209081526040808320938516835292905290812054819081612680868684612bf9565b6001600160a01b03808816600090815260d960209081526040808320938a16835292905290812054919250806126b7600184613405565b600003612754576001600160a01b03808a16600090815260d860209081526040808320938c168352928152828220828052905220546126f69042613405565b6001600160a01b03808b16600090815260d860209081526040808320938d168352928152828220828052905220600101549092509050612743828261273a8c611956565b60800151612c86565b61274d9087613550565b9550612878565b6000612761600185613405565b90505b848110612876576000612778600186613405565b82036127855750426127cd565b6001600160a01b03808c16600090815260d860209081526040808320938e168352929052908120906127b8846001613550565b81526020019081526020016000206000015490505b6001600160a01b03808c16600090815260d860209081526040808320938e168352928152828220858352905220546128059082613405565b6001600160a01b03808d16600090815260d860209081526040808320938f168352928152828220868352905220600101549094509250612849848461273a8e611956565b6128539089613550565b9750816000036128635750612876565b508061286e8161358a565b915050612764565b505b5093979650505050505050565b60018055565b6065546001600160a01b031633146106b75760405162461bcd60e51b815260206004820181905260248201527f4f776e61626c653a2063616c6c6572206973206e6f7420746865206f776e6572604482015260640161040b565b6128ed612d4c565b6097805460ff191690557f5db9ee0a495bf2e6ff9c91a7834c1ba4fdd244a5e8aa4e537bd38aeae4b073aa335b6040516001600160a01b03909116815260200160405180910390a1565b60006001600160a01b03821661297f5760405162461bcd60e51b815260206004820152600d60248201526c04c503a2074726e416464723d3609c1b604482015260640161040b565b60ca5461ffff1660000361299557506000919050565b60005b60ca5461ffff90811690821610156129eb5761ffff8116600090815260c960205260409020546001600160a01b038085169116036129d95750600192915050565b806129e38161343a565b915050612998565b50600092915050565b6000612a008383612d95565b9392505050565b6000612a008383612de4565b606580546001600160a01b038381166001600160a01b0319831681179093556040519116919082907f8be0079c531659141344cd1fd0a4f28419497f9722a3daafe3b4186f6b6457e090600090a35050565b6000611163825490565b600054610100900460ff16612a965760405162461bcd60e51b815260040161040b906135a1565b6106b7612ed7565b600054610100900460ff16612ac55760405162461bcd60e51b815260040161040b906135a1565b6106b7612f0a565b600054610100900460ff16612af45760405162461bcd60e51b815260040161040b906135a1565b6106b7612f3a565b612b04612604565b6097805460ff191660011790557f62e78cea01bee320cd4e420270b5ea74000d11b0c9f74754ebdbfc544b05a25861291a3390565b60006001600160a01b038216612b815760405162461bcd60e51b815260206004820152600d60248201526c054533a20746c6e416464723d3609c1b604482015260640161040b565b60ca5461ffff16600003612b9757506000919050565b60005b60cc5461ffff90811690821610156129eb5761ffff8116600090815260cb60205260409020546001600160a01b03808516911603612bdb5750600192915050565b80612be58161343a565b915050612b9a565b6000612a008383612f61565b6001600160a01b03808416600090815260d9602090815260408083209386168352929052908120548190815b81811015612c7b576001600160a01b03808816600090815260d860209081526040808320938a168352928152828220848352905220548511612c6957809250612c7b565b80612c7381613537565b915050612c25565b509095945050505050565b805160009081908190612c9990866134b3565b90506000612caa62015180886134b3565b90508460018651612cbb9190613405565b81518110612ccb57612ccb6134e0565b60200260200101518282612cdf9190613486565b612ce99190613486565b612cf39084613550565b92506000855187612d0491906135ec565b9050858181518110612d1857612d186134e0565b60200260200101518183612d2c9190613486565b612d369190613486565b612d409085613550565b98975050505050505050565b60975460ff166106b75760405162461bcd60e51b815260206004820152601460248201527314185d5cd8589b194e881b9bdd081c185d5cd95960621b604482015260640161040b565b6000818152600183016020526040812054612ddc57508154600181810184556000848152602080822090930184905584548482528286019093526040902091909155611163565b506000611163565b60008181526001830160205260408120548015612ecd576000612e08600183613405565b8554909150600090612e1c90600190613405565b9050818114612e81576000866000018281548110612e3c57612e3c6134e0565b9060005260206000200154905080876000018481548110612e5f57612e5f6134e0565b6000918252602080832090910192909255918252600188019052604090208390555b8554869080612e9257612e92613600565b600190038181906000526020600020016000905590558560010160008681526020019081526020016000206000905560019350505050611163565b6000915050611163565b600054610100900460ff16612efe5760405162461bcd60e51b815260040161040b906135a1565b6097805460ff19169055565b600054610100900460ff16612f315760405162461bcd60e51b815260040161040b906135a1565b6106b733612a13565b600054610100900460ff166128855760405162461bcd60e51b815260040161040b906135a1565b6000826000018281548110612f7857612f786134e0565b9060005260206000200154905092915050565b828054828255906000526020600020908101928215612fc6579160200282015b82811115612fc6578251825591602001919060010190612fab565b50612fd2929150612fd6565b5090565b5b80821115612fd25760008155600101612fd7565b6001600160a01b03811681146105b657600080fd5b60008060008060006080868803121561301857600080fd5b853561302381612feb565b9450602086013561303381612feb565b935060408601359250606086013567ffffffffffffffff8082111561305757600080fd5b818801915088601f83011261306b57600080fd5b81358181111561307a57600080fd5b89602082850101111561308c57600080fd5b9699959850939650602001949392505050565b6000602082840312156130b157600080fd5b8135612a0081612feb565b6000806000606084860312156130d157600080fd5b83356130dc81612feb565b925060208401356130ec81612feb565b929592945050506040919091013590565b634e487b7160e01b600052604160045260246000fd5b600082601f83011261312457600080fd5b8135602067ffffffffffffffff80831115613141576131416130fd565b8260051b604051601f19603f83011681018181108482111715613166576131666130fd565b60405293845285810183019383810192508785111561318457600080fd5b83870191505b848210156131a35781358352918301919083019061318a565b979650505050505050565b600080604083850312156131c157600080fd5b82356131cc81612feb565b9150602083013567ffffffffffffffff8111156131e857600080fd5b6131f485828601613113565b9150509250929050565b6000806040838503121561321157600080fd5b823561321c81612feb565b946020939093013593505050565b6020808252825182820181905260009190848201906040850190845b8181101561328e5761327b83855180516001600160a01b03908116835260208083015190911690830152604090810151910152565b9284019260609290920191600101613246565b50909695505050505050565b81516001600160a01b039081168252602080840151909116908201526040808301519082015260608101611163565b600081518084526020808501945080840160005b838110156132f9578151875295820195908201906001016132dd565b509495945050505050565b60208152600060018060a01b038084511660208401528060208501511660408401525060408301516060830152606083015160a0608084015261334a60c08401826132c9565b90506080840151601f198483030160a085015261336782826132c9565b95945050505050565b6000806000806080858703121561338657600080fd5b843561339181612feb565b935060208501356133a181612feb565b925060408501359150606085013567ffffffffffffffff8111156133c457600080fd5b6133d087828801613113565b91505092959194509250565b602081526000612a0060208301846132c9565b634e487b7160e01b600052601160045260246000fd5b81810381811115611163576111636133ef565b60006020828403121561342a57600080fd5b81518015158114612a0057600080fd5b600061ffff808316818103613451576134516133ef565b6001019392505050565b6020808252601190820152701514ce88151493881b9bdd08195e1a5cdd607a1b604082015260600190565b8082028115828204841417611163576111636133ef565b634e487b7160e01b600052601260045260246000fd5b6000826134c2576134c261349d565b500490565b6000602082840312156134d957600080fd5b5051919050565b634e487b7160e01b600052603260045260246000fd5b60006020828403121561350857600080fd5b8151612a0081612feb565b6001600160a01b039384168152919092166020820152604081019190915260600190565b600060018201613549576135496133ef565b5060010190565b80820180821115611163576111636133ef565b60018060a01b038416815282602082015260606040820152600061336760608301846132c9565b600081613599576135996133ef565b506000190190565b6020808252602b908201527f496e697469616c697a61626c653a20636f6e7472616374206973206e6f74206960408201526a6e697469616c697a696e6760a81b606082015260800190565b6000826135fb576135fb61349d565b500690565b634e487b7160e01b600052603160045260246000fdfea26469706673582212207b473d4ea9b456fa76f4e4b8fe7b32b88bcf4b6bcb5c0fe6e45d12aee70805fa64736f6c63430008110033",
  "linkReferences": {},
  "deployedLinkReferences": {}
}