{
  "_format": "hh-sol-artifact-1",
  "contractName": "TomaasLPN",
  "sourceName": "contracts/TomaasLPN.sol",
  "abi": [
    {
      "inputs": [],
      "stateMutability": "nonpayable",
      "type": "constructor"
    },
    {
      "anonymous": false,
      "inputs": [
        {
          "indexed": true,
          "internalType": "address",
          "name": "owner",
          "type": "address"
        },
        {
          "indexed": true,
          "internalType": "address",
          "name": "approved",
          "type": "address"
        },
        {
          "indexed": true,
          "internalType": "uint256",
          "name": "tokenId",
          "type": "uint256"
        }
      ],
      "name": "Approval",
      "type": "event"
    },
    {
      "anonymous": false,
      "inputs": [
        {
          "indexed": true,
          "internalType": "address",
          "name": "owner",
          "type": "address"
        },
        {
          "indexed": true,
          "internalType": "address",
          "name": "operator",
          "type": "address"
        },
        {
          "indexed": false,
          "internalType": "bool",
          "name": "approved",
          "type": "bool"
        }
      ],
      "name": "ApprovalForAll",
      "type": "event"
    },
    {
      "anonymous": false,
      "inputs": [
        {
          "indexed": false,
          "internalType": "uint8",
          "name": "version",
          "type": "uint8"
        }
      ],
      "name": "Initialized",
      "type": "event"
    },
    {
      "anonymous": false,
      "inputs": [
        {
          "indexed": true,
          "internalType": "address",
          "name": "previousOwner",
          "type": "address"
        },
        {
          "indexed": true,
          "internalType": "address",
          "name": "newOwner",
          "type": "address"
        }
      ],
      "name": "OwnershipTransferred",
      "type": "event"
    },
    {
      "anonymous": false,
      "inputs": [
        {
          "indexed": false,
          "internalType": "address",
          "name": "account",
          "type": "address"
        }
      ],
      "name": "Paused",
      "type": "event"
    },
    {
      "anonymous": false,
      "inputs": [
        {
          "indexed": true,
          "internalType": "address",
          "name": "from",
          "type": "address"
        },
        {
          "indexed": true,
          "internalType": "address",
          "name": "to",
          "type": "address"
        },
        {
          "indexed": true,
          "internalType": "uint256",
          "name": "tokenId",
          "type": "uint256"
        }
      ],
      "name": "Transfer",
      "type": "event"
    },
    {
      "anonymous": false,
      "inputs": [
        {
          "indexed": false,
          "internalType": "address",
          "name": "account",
          "type": "address"
        }
      ],
      "name": "Unpaused",
      "type": "event"
    },
    {
      "inputs": [
        {
          "internalType": "address",
          "name": "_address",
          "type": "address"
        }
      ],
      "name": "addToWL",
      "outputs": [],
      "stateMutability": "nonpayable",
      "type": "function"
    },
    {
      "inputs": [
        {
          "internalType": "address",
          "name": "to",
          "type": "address"
        },
        {
          "internalType": "uint256",
          "name": "tokenId",
          "type": "uint256"
        }
      ],
      "name": "approve",
      "outputs": [],
      "stateMutability": "nonpayable",
      "type": "function"
    },
    {
      "inputs": [
        {
          "internalType": "address",
          "name": "owner",
          "type": "address"
        }
      ],
      "name": "balanceOf",
      "outputs": [
        {
          "internalType": "uint256",
          "name": "",
          "type": "uint256"
        }
      ],
      "stateMutability": "view",
      "type": "function"
    },
    {
      "inputs": [
        {
          "internalType": "uint256",
          "name": "_tokenId",
          "type": "uint256"
        }
      ],
      "name": "depositToken",
      "outputs": [],
      "stateMutability": "nonpayable",
      "type": "function"
    },
    {
      "inputs": [
        {
          "internalType": "uint256",
          "name": "tokenId",
          "type": "uint256"
        }
      ],
      "name": "getApproved",
      "outputs": [
        {
          "internalType": "address",
          "name": "",
          "type": "address"
        }
      ],
      "stateMutability": "view",
      "type": "function"
    },
    {
      "inputs": [
        {
          "internalType": "uint256",
          "name": "_tokenId",
          "type": "uint256"
        }
      ],
      "name": "getTokenBalOfNFT",
      "outputs": [
        {
          "internalType": "uint256",
          "name": "",
          "type": "uint256"
        }
      ],
      "stateMutability": "view",
      "type": "function"
    },
    {
      "inputs": [
        {
          "internalType": "address",
          "name": "_acceptedToken",
          "type": "address"
        },
        {
          "internalType": "uint256",
          "name": "_price",
          "type": "uint256"
        }
      ],
      "name": "initialize",
      "outputs": [],
      "stateMutability": "nonpayable",
      "type": "function"
    },
    {
      "inputs": [
        {
          "internalType": "address",
          "name": "owner",
          "type": "address"
        },
        {
          "internalType": "address",
          "name": "operator",
          "type": "address"
        }
      ],
      "name": "isApprovedForAll",
      "outputs": [
        {
          "internalType": "bool",
          "name": "",
          "type": "bool"
        }
      ],
      "stateMutability": "view",
      "type": "function"
    },
    {
      "inputs": [
        {
          "internalType": "address",
          "name": "_address",
          "type": "address"
        }
      ],
      "name": "isWL",
      "outputs": [
        {
          "internalType": "bool",
          "name": "",
          "type": "bool"
        }
      ],
      "stateMutability": "view",
      "type": "function"
    },
    {
      "inputs": [],
      "name": "name",
      "outputs": [
        {
          "internalType": "string",
          "name": "",
          "type": "string"
        }
      ],
      "stateMutability": "view",
      "type": "function"
    },
    {
      "inputs": [],
      "name": "owner",
      "outputs": [
        {
          "internalType": "address",
          "name": "",
          "type": "address"
        }
      ],
      "stateMutability": "view",
      "type": "function"
    },
    {
      "inputs": [
        {
          "internalType": "uint256",
          "name": "tokenId",
          "type": "uint256"
        }
      ],
      "name": "ownerOf",
      "outputs": [
        {
          "internalType": "address",
          "name": "",
          "type": "address"
        }
      ],
      "stateMutability": "view",
      "type": "function"
    },
    {
      "inputs": [],
      "name": "pause",
      "outputs": [],
      "stateMutability": "nonpayable",
      "type": "function"
    },
    {
      "inputs": [],
      "name": "paused",
      "outputs": [
        {
          "internalType": "bool",
          "name": "",
          "type": "bool"
        }
      ],
      "stateMutability": "view",
      "type": "function"
    },
    {
      "inputs": [],
      "name": "priceOf",
      "outputs": [
        {
          "internalType": "uint256",
          "name": "",
          "type": "uint256"
        }
      ],
      "stateMutability": "view",
      "type": "function"
    },
    {
      "inputs": [],
      "name": "renounceOwnership",
      "outputs": [],
      "stateMutability": "nonpayable",
      "type": "function"
    },
    {
      "inputs": [
        {
          "internalType": "address",
          "name": "_address",
          "type": "address"
        }
      ],
      "name": "rmFromWL",
      "outputs": [],
      "stateMutability": "nonpayable",
      "type": "function"
    },
    {
      "inputs": [
        {
          "internalType": "address",
          "name": "to",
          "type": "address"
        },
        {
          "internalType": "string",
          "name": "uri",
          "type": "string"
        },
        {
          "internalType": "uint64",
          "name": "num",
          "type": "uint64"
        }
      ],
      "name": "safeMintMultiple",
      "outputs": [],
      "stateMutability": "nonpayable",
      "type": "function"
    },
    {
      "inputs": [
        {
          "internalType": "address",
          "name": "from",
          "type": "address"
        },
        {
          "internalType": "address",
          "name": "to",
          "type": "address"
        },
        {
          "internalType": "uint256",
          "name": "tokenId",
          "type": "uint256"
        }
      ],
      "name": "safeTransferFrom",
      "outputs": [],
      "stateMutability": "nonpayable",
      "type": "function"
    },
    {
      "inputs": [
        {
          "internalType": "address",
          "name": "from",
          "type": "address"
        },
        {
          "internalType": "address",
          "name": "to",
          "type": "address"
        },
        {
          "internalType": "uint256",
          "name": "tokenId",
          "type": "uint256"
        },
        {
          "internalType": "bytes",
          "name": "data",
          "type": "bytes"
        }
      ],
      "name": "safeTransferFrom",
      "outputs": [],
      "stateMutability": "nonpayable",
      "type": "function"
    },
    {
      "inputs": [
        {
          "internalType": "address",
          "name": "operator",
          "type": "address"
        },
        {
          "internalType": "bool",
          "name": "approved",
          "type": "bool"
        }
      ],
      "name": "setApprovalForAll",
      "outputs": [],
      "stateMutability": "nonpayable",
      "type": "function"
    },
    {
      "inputs": [
        {
          "internalType": "bytes4",
          "name": "interfaceId",
          "type": "bytes4"
        }
      ],
      "name": "supportsInterface",
      "outputs": [
        {
          "internalType": "bool",
          "name": "",
          "type": "bool"
        }
      ],
      "stateMutability": "view",
      "type": "function"
    },
    {
      "inputs": [],
      "name": "symbol",
      "outputs": [
        {
          "internalType": "string",
          "name": "",
          "type": "string"
        }
      ],
      "stateMutability": "view",
      "type": "function"
    },
    {
      "inputs": [
        {
          "internalType": "uint256",
          "name": "index",
          "type": "uint256"
        }
      ],
      "name": "tokenByIndex",
      "outputs": [
        {
          "internalType": "uint256",
          "name": "",
          "type": "uint256"
        }
      ],
      "stateMutability": "view",
      "type": "function"
    },
    {
      "inputs": [
        {
          "internalType": "address",
          "name": "owner",
          "type": "address"
        },
        {
          "internalType": "uint256",
          "name": "index",
          "type": "uint256"
        }
      ],
      "name": "tokenOfOwnerByIndex",
      "outputs": [
        {
          "internalType": "uint256",
          "name": "",
          "type": "uint256"
        }
      ],
      "stateMutability": "view",
      "type": "function"
    },
    {
      "inputs": [
        {
          "internalType": "uint256",
          "name": "tokenId",
          "type": "uint256"
        }
      ],
      "name": "tokenURI",
      "outputs": [
        {
          "internalType": "string",
          "name": "",
          "type": "string"
        }
      ],
      "stateMutability": "view",
      "type": "function"
    },
    {
      "inputs": [],
      "name": "totalSupply",
      "outputs": [
        {
          "internalType": "uint256",
          "name": "",
          "type": "uint256"
        }
      ],
      "stateMutability": "view",
      "type": "function"
    },
    {
      "inputs": [
        {
          "internalType": "address",
          "name": "from",
          "type": "address"
        },
        {
          "internalType": "address",
          "name": "to",
          "type": "address"
        },
        {
          "internalType": "uint256",
          "name": "tokenId",
          "type": "uint256"
        }
      ],
      "name": "transferFrom",
      "outputs": [],
      "stateMutability": "nonpayable",
      "type": "function"
    },
    {
      "inputs": [
        {
          "internalType": "address",
          "name": "newOwner",
          "type": "address"
        }
      ],
      "name": "transferOwnership",
      "outputs": [],
      "stateMutability": "nonpayable",
      "type": "function"
    },
    {
      "inputs": [],
      "name": "unpause",
      "outputs": [],
      "stateMutability": "nonpayable",
      "type": "function"
    },
    {
      "inputs": [
        {
          "internalType": "uint256",
          "name": "_tokenId",
          "type": "uint256"
        }
      ],
      "name": "withdraw",
      "outputs": [],
      "stateMutability": "nonpayable",
      "type": "function"
    },
    {
      "inputs": [
        {
          "internalType": "uint256[]",
          "name": "_tokenIds",
          "type": "uint256[]"
        }
      ],
      "name": "withdrawMultiple",
      "outputs": [],
      "stateMutability": "nonpayable",
      "type": "function"
    }
  ],
  "bytecode": "0x60806040523480156200001157600080fd5b506200001c62000022565b620000e4565b600054610100900460ff16156200008f5760405162461bcd60e51b815260206004820152602760248201527f496e697469616c697a61626c653a20636f6e747261637420697320696e697469604482015266616c697a696e6760c81b606482015260840160405180910390fd5b60005460ff9081161015620000e2576000805460ff191660ff9081179091556040519081527f7f26b83ff96e1f2b6a682f133852f6798a09c465da95921460cefb38474024989060200160405180910390a15b565b612ea280620000f46000396000f3fe608060405234801561001057600080fd5b50600436106101f05760003560e01c80636352211e1161010f578063a928934f116100a2578063cd6dc68711610071578063cd6dc68714610422578063e5b7910614610435578063e985e9c514610448578063f2fde38b1461048457600080fd5b8063a928934f146103e0578063b88d4fde146103f3578063c87b56dd14610406578063c93b11931461041957600080fd5b80638c831b70116100de5780638c831b70146103865780638da5cb5b146103b357806395d89b41146103c5578063a22cb465146103cd57600080fd5b80636352211e1461035057806370a0823114610363578063715018a6146103765780638456cb591461037e57600080fd5b80633f4ba83a1161018757806350d877401161015657806350d87740146102fe578063592e930d146103115780635c975abb146103325780636215be771461033d57600080fd5b80633f4ba83a146102bd57806342842e0e146102c55780634e9a4e55146102d85780634f6ccce7146102eb57600080fd5b806318160ddd116101c357806318160ddd1461027257806323b872dd146102845780632e1a7d4d146102975780632f745c59146102aa57600080fd5b806301ffc9a7146101f557806306fdde031461021d578063081812fc14610232578063095ea7b31461025d575b600080fd5b610208610203366004612615565b610497565b60405190151581526020015b60405180910390f35b6102256104a8565b6040516102149190612682565b610245610240366004612695565b61053a565b6040516001600160a01b039091168152602001610214565b61027061026b3660046126ca565b610561565b005b6099545b604051908152602001610214565b6102706102923660046126f4565b61067b565b6102706102a5366004612695565b6106ac565b6102766102b83660046126ca565b61090c565b6102706109a2565b6102706102d33660046126f4565b6109b4565b6102706102e6366004612730565b6109cf565b6102766102f9366004612695565b6109f9565b61027061030c366004612730565b610a8c565b61027661031f366004612695565b6000908152610194602052604090205490565b60fb5460ff16610208565b61027061034b366004612695565b610ab9565b61024561035e366004612695565b610bc1565b610276610371366004612730565b610c21565b610270610ca7565b610270610cb9565b610208610394366004612730565b6001600160a01b03166000908152610193602052604090205460ff1690565b61012d546001600160a01b0316610245565b610225610cc9565b6102706103db366004612759565b610cd8565b6102706103ee36600461282f565b610ce7565b6102706104013660046128b0565b610f14565b610225610414366004612695565b610f4c565b61019554610276565b6102706104303660046126ca565b610f57565b61027061044336600461292c565b611105565b6102086104563660046129d2565b6001600160a01b039182166000908152606a6020908152604080832093909416825291909152205460ff1690565b610270610492366004612730565b611446565b60006104a2826114bc565b92915050565b6060606580546104b790612a05565b80601f01602080910402602001604051908101604052809291908181526020018280546104e390612a05565b80156105305780601f1061050557610100808354040283529160200191610530565b820191906000526020600020905b81548152906001019060200180831161051357829003601f168201915b5050505050905090565b6000610545826114e1565b506000908152606960205260409020546001600160a01b031690565b600061056c82610bc1565b9050806001600160a01b0316836001600160a01b0316036105de5760405162461bcd60e51b815260206004820152602160248201527f4552433732313a20617070726f76616c20746f2063757272656e74206f776e656044820152603960f91b60648201526084015b60405180910390fd5b336001600160a01b03821614806105fa57506105fa8133610456565b61066c5760405162461bcd60e51b815260206004820152603d60248201527f4552433732313a20617070726f76652063616c6c6572206973206e6f7420746f60448201527f6b656e206f776e6572206f7220617070726f76656420666f7220616c6c00000060648201526084016105d5565b6106768383611540565b505050565b61068533826115ae565b6106a15760405162461bcd60e51b81526004016105d590612a3f565b61067683838361162d565b6106b461179e565b336106be82610bc1565b6001600160a01b0316146107085760405162461bcd60e51b81526020600482015260116024820152702cb7ba9030b932903737ba1037bbb732b960791b60448201526064016105d5565b336000908152610193602052604090205460ff166107685760405162461bcd60e51b815260206004820152601a60248201527f596f7520646f206e6f742068617665207065726d697373696f6e00000000000060448201526064016105d5565b61019554610192546040516370a0823160e01b81523060048201526001600160a01b03909116906370a0823190602401602060405180830381865afa1580156107b5573d6000803e3d6000fd5b505050506040513d601f19601f820116820180604052508101906107d99190612a8c565b10156107f75760405162461bcd60e51b81526004016105d590612aa5565b61019254600082815261019460205260409081902054905163a9059cbb60e01b815233600482015260248101919091526001600160a01b039091169063a9059cbb906044016020604051808303816000875af115801561085b573d6000803e3d6000fd5b505050506040513d601f19601f8201168201806040525081019061087f9190612ae8565b61089b5760405162461bcd60e51b81526004016105d590612b05565b6000818152610194602052604081205490036108ee5760405162461bcd60e51b81526020600482015260126024820152712a37b5b2b7103430b99018103a37b5b2b71760711b60448201526064016105d5565b60008181526101946020526040812055610909600161015f55565b50565b600061091783610c21565b82106109795760405162461bcd60e51b815260206004820152602b60248201527f455243373231456e756d657261626c653a206f776e657220696e646578206f7560448201526a74206f6620626f756e647360a81b60648201526084016105d5565b506001600160a01b03919091166000908152609760209081526040808320938352929052205490565b6109aa611801565b6109b261185c565b565b61067683838360405180602001604052806000815250610f14565b6109d7611801565b6001600160a01b0316600090815261019360205260409020805460ff19169055565b6000610a0460995490565b8210610a675760405162461bcd60e51b815260206004820152602c60248201527f455243373231456e756d657261626c653a20676c6f62616c20696e646578206f60448201526b7574206f6620626f756e647360a01b60648201526084016105d5565b60998281548110610a7a57610a7a612b34565b90600052602060002001549050919050565b610a94611801565b6001600160a01b0316600090815261019360205260409020805460ff19166001179055565b33610ac382610bc1565b6001600160a01b031614610b0d5760405162461bcd60e51b81526020600482015260116024820152702cb7ba9030b932903737ba1037bbb732b960791b60448201526064016105d5565b61019254610195546040516323b872dd60e01b815233600482015230602482015260448101919091526001600160a01b03909116906323b872dd906064016020604051808303816000875af1158015610b6a573d6000803e3d6000fd5b505050506040513d601f19601f82011682018060405250810190610b8e9190612ae8565b610baa5760405162461bcd60e51b81526004016105d590612b05565b610195546000918252610194602052604090912055565b6000818152606760205260408120546001600160a01b0316806104a25760405162461bcd60e51b8152602060048201526018602482015277115490cdcc8c4e881a5b9d985b1a59081d1bdad95b88125160421b60448201526064016105d5565b60006001600160a01b038216610c8b5760405162461bcd60e51b815260206004820152602960248201527f4552433732313a2061646472657373207a65726f206973206e6f7420612076616044820152683634b21037bbb732b960b91b60648201526084016105d5565b506001600160a01b031660009081526068602052604090205490565b610caf611801565b6109b260006118ae565b610cc1611801565b6109b2611901565b6060606680546104b790612a05565b610ce333838361193e565b5050565b8067ffffffffffffffff1661019554610d009190612b60565b610192546040516370a0823160e01b81523360048201526001600160a01b03909116906370a0823190602401602060405180830381865afa158015610d49573d6000803e3d6000fd5b505050506040513d601f19601f82011682018060405250810190610d6d9190612a8c565b1015610db05760405162461bcd60e51b81526020600482015260126024820152714e6f7420456e6f7567682042616c616e636560701b60448201526064016105d5565b61019254610195546001600160a01b03909116906323b872dd9033903090610de39067ffffffffffffffff871690612b60565b6040516001600160e01b031960e086901b1681526001600160a01b03938416600482015292909116602483015260448201526064016020604051808303816000875af1158015610e37573d6000803e3d6000fd5b505050506040513d601f19601f82011682018060405250810190610e5b9190612ae8565b610e9e5760405162461bcd60e51b8152602060048201526014602482015273151313880e881d1c985b9cd9995c91985a5b195960621b60448201526064016105d5565b6000805b8267ffffffffffffffff168167ffffffffffffffff161015610f0d57610191549150610ed361019180546001019055565b6101955460008381526101946020526040902055610ef18583611a0c565b610efb8285611a26565b80610f0581612b77565b915050610ea2565b5050505050565b610f1e33836115ae565b610f3a5760405162461bcd60e51b81526004016105d590612a3f565b610f4684848484611ab9565b50505050565b60606104a282611aec565b600054610100900460ff1615808015610f775750600054600160ff909116105b80610f915750303b158015610f91575060005460ff166001145b610ff45760405162461bcd60e51b815260206004820152602e60248201527f496e697469616c697a61626c653a20636f6e747261637420697320616c72656160448201526d191e481a5b9a5d1a585b1a5e995960921b60648201526084016105d5565b6000805460ff191660011790558015611017576000805461ff0019166101001790555b6110716040518060400160405280601d81526020017f546f6d616173204c69717569646974792050726f7669646572204e4654000000815250604051806040016040528060038152602001622a262760e91b815250611bf4565b611079611c25565b611081611c25565b611089611c4c565b611091611c7b565b611099611caa565b61019280546001600160a01b0319166001600160a01b0385161790556101958290558015610676576000805461ff0019169055604051600181527f7f26b83ff96e1f2b6a682f133852f6798a09c465da95921460cefb38474024989060200160405180910390a1505050565b336000908152610193602052604090205460ff166111575760405162461bcd60e51b815260206004820152600f60248201526e139bdd081dda1a5d195b1a5cdd1959608a1b60448201526064016105d5565b60005b815181101561127b57336001600160a01b031661118f83838151811061118257611182612b34565b6020026020010151610bc1565b6001600160a01b0316146111f55760405162461bcd60e51b815260206004820152602760248201527f596f7520656e7465726564206120746f6b656e49642074686174206973206e6f6044820152667420796f75727360c81b60648201526084016105d5565b6000610194600084848151811061120e5761120e612b34565b6020026020010151815260200190815260200160002054116112695760405162461bcd60e51b8152602060048201526014602482015273746f6b656e20686173206e6f2062616c616e636560601b60448201526064016105d5565b8061127381612b9e565b91505061115a565b506000805b82518110156112d65761019460008483815181106112a0576112a0612b34565b6020026020010151815260200190815260200160002054826112c29190612bb7565b9150806112ce81612b9e565b915050611280565b50610192546040516370a0823160e01b815230600482015282916001600160a01b0316906370a0823190602401602060405180830381865afa158015611320573d6000803e3d6000fd5b505050506040513d601f19601f820116820180604052508101906113449190612a8c565b10156113625760405162461bcd60e51b81526004016105d590612aa5565b6101925460405163a9059cbb60e01b8152336004820152602481018390526001600160a01b039091169063a9059cbb906044016020604051808303816000875af11580156113b4573d6000803e3d6000fd5b505050506040513d601f19601f820116820180604052508101906113d89190612ae8565b6113f45760405162461bcd60e51b81526004016105d590612b05565b60005b8251811015610676576000610194600085848151811061141957611419612b34565b6020026020010151815260200190815260200160002081905550808061143e90612b9e565b9150506113f7565b61144e611801565b6001600160a01b0381166114b35760405162461bcd60e51b815260206004820152602660248201527f4f776e61626c653a206e6577206f776e657220697320746865207a65726f206160448201526564647265737360d01b60648201526084016105d5565b610909816118ae565b60006001600160e01b0319821663780e9d6360e01b14806104a257506104a282611cd9565b6000818152606760205260409020546001600160a01b03166109095760405162461bcd60e51b8152602060048201526018602482015277115490cdcc8c4e881a5b9d985b1a59081d1bdad95b88125160421b60448201526064016105d5565b600081815260696020526040902080546001600160a01b0319166001600160a01b038416908117909155819061157582610bc1565b6001600160a01b03167f8c5be1e5ebec7d5bd14f71427d1e84f3dd0314c0f7b2291e5b200ac8c7c3b92560405160405180910390a45050565b6000806115ba83610bc1565b9050806001600160a01b0316846001600160a01b0316148061160157506001600160a01b038082166000908152606a602090815260408083209388168352929052205460ff165b806116255750836001600160a01b031661161a8461053a565b6001600160a01b0316145b949350505050565b826001600160a01b031661164082610bc1565b6001600160a01b0316146116665760405162461bcd60e51b81526004016105d590612bca565b6001600160a01b0382166116c85760405162461bcd60e51b8152602060048201526024808201527f4552433732313a207472616e7366657220746f20746865207a65726f206164646044820152637265737360e01b60648201526084016105d5565b6116d58383836001611d29565b826001600160a01b03166116e882610bc1565b6001600160a01b03161461170e5760405162461bcd60e51b81526004016105d590612bca565b600081815260696020908152604080832080546001600160a01b03199081169091556001600160a01b0387811680865260688552838620805460001901905590871680865283862080546001019055868652606790945282852080549092168417909155905184937fddf252ad1be2c89b69c2b068fc378daa952ba7f163c4a11628f55a4df523b3ef91a4505050565b600261015f54036117f15760405162461bcd60e51b815260206004820152601f60248201527f5265656e7472616e637947756172643a207265656e7472616e742063616c6c0060448201526064016105d5565b600261015f55565b600161015f55565b61012d546001600160a01b031633146109b25760405162461bcd60e51b815260206004820181905260248201527f4f776e61626c653a2063616c6c6572206973206e6f7420746865206f776e657260448201526064016105d5565b611864611d3d565b60fb805460ff191690557f5db9ee0a495bf2e6ff9c91a7834c1ba4fdd244a5e8aa4e537bd38aeae4b073aa335b6040516001600160a01b03909116815260200160405180910390a1565b61012d80546001600160a01b038381166001600160a01b0319831681179093556040519116919082907f8be0079c531659141344cd1fd0a4f28419497f9722a3daafe3b4186f6b6457e090600090a35050565b611909611d86565b60fb805460ff191660011790557f62e78cea01bee320cd4e420270b5ea74000d11b0c9f74754ebdbfc544b05a2586118913390565b816001600160a01b0316836001600160a01b03160361199f5760405162461bcd60e51b815260206004820152601960248201527f4552433732313a20617070726f766520746f2063616c6c65720000000000000060448201526064016105d5565b6001600160a01b038381166000818152606a6020908152604080832094871680845294825291829020805460ff191686151590811790915591519182527f17307eab39ab6107e8899845ad3d59bd9653f200f220920489ca2b5937696c31910160405180910390a3505050565b610ce3828260405180602001604052806000815250611dcc565b6000828152606760205260409020546001600160a01b0316611aa15760405162461bcd60e51b815260206004820152602e60248201527f45524337323155524953746f726167653a2055524920736574206f66206e6f6e60448201526d32bc34b9ba32b73a103a37b5b2b760911b60648201526084016105d5565b600082815260c9602052604090206106768282612c5d565b611ac484848461162d565b611ad084848484611dff565b610f465760405162461bcd60e51b81526004016105d590612d1d565b6060611af7826114e1565b600082815260c9602052604081208054611b1090612a05565b80601f0160208091040260200160405190810160405280929190818152602001828054611b3c90612a05565b8015611b895780601f10611b5e57610100808354040283529160200191611b89565b820191906000526020600020905b815481529060010190602001808311611b6c57829003601f168201915b505050505090506000611ba760408051602081019091526000815290565b90508051600003611bb9575092915050565b815115611beb578082604051602001611bd3929190612d6f565b60405160208183030381529060405292505050919050565b61162584611f00565b600054610100900460ff16611c1b5760405162461bcd60e51b81526004016105d590612d9e565b610ce38282611f74565b600054610100900460ff166109b25760405162461bcd60e51b81526004016105d590612d9e565b600054610100900460ff16611c735760405162461bcd60e51b81526004016105d590612d9e565b6109b2611fb4565b600054610100900460ff16611ca25760405162461bcd60e51b81526004016105d590612d9e565b6109b2611fe7565b600054610100900460ff16611cd15760405162461bcd60e51b81526004016105d590612d9e565b6109b2612017565b60006001600160e01b031982166380ac58cd60e01b1480611d0a57506001600160e01b03198216635b5e139f60e01b145b806104a257506301ffc9a760e01b6001600160e01b03198316146104a2565b611d31611d86565b610f468484848461203e565b60fb5460ff166109b25760405162461bcd60e51b815260206004820152601460248201527314185d5cd8589b194e881b9bdd081c185d5cd95960621b60448201526064016105d5565b60fb5460ff16156109b25760405162461bcd60e51b815260206004820152601060248201526f14185d5cd8589b194e881c185d5cd95960821b60448201526064016105d5565b611dd6838361216b565b611de36000848484611dff565b6106765760405162461bcd60e51b81526004016105d590612d1d565b60006001600160a01b0384163b15611ef557604051630a85bd0160e11b81526001600160a01b0385169063150b7a0290611e43903390899088908890600401612de9565b6020604051808303816000875af1925050508015611e7e575060408051601f3d908101601f19168201909252611e7b91810190612e26565b60015b611edb573d808015611eac576040519150601f19603f3d011682016040523d82523d6000602084013e611eb1565b606091505b508051600003611ed35760405162461bcd60e51b81526004016105d590612d1d565b805181602001fd5b6001600160e01b031916630a85bd0160e11b149050611625565b506001949350505050565b6060611f0b826114e1565b6000611f2260408051602081019091526000815290565b90506000815111611f425760405180602001604052806000815250611f6d565b80611f4c84612304565b604051602001611f5d929190612d6f565b6040516020818303038152906040525b9392505050565b600054610100900460ff16611f9b5760405162461bcd60e51b81526004016105d590612d9e565b6065611fa78382612c5d565b5060666106768282612c5d565b600054610100900460ff16611fdb5760405162461bcd60e51b81526004016105d590612d9e565b60fb805460ff19169055565b600054610100900460ff1661200e5760405162461bcd60e51b81526004016105d590612d9e565b6109b2336118ae565b600054610100900460ff166117f95760405162461bcd60e51b81526004016105d590612d9e565b60018111156120ad5760405162461bcd60e51b815260206004820152603560248201527f455243373231456e756d657261626c653a20636f6e7365637574697665207472604482015274185b9cd9995c9cc81b9bdd081cdd5c1c1bdc9d1959605a1b60648201526084016105d5565b816001600160a01b0385166121095761210481609980546000838152609a60205260408120829055600182018355919091527f72a152ddfb8e864297c917af52ea6c1c68aead0fee1a62673fcc7e0c94979d000155565b61212c565b836001600160a01b0316856001600160a01b03161461212c5761212c8582612397565b6001600160a01b0384166121485761214381612434565b610f0d565b846001600160a01b0316846001600160a01b031614610f0d57610f0d84826124e3565b6001600160a01b0382166121c15760405162461bcd60e51b815260206004820181905260248201527f4552433732313a206d696e7420746f20746865207a65726f206164647265737360448201526064016105d5565b6000818152606760205260409020546001600160a01b0316156122265760405162461bcd60e51b815260206004820152601c60248201527f4552433732313a20746f6b656e20616c7265616479206d696e7465640000000060448201526064016105d5565b612234600083836001611d29565b6000818152606760205260409020546001600160a01b0316156122995760405162461bcd60e51b815260206004820152601c60248201527f4552433732313a20746f6b656e20616c7265616479206d696e7465640000000060448201526064016105d5565b6001600160a01b038216600081815260686020908152604080832080546001019055848352606790915280822080546001600160a01b0319168417905551839291907fddf252ad1be2c89b69c2b068fc378daa952ba7f163c4a11628f55a4df523b3ef908290a45050565b6060600061231183612527565b600101905060008167ffffffffffffffff81111561233157612331612790565b6040519080825280601f01601f19166020018201604052801561235b576020820181803683370190505b5090508181016020015b600019016f181899199a1a9b1b9c1cb0b131b232b360811b600a86061a8153600a850494508461236557509392505050565b600060016123a484610c21565b6123ae9190612e43565b600083815260986020526040902054909150808214612401576001600160a01b03841660009081526097602090815260408083208584528252808320548484528184208190558352609890915290208190555b5060009182526098602090815260408084208490556001600160a01b039094168352609781528383209183525290812055565b60995460009061244690600190612e43565b6000838152609a60205260408120546099805493945090928490811061246e5761246e612b34565b90600052602060002001549050806099838154811061248f5761248f612b34565b6000918252602080832090910192909255828152609a909152604080822084905585825281205560998054806124c7576124c7612e56565b6001900381819060005260206000200160009055905550505050565b60006124ee83610c21565b6001600160a01b039093166000908152609760209081526040808320868452825280832085905593825260989052919091209190915550565b60008072184f03e93ff9f4daa797ed6e38ed64bf6a1f0160401b83106125665772184f03e93ff9f4daa797ed6e38ed64bf6a1f0160401b830492506040015b6d04ee2d6d415b85acef81000000008310612592576d04ee2d6d415b85acef8100000000830492506020015b662386f26fc1000083106125b057662386f26fc10000830492506010015b6305f5e10083106125c8576305f5e100830492506008015b61271083106125dc57612710830492506004015b606483106125ee576064830492506002015b600a83106104a25760010192915050565b6001600160e01b03198116811461090957600080fd5b60006020828403121561262757600080fd5b8135611f6d816125ff565b60005b8381101561264d578181015183820152602001612635565b50506000910152565b6000815180845261266e816020860160208601612632565b601f01601f19169290920160200192915050565b602081526000611f6d6020830184612656565b6000602082840312156126a757600080fd5b5035919050565b80356001600160a01b03811681146126c557600080fd5b919050565b600080604083850312156126dd57600080fd5b6126e6836126ae565b946020939093013593505050565b60008060006060848603121561270957600080fd5b612712846126ae565b9250612720602085016126ae565b9150604084013590509250925092565b60006020828403121561274257600080fd5b611f6d826126ae565b801515811461090957600080fd5b6000806040838503121561276c57600080fd5b612775836126ae565b915060208301356127858161274b565b809150509250929050565b634e487b7160e01b600052604160045260246000fd5b604051601f8201601f1916810167ffffffffffffffff811182821017156127cf576127cf612790565b604052919050565b600067ffffffffffffffff8311156127f1576127f1612790565b612804601f8401601f19166020016127a6565b905082815283838301111561281857600080fd5b828260208301376000602084830101529392505050565b60008060006060848603121561284457600080fd5b61284d846126ae565b9250602084013567ffffffffffffffff8082111561286a57600080fd5b818601915086601f83011261287e57600080fd5b61288d878335602085016127d7565b93506040860135915080821682146128a457600080fd5b50809150509250925092565b600080600080608085870312156128c657600080fd5b6128cf856126ae565b93506128dd602086016126ae565b925060408501359150606085013567ffffffffffffffff81111561290057600080fd5b8501601f8101871361291157600080fd5b612920878235602084016127d7565b91505092959194509250565b6000602080838503121561293f57600080fd5b823567ffffffffffffffff8082111561295757600080fd5b818501915085601f83011261296b57600080fd5b81358181111561297d5761297d612790565b8060051b915061298e8483016127a6565b81815291830184019184810190888411156129a857600080fd5b938501935b838510156129c6578435825293850193908501906129ad565b98975050505050505050565b600080604083850312156129e557600080fd5b6129ee836126ae565b91506129fc602084016126ae565b90509250929050565b600181811c90821680612a1957607f821691505b602082108103612a3957634e487b7160e01b600052602260045260246000fd5b50919050565b6020808252602d908201527f4552433732313a2063616c6c6572206973206e6f7420746f6b656e206f776e6560408201526c1c881bdc88185c1c1c9bdd9959609a1b606082015260800190565b600060208284031215612a9e57600080fd5b5051919050565b60208082526023908201527f436f6e747261637420446f6573206e6f74206861766520656e6f75676820746f60408201526235b2b760e91b606082015260800190565b600060208284031215612afa57600080fd5b8151611f6d8161274b565b602080825260159082015274151bdad95b88151c985b9cd9995c8811985a5b1959605a1b604082015260600190565b634e487b7160e01b600052603260045260246000fd5b634e487b7160e01b600052601160045260246000fd5b80820281158282048414176104a2576104a2612b4a565b600067ffffffffffffffff808316818103612b9457612b94612b4a565b6001019392505050565b600060018201612bb057612bb0612b4a565b5060010190565b808201808211156104a2576104a2612b4a565b60208082526025908201527f4552433732313a207472616e736665722066726f6d20696e636f72726563742060408201526437bbb732b960d91b606082015260800190565b601f82111561067657600081815260208120601f850160051c81016020861015612c365750805b601f850160051c820191505b81811015612c5557828155600101612c42565b505050505050565b815167ffffffffffffffff811115612c7757612c77612790565b612c8b81612c858454612a05565b84612c0f565b602080601f831160018114612cc05760008415612ca85750858301515b600019600386901b1c1916600185901b178555612c55565b600085815260208120601f198616915b82811015612cef57888601518255948401946001909101908401612cd0565b5085821015612d0d5787850151600019600388901b60f8161c191681555b5050505050600190811b01905550565b60208082526032908201527f4552433732313a207472616e7366657220746f206e6f6e20455243373231526560408201527131b2b4bb32b91034b6b83632b6b2b73a32b960711b606082015260800190565b60008351612d81818460208801612632565b835190830190612d95818360208801612632565b01949350505050565b6020808252602b908201527f496e697469616c697a61626c653a20636f6e7472616374206973206e6f74206960408201526a6e697469616c697a696e6760a81b606082015260800190565b6001600160a01b0385811682528416602082015260408101839052608060608201819052600090612e1c90830184612656565b9695505050505050565b600060208284031215612e3857600080fd5b8151611f6d816125ff565b818103818111156104a2576104a2612b4a565b634e487b7160e01b600052603160045260246000fdfea26469706673582212208f5301a6c507a673a1b158e477a795ece89514574e10b19a82446b215bb222cc64736f6c63430008110033",
  "linkReferences": {},
  "deployedLinkReferences": {}
}