{
  "_format": "hh-sol-artifact-1",
  "contractName": "TomaasLPN",
  "sourceName": "contracts/TomaasLPN.sol",
  "abi": [
    {
      "inputs": [
        {
          "internalType": "address",
          "name": "_acceptedToken",
          "type": "address"
        },
        {
          "internalType": "uint256",
          "name": "_price",
          "type": "uint256"
        }
      ],
      "stateMutability": "nonpayable",
      "type": "constructor"
    },
    {
      "anonymous": false,
      "inputs": [
        {
          "indexed": true,
          "internalType": "address",
          "name": "owner",
          "type": "address"
        },
        {
          "indexed": true,
          "internalType": "address",
          "name": "approved",
          "type": "address"
        },
        {
          "indexed": true,
          "internalType": "uint256",
          "name": "tokenId",
          "type": "uint256"
        }
      ],
      "name": "Approval",
      "type": "event"
    },
    {
      "anonymous": false,
      "inputs": [
        {
          "indexed": true,
          "internalType": "address",
          "name": "owner",
          "type": "address"
        },
        {
          "indexed": true,
          "internalType": "address",
          "name": "operator",
          "type": "address"
        },
        {
          "indexed": false,
          "internalType": "bool",
          "name": "approved",
          "type": "bool"
        }
      ],
      "name": "ApprovalForAll",
      "type": "event"
    },
    {
      "anonymous": false,
      "inputs": [
        {
          "indexed": false,
          "internalType": "uint256",
          "name": "_fromTokenId",
          "type": "uint256"
        },
        {
          "indexed": false,
          "internalType": "uint256",
          "name": "_toTokenId",
          "type": "uint256"
        }
      ],
      "name": "BatchMetadataUpdate",
      "type": "event"
    },
    {
      "anonymous": false,
      "inputs": [
        {
          "indexed": false,
          "internalType": "uint256",
          "name": "_tokenId",
          "type": "uint256"
        }
      ],
      "name": "MetadataUpdate",
      "type": "event"
    },
    {
      "anonymous": false,
      "inputs": [
        {
          "indexed": true,
          "internalType": "address",
          "name": "previousOwner",
          "type": "address"
        },
        {
          "indexed": true,
          "internalType": "address",
          "name": "newOwner",
          "type": "address"
        }
      ],
      "name": "OwnershipTransferred",
      "type": "event"
    },
    {
      "anonymous": false,
      "inputs": [
        {
          "indexed": false,
          "internalType": "address",
          "name": "account",
          "type": "address"
        }
      ],
      "name": "Paused",
      "type": "event"
    },
    {
      "anonymous": false,
      "inputs": [
        {
          "indexed": true,
          "internalType": "address",
          "name": "from",
          "type": "address"
        },
        {
          "indexed": true,
          "internalType": "address",
          "name": "to",
          "type": "address"
        },
        {
          "indexed": true,
          "internalType": "uint256",
          "name": "tokenId",
          "type": "uint256"
        }
      ],
      "name": "Transfer",
      "type": "event"
    },
    {
      "anonymous": false,
      "inputs": [
        {
          "indexed": false,
          "internalType": "address",
          "name": "account",
          "type": "address"
        }
      ],
      "name": "Unpaused",
      "type": "event"
    },
    {
      "inputs": [
        {
          "internalType": "address",
          "name": "_address",
          "type": "address"
        }
      ],
      "name": "addToWL",
      "outputs": [],
      "stateMutability": "nonpayable",
      "type": "function"
    },
    {
      "inputs": [
        {
          "internalType": "address",
          "name": "to",
          "type": "address"
        },
        {
          "internalType": "uint256",
          "name": "tokenId",
          "type": "uint256"
        }
      ],
      "name": "approve",
      "outputs": [],
      "stateMutability": "nonpayable",
      "type": "function"
    },
    {
      "inputs": [
        {
          "internalType": "address",
          "name": "owner",
          "type": "address"
        }
      ],
      "name": "balanceOf",
      "outputs": [
        {
          "internalType": "uint256",
          "name": "",
          "type": "uint256"
        }
      ],
      "stateMutability": "view",
      "type": "function"
    },
    {
      "inputs": [
        {
          "internalType": "uint256",
          "name": "_tokenId",
          "type": "uint256"
        }
      ],
      "name": "depositToken",
      "outputs": [],
      "stateMutability": "nonpayable",
      "type": "function"
    },
    {
      "inputs": [
        {
          "internalType": "uint256",
          "name": "tokenId",
          "type": "uint256"
        }
      ],
      "name": "getApproved",
      "outputs": [
        {
          "internalType": "address",
          "name": "",
          "type": "address"
        }
      ],
      "stateMutability": "view",
      "type": "function"
    },
    {
      "inputs": [
        {
          "internalType": "uint256",
          "name": "_tokenId",
          "type": "uint256"
        }
      ],
      "name": "getTokenBalOfNFT",
      "outputs": [
        {
          "internalType": "uint256",
          "name": "",
          "type": "uint256"
        }
      ],
      "stateMutability": "view",
      "type": "function"
    },
    {
      "inputs": [
        {
          "internalType": "address",
          "name": "owner",
          "type": "address"
        },
        {
          "internalType": "address",
          "name": "operator",
          "type": "address"
        }
      ],
      "name": "isApprovedForAll",
      "outputs": [
        {
          "internalType": "bool",
          "name": "",
          "type": "bool"
        }
      ],
      "stateMutability": "view",
      "type": "function"
    },
    {
      "inputs": [
        {
          "internalType": "address",
          "name": "_address",
          "type": "address"
        }
      ],
      "name": "isWL",
      "outputs": [
        {
          "internalType": "bool",
          "name": "",
          "type": "bool"
        }
      ],
      "stateMutability": "view",
      "type": "function"
    },
    {
      "inputs": [],
      "name": "name",
      "outputs": [
        {
          "internalType": "string",
          "name": "",
          "type": "string"
        }
      ],
      "stateMutability": "view",
      "type": "function"
    },
    {
      "inputs": [],
      "name": "owner",
      "outputs": [
        {
          "internalType": "address",
          "name": "",
          "type": "address"
        }
      ],
      "stateMutability": "view",
      "type": "function"
    },
    {
      "inputs": [
        {
          "internalType": "uint256",
          "name": "tokenId",
          "type": "uint256"
        }
      ],
      "name": "ownerOf",
      "outputs": [
        {
          "internalType": "address",
          "name": "",
          "type": "address"
        }
      ],
      "stateMutability": "view",
      "type": "function"
    },
    {
      "inputs": [],
      "name": "pause",
      "outputs": [],
      "stateMutability": "nonpayable",
      "type": "function"
    },
    {
      "inputs": [],
      "name": "paused",
      "outputs": [
        {
          "internalType": "bool",
          "name": "",
          "type": "bool"
        }
      ],
      "stateMutability": "view",
      "type": "function"
    },
    {
      "inputs": [],
      "name": "priceOf",
      "outputs": [
        {
          "internalType": "uint256",
          "name": "",
          "type": "uint256"
        }
      ],
      "stateMutability": "view",
      "type": "function"
    },
    {
      "inputs": [],
      "name": "renounceOwnership",
      "outputs": [],
      "stateMutability": "nonpayable",
      "type": "function"
    },
    {
      "inputs": [
        {
          "internalType": "address",
          "name": "_address",
          "type": "address"
        }
      ],
      "name": "rmFromWL",
      "outputs": [],
      "stateMutability": "nonpayable",
      "type": "function"
    },
    {
      "inputs": [
        {
          "internalType": "address",
          "name": "to",
          "type": "address"
        },
        {
          "internalType": "string",
          "name": "uri",
          "type": "string"
        },
        {
          "internalType": "uint64",
          "name": "num",
          "type": "uint64"
        }
      ],
      "name": "safeMintMultiple",
      "outputs": [],
      "stateMutability": "nonpayable",
      "type": "function"
    },
    {
      "inputs": [
        {
          "internalType": "address",
          "name": "from",
          "type": "address"
        },
        {
          "internalType": "address",
          "name": "to",
          "type": "address"
        },
        {
          "internalType": "uint256",
          "name": "tokenId",
          "type": "uint256"
        }
      ],
      "name": "safeTransferFrom",
      "outputs": [],
      "stateMutability": "nonpayable",
      "type": "function"
    },
    {
      "inputs": [
        {
          "internalType": "address",
          "name": "from",
          "type": "address"
        },
        {
          "internalType": "address",
          "name": "to",
          "type": "address"
        },
        {
          "internalType": "uint256",
          "name": "tokenId",
          "type": "uint256"
        },
        {
          "internalType": "bytes",
          "name": "data",
          "type": "bytes"
        }
      ],
      "name": "safeTransferFrom",
      "outputs": [],
      "stateMutability": "nonpayable",
      "type": "function"
    },
    {
      "inputs": [
        {
          "internalType": "address",
          "name": "operator",
          "type": "address"
        },
        {
          "internalType": "bool",
          "name": "approved",
          "type": "bool"
        }
      ],
      "name": "setApprovalForAll",
      "outputs": [],
      "stateMutability": "nonpayable",
      "type": "function"
    },
    {
      "inputs": [
        {
          "internalType": "bytes4",
          "name": "interfaceId",
          "type": "bytes4"
        }
      ],
      "name": "supportsInterface",
      "outputs": [
        {
          "internalType": "bool",
          "name": "",
          "type": "bool"
        }
      ],
      "stateMutability": "view",
      "type": "function"
    },
    {
      "inputs": [],
      "name": "symbol",
      "outputs": [
        {
          "internalType": "string",
          "name": "",
          "type": "string"
        }
      ],
      "stateMutability": "view",
      "type": "function"
    },
    {
      "inputs": [
        {
          "internalType": "uint256",
          "name": "index",
          "type": "uint256"
        }
      ],
      "name": "tokenByIndex",
      "outputs": [
        {
          "internalType": "uint256",
          "name": "",
          "type": "uint256"
        }
      ],
      "stateMutability": "view",
      "type": "function"
    },
    {
      "inputs": [
        {
          "internalType": "address",
          "name": "owner",
          "type": "address"
        },
        {
          "internalType": "uint256",
          "name": "index",
          "type": "uint256"
        }
      ],
      "name": "tokenOfOwnerByIndex",
      "outputs": [
        {
          "internalType": "uint256",
          "name": "",
          "type": "uint256"
        }
      ],
      "stateMutability": "view",
      "type": "function"
    },
    {
      "inputs": [
        {
          "internalType": "uint256",
          "name": "tokenId",
          "type": "uint256"
        }
      ],
      "name": "tokenURI",
      "outputs": [
        {
          "internalType": "string",
          "name": "",
          "type": "string"
        }
      ],
      "stateMutability": "view",
      "type": "function"
    },
    {
      "inputs": [],
      "name": "totalSupply",
      "outputs": [
        {
          "internalType": "uint256",
          "name": "",
          "type": "uint256"
        }
      ],
      "stateMutability": "view",
      "type": "function"
    },
    {
      "inputs": [
        {
          "internalType": "address",
          "name": "from",
          "type": "address"
        },
        {
          "internalType": "address",
          "name": "to",
          "type": "address"
        },
        {
          "internalType": "uint256",
          "name": "tokenId",
          "type": "uint256"
        }
      ],
      "name": "transferFrom",
      "outputs": [],
      "stateMutability": "nonpayable",
      "type": "function"
    },
    {
      "inputs": [
        {
          "internalType": "address",
          "name": "newOwner",
          "type": "address"
        }
      ],
      "name": "transferOwnership",
      "outputs": [],
      "stateMutability": "nonpayable",
      "type": "function"
    },
    {
      "inputs": [],
      "name": "unpause",
      "outputs": [],
      "stateMutability": "nonpayable",
      "type": "function"
    },
    {
      "inputs": [
        {
          "internalType": "uint256",
          "name": "_tokenId",
          "type": "uint256"
        }
      ],
      "name": "withdraw",
      "outputs": [],
      "stateMutability": "nonpayable",
      "type": "function"
    },
    {
      "inputs": [
        {
          "internalType": "uint256[]",
          "name": "_tokenIds",
          "type": "uint256[]"
        }
      ],
      "name": "withdrawMultiple",
      "outputs": [],
      "stateMutability": "nonpayable",
      "type": "function"
    }
  ],
  "bytecode": "0x60806040523480156200001157600080fd5b5060405162002e2438038062002e24833981016040819052620000349162000147565b6040518060400160405280601d81526020017f546f6d616173204c69717569646974792050726f7669646572204e4654000000815250604051806040016040528060038152602001622a262760e91b815250816000908162000097919062000228565b506001620000a6828262000228565b5050600b805460ff1916905550620000be33620000ed565b6001600c55600e80546001600160a01b0319166001600160a01b039390931692909217909155601155620002f4565b600b80546001600160a01b03838116610100818102610100600160a81b031985161790945560405193909204169182907f8be0079c531659141344cd1fd0a4f28419497f9722a3daafe3b4186f6b6457e090600090a35050565b600080604083850312156200015b57600080fd5b82516001600160a01b03811681146200017357600080fd5b6020939093015192949293505050565b634e487b7160e01b600052604160045260246000fd5b600181811c90821680620001ae57607f821691505b602082108103620001cf57634e487b7160e01b600052602260045260246000fd5b50919050565b601f8211156200022357600081815260208120601f850160051c81016020861015620001fe5750805b601f850160051c820191505b818110156200021f578281556001016200020a565b5050505b505050565b81516001600160401b0381111562000244576200024462000183565b6200025c8162000255845462000199565b84620001d5565b602080601f8311600181146200029457600084156200027b5750858301515b600019600386901b1c1916600185901b1785556200021f565b600085815260208120601f198616915b82811015620002c557888601518255948401946001909101908401620002a4565b5085821015620002e45787850151600019600388901b60f8161c191681555b5050505050600190811b01905550565b612b2080620003046000396000f3fe608060405234801561001057600080fd5b50600436106101e55760003560e01c80636215be771161010f578063a22cb465116100a2578063c93b119311610071578063c93b119314610410578063e5b7910614610418578063e985e9c51461042b578063f2fde38b1461046757600080fd5b8063a22cb465146103c4578063a928934f146103d7578063b88d4fde146103ea578063c87b56dd146103fd57600080fd5b80638456cb59116100de5780638456cb59146103725780638c831b701461037a5780638da5cb5b146103a657806395d89b41146103bc57600080fd5b80636215be77146103315780636352211e1461034457806370a0823114610357578063715018a61461036a57600080fd5b80632f745c59116101875780634f6ccce7116101565780634f6ccce7146102e057806350d87740146102f3578063592e930d146103065780635c975abb1461032657600080fd5b80632f745c591461029f5780633f4ba83a146102b257806342842e0e146102ba5780634e9a4e55146102cd57600080fd5b8063095ea7b3116101c3578063095ea7b31461025257806318160ddd1461026757806323b872dd146102795780632e1a7d4d1461028c57600080fd5b806301ffc9a7146101ea57806306fdde0314610212578063081812fc14610227575b600080fd5b6101fd6101f83660046122de565b61047a565b60405190151581526020015b60405180910390f35b61021a61048b565b604051610209919061234b565b61023a61023536600461235e565b61051d565b6040516001600160a01b039091168152602001610209565b610265610260366004612393565b610544565b005b6008545b604051908152602001610209565b6102656102873660046123bd565b61065e565b61026561029a36600461235e565b61068f565b61026b6102ad366004612393565b6108e7565b61026561097d565b6102656102c83660046123bd565b61098f565b6102656102db3660046123f9565b6109aa565b61026b6102ee36600461235e565b6109d3565b6102656103013660046123f9565b610a66565b61026b61031436600461235e565b60009081526010602052604090205490565b600b5460ff166101fd565b61026561033f36600461235e565b610a92565b61023a61035236600461235e565b610b96565b61026b6103653660046123f9565b610bf6565b610265610c7c565b610265610c8e565b6101fd6103883660046123f9565b6001600160a01b03166000908152600f602052604090205460ff1690565b600b5461010090046001600160a01b031661023a565b61021a610c9e565b6102656103d2366004612422565b610cad565b6102656103e53660046124f8565b610cbc565b6102656103f8366004612579565b610ee1565b61021a61040b36600461235e565b610f19565b60115461026b565b6102656104263660046125f5565b610f24565b6101fd61043936600461269b565b6001600160a01b03918216600090815260056020908152604080832093909416825291909152205460ff1690565b6102656104753660046123f9565b61125f565b6000610485826112d5565b92915050565b60606000805461049a906126ce565b80601f01602080910402602001604051908101604052809291908181526020018280546104c6906126ce565b80156105135780601f106104e857610100808354040283529160200191610513565b820191906000526020600020905b8154815290600101906020018083116104f657829003601f168201915b5050505050905090565b6000610528826112fa565b506000908152600460205260409020546001600160a01b031690565b600061054f82610b96565b9050806001600160a01b0316836001600160a01b0316036105c15760405162461bcd60e51b815260206004820152602160248201527f4552433732313a20617070726f76616c20746f2063757272656e74206f776e656044820152603960f91b60648201526084015b60405180910390fd5b336001600160a01b03821614806105dd57506105dd8133610439565b61064f5760405162461bcd60e51b815260206004820152603d60248201527f4552433732313a20617070726f76652063616c6c6572206973206e6f7420746f60448201527f6b656e206f776e6572206f7220617070726f76656420666f7220616c6c00000060648201526084016105b8565b6106598383611359565b505050565b61066833826113c7565b6106845760405162461bcd60e51b81526004016105b890612708565b610659838383611446565b6106976115b7565b336106a182610b96565b6001600160a01b0316146106eb5760405162461bcd60e51b81526020600482015260116024820152702cb7ba9030b932903737ba1037bbb732b960791b60448201526064016105b8565b336000908152600f602052604090205460ff1661074a5760405162461bcd60e51b815260206004820152601a60248201527f596f7520646f206e6f742068617665207065726d697373696f6e00000000000060448201526064016105b8565b601154600e546040516370a0823160e01b81523060048201526001600160a01b03909116906370a0823190602401602060405180830381865afa158015610795573d6000803e3d6000fd5b505050506040513d601f19601f820116820180604052508101906107b99190612755565b10156107d75760405162461bcd60e51b81526004016105b89061276e565b600e546000828152601060205260409081902054905163a9059cbb60e01b815233600482015260248101919091526001600160a01b039091169063a9059cbb906044016020604051808303816000875af1158015610839573d6000803e3d6000fd5b505050506040513d601f19601f8201168201806040525081019061085d91906127b1565b6108795760405162461bcd60e51b81526004016105b8906127ce565b60008181526010602052604081205490036108cb5760405162461bcd60e51b81526020600482015260126024820152712a37b5b2b7103430b99018103a37b5b2b71760711b60448201526064016105b8565b6000818152601060205260408120556108e46001600c55565b50565b60006108f283610bf6565b82106109545760405162461bcd60e51b815260206004820152602b60248201527f455243373231456e756d657261626c653a206f776e657220696e646578206f7560448201526a74206f6620626f756e647360a81b60648201526084016105b8565b506001600160a01b03919091166000908152600660209081526040808320938352929052205490565b610985611610565b61098d611670565b565b61065983838360405180602001604052806000815250610ee1565b6109b2611610565b6001600160a01b03166000908152600f60205260409020805460ff19169055565b60006109de60085490565b8210610a415760405162461bcd60e51b815260206004820152602c60248201527f455243373231456e756d657261626c653a20676c6f62616c20696e646578206f60448201526b7574206f6620626f756e647360a01b60648201526084016105b8565b60088281548110610a5457610a546127fd565b90600052602060002001549050919050565b610a6e611610565b6001600160a01b03166000908152600f60205260409020805460ff19166001179055565b33610a9c82610b96565b6001600160a01b031614610ae65760405162461bcd60e51b81526020600482015260116024820152702cb7ba9030b932903737ba1037bbb732b960791b60448201526064016105b8565b600e546011546040516323b872dd60e01b815233600482015230602482015260448101919091526001600160a01b03909116906323b872dd906064016020604051808303816000875af1158015610b41573d6000803e3d6000fd5b505050506040513d601f19601f82011682018060405250810190610b6591906127b1565b610b815760405162461bcd60e51b81526004016105b8906127ce565b60115460009182526010602052604090912055565b6000818152600260205260408120546001600160a01b0316806104855760405162461bcd60e51b8152602060048201526018602482015277115490cdcc8c4e881a5b9d985b1a59081d1bdad95b88125160421b60448201526064016105b8565b60006001600160a01b038216610c605760405162461bcd60e51b815260206004820152602960248201527f4552433732313a2061646472657373207a65726f206973206e6f7420612076616044820152683634b21037bbb732b960b91b60648201526084016105b8565b506001600160a01b031660009081526003602052604090205490565b610c84611610565b61098d60006116c2565b610c96611610565b61098d61171c565b60606001805461049a906126ce565b610cb8338383611759565b5050565b8067ffffffffffffffff16601154610cd49190612829565b600e546040516370a0823160e01b81523360048201526001600160a01b03909116906370a0823190602401602060405180830381865afa158015610d1c573d6000803e3d6000fd5b505050506040513d601f19601f82011682018060405250810190610d409190612755565b1015610d835760405162461bcd60e51b81526020600482015260126024820152714e6f7420456e6f7567682042616c616e636560701b60448201526064016105b8565b600e546011546001600160a01b03909116906323b872dd9033903090610db49067ffffffffffffffff871690612829565b6040516001600160e01b031960e086901b1681526001600160a01b03938416600482015292909116602483015260448201526064016020604051808303816000875af1158015610e08573d6000803e3d6000fd5b505050506040513d601f19601f82011682018060405250810190610e2c91906127b1565b610e6f5760405162461bcd60e51b8152602060048201526014602482015273151313880e881d1c985b9cd9995c91985a5b195960621b60448201526064016105b8565b6000805b8267ffffffffffffffff168167ffffffffffffffff161015610eda57600d549150610ea2600d80546001019055565b601154600083815260106020526040902055610ebe8583611827565b610ec88285611841565b80610ed281612840565b915050610e73565b5050505050565b610eeb33836113c7565b610f075760405162461bcd60e51b81526004016105b890612708565b610f138484848461190c565b50505050565b60606104858261193f565b336000908152600f602052604090205460ff16610f755760405162461bcd60e51b815260206004820152600f60248201526e139bdd081dda1a5d195b1a5cdd1959608a1b60448201526064016105b8565b60005b815181101561109857336001600160a01b0316610fad838381518110610fa057610fa06127fd565b6020026020010151610b96565b6001600160a01b0316146110135760405162461bcd60e51b815260206004820152602760248201527f596f7520656e7465726564206120746f6b656e49642074686174206973206e6f6044820152667420796f75727360c81b60648201526084016105b8565b60006010600084848151811061102b5761102b6127fd565b6020026020010151815260200190815260200160002054116110865760405162461bcd60e51b8152602060048201526014602482015273746f6b656e20686173206e6f2062616c616e636560601b60448201526064016105b8565b8061109081612867565b915050610f78565b506000805b82518110156110f257601060008483815181106110bc576110bc6127fd565b6020026020010151815260200190815260200160002054826110de9190612880565b9150806110ea81612867565b91505061109d565b50600e546040516370a0823160e01b815230600482015282916001600160a01b0316906370a0823190602401602060405180830381865afa15801561113b573d6000803e3d6000fd5b505050506040513d601f19601f8201168201806040525081019061115f9190612755565b101561117d5760405162461bcd60e51b81526004016105b89061276e565b600e5460405163a9059cbb60e01b8152336004820152602481018390526001600160a01b039091169063a9059cbb906044016020604051808303816000875af11580156111ce573d6000803e3d6000fd5b505050506040513d601f19601f820116820180604052508101906111f291906127b1565b61120e5760405162461bcd60e51b81526004016105b8906127ce565b60005b825181101561065957600060106000858481518110611232576112326127fd565b6020026020010151815260200190815260200160002081905550808061125790612867565b915050611211565b611267611610565b6001600160a01b0381166112cc5760405162461bcd60e51b815260206004820152602660248201527f4f776e61626c653a206e6577206f776e657220697320746865207a65726f206160448201526564647265737360d01b60648201526084016105b8565b6108e4816116c2565b60006001600160e01b03198216632483248360e11b1480610485575061048582611a47565b6000818152600260205260409020546001600160a01b03166108e45760405162461bcd60e51b8152602060048201526018602482015277115490cdcc8c4e881a5b9d985b1a59081d1bdad95b88125160421b60448201526064016105b8565b600081815260046020526040902080546001600160a01b0319166001600160a01b038416908117909155819061138e82610b96565b6001600160a01b03167f8c5be1e5ebec7d5bd14f71427d1e84f3dd0314c0f7b2291e5b200ac8c7c3b92560405160405180910390a45050565b6000806113d383610b96565b9050806001600160a01b0316846001600160a01b0316148061141a57506001600160a01b0380821660009081526005602090815260408083209388168352929052205460ff165b8061143e5750836001600160a01b03166114338461051d565b6001600160a01b0316145b949350505050565b826001600160a01b031661145982610b96565b6001600160a01b03161461147f5760405162461bcd60e51b81526004016105b890612893565b6001600160a01b0382166114e15760405162461bcd60e51b8152602060048201526024808201527f4552433732313a207472616e7366657220746f20746865207a65726f206164646044820152637265737360e01b60648201526084016105b8565b6114ee8383836001611a6c565b826001600160a01b031661150182610b96565b6001600160a01b0316146115275760405162461bcd60e51b81526004016105b890612893565b600081815260046020908152604080832080546001600160a01b03199081169091556001600160a01b0387811680865260038552838620805460001901905590871680865283862080546001019055868652600290945282852080549092168417909155905184937fddf252ad1be2c89b69c2b068fc378daa952ba7f163c4a11628f55a4df523b3ef91a4505050565b6002600c54036116095760405162461bcd60e51b815260206004820152601f60248201527f5265656e7472616e637947756172643a207265656e7472616e742063616c6c0060448201526064016105b8565b6002600c55565b600b546001600160a01b0361010090910416331461098d5760405162461bcd60e51b815260206004820181905260248201527f4f776e61626c653a2063616c6c6572206973206e6f7420746865206f776e657260448201526064016105b8565b611678611a80565b600b805460ff191690557f5db9ee0a495bf2e6ff9c91a7834c1ba4fdd244a5e8aa4e537bd38aeae4b073aa335b6040516001600160a01b03909116815260200160405180910390a1565b600b80546001600160a01b03838116610100818102610100600160a81b031985161790945560405193909204169182907f8be0079c531659141344cd1fd0a4f28419497f9722a3daafe3b4186f6b6457e090600090a35050565b611724611ac9565b600b805460ff191660011790557f62e78cea01bee320cd4e420270b5ea74000d11b0c9f74754ebdbfc544b05a2586116a53390565b816001600160a01b0316836001600160a01b0316036117ba5760405162461bcd60e51b815260206004820152601960248201527f4552433732313a20617070726f766520746f2063616c6c65720000000000000060448201526064016105b8565b6001600160a01b03838116600081815260056020908152604080832094871680845294825291829020805460ff191686151590811790915591519182527f17307eab39ab6107e8899845ad3d59bd9653f200f220920489ca2b5937696c31910160405180910390a3505050565b610cb8828260405180602001604052806000815250611b0f565b6000828152600260205260409020546001600160a01b03166118bc5760405162461bcd60e51b815260206004820152602e60248201527f45524337323155524953746f726167653a2055524920736574206f66206e6f6e60448201526d32bc34b9ba32b73a103a37b5b2b760911b60648201526084016105b8565b6000828152600a602052604090206118d48282612926565b506040518281527ff8e1a15aba9398e019f0b49df1a4fde98ee17ae345cb5f6b5e2c27f5033e8ce79060200160405180910390a15050565b611917848484611446565b61192384848484611b42565b610f135760405162461bcd60e51b81526004016105b8906129e6565b606061194a826112fa565b6000828152600a602052604081208054611963906126ce565b80601f016020809104026020016040519081016040528092919081815260200182805461198f906126ce565b80156119dc5780601f106119b1576101008083540402835291602001916119dc565b820191906000526020600020905b8154815290600101906020018083116119bf57829003601f168201915b5050505050905060006119fa60408051602081019091526000815290565b90508051600003611a0c575092915050565b815115611a3e578082604051602001611a26929190612a38565b60405160208183030381529060405292505050919050565b61143e84611c43565b60006001600160e01b0319821663780e9d6360e01b1480610485575061048582611cb7565b611a74611ac9565b610f1384848484611d07565b600b5460ff1661098d5760405162461bcd60e51b815260206004820152601460248201527314185d5cd8589b194e881b9bdd081c185d5cd95960621b60448201526064016105b8565b600b5460ff161561098d5760405162461bcd60e51b815260206004820152601060248201526f14185d5cd8589b194e881c185d5cd95960821b60448201526064016105b8565b611b198383611e34565b611b266000848484611b42565b6106595760405162461bcd60e51b81526004016105b8906129e6565b60006001600160a01b0384163b15611c3857604051630a85bd0160e11b81526001600160a01b0385169063150b7a0290611b86903390899088908890600401612a67565b6020604051808303816000875af1925050508015611bc1575060408051601f3d908101601f19168201909252611bbe91810190612aa4565b60015b611c1e573d808015611bef576040519150601f19603f3d011682016040523d82523d6000602084013e611bf4565b606091505b508051600003611c165760405162461bcd60e51b81526004016105b8906129e6565b805181602001fd5b6001600160e01b031916630a85bd0160e11b14905061143e565b506001949350505050565b6060611c4e826112fa565b6000611c6560408051602081019091526000815290565b90506000815111611c855760405180602001604052806000815250611cb0565b80611c8f84611fcd565b604051602001611ca0929190612a38565b6040516020818303038152906040525b9392505050565b60006001600160e01b031982166380ac58cd60e01b1480611ce857506001600160e01b03198216635b5e139f60e01b145b8061048557506301ffc9a760e01b6001600160e01b0319831614610485565b6001811115611d765760405162461bcd60e51b815260206004820152603560248201527f455243373231456e756d657261626c653a20636f6e7365637574697665207472604482015274185b9cd9995c9cc81b9bdd081cdd5c1c1bdc9d1959605a1b60648201526084016105b8565b816001600160a01b038516611dd257611dcd81600880546000838152600960205260408120829055600182018355919091527ff3f7a9fe364faab93b216da50a3214154f22a0a2b415b23a84c8169e8b636ee30155565b611df5565b836001600160a01b0316856001600160a01b031614611df557611df58582612060565b6001600160a01b038416611e1157611e0c816120fd565b610eda565b846001600160a01b0316846001600160a01b031614610eda57610eda84826121ac565b6001600160a01b038216611e8a5760405162461bcd60e51b815260206004820181905260248201527f4552433732313a206d696e7420746f20746865207a65726f206164647265737360448201526064016105b8565b6000818152600260205260409020546001600160a01b031615611eef5760405162461bcd60e51b815260206004820152601c60248201527f4552433732313a20746f6b656e20616c7265616479206d696e7465640000000060448201526064016105b8565b611efd600083836001611a6c565b6000818152600260205260409020546001600160a01b031615611f625760405162461bcd60e51b815260206004820152601c60248201527f4552433732313a20746f6b656e20616c7265616479206d696e7465640000000060448201526064016105b8565b6001600160a01b038216600081815260036020908152604080832080546001019055848352600290915280822080546001600160a01b0319168417905551839291907fddf252ad1be2c89b69c2b068fc378daa952ba7f163c4a11628f55a4df523b3ef908290a45050565b60606000611fda836121f0565b600101905060008167ffffffffffffffff811115611ffa57611ffa612459565b6040519080825280601f01601f191660200182016040528015612024576020820181803683370190505b5090508181016020015b600019016f181899199a1a9b1b9c1cb0b131b232b360811b600a86061a8153600a850494508461202e57509392505050565b6000600161206d84610bf6565b6120779190612ac1565b6000838152600760205260409020549091508082146120ca576001600160a01b03841660009081526006602090815260408083208584528252808320548484528184208190558352600790915290208190555b5060009182526007602090815260408084208490556001600160a01b039094168352600681528383209183525290812055565b60085460009061210f90600190612ac1565b60008381526009602052604081205460088054939450909284908110612137576121376127fd565b906000526020600020015490508060088381548110612158576121586127fd565b600091825260208083209091019290925582815260099091526040808220849055858252812055600880548061219057612190612ad4565b6001900381819060005260206000200160009055905550505050565b60006121b783610bf6565b6001600160a01b039093166000908152600660209081526040808320868452825280832085905593825260079052919091209190915550565b60008072184f03e93ff9f4daa797ed6e38ed64bf6a1f0160401b831061222f5772184f03e93ff9f4daa797ed6e38ed64bf6a1f0160401b830492506040015b6d04ee2d6d415b85acef8100000000831061225b576d04ee2d6d415b85acef8100000000830492506020015b662386f26fc10000831061227957662386f26fc10000830492506010015b6305f5e1008310612291576305f5e100830492506008015b61271083106122a557612710830492506004015b606483106122b7576064830492506002015b600a83106104855760010192915050565b6001600160e01b0319811681146108e457600080fd5b6000602082840312156122f057600080fd5b8135611cb0816122c8565b60005b838110156123165781810151838201526020016122fe565b50506000910152565b600081518084526123378160208601602086016122fb565b601f01601f19169290920160200192915050565b602081526000611cb0602083018461231f565b60006020828403121561237057600080fd5b5035919050565b80356001600160a01b038116811461238e57600080fd5b919050565b600080604083850312156123a657600080fd5b6123af83612377565b946020939093013593505050565b6000806000606084860312156123d257600080fd5b6123db84612377565b92506123e960208501612377565b9150604084013590509250925092565b60006020828403121561240b57600080fd5b611cb082612377565b80151581146108e457600080fd5b6000806040838503121561243557600080fd5b61243e83612377565b9150602083013561244e81612414565b809150509250929050565b634e487b7160e01b600052604160045260246000fd5b604051601f8201601f1916810167ffffffffffffffff8111828210171561249857612498612459565b604052919050565b600067ffffffffffffffff8311156124ba576124ba612459565b6124cd601f8401601f191660200161246f565b90508281528383830111156124e157600080fd5b828260208301376000602084830101529392505050565b60008060006060848603121561250d57600080fd5b61251684612377565b9250602084013567ffffffffffffffff8082111561253357600080fd5b818601915086601f83011261254757600080fd5b612556878335602085016124a0565b935060408601359150808216821461256d57600080fd5b50809150509250925092565b6000806000806080858703121561258f57600080fd5b61259885612377565b93506125a660208601612377565b925060408501359150606085013567ffffffffffffffff8111156125c957600080fd5b8501601f810187136125da57600080fd5b6125e9878235602084016124a0565b91505092959194509250565b6000602080838503121561260857600080fd5b823567ffffffffffffffff8082111561262057600080fd5b818501915085601f83011261263457600080fd5b81358181111561264657612646612459565b8060051b915061265784830161246f565b818152918301840191848101908884111561267157600080fd5b938501935b8385101561268f57843582529385019390850190612676565b98975050505050505050565b600080604083850312156126ae57600080fd5b6126b783612377565b91506126c560208401612377565b90509250929050565b600181811c908216806126e257607f821691505b60208210810361270257634e487b7160e01b600052602260045260246000fd5b50919050565b6020808252602d908201527f4552433732313a2063616c6c6572206973206e6f7420746f6b656e206f776e6560408201526c1c881bdc88185c1c1c9bdd9959609a1b606082015260800190565b60006020828403121561276757600080fd5b5051919050565b60208082526023908201527f436f6e747261637420446f6573206e6f74206861766520656e6f75676820746f60408201526235b2b760e91b606082015260800190565b6000602082840312156127c357600080fd5b8151611cb081612414565b602080825260159082015274151bdad95b88151c985b9cd9995c8811985a5b1959605a1b604082015260600190565b634e487b7160e01b600052603260045260246000fd5b634e487b7160e01b600052601160045260246000fd5b808202811582820484141761048557610485612813565b600067ffffffffffffffff80831681810361285d5761285d612813565b6001019392505050565b60006001820161287957612879612813565b5060010190565b8082018082111561048557610485612813565b60208082526025908201527f4552433732313a207472616e736665722066726f6d20696e636f72726563742060408201526437bbb732b960d91b606082015260800190565b601f82111561065957600081815260208120601f850160051c810160208610156128ff5750805b601f850160051c820191505b8181101561291e5782815560010161290b565b505050505050565b815167ffffffffffffffff81111561294057612940612459565b6129548161294e84546126ce565b846128d8565b602080601f83116001811461298957600084156129715750858301515b600019600386901b1c1916600185901b17855561291e565b600085815260208120601f198616915b828110156129b857888601518255948401946001909101908401612999565b50858210156129d65787850151600019600388901b60f8161c191681555b5050505050600190811b01905550565b60208082526032908201527f4552433732313a207472616e7366657220746f206e6f6e20455243373231526560408201527131b2b4bb32b91034b6b83632b6b2b73a32b960711b606082015260800190565b60008351612a4a8184602088016122fb565b835190830190612a5e8183602088016122fb565b01949350505050565b6001600160a01b0385811682528416602082015260408101839052608060608201819052600090612a9a9083018461231f565b9695505050505050565b600060208284031215612ab657600080fd5b8151611cb0816122c8565b8181038181111561048557610485612813565b634e487b7160e01b600052603160045260246000fdfea2646970667358221220726393ec34de3f607d20544be89c3d9ad2dbc911177aa785373141aaca2afbbe64736f6c63430008110033",
  "linkReferences": {},
  "deployedLinkReferences": {}
}