{
  "_format": "hh-sol-artifact-1",
  "contractName": "TomaasMarketplace",
  "sourceName": "contracts/TomaasMarketplace.sol",
  "abi": [
    {
      "inputs": [],
      "stateMutability": "nonpayable",
      "type": "constructor"
    },
    {
      "anonymous": false,
      "inputs": [
        {
          "indexed": false,
          "internalType": "uint8",
          "name": "version",
          "type": "uint8"
        }
      ],
      "name": "Initialized",
      "type": "event"
    },
    {
      "anonymous": false,
      "inputs": [
        {
          "indexed": true,
          "internalType": "address",
          "name": "collection",
          "type": "address"
        },
        {
          "indexed": false,
          "internalType": "uint256",
          "name": "tokenId",
          "type": "uint256"
        },
        {
          "indexed": false,
          "internalType": "uint256",
          "name": "price",
          "type": "uint256"
        }
      ],
      "name": "NFTBought",
      "type": "event"
    },
    {
      "anonymous": false,
      "inputs": [
        {
          "indexed": true,
          "internalType": "address",
          "name": "collection",
          "type": "address"
        },
        {
          "indexed": false,
          "internalType": "uint256",
          "name": "tokenId",
          "type": "uint256"
        },
        {
          "indexed": false,
          "internalType": "uint256",
          "name": "price",
          "type": "uint256"
        }
      ],
      "name": "NFTListedForSale",
      "type": "event"
    },
    {
      "anonymous": false,
      "inputs": [
        {
          "indexed": true,
          "internalType": "address",
          "name": "collection",
          "type": "address"
        },
        {
          "indexed": false,
          "internalType": "uint256[]",
          "name": "prices",
          "type": "uint256[]"
        },
        {
          "indexed": false,
          "internalType": "uint256[]",
          "name": "tokenIds",
          "type": "uint256[]"
        }
      ],
      "name": "NFTsBought",
      "type": "event"
    },
    {
      "anonymous": false,
      "inputs": [
        {
          "indexed": true,
          "internalType": "address",
          "name": "collection",
          "type": "address"
        },
        {
          "indexed": false,
          "internalType": "uint256",
          "name": "price",
          "type": "uint256"
        },
        {
          "indexed": false,
          "internalType": "uint256[]",
          "name": "tokenIds",
          "type": "uint256[]"
        }
      ],
      "name": "NFTsListedForSale",
      "type": "event"
    },
    {
      "anonymous": false,
      "inputs": [
        {
          "indexed": true,
          "internalType": "address",
          "name": "previousOwner",
          "type": "address"
        },
        {
          "indexed": true,
          "internalType": "address",
          "name": "newOwner",
          "type": "address"
        }
      ],
      "name": "OwnershipTransferred",
      "type": "event"
    },
    {
      "anonymous": false,
      "inputs": [
        {
          "indexed": false,
          "internalType": "address",
          "name": "account",
          "type": "address"
        }
      ],
      "name": "Paused",
      "type": "event"
    },
    {
      "anonymous": false,
      "inputs": [
        {
          "indexed": false,
          "internalType": "address",
          "name": "account",
          "type": "address"
        }
      ],
      "name": "Unpaused",
      "type": "event"
    },
    {
      "inputs": [],
      "name": "_salesFee",
      "outputs": [
        {
          "internalType": "uint8",
          "name": "",
          "type": "uint8"
        }
      ],
      "stateMutability": "view",
      "type": "function"
    },
    {
      "inputs": [
        {
          "internalType": "address",
          "name": "nftAddress",
          "type": "address"
        },
        {
          "internalType": "uint256[]",
          "name": "prices",
          "type": "uint256[]"
        },
        {
          "internalType": "uint256[]",
          "name": "tokenIds",
          "type": "uint256[]"
        }
      ],
      "name": "buyMultipleNFT",
      "outputs": [],
      "stateMutability": "nonpayable",
      "type": "function"
    },
    {
      "inputs": [
        {
          "internalType": "address",
          "name": "nftAddress",
          "type": "address"
        },
        {
          "internalType": "uint256",
          "name": "tokenId",
          "type": "uint256"
        },
        {
          "internalType": "uint256",
          "name": "price",
          "type": "uint256"
        }
      ],
      "name": "buyNFT",
      "outputs": [],
      "stateMutability": "nonpayable",
      "type": "function"
    },
    {
      "inputs": [
        {
          "internalType": "address",
          "name": "nftAddress",
          "type": "address"
        }
      ],
      "name": "getListedNFTs",
      "outputs": [
        {
          "components": [
            {
              "internalType": "uint256",
              "name": "tokenId",
              "type": "uint256"
            },
            {
              "internalType": "address",
              "name": "seller",
              "type": "address"
            },
            {
              "internalType": "uint256",
              "name": "price",
              "type": "uint256"
            },
            {
              "internalType": "bool",
              "name": "isAvailable",
              "type": "bool"
            }
          ],
          "internalType": "struct TomaasMarketplace.SaleInfo[]",
          "name": "",
          "type": "tuple[]"
        }
      ],
      "stateMutability": "view",
      "type": "function"
    },
    {
      "inputs": [
        {
          "internalType": "address",
          "name": "nftAddress",
          "type": "address"
        },
        {
          "internalType": "uint256",
          "name": "tokenId",
          "type": "uint256"
        }
      ],
      "name": "getSaleInfo",
      "outputs": [
        {
          "components": [
            {
              "internalType": "uint256",
              "name": "tokenId",
              "type": "uint256"
            },
            {
              "internalType": "address",
              "name": "seller",
              "type": "address"
            },
            {
              "internalType": "uint256",
              "name": "price",
              "type": "uint256"
            },
            {
              "internalType": "bool",
              "name": "isAvailable",
              "type": "bool"
            }
          ],
          "internalType": "struct TomaasMarketplace.SaleInfo",
          "name": "",
          "type": "tuple"
        }
      ],
      "stateMutability": "view",
      "type": "function"
    },
    {
      "inputs": [],
      "name": "getSalesFee",
      "outputs": [
        {
          "internalType": "uint256",
          "name": "",
          "type": "uint256"
        }
      ],
      "stateMutability": "view",
      "type": "function"
    },
    {
      "inputs": [
        {
          "internalType": "address",
          "name": "lendingProtocolAddress",
          "type": "address"
        }
      ],
      "name": "initialize",
      "outputs": [],
      "stateMutability": "nonpayable",
      "type": "function"
    },
    {
      "inputs": [
        {
          "internalType": "address",
          "name": "nftAddress",
          "type": "address"
        },
        {
          "internalType": "uint256",
          "name": "tokenId",
          "type": "uint256"
        }
      ],
      "name": "isForSale",
      "outputs": [
        {
          "internalType": "bool",
          "name": "",
          "type": "bool"
        }
      ],
      "stateMutability": "view",
      "type": "function"
    },
    {
      "inputs": [
        {
          "internalType": "address",
          "name": "nftAddress",
          "type": "address"
        },
        {
          "internalType": "uint256",
          "name": "tokenId",
          "type": "uint256"
        },
        {
          "internalType": "uint256",
          "name": "price",
          "type": "uint256"
        }
      ],
      "name": "listingForSale",
      "outputs": [],
      "stateMutability": "nonpayable",
      "type": "function"
    },
    {
      "inputs": [
        {
          "internalType": "address",
          "name": "nftAddress",
          "type": "address"
        },
        {
          "internalType": "uint256",
          "name": "price",
          "type": "uint256"
        },
        {
          "internalType": "uint256[]",
          "name": "tokenIds",
          "type": "uint256[]"
        }
      ],
      "name": "listingMultipleForSale",
      "outputs": [],
      "stateMutability": "nonpayable",
      "type": "function"
    },
    {
      "inputs": [],
      "name": "owner",
      "outputs": [
        {
          "internalType": "address",
          "name": "",
          "type": "address"
        }
      ],
      "stateMutability": "view",
      "type": "function"
    },
    {
      "inputs": [],
      "name": "pause",
      "outputs": [],
      "stateMutability": "nonpayable",
      "type": "function"
    },
    {
      "inputs": [],
      "name": "paused",
      "outputs": [
        {
          "internalType": "bool",
          "name": "",
          "type": "bool"
        }
      ],
      "stateMutability": "view",
      "type": "function"
    },
    {
      "inputs": [],
      "name": "renounceOwnership",
      "outputs": [],
      "stateMutability": "nonpayable",
      "type": "function"
    },
    {
      "inputs": [
        {
          "internalType": "uint8",
          "name": "salesFee",
          "type": "uint8"
        }
      ],
      "name": "setProtocolFee",
      "outputs": [],
      "stateMutability": "nonpayable",
      "type": "function"
    },
    {
      "inputs": [
        {
          "internalType": "address",
          "name": "newOwner",
          "type": "address"
        }
      ],
      "name": "transferOwnership",
      "outputs": [],
      "stateMutability": "nonpayable",
      "type": "function"
    },
    {
      "inputs": [],
      "name": "unpause",
      "outputs": [],
      "stateMutability": "nonpayable",
      "type": "function"
    }
  ],
  "bytecode": "0x60806040523480156200001157600080fd5b506200001c62000022565b620000e4565b600054610100900460ff16156200008f5760405162461bcd60e51b815260206004820152602760248201527f496e697469616c697a61626c653a20636f6e747261637420697320696e697469604482015266616c697a696e6760c81b606482015260840160405180910390fd5b60005460ff9081161015620000e2576000805460ff191660ff9081179091556040519081527f7f26b83ff96e1f2b6a682f133852f6798a09c465da95921460cefb38474024989060200160405180910390a15b565b61289280620000f46000396000f3fe608060405234801561001057600080fd5b506004361061010b5760003560e01c8063715018a6116100a25780639cc938e2116100715780639cc938e2146101f85780639f1bdb2014610218578063c4d66de814610237578063da7a37c01461024a578063f2fde38b1461025d57600080fd5b8063715018a6146101ba5780637d3193ad146101c25780638456cb59146101d55780638da5cb5b146101dd57600080fd5b80634e91f811116100de5780634e91f8111461016a57806352b8be841461017d57806353da6f01146101905780635c975abb146101a357600080fd5b8063087db5b8146101105780632f5ab9721461013957806334c47d791461014d5780633f4ba83a14610162575b600080fd5b61012361011e366004612120565b610270565b604051610130919061214c565b60405180910390f35b60c95460ff16604051908152602001610130565b61016061015b366004612182565b610383565b005b6101606105cd565b6101606101783660046121b7565b6105df565b61016061018b366004612292565b6105fd565b61016061019e366004612182565b6108aa565b60975460ff165b6040519015158152602001610130565b610160610e32565b6101606101d03660046122eb565b610e44565b6101606116f8565b6065546040516001600160a01b039091168152602001610130565b61020b610206366004612357565b611708565b6040516101309190612374565b60c9546102259060ff1681565b60405160ff9091168152602001610130565b610160610245366004612357565b611713565b6101aa610258366004612120565b611859565b61016061026b366004612357565b6119a2565b6040805160808101825260008082526020808301829052828401829052606083018290526001600160a01b038616825260cb81528382208583529052918220600201549091036102db5760405162461bcd60e51b81526004016102d2906123eb565b60405180910390fd5b6001600160a01b038316600090815260cb6020908152604080832085845290915290206003015460ff166103215760405162461bcd60e51b81526004016102d29061242c565b506001600160a01b03808316600090815260cb602090815260408083208584528252918290208251608081018452815481526001820154909416918401919091526002810154918301919091526003015460ff16151560608201525b92915050565b61038b611a1b565b600081116103ab5760405162461bcd60e51b81526004016102d290612463565b60c954604051639056a04b60e01b81526001600160a01b03858116600483015260009261010090041690639056a04b90602401606060405180830381865afa1580156103fb573d6000803e3d6000fd5b505050506040513d601f19601f8201168201806040525081019061041f91906124b6565b80516040516331a9108f60e11b8152600481018690529192509033906001600160a01b03831690636352211e90602401602060405180830381865afa15801561046c573d6000803e3d6000fd5b505050506040513d601f19601f820116820180604052508101906104909190612521565b6001600160a01b0316146104b65760405162461bcd60e51b81526004016102d29061253e565b604051633578778760e21b8152600481018590526001600160a01b0382169063d5e1de1c90602401602060405180830381865afa1580156104fb573d6000803e3d6000fd5b505050506040513d601f19601f8201168201806040525081019061051f9190612583565b1561056c5760405162461bcd60e51b815260206004820152601a60248201527f544d3a20796f7520686176652072657374206f66207969656c6400000000000060448201526064016102d2565b61057885853386611a74565b60408051858152602081018590526001600160a01b038716917fcc4e2c49e4691d84c728880220112cb4635c11200d1c91215e401744f6a597ee91015b60405180910390a250506105c860018055565b505050565b6105d5611b5c565b6105dd611bb6565b565b6105e7611b5c565b60c9805460ff191660ff92909216919091179055565b610605611a1b565b600082116106255760405162461bcd60e51b81526004016102d290612463565b60c954604051639056a04b60e01b81526001600160a01b03858116600483015260009261010090041690639056a04b90602401606060405180830381865afa158015610675573d6000803e3d6000fd5b505050506040513d601f19601f8201168201806040525081019061069991906124b6565b805190915060005b835181101561086e57336001600160a01b0316826001600160a01b0316636352211e8684815181106106d5576106d561259c565b60200260200101516040518263ffffffff1660e01b81526004016106fb91815260200190565b602060405180830381865afa158015610718573d6000803e3d6000fd5b505050506040513d601f19601f8201168201806040525081019061073c9190612521565b6001600160a01b0316146107625760405162461bcd60e51b81526004016102d29061253e565b816001600160a01b031663d5e1de1c8583815181106107835761078361259c565b60200260200101516040518263ffffffff1660e01b81526004016107a991815260200190565b602060405180830381865afa1580156107c6573d6000803e3d6000fd5b505050506040513d601f19601f820116820180604052508101906107ea9190612583565b156108375760405162461bcd60e51b815260206004820152601a60248201527f544d3a20796f7520686176652072657374206f66207969656c6400000000000060448201526064016102d2565b61085c8685838151811061084d5761084d61259c565b60200260200101513388611a74565b80610866816125c8565b9150506106a1565b50846001600160a01b03167fa0861f3051511f37f28b6bc5c97ecbad657444d11d913212e580015f3966db6e85856040516105b592919061261c565b6108b2611a1b565b600081116108f65760405162461bcd60e51b8152602060048201526011602482015270544d3a207072696365206973207a65726f60781b60448201526064016102d2565b60c954604051639056a04b60e01b81526001600160a01b03858116600483015260009261010090041690639056a04b90602401606060405180830381865afa158015610946573d6000803e3d6000fd5b505050506040513d601f19601f8201168201806040525081019061096a91906124b6565b6040516331a9108f60e11b81526004810185905290915084906000906001600160a01b03831690636352211e90602401602060405180830381865afa1580156109b7573d6000803e3d6000fd5b505050506040513d601f19601f820116820180604052508101906109db9190612521565b6001600160a01b03878116600090815260cb602090815260408083208a8452909152902060010154919250828116911614610a285760405162461bcd60e51b81526004016102d29061263d565b6001600160a01b038616600090815260cb6020908152604080832088845290915290206003015460ff16610a6e5760405162461bcd60e51b81526004016102d29061242c565b6001600160a01b038616600090815260cb602090815260408083208884529091529020600201548414610ade5760405162461bcd60e51b815260206004820152601860248201527715134e881c1c9a58d9481a5cc81b9bdd0818dbdc9c9958dd60421b60448201526064016102d2565b60208301516040516370a0823160e01b815233600482015285906001600160a01b038316906370a0823190602401602060405180830381865afa158015610b29573d6000803e3d6000fd5b505050506040513d601f19601f82011682018060405250810190610b4d9190612583565b1015610b9b5760405162461bcd60e51b815260206004820152601c60248201527f544d3a206e6f7420656e6f75676820746f6b656e2062616c616e63650000000060448201526064016102d2565b60c954600090610bb1906127109060ff16612684565b610bbf9061ffff16876126b3565b90506000610bcd82886126ca565b6001600160a01b038a8116600090815260cb602090815260408083208d8452909152908190206001015490516323b872dd60e01b8152929350818616926323b872dd92610c2392339291169086906004016126dd565b6020604051808303816000875af1158015610c42573d6000803e3d6000fd5b505050506040513d601f19601f82011682018060405250810190610c669190612701565b610c825760405162461bcd60e51b81526004016102d290612723565b826001600160a01b031663a9059cbb610ca36065546001600160a01b031690565b6040516001600160e01b031960e084901b1681526001600160a01b039091166004820152602481018590526044016020604051808303816000875af1158015610cf0573d6000803e3d6000fd5b505050506040513d601f19601f82011682018060405250810190610d149190612701565b610d305760405162461bcd60e51b81526004016102d290612770565b6001600160a01b03898116600090815260cb602090815260408083208c84529091528082206001810180546001600160a01b031916905560028101929092556003909101805460ff1916905551632142170760e11b8152908616906342842e0e90610da390879033908d906004016126dd565b600060405180830381600087803b158015610dbd57600080fd5b505af1158015610dd1573d6000803e3d6000fd5b50505050610ddf8989611c08565b60408051898152602081018990526001600160a01b038b16917f38bb180d23818aef357ad4b3806bac3fa13c3492c0ac9d1727381fb2422aaada910160405180910390a25050505050506105c860018055565b610e3a611b5c565b6105dd6000611d7d565b610e4c611a1b565b8051825114610eb15760405162461bcd60e51b815260206004820152602b60248201527f544d3a2070726963657320616e6420746f6b656e496473206c656e677468206960448201526a1cc81b9bdd08195c5d585b60aa1b60648201526084016102d2565b6000805b8351811015610f54576000848281518110610ed257610ed261259c565b602002602001015111610f1b5760405162461bcd60e51b8152602060048201526011602482015270544d3a207072696365206973207a65726f60781b60448201526064016102d2565b838181518110610f2d57610f2d61259c565b602002602001015182610f4091906127ba565b915080610f4c816125c8565b915050610eb5565b5060c954604051639056a04b60e01b81526001600160a01b03868116600483015260009261010090041690639056a04b90602401606060405180830381865afa158015610fa5573d6000803e3d6000fd5b505050506040513d601f19601f82011682018060405250810190610fc991906124b6565b60208101516040516370a0823160e01b8152336004820152919250869184906001600160a01b038316906370a0823190602401602060405180830381865afa158015611019573d6000803e3d6000fd5b505050506040513d601f19601f8201168201806040525081019061103d9190612583565b101561108b5760405162461bcd60e51b815260206004820152601c60248201527f544d3a206e6f7420656e6f75676820746f6b656e2062616c616e63650000000060448201526064016102d2565b60005b85518110156116a7576000836001600160a01b0316636352211e8884815181106110ba576110ba61259c565b60200260200101516040518263ffffffff1660e01b81526004016110e091815260200190565b602060405180830381865afa1580156110fd573d6000803e3d6000fd5b505050506040513d601f19601f820116820180604052508101906111219190612521565b6001600160a01b038a8116600090815260cb602052604081208a51939450918416928a90869081106111555761115561259c565b6020908102919091018101518252810191909152604001600020600101546001600160a01b0316146111995760405162461bcd60e51b81526004016102d29061263d565b6001600160a01b038916600090815260cb6020526040812088519091908990859081106111c8576111c861259c565b60209081029190910181015182528101919091526040016000206003015460ff166112055760405162461bcd60e51b81526004016102d29061242c565b8782815181106112175761121761259c565b602002602001015160cb60008b6001600160a01b03166001600160a01b0316815260200190815260200160002060008985815181106112585761125861259c565b6020026020010151815260200190815260200160002060020154146112ba5760405162461bcd60e51b815260206004820152601860248201527715134e881c1c9a58d9481a5cc81b9bdd0818dbdc9c9958dd60421b60448201526064016102d2565b60c9546000906112d0906127109060ff16612684565b61ffff168984815181106112e6576112e661259c565b60200260200101516112f891906126b3565b90506000818a858151811061130f5761130f61259c565b602002602001015161132191906126ca565b9050846001600160a01b031663a9059cbb6113446065546001600160a01b031690565b6040516001600160e01b031960e084901b1681526001600160a01b039091166004820152602481018590526044016020604051808303816000875af1158015611391573d6000803e3d6000fd5b505050506040513d601f19601f820116820180604052508101906113b59190612701565b6113d15760405162461bcd60e51b81526004016102d290612770565b846001600160a01b03166323b872dd3360cb60008f6001600160a01b03166001600160a01b0316815260200190815260200160002060008d898151811061141a5761141a61259c565b6020026020010151815260200190815260200160002060010160009054906101000a90046001600160a01b0316846040518463ffffffff1660e01b8152600401611466939291906126dd565b6020604051808303816000875af1158015611485573d6000803e3d6000fd5b505050506040513d601f19601f820116820180604052508101906114a99190612701565b6114c55760405162461bcd60e51b81526004016102d290612723565b6001600160a01b038b16600090815260cb602052604081208a5182908c90889081106114f3576114f361259c565b6020026020010151815260200190815260200160002060010160006101000a8154816001600160a01b0302191690836001600160a01b03160217905550600060cb60008d6001600160a01b03166001600160a01b0316815260200190815260200160002060008b878151811061156b5761156b61259c565b6020026020010151815260200190815260200160002060020181905550600060cb60008d6001600160a01b03166001600160a01b0316815260200190815260200160002060008b87815181106115c3576115c361259c565b6020026020010151815260200190815260200160002060030160006101000a81548160ff021916908315150217905550856001600160a01b03166342842e0e84338c88815181106116165761161661259c565b60200260200101516040518463ffffffff1660e01b815260040161163c939291906126dd565b600060405180830381600087803b15801561165657600080fd5b505af115801561166a573d6000803e3d6000fd5b505050506116918b8a86815181106116845761168461259c565b6020026020010151611c08565b505050808061169f906125c8565b91505061108e565b50866001600160a01b03167fa6108a3c7fb8ca74d8694ba0a6e3b846f84add7cd69a6b214c540259d1abf8ae87876040516116e39291906127cd565b60405180910390a2505050506105c860018055565b611700611b5c565b6105dd611dcf565b606061037d82611e0c565b600054610100900460ff16158080156117335750600054600160ff909116105b8061174d5750303b15801561174d575060005460ff166001145b6117b05760405162461bcd60e51b815260206004820152602e60248201527f496e697469616c697a61626c653a20636f6e747261637420697320616c72656160448201526d191e481a5b9a5d1a585b1a5e995960921b60648201526084016102d2565b6000805460ff1916600117905580156117d3576000805461ff0019166101001790555b60c980546001600160a01b038416610100026001600160a81b03199091161760641790556117ff611f65565b611807611f94565b61180f611fc3565b8015611855576000805461ff0019169055604051600181527f7f26b83ff96e1f2b6a682f133852f6798a09c465da95921460cefb38474024989060200160405180910390a15b5050565b6001600160a01b038216600090815260cb60209081526040808320848452909152812060020154810361189e5760405162461bcd60e51b81526004016102d2906123eb565b6040516331a9108f60e11b81526004810183905283906001600160a01b03821690636352211e90602401602060405180830381865afa1580156118e5573d6000803e3d6000fd5b505050506040513d601f19601f820116820180604052508101906119099190612521565b6001600160a01b03858116600090815260cb6020908152604080832088845290915290206001015481169116146119525760405162461bcd60e51b81526004016102d29061263d565b6001600160a01b038416600090815260cb6020908152604080832086845290915290206003015460ff166119985760405162461bcd60e51b81526004016102d29061242c565b5060019392505050565b6119aa611b5c565b6001600160a01b038116611a0f5760405162461bcd60e51b815260206004820152602660248201527f4f776e61626c653a206e6577206f776e657220697320746865207a65726f206160448201526564647265737360d01b60648201526084016102d2565b611a1881611d7d565b50565b600260015403611a6d5760405162461bcd60e51b815260206004820152601f60248201527f5265656e7472616e637947756172643a207265656e7472616e742063616c6c0060448201526064016102d2565b6002600155565b6001600160a01b038416600090815260cb6020908152604080832086845290915281206003015460ff1615159003611ad2576001600160a01b038416600090815260ca60209081526040822080546001810182559083529120018390555b604080516080810182528481526001600160a01b039384166020808301918252828401948552600160608401818152988716600090815260cb8352858120988152979091529290952090518155935190840180546001600160a01b031916919093161790915551600282015590516003909101805460ff1916911515919091179055565b60018055565b6065546001600160a01b031633146105dd5760405162461bcd60e51b815260206004820181905260248201527f4f776e61626c653a2063616c6c6572206973206e6f7420746865206f776e657260448201526064016102d2565b611bbe611ff2565b6097805460ff191690557f5db9ee0a495bf2e6ff9c91a7834c1ba4fdd244a5e8aa4e537bd38aeae4b073aa335b6040516001600160a01b03909116815260200160405180910390a1565b6001600160a01b038216600090815260ca60205260408120805490915b8254811015611c6b5783838281548110611c4157611c4161259c565b906000526020600020015403611c5957809150611c6b565b80611c63816125c8565b915050611c25565b5081548110611cbc5760405162461bcd60e51b815260206004820152601860248201527f544d3a20746f6b656e4964206973206e6f7420666f756e64000000000000000060448201526064016102d2565b81548290611ccc906001906126ca565b81548110611cdc57611cdc61259c565b9060005260206000200154828281548110611cf957611cf961259c565b906000526020600020018190555081805480611d1757611d176127fb565b6000828152602080822083016000199081018390559092019092556001600160a01b03909516815260cb8552604080822094825293909452505081208181556001810180546001600160a01b03191690556002810191909155600301805460ff19169055565b606580546001600160a01b038381166001600160a01b0319831681179093556040519116919082907f8be0079c531659141344cd1fd0a4f28419497f9722a3daafe3b4186f6b6457e090600090a35050565b611dd761203b565b6097805460ff191660011790557f62e78cea01bee320cd4e420270b5ea74000d11b0c9f74754ebdbfc544b05a258611beb3390565b6001600160a01b038116600090815260ca6020526040812080546060929067ffffffffffffffff811115611e4257611e426121e1565b604051908082528060200260200182016040528015611e9457816020015b604080516080810182526000808252602080830182905292820181905260608201528252600019909201910181611e605790505b50905060005b8254811015611f5d576001600160a01b038516600090815260cb602052604081208454909190859084908110611ed257611ed261259c565b60009182526020808320909101548352828101939093526040918201902081516080810183528154815260018201546001600160a01b0316938101939093526002810154918301919091526003015460ff16151560608201528251839083908110611f3f57611f3f61259c565b60200260200101819052508080611f55906125c8565b915050611e9a565b509392505050565b600054610100900460ff16611f8c5760405162461bcd60e51b81526004016102d290612811565b6105dd612081565b600054610100900460ff16611fbb5760405162461bcd60e51b81526004016102d290612811565b6105dd6120b4565b600054610100900460ff16611fea5760405162461bcd60e51b81526004016102d290612811565b6105dd6120e4565b60975460ff166105dd5760405162461bcd60e51b815260206004820152601460248201527314185d5cd8589b194e881b9bdd081c185d5cd95960621b60448201526064016102d2565b60975460ff16156105dd5760405162461bcd60e51b815260206004820152601060248201526f14185d5cd8589b194e881c185d5cd95960821b60448201526064016102d2565b600054610100900460ff166120a85760405162461bcd60e51b81526004016102d290612811565b6097805460ff19169055565b600054610100900460ff166120db5760405162461bcd60e51b81526004016102d290612811565b6105dd33611d7d565b600054610100900460ff16611b565760405162461bcd60e51b81526004016102d290612811565b6001600160a01b0381168114611a1857600080fd5b6000806040838503121561213357600080fd5b823561213e8161210b565b946020939093013593505050565b815181526020808301516001600160a01b031690820152604080830151908201526060808301511515908201526080810161037d565b60008060006060848603121561219757600080fd5b83356121a28161210b565b95602085013595506040909401359392505050565b6000602082840312156121c957600080fd5b813560ff811681146121da57600080fd5b9392505050565b634e487b7160e01b600052604160045260246000fd5b600082601f83011261220857600080fd5b8135602067ffffffffffffffff80831115612225576122256121e1565b8260051b604051601f19603f8301168101818110848211171561224a5761224a6121e1565b60405293845285810183019383810192508785111561226857600080fd5b83870191505b848210156122875781358352918301919083019061226e565b979650505050505050565b6000806000606084860312156122a757600080fd5b83356122b28161210b565b925060208401359150604084013567ffffffffffffffff8111156122d557600080fd5b6122e1868287016121f7565b9150509250925092565b60008060006060848603121561230057600080fd5b833561230b8161210b565b9250602084013567ffffffffffffffff8082111561232857600080fd5b612334878388016121f7565b9350604086013591508082111561234a57600080fd5b506122e1868287016121f7565b60006020828403121561236957600080fd5b81356121da8161210b565b6020808252825182820181905260009190848201906040850190845b818110156123df576123cc838551805182526020808201516001600160a01b031690830152604080820151908301526060908101511515910152565b9284019260809290920191600101612390565b50909695505050505050565b60208082526021908201527f544d3a2074686572652069736e6f742074686973204e465420666f722073616c6040820152606560f81b606082015260800190565b60208082526017908201527f544d3a204e4654206973206e6f7420666f722073616c65000000000000000000604082015260600190565b60208082526033908201527f544d3a206e66744164647265737320697320746865207a65726f2061646472656040820152727373206f72207072696365206973207a65726f60681b606082015260800190565b6000606082840312156124c857600080fd5b6040516060810181811067ffffffffffffffff821117156124eb576124eb6121e1565b60405282516124f98161210b565b815260208301516125098161210b565b60208201526040928301519281019290925250919050565b60006020828403121561253357600080fd5b81516121da8161210b565b60208082526025908201527f544d3a20796f7520617265206e6f7420746865206f776e6572206f66207468696040820152641cc813919560da1b606082015260800190565b60006020828403121561259557600080fd5b5051919050565b634e487b7160e01b600052603260045260246000fd5b634e487b7160e01b600052601160045260246000fd5b6000600182016125da576125da6125b2565b5060010190565b600081518084526020808501945080840160005b83811015612611578151875295820195908201906001016125f5565b509495945050505050565b82815260406020820152600061263560408301846125e1565b949350505050565b60208082526027908201527f544d3a2073656c6c6572206973206e6f7420746865206f776e6572206f6620746040820152661a1a5cc813919560ca1b606082015260800190565b600061ffff808416806126a757634e487b7160e01b600052601260045260246000fd5b92169190910492915050565b808202811582820484141761037d5761037d6125b2565b8181038181111561037d5761037d6125b2565b6001600160a01b039384168152919092166020820152604081019190915260600190565b60006020828403121561271357600080fd5b815180151581146121da57600080fd5b6020808252602d908201527f544d3a206661696c656420746f207472616e7366657220746f6b656e2072656e60408201526c1d081d1bc818dbdb9d1c9858dd609a1b606082015260800190565b6020808252602a908201527f544d3a206661696c656420746f207472616e7366657220746f6b656e2072656e6040820152693a103a379037bbb732b960b11b606082015260800190565b8082018082111561037d5761037d6125b2565b6040815260006127e060408301856125e1565b82810360208401526127f281856125e1565b95945050505050565b634e487b7160e01b600052603160045260246000fd5b6020808252602b908201527f496e697469616c697a61626c653a20636f6e7472616374206973206e6f74206960408201526a6e697469616c697a696e6760a81b60608201526080019056fea2646970667358221220e70dda716ac4c6ef400cb132000ae5d20a904c7fee1b1c1921cfddad13e7706964736f6c63430008110033",
  "linkReferences": {},
  "deployedLinkReferences": {}
}