{
  "_format": "hh-sol-artifact-1",
  "contractName": "TomaasProtocol",
  "sourceName": "contracts/TomaasProtocol.sol",
  "abi": [
    {
      "inputs": [],
      "stateMutability": "nonpayable",
      "type": "constructor"
    },
    {
      "anonymous": false,
      "inputs": [
        {
          "indexed": true,
          "internalType": "address",
          "name": "owner",
          "type": "address"
        },
        {
          "indexed": true,
          "internalType": "address",
          "name": "collection",
          "type": "address"
        },
        {
          "indexed": false,
          "internalType": "address",
          "name": "tokenAddress",
          "type": "address"
        }
      ],
      "name": "AddNewCollection",
      "type": "event"
    },
    {
      "anonymous": false,
      "inputs": [
        {
          "indexed": false,
          "internalType": "uint8",
          "name": "version",
          "type": "uint8"
        }
      ],
      "name": "Initialized",
      "type": "event"
    },
    {
      "anonymous": false,
      "inputs": [
        {
          "indexed": true,
          "internalType": "address",
          "name": "nftAddress",
          "type": "address"
        },
        {
          "indexed": false,
          "internalType": "uint256",
          "name": "tokenId",
          "type": "uint256"
        }
      ],
      "name": "NFTListed",
      "type": "event"
    },
    {
      "anonymous": false,
      "inputs": [
        {
          "indexed": true,
          "internalType": "address",
          "name": "nftAddress",
          "type": "address"
        },
        {
          "indexed": false,
          "internalType": "uint256",
          "name": "tokenId",
          "type": "uint256"
        }
      ],
      "name": "NFTUnlisted",
      "type": "event"
    },
    {
      "anonymous": false,
      "inputs": [
        {
          "indexed": true,
          "internalType": "address",
          "name": "nftAddress",
          "type": "address"
        },
        {
          "indexed": true,
          "internalType": "address",
          "name": "owner",
          "type": "address"
        }
      ],
      "name": "NFTsListed",
      "type": "event"
    },
    {
      "anonymous": false,
      "inputs": [
        {
          "indexed": true,
          "internalType": "address",
          "name": "nftAddress",
          "type": "address"
        },
        {
          "indexed": true,
          "internalType": "address",
          "name": "owner",
          "type": "address"
        }
      ],
      "name": "NFTsUnlisted",
      "type": "event"
    },
    {
      "anonymous": false,
      "inputs": [
        {
          "indexed": true,
          "internalType": "address",
          "name": "previousOwner",
          "type": "address"
        },
        {
          "indexed": true,
          "internalType": "address",
          "name": "newOwner",
          "type": "address"
        }
      ],
      "name": "OwnershipTransferred",
      "type": "event"
    },
    {
      "anonymous": false,
      "inputs": [
        {
          "indexed": false,
          "internalType": "address",
          "name": "account",
          "type": "address"
        }
      ],
      "name": "Paused",
      "type": "event"
    },
    {
      "anonymous": false,
      "inputs": [
        {
          "indexed": false,
          "internalType": "address",
          "name": "account",
          "type": "address"
        }
      ],
      "name": "Unpaused",
      "type": "event"
    },
    {
      "inputs": [
        {
          "internalType": "address",
          "name": "nftAddress",
          "type": "address"
        }
      ],
      "name": "addCollection",
      "outputs": [
        {
          "internalType": "uint16",
          "name": "",
          "type": "uint16"
        }
      ],
      "stateMutability": "nonpayable",
      "type": "function"
    },
    {
      "inputs": [
        {
          "internalType": "uint16",
          "name": "index",
          "type": "uint16"
        }
      ],
      "name": "getCollectionAt",
      "outputs": [
        {
          "components": [
            {
              "internalType": "contract TomaasRWN",
              "name": "tomaasRWN",
              "type": "address"
            },
            {
              "internalType": "contract IERC20Upgradeable",
              "name": "acceptedToken",
              "type": "address"
            }
          ],
          "internalType": "struct TomaasProtocol.CollectionInfo",
          "name": "",
          "type": "tuple"
        }
      ],
      "stateMutability": "view",
      "type": "function"
    },
    {
      "inputs": [
        {
          "internalType": "address",
          "name": "nftAddress",
          "type": "address"
        }
      ],
      "name": "getCollectionIndex",
      "outputs": [
        {
          "internalType": "uint16",
          "name": "",
          "type": "uint16"
        }
      ],
      "stateMutability": "view",
      "type": "function"
    },
    {
      "inputs": [
        {
          "internalType": "address",
          "name": "nftAddress",
          "type": "address"
        }
      ],
      "name": "getCollectionInfo",
      "outputs": [
        {
          "components": [
            {
              "internalType": "contract TomaasRWN",
              "name": "tomaasRWN",
              "type": "address"
            },
            {
              "internalType": "contract IERC20Upgradeable",
              "name": "acceptedToken",
              "type": "address"
            }
          ],
          "internalType": "struct TomaasProtocol.CollectionInfo",
          "name": "",
          "type": "tuple"
        }
      ],
      "stateMutability": "view",
      "type": "function"
    },
    {
      "inputs": [],
      "name": "getCollections",
      "outputs": [
        {
          "components": [
            {
              "internalType": "contract TomaasRWN",
              "name": "tomaasRWN",
              "type": "address"
            },
            {
              "internalType": "contract IERC20Upgradeable",
              "name": "acceptedToken",
              "type": "address"
            }
          ],
          "internalType": "struct TomaasProtocol.CollectionInfo[]",
          "name": "",
          "type": "tuple[]"
        }
      ],
      "stateMutability": "view",
      "type": "function"
    },
    {
      "inputs": [
        {
          "internalType": "address",
          "name": "nftAddress",
          "type": "address"
        }
      ],
      "name": "getCountOfNFTsListed",
      "outputs": [
        {
          "internalType": "uint256",
          "name": "",
          "type": "uint256"
        }
      ],
      "stateMutability": "view",
      "type": "function"
    },
    {
      "inputs": [
        {
          "internalType": "address",
          "name": "nftAddress",
          "type": "address"
        }
      ],
      "name": "getListingNFTs",
      "outputs": [
        {
          "internalType": "uint256[]",
          "name": "",
          "type": "uint256[]"
        }
      ],
      "stateMutability": "view",
      "type": "function"
    },
    {
      "inputs": [],
      "name": "initialize",
      "outputs": [],
      "stateMutability": "nonpayable",
      "type": "function"
    },
    {
      "inputs": [
        {
          "internalType": "address",
          "name": "nftAddress",
          "type": "address"
        },
        {
          "internalType": "uint256",
          "name": "tokenId",
          "type": "uint256"
        }
      ],
      "name": "isListedNFT",
      "outputs": [
        {
          "internalType": "bool",
          "name": "",
          "type": "bool"
        }
      ],
      "stateMutability": "view",
      "type": "function"
    },
    {
      "inputs": [
        {
          "internalType": "address",
          "name": "nftAddress",
          "type": "address"
        },
        {
          "internalType": "uint256",
          "name": "tokenId",
          "type": "uint256"
        }
      ],
      "name": "listingNFT",
      "outputs": [],
      "stateMutability": "nonpayable",
      "type": "function"
    },
    {
      "inputs": [
        {
          "internalType": "address",
          "name": "nftAddress",
          "type": "address"
        }
      ],
      "name": "listingNFTOwn",
      "outputs": [],
      "stateMutability": "nonpayable",
      "type": "function"
    },
    {
      "inputs": [],
      "name": "owner",
      "outputs": [
        {
          "internalType": "address",
          "name": "",
          "type": "address"
        }
      ],
      "stateMutability": "view",
      "type": "function"
    },
    {
      "inputs": [],
      "name": "pause",
      "outputs": [],
      "stateMutability": "nonpayable",
      "type": "function"
    },
    {
      "inputs": [],
      "name": "paused",
      "outputs": [
        {
          "internalType": "bool",
          "name": "",
          "type": "bool"
        }
      ],
      "stateMutability": "view",
      "type": "function"
    },
    {
      "inputs": [],
      "name": "renounceOwnership",
      "outputs": [],
      "stateMutability": "nonpayable",
      "type": "function"
    },
    {
      "inputs": [
        {
          "internalType": "address",
          "name": "nftAddress",
          "type": "address"
        },
        {
          "internalType": "uint64",
          "name": "expires",
          "type": "uint64"
        }
      ],
      "name": "rentAllNFTInCollection",
      "outputs": [],
      "stateMutability": "nonpayable",
      "type": "function"
    },
    {
      "inputs": [
        {
          "internalType": "address",
          "name": "nftAddress",
          "type": "address"
        },
        {
          "internalType": "uint256",
          "name": "tokenId",
          "type": "uint256"
        },
        {
          "internalType": "uint64",
          "name": "expires",
          "type": "uint64"
        }
      ],
      "name": "rentNFTInCollection",
      "outputs": [],
      "stateMutability": "nonpayable",
      "type": "function"
    },
    {
      "inputs": [
        {
          "internalType": "address",
          "name": "nftAddress",
          "type": "address"
        },
        {
          "internalType": "address",
          "name": "to",
          "type": "address"
        },
        {
          "internalType": "string",
          "name": "uri",
          "type": "string"
        }
      ],
      "name": "safeMintNFT",
      "outputs": [],
      "stateMutability": "nonpayable",
      "type": "function"
    },
    {
      "inputs": [
        {
          "internalType": "address",
          "name": "newOwner",
          "type": "address"
        }
      ],
      "name": "transferOwnership",
      "outputs": [],
      "stateMutability": "nonpayable",
      "type": "function"
    },
    {
      "inputs": [
        {
          "internalType": "address",
          "name": "nftAddress",
          "type": "address"
        },
        {
          "internalType": "uint256",
          "name": "tokenId",
          "type": "uint256"
        }
      ],
      "name": "unlistingNFT",
      "outputs": [],
      "stateMutability": "nonpayable",
      "type": "function"
    },
    {
      "inputs": [
        {
          "internalType": "address",
          "name": "nftAddress",
          "type": "address"
        }
      ],
      "name": "unlistingNFTOwn",
      "outputs": [],
      "stateMutability": "nonpayable",
      "type": "function"
    },
    {
      "inputs": [],
      "name": "unpause",
      "outputs": [],
      "stateMutability": "nonpayable",
      "type": "function"
    }
  ],
  "bytecode": "0x608060405234801561001057600080fd5b5061001961001e565b6100de565b600054610100900460ff161561008a5760405162461bcd60e51b815260206004820152602760248201527f496e697469616c697a61626c653a20636f6e747261637420697320696e697469604482015266616c697a696e6760c81b606482015260840160405180910390fd5b60005460ff90811610156100dc576000805460ff191660ff9081179091556040519081527f7f26b83ff96e1f2b6a682f133852f6798a09c465da95921460cefb38474024989060200160405180910390a15b565b61215180620000ee6000396000f3fe608060405234801561001057600080fd5b50600436106101425760003560e01c8063715018a6116100b85780638da5cb5b1161007c5780638da5cb5b146102975780639056a04b146102b25780639bb6085f146102c5578063a174e77a146102d8578063e435ea6b146102eb578063f2fde38b146102fe57600080fd5b8063715018a6146102465780637479b43a1461024e5780638129fc1c1461027457806382ca11531461027c5780638456cb591461028f57600080fd5b80633f4ba83a1161010a5780633f4ba83a146101bb5780634690a8b1146101c357806346e63586146101e65780635c975abb146101fb57806362f5870e146102065780636b0ed5441461022657600080fd5b80630e23968a146101475780631cedb26f1461016d5780632881153a1461018257806332596c9b1461019557806339208177146101a8575b600080fd5b61015a610155366004611c4e565b610311565b6040519081526020015b60405180910390f35b61018061017b366004611c4e565b610368565b005b610180610190366004611c81565b610521565b6101806101a3366004611d6f565b6105a9565b6101806101b6366004611dad565b610652565b6101806108b9565b6101d66101d1366004611dad565b6108cb565b6040519015158152602001610164565b6101ee6108f4565b6040516101649190611dd9565b60975460ff166101d6565b610219610214366004611e3c565b6109e7565b6040516101649190611e60565b610239610234366004611c4e565b610a80565b6040516101649190611e84565b610180610b8f565b61026161025c366004611c4e565b610ba1565b60405161ffff9091168152602001610164565b610180610c80565b61018061028a366004611ec8565b610d99565b610180611011565b6065546040516001600160a01b039091168152602001610164565b6102196102c0366004611c4e565b611021565b6101806102d3366004611c4e565b6110ca565b6102616102e6366004611c4e565b611345565b6101806102f9366004611dad565b61151c565b61018061030c366004611c4e565b61165b565b600061031c826116d1565b6103415760405162461bcd60e51b815260040161033890611efd565b60405180910390fd5b6001600160a01b038216600090815260cb60205260409020610362906117a3565b92915050565b600061037382610ba1565b61ffff8116600090815260c9602090815260408083205481516318160ddd60e01b8152915194955092936001600160a01b03909316926318160ddd926004808401939192918290030181865afa1580156103d1573d6000803e3d6000fd5b505050506040513d601f19601f820116820180604052508101906103f59190611f24565b9050600081116104175760405162461bcd60e51b815260040161033890611f3d565b60005b818110156104e55761ffff8316600090815260c96020526040908190205490516331a9108f60e11b81526004810183905233916001600160a01b031690636352211e90602401602060405180830381865afa15801561047d573d6000803e3d6000fd5b505050506040513d601f19601f820116820180604052508101906104a19190611f62565b6001600160a01b0316036104d3576001600160a01b038416600090815260cb602052604090206104d190826117ad565b505b806104dd81611f95565b91505061041a565b5060405133906001600160a01b038516907f03e24eee7b5830b2958546585dd678cae28f234eee1044c82c713051313f201f90600090a3505050565b600061052c84610ba1565b61ffff8116600090815260c9602052604090819020549051636902622f60e11b81529192506001600160a01b03169063d204c45e906105719086908690600401611fae565b600060405180830381600087803b15801561058b57600080fd5b505af115801561059f573d6000803e3d6000fd5b5050505050505050565b6105b16117b9565b60006105bc84610ba1565b61ffff8116600090815260c96020526040908190205490516370182b2f60e11b81526004810186905233602482015267ffffffffffffffff851660448201529192506001600160a01b03169063e030565e90606401600060405180830381600087803b15801561062b57600080fd5b505af115801561063f573d6000803e3d6000fd5b505050505061064d60018055565b505050565b600061065d83610ba1565b61ffff8116600090815260c96020526040908190205490516331a9108f60e11b8152600481018590529192506001600160a01b03169033908290636352211e90602401602060405180830381865afa1580156106bd573d6000803e3d6000fd5b505050506040513d601f19601f820116820180604052508101906106e19190611f62565b6001600160a01b0316146107265760405162461bcd60e51b815260206004820152600c60248201526b26281d103737ba27bbb732b960a11b6044820152606401610338565b60405163020604bf60e21b81526004810184905230906001600160a01b0383169063081812fc90602401602060405180830381865afa15801561076d573d6000803e3d6000fd5b505050506040513d601f19601f820116820180604052508101906107919190611f62565b6001600160a01b0316148061080f575060405163e985e9c560e01b81523360048201523060248201526001600160a01b0382169063e985e9c590604401602060405180830381865afa1580156107eb573d6000803e3d6000fd5b505050506040513d601f19601f8201168201806040525081019061080f919061200c565b61084d5760405162461bcd60e51b815260206004820152600f60248201526e13140e881b9bdd105c1c1c9bdd9959608a1b6044820152606401610338565b6001600160a01b038416600090815260cb6020526040902061086f9084611812565b50836001600160a01b03167ff472bb8b2e698cee5cf56e4982e2ebb6690f88b55ea3a02d609bf32bcded3822846040516108ab91815260200190565b60405180910390a250505050565b6108c161181e565b6108c9611878565b565b6001600160a01b038216600090815260cb602052604081206108ed90836118ca565b9392505050565b60ca5460609060009061ffff1667ffffffffffffffff81111561091957610919611c6b565b60405190808252806020026020018201604052801561095e57816020015b60408051808201909152600080825260208201528152602001906001900390816109375790505b50905060005b60ca5461ffff90811690821610156109e15761ffff8116600081815260c96020908152604091829020825180840190935280546001600160a01b039081168452600190910154169082015283519091849181106109c3576109c361202e565b602002602001018190525080806109d990612044565b915050610964565b50919050565b604080518082019091526000808252602082015260ca5461ffff90811690831610610a445760405162461bcd60e51b815260206004820152600d60248201526c26281d1037baba27b32137bab760991b6044820152606401610338565b5061ffff16600090815260c96020908152604091829020825180840190935280546001600160a01b039081168452600190910154169082015290565b6060610a8b826116d1565b610aa75760405162461bcd60e51b815260040161033890611efd565b6001600160a01b038216600090815260cb60205260408120610ac8906117a3565b67ffffffffffffffff811115610ae057610ae0611c6b565b604051908082528060200260200182016040528015610b09578160200160208202803683370190505b50905060005b6001600160a01b038416600090815260cb60205260409020610b30906117a3565b811015610b88576001600160a01b038416600090815260cb60205260409020610b5990826118e2565b828281518110610b6b57610b6b61202e565b602090810291909101015280610b8081611f95565b915050610b0f565b5092915050565b610b9761181e565b6108c960006118ee565b60006001600160a01b038216610bc95760405162461bcd60e51b815260040161033890612065565b60ca5461ffff16600003610c145760405162461bcd60e51b81526020600482015260126024820152714c503a206e6f20636f6c6c656374696f6e7360701b6044820152606401610338565b60005b60ca5461ffff9081169082161015610c675761ffff8116600090815260c960205260409020546001600160a01b03808516911603610c555792915050565b80610c5f81612044565b915050610c17565b5060405162461bcd60e51b815260040161033890611efd565b600054610100900460ff1615808015610ca05750600054600160ff909116105b80610cba5750303b158015610cba575060005460ff166001145b610d1d5760405162461bcd60e51b815260206004820152602e60248201527f496e697469616c697a61626c653a20636f6e747261637420697320616c72656160448201526d191e481a5b9a5d1a585b1a5e995960921b6064820152608401610338565b6000805460ff191660011790558015610d40576000805461ff0019166101001790555b610d48611940565b610d5061196f565b8015610d96576000805461ff0019169055604051600181527f7f26b83ff96e1f2b6a682f133852f6798a09c465da95921460cefb38474024989060200160405180910390a15b50565b610da16117b9565b6001600160a01b038216610dc75760405162461bcd60e51b815260040161033890612065565b6000610dd283610ba1565b61ffff8116600090815260c9602090815260408083205481516318160ddd60e01b8152915194955092936001600160a01b03909316926318160ddd926004808401939192918290030181865afa158015610e30573d6000803e3d6000fd5b505050506040513d601f19601f82011682018060405250810190610e549190611f24565b905060008111610e765760405162461bcd60e51b815260040161033890611f3d565b60005b81811015610f5c5761ffff8316600090815260c96020526040808220549051636178f8a560e11b8152600481018490526001600160a01b039091169063c2f1f14a90602401602060405180830381865afa158015610edb573d6000803e3d6000fd5b505050506040513d601f19601f82011682018060405250810190610eff9190611f62565b6001600160a01b031614610f4a5760405162461bcd60e51b81526020600482015260126024820152714c503a2069734e6f74417661696c61626c6560701b6044820152606401610338565b80610f5481611f95565b915050610e79565b5060005b818110156110015761ffff8316600090815260c96020526040908190205490516370182b2f60e11b81526004810183905233602482015267ffffffffffffffff861660448201526001600160a01b039091169063e030565e90606401600060405180830381600087803b158015610fd657600080fd5b505af1158015610fea573d6000803e3d6000fd5b505050508080610ff990611f95565b915050610f60565b50505061100d60018055565b5050565b61101961181e565b6108c961199e565b6040805180820190915260008082526020820152600061104083610ba1565b60ca5490915061ffff9081169082161061108c5760405162461bcd60e51b815260206004820152600d60248201526c26281d1037baba27b32137bab760991b6044820152606401610338565b61ffff16600090815260c96020908152604091829020825180840190935280546001600160a01b039081168452600190910154169082015292915050565b60006110d582610ba1565b61ffff8116600090815260c9602090815260408083205481516318160ddd60e01b8152915194955092936001600160a01b03909316926318160ddd926004808401939192918290030181865afa158015611133573d6000803e3d6000fd5b505050506040513d601f19601f820116820180604052508101906111579190611f24565b9050600081116111795760405162461bcd60e51b815260040161033890611f3d565b61ffff8216600090815260c960205260409081902054905163e985e9c560e01b81523360048201523060248201526001600160a01b039091169063e985e9c590604401602060405180830381865afa1580156111d9573d6000803e3d6000fd5b505050506040513d601f19601f820116820180604052508101906111fd919061200c565b61123b5760405162461bcd60e51b815260206004820152600f60248201526e13140e881b9bdd105c1c1c9bdd9959608a1b6044820152606401610338565b60005b818110156113095761ffff8316600090815260c96020526040908190205490516331a9108f60e11b81526004810183905233916001600160a01b031690636352211e90602401602060405180830381865afa1580156112a1573d6000803e3d6000fd5b505050506040513d601f19601f820116820180604052508101906112c59190611f62565b6001600160a01b0316036112f7576001600160a01b038416600090815260cb602052604090206112f59082611812565b505b8061130181611f95565b91505061123e565b5060405133906001600160a01b038516907f7faef2df1074db3e12877b650931359f98ed5540057b176fb2cc6693c491855f90600090a3505050565b600061134f61181e565b6113576117b9565b6001600160a01b03821661139e5760405162461bcd60e51b815260206004820152600e60248201526d04c503a204e465420416464723d360941b6044820152606401610338565b60008290506000816001600160a01b031663a18f4ba06040518163ffffffff1660e01b8152600401602060405180830381865afa1580156113e3573d6000803e3d6000fd5b505050506040513d601f19601f820116820180604052508101906114079190611f62565b6040805180820182526001600160a01b038086168252808416602080840191825260ca805461ffff908116600090815260c9909352958220945185549085166001600160a01b031991821617865592516001959095018054959094169490921693909317909155805493945092909116919061148283612044565b91906101000a81548161ffff021916908361ffff16021790555050836001600160a01b0316336001600160a01b03167fc0eaa77d23bad681f543429405fe5403efaea95996bf31d3e6c864575cf361c2836040516114ef91906001600160a01b0391909116815260200190565b60405180910390a360ca5461150a9060019061ffff1661208c565b9250505061151760018055565b919050565b600061152783610ba1565b61ffff8116600090815260c96020526040908190205490516331a9108f60e11b81526004810185905291925033916001600160a01b0390911690636352211e90602401602060405180830381865afa158015611587573d6000803e3d6000fd5b505050506040513d601f19601f820116820180604052508101906115ab9190611f62565b6001600160a01b0316146115f05760405162461bcd60e51b815260206004820152600c60248201526b26281d103737ba27bbb732b960a11b6044820152606401610338565b6001600160a01b038316600090815260cb6020526040902061161290836117ad565b50826001600160a01b03167f8a7922f72dc2a50a632acdde12b7d222aefa2fdb7f3ca1364b419734569d0e808360405161164e91815260200190565b60405180910390a2505050565b61166361181e565b6001600160a01b0381166116c85760405162461bcd60e51b815260206004820152602660248201527f4f776e61626c653a206e6577206f776e657220697320746865207a65726f206160448201526564647265737360d01b6064820152608401610338565b610d96816118ee565b60006001600160a01b0382166116f95760405162461bcd60e51b815260040161033890612065565b60ca5461ffff166000036117445760405162461bcd60e51b81526020600482015260126024820152714c503a206e6f20636f6c6c656374696f6e7360701b6044820152606401610338565b60005b60ca5461ffff908116908216101561179a5761ffff8116600090815260c960205260409020546001600160a01b038085169116036117885750600192915050565b8061179281612044565b915050611747565b50600092915050565b6000610362825490565b60006108ed83836119db565b60026001540361180b5760405162461bcd60e51b815260206004820152601f60248201527f5265656e7472616e637947756172643a207265656e7472616e742063616c6c006044820152606401610338565b6002600155565b60006108ed8383611ace565b6065546001600160a01b031633146108c95760405162461bcd60e51b815260206004820181905260248201527f4f776e61626c653a2063616c6c6572206973206e6f7420746865206f776e65726044820152606401610338565b611880611b1d565b6097805460ff191690557f5db9ee0a495bf2e6ff9c91a7834c1ba4fdd244a5e8aa4e537bd38aeae4b073aa335b6040516001600160a01b03909116815260200160405180910390a1565b600081815260018301602052604081205415156108ed565b60006108ed8383611b66565b606580546001600160a01b038381166001600160a01b0319831681179093556040519116919082907f8be0079c531659141344cd1fd0a4f28419497f9722a3daafe3b4186f6b6457e090600090a35050565b600054610100900460ff166119675760405162461bcd60e51b8152600401610338906120a7565b6108c9611b90565b600054610100900460ff166119965760405162461bcd60e51b8152600401610338906120a7565b6108c9611bc3565b6119a6611bf3565b6097805460ff191660011790557f62e78cea01bee320cd4e420270b5ea74000d11b0c9f74754ebdbfc544b05a2586118ad3390565b60008181526001830160205260408120548015611ac45760006119ff6001836120f2565b8554909150600090611a13906001906120f2565b9050818114611a78576000866000018281548110611a3357611a3361202e565b9060005260206000200154905080876000018481548110611a5657611a5661202e565b6000918252602080832090910192909255918252600188019052604090208390555b8554869080611a8957611a89612105565b600190038181906000526020600020016000905590558560010160008681526020019081526020016000206000905560019350505050610362565b6000915050610362565b6000818152600183016020526040812054611b1557508154600181810184556000848152602080822090930184905584548482528286019093526040902091909155610362565b506000610362565b60975460ff166108c95760405162461bcd60e51b815260206004820152601460248201527314185d5cd8589b194e881b9bdd081c185d5cd95960621b6044820152606401610338565b6000826000018281548110611b7d57611b7d61202e565b9060005260206000200154905092915050565b600054610100900460ff16611bb75760405162461bcd60e51b8152600401610338906120a7565b6097805460ff19169055565b600054610100900460ff16611bea5760405162461bcd60e51b8152600401610338906120a7565b6108c9336118ee565b60975460ff16156108c95760405162461bcd60e51b815260206004820152601060248201526f14185d5cd8589b194e881c185d5cd95960821b6044820152606401610338565b6001600160a01b0381168114610d9657600080fd5b600060208284031215611c6057600080fd5b81356108ed81611c39565b634e487b7160e01b600052604160045260246000fd5b600080600060608486031215611c9657600080fd5b8335611ca181611c39565b92506020840135611cb181611c39565b9150604084013567ffffffffffffffff80821115611cce57600080fd5b818601915086601f830112611ce257600080fd5b813581811115611cf457611cf4611c6b565b604051601f8201601f19908116603f01168101908382118183101715611d1c57611d1c611c6b565b81604052828152896020848701011115611d3557600080fd5b8260208601602083013760006020848301015280955050505050509250925092565b803567ffffffffffffffff8116811461151757600080fd5b600080600060608486031215611d8457600080fd5b8335611d8f81611c39565b925060208401359150611da460408501611d57565b90509250925092565b60008060408385031215611dc057600080fd5b8235611dcb81611c39565b946020939093013593505050565b602080825282518282018190526000919060409081850190868401855b82811015611e2f57611e1f84835180516001600160a01b03908116835260209182015116910152565b9284019290850190600101611df6565b5091979650505050505050565b600060208284031215611e4e57600080fd5b813561ffff811681146108ed57600080fd5b60408101610362828480516001600160a01b03908116835260209182015116910152565b6020808252825182820181905260009190848201906040850190845b81811015611ebc57835183529284019291840191600101611ea0565b50909695505050505050565b60008060408385031215611edb57600080fd5b8235611ee681611c39565b9150611ef460208401611d57565b90509250929050565b6020808252600d908201526c13140e881b9bdd08199bdd5b99609a1b604082015260600190565b600060208284031215611f3657600080fd5b5051919050565b6020808252600b908201526a4c503a206e6f204e46547360a81b604082015260600190565b600060208284031215611f7457600080fd5b81516108ed81611c39565b634e487b7160e01b600052601160045260246000fd5b600060018201611fa757611fa7611f7f565b5060010190565b60018060a01b038316815260006020604081840152835180604085015260005b81811015611fea57858101830151858201606001528201611fce565b506000606082860101526060601f19601f830116850101925050509392505050565b60006020828403121561201e57600080fd5b815180151581146108ed57600080fd5b634e487b7160e01b600052603260045260246000fd5b600061ffff80831681810361205b5761205b611f7f565b6001019392505050565b6020808252600d908201526c04c503a206e6674416464723d3609c1b604082015260600190565b61ffff828116828216039080821115610b8857610b88611f7f565b6020808252602b908201527f496e697469616c697a61626c653a20636f6e7472616374206973206e6f74206960408201526a6e697469616c697a696e6760a81b606082015260800190565b8181038181111561036257610362611f7f565b634e487b7160e01b600052603160045260246000fdfea2646970667358221220d6bbc5aca9cda443c35c1c0955b1046b433a4c3e98d186cce9e389f1d258209264736f6c63430008110033",
  "linkReferences": {},
  "deployedLinkReferences": {}
}