{
  "_format": "hh-sol-artifact-1",
  "contractName": "TomaasRWN",
  "sourceName": "contracts/TomaasRWN.sol",
  "abi": [
    {
      "inputs": [],
      "stateMutability": "nonpayable",
      "type": "constructor"
    },
    {
      "anonymous": false,
      "inputs": [
        {
          "indexed": true,
          "internalType": "address",
          "name": "owner",
          "type": "address"
        },
        {
          "indexed": true,
          "internalType": "address",
          "name": "approved",
          "type": "address"
        },
        {
          "indexed": true,
          "internalType": "uint256",
          "name": "tokenId",
          "type": "uint256"
        }
      ],
      "name": "Approval",
      "type": "event"
    },
    {
      "anonymous": false,
      "inputs": [
        {
          "indexed": true,
          "internalType": "address",
          "name": "owner",
          "type": "address"
        },
        {
          "indexed": true,
          "internalType": "address",
          "name": "operator",
          "type": "address"
        },
        {
          "indexed": false,
          "internalType": "bool",
          "name": "approved",
          "type": "bool"
        }
      ],
      "name": "ApprovalForAll",
      "type": "event"
    },
    {
      "anonymous": false,
      "inputs": [
        {
          "indexed": true,
          "internalType": "address",
          "name": "owner",
          "type": "address"
        },
        {
          "indexed": false,
          "internalType": "uint256",
          "name": "tokenId",
          "type": "uint256"
        },
        {
          "indexed": false,
          "internalType": "uint256",
          "name": "amount",
          "type": "uint256"
        }
      ],
      "name": "ClaimEarnings",
      "type": "event"
    },
    {
      "anonymous": false,
      "inputs": [
        {
          "indexed": true,
          "internalType": "address",
          "name": "owner",
          "type": "address"
        },
        {
          "indexed": false,
          "internalType": "uint256",
          "name": "count",
          "type": "uint256"
        },
        {
          "indexed": false,
          "internalType": "uint256",
          "name": "amount",
          "type": "uint256"
        }
      ],
      "name": "ClaimEarningsAllRented",
      "type": "event"
    },
    {
      "anonymous": false,
      "inputs": [
        {
          "indexed": true,
          "internalType": "address",
          "name": "owner",
          "type": "address"
        },
        {
          "indexed": false,
          "internalType": "uint256[]",
          "name": "tokenIds",
          "type": "uint256[]"
        },
        {
          "indexed": false,
          "internalType": "uint256",
          "name": "amount",
          "type": "uint256"
        }
      ],
      "name": "ClaimEarningsMultiple",
      "type": "event"
    },
    {
      "anonymous": false,
      "inputs": [
        {
          "indexed": false,
          "internalType": "uint8",
          "name": "version",
          "type": "uint8"
        }
      ],
      "name": "Initialized",
      "type": "event"
    },
    {
      "anonymous": false,
      "inputs": [
        {
          "indexed": false,
          "internalType": "string",
          "name": "name",
          "type": "string"
        },
        {
          "indexed": false,
          "internalType": "address",
          "name": "acceptedToken",
          "type": "address"
        },
        {
          "indexed": false,
          "internalType": "uint256",
          "name": "svcStartDate",
          "type": "uint256"
        },
        {
          "indexed": false,
          "internalType": "uint64",
          "name": "usefulLife",
          "type": "uint64"
        },
        {
          "indexed": false,
          "internalType": "uint256",
          "name": "price",
          "type": "uint256"
        }
      ],
      "name": "NewTRN",
      "type": "event"
    },
    {
      "anonymous": false,
      "inputs": [
        {
          "indexed": true,
          "internalType": "address",
          "name": "previousOwner",
          "type": "address"
        },
        {
          "indexed": true,
          "internalType": "address",
          "name": "newOwner",
          "type": "address"
        }
      ],
      "name": "OwnershipTransferred",
      "type": "event"
    },
    {
      "anonymous": false,
      "inputs": [
        {
          "indexed": false,
          "internalType": "address",
          "name": "account",
          "type": "address"
        }
      ],
      "name": "Paused",
      "type": "event"
    },
    {
      "anonymous": false,
      "inputs": [
        {
          "indexed": true,
          "internalType": "address",
          "name": "renter",
          "type": "address"
        },
        {
          "indexed": false,
          "internalType": "uint256",
          "name": "tokenId",
          "type": "uint256"
        },
        {
          "indexed": false,
          "internalType": "uint256",
          "name": "amount",
          "type": "uint256"
        },
        {
          "indexed": false,
          "internalType": "string",
          "name": "reportUri",
          "type": "string"
        }
      ],
      "name": "PayOutEarnings",
      "type": "event"
    },
    {
      "anonymous": false,
      "inputs": [
        {
          "indexed": true,
          "internalType": "address",
          "name": "renter",
          "type": "address"
        },
        {
          "indexed": false,
          "internalType": "uint256",
          "name": "amount",
          "type": "uint256"
        },
        {
          "indexed": false,
          "internalType": "string",
          "name": "reportUri",
          "type": "string"
        }
      ],
      "name": "PayOutEarningsAllRented",
      "type": "event"
    },
    {
      "anonymous": false,
      "inputs": [
        {
          "indexed": true,
          "internalType": "address",
          "name": "renter",
          "type": "address"
        },
        {
          "indexed": false,
          "internalType": "uint256[]",
          "name": "tokenIds",
          "type": "uint256[]"
        },
        {
          "indexed": false,
          "internalType": "uint256",
          "name": "amount",
          "type": "uint256"
        },
        {
          "indexed": false,
          "internalType": "string",
          "name": "reportUri",
          "type": "string"
        }
      ],
      "name": "PayOutEarningsMultiple",
      "type": "event"
    },
    {
      "anonymous": false,
      "inputs": [
        {
          "indexed": true,
          "internalType": "address",
          "name": "from",
          "type": "address"
        },
        {
          "indexed": true,
          "internalType": "address",
          "name": "to",
          "type": "address"
        },
        {
          "indexed": true,
          "internalType": "uint256",
          "name": "tokenId",
          "type": "uint256"
        }
      ],
      "name": "Transfer",
      "type": "event"
    },
    {
      "anonymous": false,
      "inputs": [
        {
          "indexed": false,
          "internalType": "address",
          "name": "account",
          "type": "address"
        }
      ],
      "name": "Unpaused",
      "type": "event"
    },
    {
      "anonymous": false,
      "inputs": [
        {
          "indexed": true,
          "internalType": "uint256",
          "name": "tokenId",
          "type": "uint256"
        },
        {
          "indexed": true,
          "internalType": "address",
          "name": "user",
          "type": "address"
        },
        {
          "indexed": false,
          "internalType": "uint64",
          "name": "expires",
          "type": "uint64"
        }
      ],
      "name": "UpdateUser",
      "type": "event"
    },
    {
      "anonymous": false,
      "inputs": [
        {
          "indexed": true,
          "internalType": "address",
          "name": "user",
          "type": "address"
        },
        {
          "indexed": false,
          "internalType": "uint64",
          "name": "expires",
          "type": "uint64"
        },
        {
          "indexed": false,
          "internalType": "uint256[]",
          "name": "tokenIds",
          "type": "uint256[]"
        }
      ],
      "name": "UpdateUsers",
      "type": "event"
    },
    {
      "inputs": [
        {
          "internalType": "address",
          "name": "to",
          "type": "address"
        },
        {
          "internalType": "uint256",
          "name": "tokenId",
          "type": "uint256"
        }
      ],
      "name": "approve",
      "outputs": [],
      "stateMutability": "nonpayable",
      "type": "function"
    },
    {
      "inputs": [
        {
          "internalType": "address",
          "name": "owner",
          "type": "address"
        }
      ],
      "name": "balanceOf",
      "outputs": [
        {
          "internalType": "uint256",
          "name": "",
          "type": "uint256"
        }
      ],
      "stateMutability": "view",
      "type": "function"
    },
    {
      "inputs": [
        {
          "internalType": "uint256",
          "name": "tokenId",
          "type": "uint256"
        }
      ],
      "name": "claimEarnings",
      "outputs": [],
      "stateMutability": "nonpayable",
      "type": "function"
    },
    {
      "inputs": [],
      "name": "claimEarningsAllRented",
      "outputs": [
        {
          "internalType": "uint256",
          "name": "",
          "type": "uint256"
        }
      ],
      "stateMutability": "nonpayable",
      "type": "function"
    },
    {
      "inputs": [],
      "name": "countOfRented",
      "outputs": [
        {
          "internalType": "uint256",
          "name": "",
          "type": "uint256"
        }
      ],
      "stateMutability": "view",
      "type": "function"
    },
    {
      "inputs": [],
      "name": "getAcceptedToken",
      "outputs": [
        {
          "internalType": "address",
          "name": "",
          "type": "address"
        }
      ],
      "stateMutability": "view",
      "type": "function"
    },
    {
      "inputs": [
        {
          "internalType": "uint256",
          "name": "tokenId",
          "type": "uint256"
        }
      ],
      "name": "getApproved",
      "outputs": [
        {
          "internalType": "address",
          "name": "",
          "type": "address"
        }
      ],
      "stateMutability": "view",
      "type": "function"
    },
    {
      "inputs": [],
      "name": "getBookValue",
      "outputs": [
        {
          "internalType": "uint256",
          "name": "",
          "type": "uint256"
        }
      ],
      "stateMutability": "view",
      "type": "function"
    },
    {
      "inputs": [],
      "name": "getFeeRate",
      "outputs": [
        {
          "internalType": "uint256",
          "name": "",
          "type": "uint256"
        }
      ],
      "stateMutability": "view",
      "type": "function"
    },
    {
      "inputs": [
        {
          "internalType": "address",
          "name": "renter",
          "type": "address"
        }
      ],
      "name": "getRentedList",
      "outputs": [
        {
          "internalType": "uint256[]",
          "name": "",
          "type": "uint256[]"
        }
      ],
      "stateMutability": "view",
      "type": "function"
    },
    {
      "inputs": [
        {
          "internalType": "string",
          "name": "_name",
          "type": "string"
        },
        {
          "internalType": "address",
          "name": "acceptedToken",
          "type": "address"
        },
        {
          "internalType": "uint256",
          "name": "svcStartDate",
          "type": "uint256"
        },
        {
          "internalType": "uint64",
          "name": "usefulLife",
          "type": "uint64"
        },
        {
          "internalType": "uint256",
          "name": "price",
          "type": "uint256"
        }
      ],
      "name": "initialize",
      "outputs": [],
      "stateMutability": "nonpayable",
      "type": "function"
    },
    {
      "inputs": [
        {
          "internalType": "address",
          "name": "owner",
          "type": "address"
        },
        {
          "internalType": "address",
          "name": "operator",
          "type": "address"
        }
      ],
      "name": "isApprovedForAll",
      "outputs": [
        {
          "internalType": "bool",
          "name": "",
          "type": "bool"
        }
      ],
      "stateMutability": "view",
      "type": "function"
    },
    {
      "inputs": [],
      "name": "name",
      "outputs": [
        {
          "internalType": "string",
          "name": "",
          "type": "string"
        }
      ],
      "stateMutability": "view",
      "type": "function"
    },
    {
      "inputs": [],
      "name": "owner",
      "outputs": [
        {
          "internalType": "address",
          "name": "",
          "type": "address"
        }
      ],
      "stateMutability": "view",
      "type": "function"
    },
    {
      "inputs": [
        {
          "internalType": "uint256",
          "name": "tokenId",
          "type": "uint256"
        }
      ],
      "name": "ownerOf",
      "outputs": [
        {
          "internalType": "address",
          "name": "",
          "type": "address"
        }
      ],
      "stateMutability": "view",
      "type": "function"
    },
    {
      "inputs": [],
      "name": "pause",
      "outputs": [],
      "stateMutability": "nonpayable",
      "type": "function"
    },
    {
      "inputs": [],
      "name": "paused",
      "outputs": [
        {
          "internalType": "bool",
          "name": "",
          "type": "bool"
        }
      ],
      "stateMutability": "view",
      "type": "function"
    },
    {
      "inputs": [
        {
          "internalType": "uint256",
          "name": "tokenId",
          "type": "uint256"
        },
        {
          "internalType": "uint256",
          "name": "amount",
          "type": "uint256"
        },
        {
          "internalType": "string",
          "name": "reportUri",
          "type": "string"
        }
      ],
      "name": "payOutEarnings",
      "outputs": [],
      "stateMutability": "nonpayable",
      "type": "function"
    },
    {
      "inputs": [
        {
          "internalType": "uint256",
          "name": "amount",
          "type": "uint256"
        },
        {
          "internalType": "string",
          "name": "reportUri",
          "type": "string"
        }
      ],
      "name": "payOutEarningsAllRented",
      "outputs": [],
      "stateMutability": "nonpayable",
      "type": "function"
    },
    {
      "inputs": [
        {
          "internalType": "uint256",
          "name": "amount",
          "type": "uint256"
        },
        {
          "internalType": "uint256[]",
          "name": "tokenIds",
          "type": "uint256[]"
        },
        {
          "internalType": "string",
          "name": "reportUri",
          "type": "string"
        }
      ],
      "name": "payOutEarningsMultiple",
      "outputs": [],
      "stateMutability": "nonpayable",
      "type": "function"
    },
    {
      "inputs": [],
      "name": "renounceOwnership",
      "outputs": [],
      "stateMutability": "nonpayable",
      "type": "function"
    },
    {
      "inputs": [
        {
          "internalType": "address",
          "name": "to",
          "type": "address"
        },
        {
          "internalType": "string",
          "name": "uri",
          "type": "string"
        }
      ],
      "name": "safeMint",
      "outputs": [],
      "stateMutability": "nonpayable",
      "type": "function"
    },
    {
      "inputs": [
        {
          "internalType": "address",
          "name": "to",
          "type": "address"
        },
        {
          "internalType": "string",
          "name": "uri",
          "type": "string"
        },
        {
          "internalType": "uint64",
          "name": "number",
          "type": "uint64"
        }
      ],
      "name": "safeMintMultiple",
      "outputs": [],
      "stateMutability": "nonpayable",
      "type": "function"
    },
    {
      "inputs": [
        {
          "internalType": "address",
          "name": "to",
          "type": "address"
        },
        {
          "internalType": "string",
          "name": "uri",
          "type": "string"
        },
        {
          "internalType": "uint64",
          "name": "number",
          "type": "uint64"
        },
        {
          "internalType": "address",
          "name": "user",
          "type": "address"
        },
        {
          "internalType": "uint64",
          "name": "expires",
          "type": "uint64"
        }
      ],
      "name": "safeMintMultipleAndSetUser",
      "outputs": [],
      "stateMutability": "nonpayable",
      "type": "function"
    },
    {
      "inputs": [
        {
          "internalType": "address",
          "name": "from",
          "type": "address"
        },
        {
          "internalType": "address",
          "name": "to",
          "type": "address"
        },
        {
          "internalType": "uint256",
          "name": "tokenId",
          "type": "uint256"
        }
      ],
      "name": "safeTransferFrom",
      "outputs": [],
      "stateMutability": "nonpayable",
      "type": "function"
    },
    {
      "inputs": [
        {
          "internalType": "address",
          "name": "from",
          "type": "address"
        },
        {
          "internalType": "address",
          "name": "to",
          "type": "address"
        },
        {
          "internalType": "uint256",
          "name": "tokenId",
          "type": "uint256"
        },
        {
          "internalType": "bytes",
          "name": "data",
          "type": "bytes"
        }
      ],
      "name": "safeTransferFrom",
      "outputs": [],
      "stateMutability": "nonpayable",
      "type": "function"
    },
    {
      "inputs": [
        {
          "internalType": "address",
          "name": "operator",
          "type": "address"
        },
        {
          "internalType": "bool",
          "name": "approved",
          "type": "bool"
        }
      ],
      "name": "setApprovalForAll",
      "outputs": [],
      "stateMutability": "nonpayable",
      "type": "function"
    },
    {
      "inputs": [
        {
          "internalType": "uint256",
          "name": "rate",
          "type": "uint256"
        }
      ],
      "name": "setFeeRate",
      "outputs": [],
      "stateMutability": "nonpayable",
      "type": "function"
    },
    {
      "inputs": [
        {
          "internalType": "uint256",
          "name": "tokenId",
          "type": "uint256"
        },
        {
          "internalType": "address",
          "name": "user",
          "type": "address"
        },
        {
          "internalType": "uint64",
          "name": "expires",
          "type": "uint64"
        }
      ],
      "name": "setUser",
      "outputs": [],
      "stateMutability": "nonpayable",
      "type": "function"
    },
    {
      "inputs": [
        {
          "internalType": "address",
          "name": "user",
          "type": "address"
        },
        {
          "internalType": "uint64",
          "name": "expires",
          "type": "uint64"
        },
        {
          "internalType": "uint256[]",
          "name": "tokenIds",
          "type": "uint256[]"
        }
      ],
      "name": "setUserMultiple",
      "outputs": [],
      "stateMutability": "nonpayable",
      "type": "function"
    },
    {
      "inputs": [
        {
          "internalType": "bytes4",
          "name": "interfaceId",
          "type": "bytes4"
        }
      ],
      "name": "supportsInterface",
      "outputs": [
        {
          "internalType": "bool",
          "name": "",
          "type": "bool"
        }
      ],
      "stateMutability": "view",
      "type": "function"
    },
    {
      "inputs": [],
      "name": "symbol",
      "outputs": [
        {
          "internalType": "string",
          "name": "",
          "type": "string"
        }
      ],
      "stateMutability": "view",
      "type": "function"
    },
    {
      "inputs": [
        {
          "internalType": "uint256",
          "name": "tokenId",
          "type": "uint256"
        }
      ],
      "name": "tokenURI",
      "outputs": [
        {
          "internalType": "string",
          "name": "",
          "type": "string"
        }
      ],
      "stateMutability": "view",
      "type": "function"
    },
    {
      "inputs": [],
      "name": "totalDistributedEarnings",
      "outputs": [
        {
          "internalType": "uint256",
          "name": "",
          "type": "uint256"
        }
      ],
      "stateMutability": "view",
      "type": "function"
    },
    {
      "inputs": [],
      "name": "totalSupply",
      "outputs": [
        {
          "internalType": "uint256",
          "name": "",
          "type": "uint256"
        }
      ],
      "stateMutability": "view",
      "type": "function"
    },
    {
      "inputs": [
        {
          "internalType": "address",
          "name": "from",
          "type": "address"
        },
        {
          "internalType": "address",
          "name": "to",
          "type": "address"
        },
        {
          "internalType": "uint256",
          "name": "tokenId",
          "type": "uint256"
        }
      ],
      "name": "transferFrom",
      "outputs": [],
      "stateMutability": "nonpayable",
      "type": "function"
    },
    {
      "inputs": [
        {
          "internalType": "address",
          "name": "newOwner",
          "type": "address"
        }
      ],
      "name": "transferOwnership",
      "outputs": [],
      "stateMutability": "nonpayable",
      "type": "function"
    },
    {
      "inputs": [
        {
          "internalType": "uint256",
          "name": "tokenId",
          "type": "uint256"
        }
      ],
      "name": "unClaimedEarnings",
      "outputs": [
        {
          "internalType": "uint256",
          "name": "",
          "type": "uint256"
        }
      ],
      "stateMutability": "view",
      "type": "function"
    },
    {
      "inputs": [],
      "name": "unClaimedEarningsAll",
      "outputs": [
        {
          "internalType": "uint256",
          "name": "",
          "type": "uint256"
        }
      ],
      "stateMutability": "view",
      "type": "function"
    },
    {
      "inputs": [],
      "name": "unpause",
      "outputs": [],
      "stateMutability": "nonpayable",
      "type": "function"
    },
    {
      "inputs": [
        {
          "internalType": "uint256",
          "name": "tokenId",
          "type": "uint256"
        }
      ],
      "name": "userExpires",
      "outputs": [
        {
          "internalType": "uint256",
          "name": "",
          "type": "uint256"
        }
      ],
      "stateMutability": "view",
      "type": "function"
    },
    {
      "inputs": [
        {
          "internalType": "uint256",
          "name": "tokenId",
          "type": "uint256"
        }
      ],
      "name": "userOf",
      "outputs": [
        {
          "internalType": "address",
          "name": "",
          "type": "address"
        }
      ],
      "stateMutability": "view",
      "type": "function"
    }
  ],
  "bytecode": "0x60806040523480156200001157600080fd5b506200001c62000022565b620000e4565b600054610100900460ff16156200008f5760405162461bcd60e51b815260206004820152602760248201527f496e697469616c697a61626c653a20636f6e747261637420697320696e697469604482015266616c697a696e6760c81b606482015260840160405180910390fd5b60005460ff9081161015620000e2576000805460ff191660ff9081179091556040519081527f7f26b83ff96e1f2b6a682f133852f6798a09c465da95921460cefb38474024989060200160405180910390a15b565b61407580620000f46000396000f3fe608060405234801561001057600080fd5b506004361061025e5760003560e01c806384e5eed011610146578063c87b56dd116100c3578063e985e9c511610087578063e985e9c5146104ef578063ea791b5714610502578063ecefa65014610515578063f2fde38b14610528578063f89174341461053b578063fce5831f1461054357600080fd5b8063c87b56dd14610490578063cf727cfa146104a3578063d204c45e146104b6578063d5e1de1c146104c9578063e030565e146104dc57600080fd5b8063a22cb4651161010a578063a22cb46514610431578063a928934f14610444578063b88d4fde14610457578063be7d33cc1461046a578063c2f1f14a1461047d57600080fd5b806384e5eed0146103ea5780638da5cb5b146103f35780638fc88c481461040457806395d89b4114610417578063a18f4ba01461041f57600080fd5b8063358c71ab116101df5780636352211e116101a35780636352211e1461039857806370a08231146103ab57806370bbbe97146103be578063715018a6146103c7578063731427b6146103cf5780638456cb59146103e257600080fd5b8063358c71ab1461033f5780633f4ba83a1461035f57806342842e0e1461036757806345596e2e1461037a5780635c975abb1461038d57600080fd5b80630db1544a116102265780630db1544a146102f657806318160ddd1461030957806323b872dd1461031157806324b1babf146103245780632e2d651e1461033757600080fd5b806301ffc9a71461026357806306fdde031461028b578063081812fc146102a0578063095ea7b3146102cb5780630a757176146102e0575b600080fd5b61027661027136600461337f565b61054b565b60405190151581526020015b60405180910390f35b610293610576565b60405161028291906133ec565b6102b36102ae3660046133ff565b610608565b6040516001600160a01b039091168152602001610282565b6102de6102d936600461342f565b61062f565b005b6102e8610749565b604051908152602001610282565b6102de610304366004613516565b610798565b6102e8610ac4565b6102de61031f3660046135e8565b610ad5565b6102de6103323660046133ff565b610b06565b6102e8610e8c565b61035261034d366004613624565b6111f7565b604051610282919061367a565b6102de611202565b6102de6103753660046135e8565b611214565b6102de6103883660046133ff565b61122f565b60c95460ff16610276565b6102b36103a63660046133ff565b61123d565b6102e86103b9366004613624565b61129d565b610167546102e8565b6102de611323565b6102de6103dd3660046136a4565b611335565b6102de611512565b610162546102e8565b60fb546001600160a01b03166102b3565b6102e86104123660046133ff565b611522565b61029361156d565b610161546001600160a01b03166102b3565b6102de61043f366004613721565b61157c565b6102de610452366004613758565b61158b565b6102de6104653660046137b5565b6115ea565b6102de610478366004613830565b611622565b6102b361048b3660046133ff565b611877565b61029361049e3660046133ff565b6118a7565b6102de6104b1366004613875565b6118d7565b6102de6104c4366004613905565b611ae8565b6102e86104d73660046133ff565b611b21565b6102de6104ea366004613952565b611b5c565b6102766104fd366004613985565b611cb3565b6102de6105103660046139b8565b611ce1565b6102de610523366004613a37565b611e65565b6102de610536366004613624565b61201c565b6102e8612092565b6102e861213a565b60006001600160e01b03198216632b424ad760e21b1480610570575061057082612191565b92915050565b60606065805461058590613a67565b80601f01602080910402602001604051908101604052809291908181526020018280546105b190613a67565b80156105fe5780601f106105d3576101008083540402835291602001916105fe565b820191906000526020600020905b8154815290600101906020018083116105e157829003601f168201915b5050505050905090565b6000610613826121e1565b506000908152606960205260409020546001600160a01b031690565b600061063a8261123d565b9050806001600160a01b0316836001600160a01b0316036106ac5760405162461bcd60e51b815260206004820152602160248201527f4552433732313a20617070726f76616c20746f2063757272656e74206f776e656044820152603960f91b60648201526084015b60405180910390fd5b336001600160a01b03821614806106c857506106c88133611cb3565b61073a5760405162461bcd60e51b815260206004820152603d60248201527f4552433732313a20617070726f76652063616c6c6572206973206e6f7420746f60448201527f6b656e206f776e6572206f7220617070726f76656420666f7220616c6c00000060648201526084016106a3565b6107448383612231565b505050565b600080805b61015f548110156107925760006107648261229f565b6001600160a01b031614610780578161077c81613ab1565b9250505b8061078a81613ab1565b91505061074e565b50919050565b6107a06122f0565b60008084116107c15760405162461bcd60e51b81526004016106a390613aca565b60008351116108085760405162461bcd60e51b815260206004820152601360248201527252574e3a20746f6b656e49647349735a65726f60681b60448201526064016106a3565b610161546040516370a0823160e01b81523360048201526001600160a01b0390911690859082906370a0823190602401602060405180830381865afa158015610855573d6000803e3d6000fd5b505050506040513d601f19601f820116820180604052508101906108799190613af5565b10156108975760405162461bcd60e51b81526004016106a390613b0e565b6040516323b872dd60e01b8152336004820152306024820152604481018690526001600160a01b038216906323b872dd906064016020604051808303816000875af11580156108ea573d6000803e3d6000fd5b505050506040513d601f19601f8201168201806040525081019061090e9190613b3d565b61092a5760405162461bcd60e51b81526004016106a390613b5a565b83516109369086613b87565b915060005b8451811015610a605761096685828151811061095957610959613ba9565b602002602001015161234b565b6109825760405162461bcd60e51b81526004016106a390613bbf565b336001600160a01b031661016060008784815181106109a3576109a3613ba9565b6020908102919091018101518252810191909152604001600020546001600160a01b031614610a0b5760405162461bcd60e51b8152602060048201526014602482015273292ba71d1039b2b73232b924b9a737ba2ab9b2b960611b60448201526064016106a3565b826101666000878481518110610a2357610a23613ba9565b602002602001015181526020019081526020016000206000828254610a489190613bed565b90915550819050610a5881613ab1565b91505061093b565b50846101676000828254610a749190613bed565b909155505060405133907f7e99d5dcc623345d8c2e9e60cbc204d80ebc1fe8b7e343f9a6e7332f5f3deebf90610aaf90879089908890613c00565b60405180910390a25050610744600161012d55565b6000610ad061015f5490565b905090565b610adf3382612370565b610afb5760405162461bcd60e51b81526004016106a390613c2b565b6107448383836123cf565b610b0e6122f0565b610b178161234b565b610b335760405162461bcd60e51b81526004016106a390613bbf565b33610b3d8261123d565b6001600160a01b031614610b835760405162461bcd60e51b815260206004820152600d60248201526c292ba71d103737ba27bbb732b960991b60448201526064016106a3565b6000818152610166602052604090205480610bd95760405162461bcd60e51b815260206004820152601660248201527552574e3a206e6f4561726e696e6773546f436c61696d60501b60448201526064016106a3565b60006127106101625483610bed9190613c78565b610bf79190613b87565b90506000610c058284613c8f565b610161546040516370a0823160e01b81523060048201529192506001600160a01b031690849082906370a0823190602401602060405180830381865afa158015610c53573d6000803e3d6000fd5b505050506040513d601f19601f82011682018060405250810190610c779190613af5565b1015610c955760405162461bcd60e51b81526004016106a390613b0e565b60405163a9059cbb60e01b8152336004820152602481018390526001600160a01b0382169063a9059cbb906044016020604051808303816000875af1158015610ce2573d6000803e3d6000fd5b505050506040513d601f19601f82011682018060405250810190610d069190613b3d565b610d4e5760405162461bcd60e51b8152602060048201526019602482015278292ba71d103a3930b739b332b92330b4b632b22a37aab9b2b960391b60448201526064016106a3565b806001600160a01b031663a9059cbb610d6f60fb546001600160a01b031690565b6040516001600160e01b031960e084901b1681526001600160a01b039091166004820152602481018690526044016020604051808303816000875af1158015610dbc573d6000803e3d6000fd5b505050506040513d601f19601f82011682018060405250810190610de09190613b3d565b610e2c5760405162461bcd60e51b815260206004820152601d60248201527f52574e3a207472616e736665724661696c6564546f50726f746f636f6c00000060448201526064016106a3565b60008581526101666020908152604080832092909255815187815290810186905233917fb1a896c7da442357bd9510515e310e230797d0acd2d051a790d5d39af5ee045f910160405180910390a250505050610e89600161012d55565b50565b6000610e966122f0565b60008060005b61015f54811015610f0b5733610eb18261123d565b6001600160a01b031603610ef95760008181526101666020526040902054610ed99084613bed565b60008281526101666020526040812055925081610ef581613ab1565b9250505b80610f0381613ab1565b915050610e9c565b5060008211610f555760405162461bcd60e51b815260206004820152601660248201527552574e3a206e6f4561726e696e6773546f436c61696d60501b60448201526064016106a3565b60006127106101625484610f699190613c78565b610f739190613b87565b90506000610f818285613c8f565b610161546040516370a0823160e01b81523060048201529192506001600160a01b031690859082906370a0823190602401602060405180830381865afa158015610fcf573d6000803e3d6000fd5b505050506040513d601f19601f82011682018060405250810190610ff39190613af5565b10156110115760405162461bcd60e51b81526004016106a390613b0e565b60405163a9059cbb60e01b8152336004820152602481018390526001600160a01b0382169063a9059cbb906044016020604051808303816000875af115801561105e573d6000803e3d6000fd5b505050506040513d601f19601f820116820180604052508101906110829190613b3d565b6110ca5760405162461bcd60e51b8152602060048201526019602482015278292ba71d103a3930b739b332b92330b4b632b22a37aab9b2b960391b60448201526064016106a3565b806001600160a01b031663a9059cbb6110eb60fb546001600160a01b031690565b6040516001600160e01b031960e084901b1681526001600160a01b039091166004820152602481018690526044016020604051808303816000875af1158015611138573d6000803e3d6000fd5b505050506040513d601f19601f8201168201806040525081019061115c9190613b3d565b6111a85760405162461bcd60e51b815260206004820152601d60248201527f52574e3a207472616e736665724661696c6564546f50726f746f636f6c00000060448201526064016106a3565b604080518581526020810187905233917f2aab050d6a034d1257b8706bd89cce5b637b0d8ff6668919d10f1fc1cbeb9942910160405180910390a25093505050506111f4600161012d55565b90565b606061057082612540565b61120a612613565b61121261266d565b565b610744838383604051806020016040528060008152506115ea565b611237612613565b61016255565b6000818152606760205260408120546001600160a01b0316806105705760405162461bcd60e51b8152602060048201526018602482015277115490cdcc8c4e881a5b9d985b1a59081d1bdad95b88125160421b60448201526064016106a3565b60006001600160a01b0382166113075760405162461bcd60e51b815260206004820152602960248201527f4552433732313a2061646472657373207a65726f206973206e6f7420612076616044820152683634b21037bbb732b960b91b60648201526084016106a3565b506001600160a01b031660009081526068602052604090205490565b61132b612613565b61121260006126bf565b600054610100900460ff16158080156113555750600054600160ff909116105b8061136f5750303b15801561136f575060005460ff166001145b6113d25760405162461bcd60e51b815260206004820152602e60248201527f496e697469616c697a61626c653a20636f6e747261637420697320616c72656160448201526d191e481a5b9a5d1a585b1a5e995960921b60648201526084016106a3565b6000805460ff1916600117905580156113f5576000805461ff0019166101001790555b60646101625561016180546001600160a01b0319166001600160a01b038716179055610163849055610164805467ffffffffffffffff19166001600160401b0385161790556101658290556040805180820190915260038152622a292760e91b6020820152611465908790612711565b61146d612742565b611475612769565b61147d612798565b6114856127c7565b7f18e28ddf0b81d96348107094a18af74f541fefd93e093ee4f101ec102fedf98d86868686866040516114bc959493929190613ca2565b60405180910390a1801561150a576000805461ff0019169055604051600181527f7f26b83ff96e1f2b6a682f133852f6798a09c465da95921460cefb38474024989060200160405180910390a15b505050505050565b61151a612613565b6112126127f6565b600061152d8261234b565b6115495760405162461bcd60e51b81526004016106a390613bbf565b5060009081526101606020526040902054600160a01b90046001600160401b031690565b60606066805461058590613a67565b611587338383612833565b5050565b611593612613565b6000805b826001600160401b03168110156115e35761015f5491506115bd61015f80546001019055565b6115c78583612901565b6115d1828561291b565b806115db81613ab1565b915050611597565b5050505050565b6115f43383612370565b6116105760405162461bcd60e51b81526004016106a390613c2b565b61161c8484848461299f565b50505050565b61162a6122f0565b6000821161164a5760405162461bcd60e51b81526004016106a390613aca565b6116538361234b565b61166f5760405162461bcd60e51b81526004016106a390613bbf565b600083815261016060205260409020546001600160a01b031633146116cd5760405162461bcd60e51b8152602060048201526014602482015273292ba71d1039b2b73232b924b9a737ba2ab9b2b960611b60448201526064016106a3565b610161546040516370a0823160e01b81523360048201526001600160a01b0390911690839082906370a0823190602401602060405180830381865afa15801561171a573d6000803e3d6000fd5b505050506040513d601f19601f8201168201806040525081019061173e9190613af5565b101561175c5760405162461bcd60e51b81526004016106a390613b0e565b6040516323b872dd60e01b8152336004820152306024820152604481018490526001600160a01b038216906323b872dd906064016020604051808303816000875af11580156117af573d6000803e3d6000fd5b505050506040513d601f19601f820116820180604052508101906117d39190613b3d565b6117ef5760405162461bcd60e51b81526004016106a390613b5a565b600084815261016660205260408120805485929061180e908490613bed565b925050819055508261016760008282546118289190613bed565b909155505060405133907fc62b719aa3418a4ea16f22271b8911ee606cdd45d8c8398dd3257788d11f7c3b9061186390879087908790613ceb565b60405180910390a250610744600161012d55565b60006118828261234b565b61189e5760405162461bcd60e51b81526004016106a390613bbf565b6105708261229f565b60606118b28261234b565b6118ce5760405162461bcd60e51b81526004016106a390613bbf565b610570826129d2565b60005b81811015611a9c576119038383838181106118f7576118f7613ba9565b9050602002013561234b565b61191f5760405162461bcd60e51b81526004016106a390613bbf565b6119413384848481811061193557611935613ba9565b90506020020135612370565b6119835760405162461bcd60e51b8152602060048201526013602482015272292ba71d103737ba27bbb732b927b920b8383960691b60448201526064016106a3565b60006119a684848481811061199a5761199a613ba9565b9050602002013561229f565b90506001600160a01b038116156119f4576001600160a01b0381166000908152610168602052604090206119f2908585858181106119e6576119e6613ba9565b90506020020135612ada565b505b60006101606000868686818110611a0d57611a0d613ba9565b60209081029290920135835250818101929092526040908101600090812080546001600160a01b038c166001600160e01b03199091168117600160a01b6001600160401b038d1602178255825261016890935220909150611a8690868686818110611a7a57611a7a613ba9565b90506020020135612aed565b5050508080611a9490613ab1565b9150506118da565b50836001600160a01b03167fdcf77e0e938282128beeea6a61d2bc91e62320864279f2238d2e030f703de672848484604051611ada93929190613d13565b60405180910390a250505050565b611af0612613565b6000611afc61015f5490565b9050611b0d61015f80546001019055565b611b178382612901565b610744818361291b565b6000611b2c8261234b565b611b485760405162461bcd60e51b81526004016106a390613bbf565b506000908152610166602052604090205490565b611b658361234b565b611b815760405162461bcd60e51b81526004016106a390613bbf565b611b8b3384612370565b611bcd5760405162461bcd60e51b8152602060048201526013602482015272292ba71d103737ba27bbb732b927b920b8383960691b60448201526064016106a3565b6000611bd88461229f565b90506001600160a01b03811615611c0e576001600160a01b038116600090815261016860205260409020611c0c9085612ada565b505b60008481526101606020908152604080832080546001600160a01b0388166001600160e01b03199091168117600160a01b6001600160401b038916021782558452610168909252909120611c629086612aed565b506040516001600160401b03841681526001600160a01b0385169086907f4e06b4e7000e659094299b3533b47b6aa8ad048e95e872d23d1f4ee55af89cfe9060200160405180910390a35050505050565b6001600160a01b039182166000908152606a6020908152604080832093909416825291909152205460ff1690565b611ce9612613565b600080846001600160401b03166001600160401b03811115611d0d57611d0d613459565b604051908082528060200260200182016040528015611d36578160200160208202803683370190505b50905060005b856001600160401b0316811015611e185761015f549250611d6261015f80546001019055565b611d6c8884612901565b611d76838861291b565b6040805180820182526001600160a01b038088168083526001600160401b03808916602080860191825260008a81526101608252878120965187549351909416600160a01b026001600160e01b0319909316939095169290921717909355815261016890915220611de79084612aed565b5082828281518110611dfb57611dfb613ba9565b602090810291909101015280611e1081613ab1565b915050611d3c565b50836001600160a01b03167fdcf77e0e938282128beeea6a61d2bc91e62320864279f2238d2e030f703de6728483604051611e54929190613d5d565b60405180910390a250505050505050565b611e6d6122f0565b610161546001600160a01b031682611e975760405162461bcd60e51b81526004016106a390613aca565b6040516370a0823160e01b815233600482015283906001600160a01b038316906370a0823190602401602060405180830381865afa158015611edd573d6000803e3d6000fd5b505050506040513d601f19601f82011682018060405250810190611f019190613af5565b1015611f1f5760405162461bcd60e51b81526004016106a390613b0e565b6040516323b872dd60e01b8152336004820152306024820152604481018490526001600160a01b038216906323b872dd906064016020604051808303816000875af1158015611f72573d6000803e3d6000fd5b505050506040513d601f19601f82011682018060405250810190611f969190613b3d565b611fb25760405162461bcd60e51b81526004016106a390613b5a565b611fbc3384612af9565b826101676000828254611fcf9190613bed565b909155505060405133907feba431e0c18f57c742d0e1456d7fbd9faf23c7e197d70098e2db712aed47237a906120089086908690613d7f565b60405180910390a250611587600161012d55565b612024612613565b6001600160a01b0381166120895760405162461bcd60e51b815260206004820152602660248201527f4f776e61626c653a206e6577206f776e657220697320746865207a65726f206160448201526564647265737360d01b60648201526084016106a3565b610e89816126bf565b6101655461016454600091620151809183906120b9906001600160401b031661016d613d98565b6120cc906001600160401b031683613b87565b905060006120da8442613b87565b610164546120f3906001600160401b031661016d613d98565b6001600160401b0316856101636000015461210e9190613b87565b6121189190613bed565b6121229190613c8f565b905060006121308284613c78565b9695505050505050565b600080805b61015f5481101561079257336121548261123d565b6001600160a01b03160361217f576000818152610166602052604090205461217c9083613bed565b91505b8061218981613ab1565b91505061213f565b60006001600160e01b031982166380ac58cd60e01b14806121c257506001600160e01b03198216635b5e139f60e01b145b8061057057506301ffc9a760e01b6001600160e01b0319831614610570565b6121ea8161234b565b610e895760405162461bcd60e51b8152602060048201526018602482015277115490cdcc8c4e881a5b9d985b1a59081d1bdad95b88125160421b60448201526064016106a3565b600081815260696020526040902080546001600160a01b0319166001600160a01b03841690811790915581906122668261123d565b6001600160a01b03167f8c5be1e5ebec7d5bd14f71427d1e84f3dd0314c0f7b2291e5b200ac8c7c3b92560405160405180910390a45050565b6000818152610160602052604081205442600160a01b9091046001600160401b0316106122e35750600090815261016060205260409020546001600160a01b031690565b506000919050565b919050565b600261012d54036123435760405162461bcd60e51b815260206004820152601f60248201527f5265656e7472616e637947756172643a207265656e7472616e742063616c6c0060448201526064016106a3565b600261012d55565b6000908152606760205260409020546001600160a01b0316151590565b600161012d55565b60008061237c8361123d565b9050806001600160a01b0316846001600160a01b031614806123a357506123a38185611cb3565b806123c75750836001600160a01b03166123bc84610608565b6001600160a01b0316145b949350505050565b826001600160a01b03166123e28261123d565b6001600160a01b0316146124085760405162461bcd60e51b81526004016106a390613dc3565b6001600160a01b03821661246a5760405162461bcd60e51b8152602060048201526024808201527f4552433732313a207472616e7366657220746f20746865207a65726f206164646044820152637265737360e01b60648201526084016106a3565b6124778383836001612bf5565b826001600160a01b031661248a8261123d565b6001600160a01b0316146124b05760405162461bcd60e51b81526004016106a390613dc3565b600081815260696020908152604080832080546001600160a01b03199081169091556001600160a01b0387811680865260688552838620805460001901905590871680865283862080546001019055868652606790945282852080549092168417909155905184937fddf252ad1be2c89b69c2b068fc378daa952ba7f163c4a11628f55a4df523b3ef91a4505050565b6001600160a01b0381166000908152610168602052604081206060919061256690612c02565b90506000816001600160401b0381111561258257612582613459565b6040519080825280602002602001820160405280156125ab578160200160208202803683370190505b50905060005b8281101561260b576001600160a01b0385166000908152610168602052604090206125dc9082612c0c565b8282815181106125ee576125ee613ba9565b60209081029190910101528061260381613ab1565b9150506125b1565b509392505050565b60fb546001600160a01b031633146112125760405162461bcd60e51b815260206004820181905260248201527f4f776e61626c653a2063616c6c6572206973206e6f7420746865206f776e657260448201526064016106a3565b612675612c18565b60c9805460ff191690557f5db9ee0a495bf2e6ff9c91a7834c1ba4fdd244a5e8aa4e537bd38aeae4b073aa335b6040516001600160a01b03909116815260200160405180910390a1565b60fb80546001600160a01b038381166001600160a01b0319831681179093556040519116919082907f8be0079c531659141344cd1fd0a4f28419497f9722a3daafe3b4186f6b6457e090600090a35050565b600054610100900460ff166127385760405162461bcd60e51b81526004016106a390613e08565b6115878282612c61565b600054610100900460ff166112125760405162461bcd60e51b81526004016106a390613e08565b600054610100900460ff166127905760405162461bcd60e51b81526004016106a390613e08565b611212612ca1565b600054610100900460ff166127bf5760405162461bcd60e51b81526004016106a390613e08565b611212612cd4565b600054610100900460ff166127ee5760405162461bcd60e51b81526004016106a390613e08565b611212612d04565b6127fe612d2b565b60c9805460ff191660011790557f62e78cea01bee320cd4e420270b5ea74000d11b0c9f74754ebdbfc544b05a2586126a23390565b816001600160a01b0316836001600160a01b0316036128945760405162461bcd60e51b815260206004820152601960248201527f4552433732313a20617070726f766520746f2063616c6c65720000000000000060448201526064016106a3565b6001600160a01b038381166000818152606a6020908152604080832094871680845294825291829020805460ff191686151590811790915591519182527f17307eab39ab6107e8899845ad3d59bd9653f200f220920489ca2b5937696c31910160405180910390a3505050565b611587828260405180602001604052806000815250612d71565b6129248261234b565b6129875760405162461bcd60e51b815260206004820152602e60248201527f45524337323155524953746f726167653a2055524920736574206f66206e6f6e60448201526d32bc34b9ba32b73a103a37b5b2b760911b60648201526084016106a3565b60008281526097602052604090206107448282613e99565b6129aa8484846123cf565b6129b684848484612da4565b61161c5760405162461bcd60e51b81526004016106a390613f58565b60606129dd826121e1565b600082815260976020526040812080546129f690613a67565b80601f0160208091040260200160405190810160405280929190818152602001828054612a2290613a67565b8015612a6f5780601f10612a4457610100808354040283529160200191612a6f565b820191906000526020600020905b815481529060010190602001808311612a5257829003601f168201915b505050505090506000612a8d60408051602081019091526000815290565b90508051600003612a9f575092915050565b815115612ad1578082604051602001612ab9929190613faa565b60405160208183030381529060405292505050919050565b6123c784612ea5565b6000612ae68383612f18565b9392505050565b6000612ae6838361300b565b6001600160a01b03821660009081526101686020526040812081908190612b1f90612c02565b905060008111612b7d5760405162461bcd60e51b8152602060048201526024808201527f52656e7420636f756e74206d7573742062652067726561746572207468616e206044820152637a65726f60e01b60648201526084016106a3565b612b878185613b87565b925060005b8181101561150a576001600160a01b038616600090815261016860205260409020612bb79082612c0c565b92508361016660008581526020019081526020016000206000828254612bdd9190613bed565b90915550819050612bed81613ab1565b915050612b8c565b612bfd612d2b565b61161c565b6000610570825490565b6000612ae6838361305a565b60c95460ff166112125760405162461bcd60e51b815260206004820152601460248201527314185d5cd8589b194e881b9bdd081c185d5cd95960621b60448201526064016106a3565b600054610100900460ff16612c885760405162461bcd60e51b81526004016106a390613e08565b6065612c948382613e99565b5060666107448282613e99565b600054610100900460ff16612cc85760405162461bcd60e51b81526004016106a390613e08565b60c9805460ff19169055565b600054610100900460ff16612cfb5760405162461bcd60e51b81526004016106a390613e08565b611212336126bf565b600054610100900460ff166123685760405162461bcd60e51b81526004016106a390613e08565b60c95460ff16156112125760405162461bcd60e51b815260206004820152601060248201526f14185d5cd8589b194e881c185d5cd95960821b60448201526064016106a3565b612d7b8383613084565b612d886000848484612da4565b6107445760405162461bcd60e51b81526004016106a390613f58565b60006001600160a01b0384163b15612e9a57604051630a85bd0160e11b81526001600160a01b0385169063150b7a0290612de8903390899088908890600401613fd9565b6020604051808303816000875af1925050508015612e23575060408051601f3d908101601f19168201909252612e209181019061400c565b60015b612e80573d808015612e51576040519150601f19603f3d011682016040523d82523d6000602084013e612e56565b606091505b508051600003612e785760405162461bcd60e51b81526004016106a390613f58565b805181602001fd5b6001600160e01b031916630a85bd0160e11b1490506123c7565b506001949350505050565b6060612eb0826121e1565b6000612ec760408051602081019091526000815290565b90506000815111612ee75760405180602001604052806000815250612ae6565b80612ef1846131ff565b604051602001612f02929190613faa565b6040516020818303038152906040529392505050565b60008181526001830160205260408120548015613001576000612f3c600183613c8f565b8554909150600090612f5090600190613c8f565b9050818114612fb5576000866000018281548110612f7057612f70613ba9565b9060005260206000200154905080876000018481548110612f9357612f93613ba9565b6000918252602080832090910192909255918252600188019052604090208390555b8554869080612fc657612fc6614029565b600190038181906000526020600020016000905590558560010160008681526020019081526020016000206000905560019350505050610570565b6000915050610570565b600081815260018301602052604081205461305257508154600181810184556000848152602080822090930184905584548482528286019093526040902091909155610570565b506000610570565b600082600001828154811061307157613071613ba9565b9060005260206000200154905092915050565b6001600160a01b0382166130da5760405162461bcd60e51b815260206004820181905260248201527f4552433732313a206d696e7420746f20746865207a65726f206164647265737360448201526064016106a3565b6130e38161234b565b156131305760405162461bcd60e51b815260206004820152601c60248201527f4552433732313a20746f6b656e20616c7265616479206d696e7465640000000060448201526064016106a3565b61313e600083836001612bf5565b6131478161234b565b156131945760405162461bcd60e51b815260206004820152601c60248201527f4552433732313a20746f6b656e20616c7265616479206d696e7465640000000060448201526064016106a3565b6001600160a01b038216600081815260686020908152604080832080546001019055848352606790915280822080546001600160a01b0319168417905551839291907fddf252ad1be2c89b69c2b068fc378daa952ba7f163c4a11628f55a4df523b3ef908290a45050565b6060600061320c83613291565b60010190506000816001600160401b0381111561322b5761322b613459565b6040519080825280601f01601f191660200182016040528015613255576020820181803683370190505b5090508181016020015b600019016f181899199a1a9b1b9c1cb0b131b232b360811b600a86061a8153600a850494508461325f57509392505050565b60008072184f03e93ff9f4daa797ed6e38ed64bf6a1f0160401b83106132d05772184f03e93ff9f4daa797ed6e38ed64bf6a1f0160401b830492506040015b6d04ee2d6d415b85acef810000000083106132fc576d04ee2d6d415b85acef8100000000830492506020015b662386f26fc10000831061331a57662386f26fc10000830492506010015b6305f5e1008310613332576305f5e100830492506008015b612710831061334657612710830492506004015b60648310613358576064830492506002015b600a83106105705760010192915050565b6001600160e01b031981168114610e8957600080fd5b60006020828403121561339157600080fd5b8135612ae681613369565b60005b838110156133b757818101518382015260200161339f565b50506000910152565b600081518084526133d881602086016020860161339c565b601f01601f19169290920160200192915050565b602081526000612ae660208301846133c0565b60006020828403121561341157600080fd5b5035919050565b80356001600160a01b03811681146122eb57600080fd5b6000806040838503121561344257600080fd5b61344b83613418565b946020939093013593505050565b634e487b7160e01b600052604160045260246000fd5b604051601f8201601f191681016001600160401b038111828210171561349757613497613459565b604052919050565b60006001600160401b038311156134b8576134b8613459565b6134cb601f8401601f191660200161346f565b90508281528383830111156134df57600080fd5b828260208301376000602084830101529392505050565b600082601f83011261350757600080fd5b612ae68383356020850161349f565b60008060006060848603121561352b57600080fd5b833592506020808501356001600160401b038082111561354a57600080fd5b818701915087601f83011261355e57600080fd5b81358181111561357057613570613459565b8060051b61357f85820161346f565b918252838101850191858101908b84111561359957600080fd5b948601945b838610156135b75785358252948601949086019061359e565b975050505060408701359250808311156135d057600080fd5b50506135de868287016134f6565b9150509250925092565b6000806000606084860312156135fd57600080fd5b61360684613418565b925061361460208501613418565b9150604084013590509250925092565b60006020828403121561363657600080fd5b612ae682613418565b600081518084526020808501945080840160005b8381101561366f57815187529582019590820190600101613653565b509495945050505050565b602081526000612ae6602083018461363f565b80356001600160401b03811681146122eb57600080fd5b600080600080600060a086880312156136bc57600080fd5b85356001600160401b038111156136d257600080fd5b6136de888289016134f6565b9550506136ed60208701613418565b9350604086013592506137026060870161368d565b949793965091946080013592915050565b8015158114610e8957600080fd5b6000806040838503121561373457600080fd5b61373d83613418565b9150602083013561374d81613713565b809150509250929050565b60008060006060848603121561376d57600080fd5b61377684613418565b925060208401356001600160401b0381111561379157600080fd5b61379d868287016134f6565b9250506137ac6040850161368d565b90509250925092565b600080600080608085870312156137cb57600080fd5b6137d485613418565b93506137e260208601613418565b92506040850135915060608501356001600160401b0381111561380457600080fd5b8501601f8101871361381557600080fd5b6138248782356020840161349f565b91505092959194509250565b60008060006060848603121561384557600080fd5b833592506020840135915060408401356001600160401b0381111561386957600080fd5b6135de868287016134f6565b6000806000806060858703121561388b57600080fd5b61389485613418565b93506138a26020860161368d565b925060408501356001600160401b03808211156138be57600080fd5b818701915087601f8301126138d257600080fd5b8135818111156138e157600080fd5b8860208260051b85010111156138f657600080fd5b95989497505060200194505050565b6000806040838503121561391857600080fd5b61392183613418565b915060208301356001600160401b0381111561393c57600080fd5b613948858286016134f6565b9150509250929050565b60008060006060848603121561396757600080fd5b8335925061397760208501613418565b91506137ac6040850161368d565b6000806040838503121561399857600080fd5b6139a183613418565b91506139af60208401613418565b90509250929050565b600080600080600060a086880312156139d057600080fd5b6139d986613418565b945060208601356001600160401b038111156139f457600080fd5b613a00888289016134f6565b945050613a0f6040870161368d565b9250613a1d60608701613418565b9150613a2b6080870161368d565b90509295509295909350565b60008060408385031215613a4a57600080fd5b8235915060208301356001600160401b0381111561393c57600080fd5b600181811c90821680613a7b57607f821691505b60208210810361079257634e487b7160e01b600052602260045260246000fd5b634e487b7160e01b600052601160045260246000fd5b600060018201613ac357613ac3613a9b565b5060010190565b60208082526011908201527052574e3a20616d6f756e7449735a65726f60781b604082015260600190565b600060208284031215613b0757600080fd5b5051919050565b60208082526015908201527452574e3a206e6f74456e6f75676842616c616e636560581b604082015260600190565b600060208284031215613b4f57600080fd5b8151612ae681613713565b6020808252601390820152721495d38e881d1c985b9cd9995c91985a5b1959606a1b604082015260600190565b600082613ba457634e487b7160e01b600052601260045260246000fd5b500490565b634e487b7160e01b600052603260045260246000fd5b60208082526014908201527352574e3a20746f6b656e446f65734e6f7445786960601b604082015260600190565b8082018082111561057057610570613a9b565b606081526000613c13606083018661363f565b846020840152828103604084015261213081856133c0565b6020808252602d908201527f4552433732313a2063616c6c6572206973206e6f7420746f6b656e206f776e6560408201526c1c881bdc88185c1c1c9bdd9959609a1b606082015260800190565b808202811582820484141761057057610570613a9b565b8181038181111561057057610570613a9b565b60a081526000613cb560a08301886133c0565b6001600160a01b039690961660208301525060408101939093526001600160401b03919091166060830152608090910152919050565b838152826020820152606060408201526000613d0a60608301846133c0565b95945050505050565b6001600160401b0384168152604060208201819052810182905260006001600160fb1b03831115613d4357600080fd5b8260051b8085606085013791909101606001949350505050565b6001600160401b03831681526040602082015260006123c7604083018461363f565b8281526040602082015260006123c760408301846133c0565b6001600160401b03818116838216028082169190828114613dbb57613dbb613a9b565b505092915050565b60208082526025908201527f4552433732313a207472616e736665722066726f6d20696e636f72726563742060408201526437bbb732b960d91b606082015260800190565b6020808252602b908201527f496e697469616c697a61626c653a20636f6e7472616374206973206e6f74206960408201526a6e697469616c697a696e6760a81b606082015260800190565b601f82111561074457600081815260208120601f850160051c81016020861015613e7a5750805b601f850160051c820191505b8181101561150a57828155600101613e86565b81516001600160401b03811115613eb257613eb2613459565b613ec681613ec08454613a67565b84613e53565b602080601f831160018114613efb5760008415613ee35750858301515b600019600386901b1c1916600185901b17855561150a565b600085815260208120601f198616915b82811015613f2a57888601518255948401946001909101908401613f0b565b5085821015613f485787850151600019600388901b60f8161c191681555b5050505050600190811b01905550565b60208082526032908201527f4552433732313a207472616e7366657220746f206e6f6e20455243373231526560408201527131b2b4bb32b91034b6b83632b6b2b73a32b960711b606082015260800190565b60008351613fbc81846020880161339c565b835190830190613fd081836020880161339c565b01949350505050565b6001600160a01b0385811682528416602082015260408101839052608060608201819052600090612130908301846133c0565b60006020828403121561401e57600080fd5b8151612ae681613369565b634e487b7160e01b600052603160045260246000fdfea2646970667358221220732e1f54c3986b8a28608a19ad95153ebe7d24894e36db3f0c0e6d95d3d0d67a64736f6c63430008110033",
  "linkReferences": {},
  "deployedLinkReferences": {}
}