{
  "_format": "hh-sol-artifact-1",
  "contractName": "TomaasStaking",
  "sourceName": "contracts/TomaasStaking.sol",
  "abi": [
    {
      "inputs": [],
      "stateMutability": "nonpayable",
      "type": "constructor"
    },
    {
      "anonymous": false,
      "inputs": [
        {
          "indexed": true,
          "internalType": "address",
          "name": "tlnAddr",
          "type": "address"
        },
        {
          "indexed": false,
          "internalType": "address",
          "name": "tokenAddr",
          "type": "address"
        },
        {
          "indexed": false,
          "internalType": "uint256",
          "name": "price",
          "type": "uint256"
        },
        {
          "indexed": false,
          "internalType": "uint256[]",
          "name": "rates",
          "type": "uint256[]"
        }
      ],
      "name": "AddTLNAddress",
      "type": "event"
    },
    {
      "anonymous": false,
      "inputs": [
        {
          "indexed": true,
          "internalType": "address",
          "name": "trnAddr",
          "type": "address"
        },
        {
          "indexed": false,
          "internalType": "address",
          "name": "acceptedToken",
          "type": "address"
        },
        {
          "indexed": false,
          "internalType": "uint256",
          "name": "revenueShareRatio",
          "type": "uint256"
        }
      ],
      "name": "AddTRNAddress",
      "type": "event"
    },
    {
      "anonymous": false,
      "inputs": [
        {
          "indexed": true,
          "internalType": "address",
          "name": "tlnAddr",
          "type": "address"
        },
        {
          "indexed": true,
          "internalType": "address",
          "name": "staker",
          "type": "address"
        },
        {
          "indexed": false,
          "internalType": "uint256",
          "name": "amount",
          "type": "uint256"
        }
      ],
      "name": "Claim",
      "type": "event"
    },
    {
      "anonymous": false,
      "inputs": [
        {
          "indexed": true,
          "internalType": "address",
          "name": "trnAddr",
          "type": "address"
        },
        {
          "indexed": false,
          "internalType": "uint256",
          "name": "amount",
          "type": "uint256"
        },
        {
          "indexed": false,
          "internalType": "uint256",
          "name": "countOfTRNs",
          "type": "uint256"
        }
      ],
      "name": "ClaimFromTRNs",
      "type": "event"
    },
    {
      "anonymous": false,
      "inputs": [
        {
          "indexed": true,
          "internalType": "address",
          "name": "previousOwner",
          "type": "address"
        },
        {
          "indexed": true,
          "internalType": "address",
          "name": "newOwner",
          "type": "address"
        }
      ],
      "name": "OwnershipTransferred",
      "type": "event"
    },
    {
      "anonymous": false,
      "inputs": [
        {
          "indexed": false,
          "internalType": "address",
          "name": "account",
          "type": "address"
        }
      ],
      "name": "Paused",
      "type": "event"
    },
    {
      "anonymous": false,
      "inputs": [
        {
          "indexed": true,
          "internalType": "address",
          "name": "trnAddr",
          "type": "address"
        },
        {
          "indexed": true,
          "internalType": "address",
          "name": "buyer",
          "type": "address"
        },
        {
          "indexed": false,
          "internalType": "uint256[]",
          "name": "tokenIds",
          "type": "uint256[]"
        }
      ],
      "name": "SellTRNsToPool",
      "type": "event"
    },
    {
      "anonymous": false,
      "inputs": [
        {
          "indexed": true,
          "internalType": "address",
          "name": "tlnAddr",
          "type": "address"
        },
        {
          "indexed": true,
          "internalType": "address",
          "name": "staker",
          "type": "address"
        },
        {
          "indexed": false,
          "internalType": "uint256[]",
          "name": "tokenIds",
          "type": "uint256[]"
        }
      ],
      "name": "StakeTLNs",
      "type": "event"
    },
    {
      "anonymous": false,
      "inputs": [
        {
          "indexed": false,
          "internalType": "address",
          "name": "account",
          "type": "address"
        }
      ],
      "name": "Unpaused",
      "type": "event"
    },
    {
      "anonymous": false,
      "inputs": [
        {
          "indexed": true,
          "internalType": "address",
          "name": "tlnAddr",
          "type": "address"
        },
        {
          "indexed": true,
          "internalType": "address",
          "name": "staker",
          "type": "address"
        },
        {
          "indexed": false,
          "internalType": "uint256",
          "name": "tokenId",
          "type": "uint256"
        }
      ],
      "name": "UnstakeTLNs",
      "type": "event"
    },
    {
      "inputs": [
        {
          "internalType": "address",
          "name": "tlnAddr",
          "type": "address"
        },
        {
          "internalType": "address",
          "name": "tokenAddr",
          "type": "address"
        },
        {
          "internalType": "uint256",
          "name": "price",
          "type": "uint256"
        },
        {
          "internalType": "uint256[]",
          "name": "rates",
          "type": "uint256[]"
        }
      ],
      "name": "addTLNAddress",
      "outputs": [],
      "stateMutability": "nonpayable",
      "type": "function"
    },
    {
      "inputs": [
        {
          "internalType": "address",
          "name": "trnAddr",
          "type": "address"
        },
        {
          "internalType": "address",
          "name": "acceptedToken",
          "type": "address"
        },
        {
          "internalType": "uint256",
          "name": "revenueShareRatio",
          "type": "uint256"
        }
      ],
      "name": "addTRNAddress",
      "outputs": [],
      "stateMutability": "nonpayable",
      "type": "function"
    },
    {
      "inputs": [],
      "name": "balanceOfRewards",
      "outputs": [
        {
          "internalType": "uint256",
          "name": "",
          "type": "uint256"
        }
      ],
      "stateMutability": "view",
      "type": "function"
    },
    {
      "inputs": [
        {
          "internalType": "address",
          "name": "trnAddr",
          "type": "address"
        }
      ],
      "name": "buyTRNsFromList",
      "outputs": [],
      "stateMutability": "nonpayable",
      "type": "function"
    },
    {
      "inputs": [
        {
          "internalType": "address",
          "name": "tlnAddr",
          "type": "address"
        }
      ],
      "name": "claim",
      "outputs": [],
      "stateMutability": "nonpayable",
      "type": "function"
    },
    {
      "inputs": [
        {
          "internalType": "address",
          "name": "trnAddr",
          "type": "address"
        }
      ],
      "name": "claimFromTRNs",
      "outputs": [],
      "stateMutability": "nonpayable",
      "type": "function"
    },
    {
      "inputs": [
        {
          "internalType": "address",
          "name": "tlnAddr",
          "type": "address"
        }
      ],
      "name": "getInfoTLN",
      "outputs": [
        {
          "components": [
            {
              "internalType": "contract TomaasLPN",
              "name": "tomaasLPN",
              "type": "address"
            },
            {
              "internalType": "contract IERC20",
              "name": "acceptedToken",
              "type": "address"
            },
            {
              "internalType": "uint256",
              "name": "price",
              "type": "uint256"
            },
            {
              "internalType": "uint256[]",
              "name": "interestRates",
              "type": "uint256[]"
            },
            {
              "internalType": "uint256[]",
              "name": "rewardsPerDay",
              "type": "uint256[]"
            }
          ],
          "internalType": "struct TomaasStaking.InfoTLN",
          "name": "infoTLN",
          "type": "tuple"
        }
      ],
      "stateMutability": "view",
      "type": "function"
    },
    {
      "inputs": [
        {
          "internalType": "address",
          "name": "trnAddr",
          "type": "address"
        }
      ],
      "name": "getInfoTRN",
      "outputs": [
        {
          "components": [
            {
              "internalType": "contract TomaasRWN",
              "name": "tomaasRWN",
              "type": "address"
            },
            {
              "internalType": "contract IERC20",
              "name": "acceptedToken",
              "type": "address"
            },
            {
              "internalType": "uint256",
              "name": "revenueShareRatio",
              "type": "uint256"
            }
          ],
          "internalType": "struct TomaasStaking.InfoTRN",
          "name": "infoTRN",
          "type": "tuple"
        }
      ],
      "stateMutability": "view",
      "type": "function"
    },
    {
      "inputs": [
        {
          "internalType": "address",
          "name": "trnAddr",
          "type": "address"
        }
      ],
      "name": "lengthOfTRNsToPurchase",
      "outputs": [
        {
          "internalType": "uint256",
          "name": "length",
          "type": "uint256"
        }
      ],
      "stateMutability": "view",
      "type": "function"
    },
    {
      "inputs": [
        {
          "internalType": "address",
          "name": "tlnAddr",
          "type": "address"
        }
      ],
      "name": "listOfTLNs",
      "outputs": [
        {
          "internalType": "uint256[]",
          "name": "tokenIds",
          "type": "uint256[]"
        }
      ],
      "stateMutability": "view",
      "type": "function"
    },
    {
      "inputs": [],
      "name": "listTRNAddress",
      "outputs": [
        {
          "components": [
            {
              "internalType": "contract TomaasRWN",
              "name": "tomaasRWN",
              "type": "address"
            },
            {
              "internalType": "contract IERC20",
              "name": "acceptedToken",
              "type": "address"
            },
            {
              "internalType": "uint256",
              "name": "revenueShareRatio",
              "type": "uint256"
            }
          ],
          "internalType": "struct TomaasStaking.InfoTRN[]",
          "name": "",
          "type": "tuple[]"
        }
      ],
      "stateMutability": "view",
      "type": "function"
    },
    {
      "inputs": [
        {
          "internalType": "address",
          "name": "operator",
          "type": "address"
        },
        {
          "internalType": "address",
          "name": "from",
          "type": "address"
        },
        {
          "internalType": "uint256",
          "name": "tokenId",
          "type": "uint256"
        },
        {
          "internalType": "bytes",
          "name": "data",
          "type": "bytes"
        }
      ],
      "name": "onERC721Received",
      "outputs": [
        {
          "internalType": "bytes4",
          "name": "",
          "type": "bytes4"
        }
      ],
      "stateMutability": "view",
      "type": "function"
    },
    {
      "inputs": [],
      "name": "owner",
      "outputs": [
        {
          "internalType": "address",
          "name": "",
          "type": "address"
        }
      ],
      "stateMutability": "view",
      "type": "function"
    },
    {
      "inputs": [],
      "name": "pause",
      "outputs": [],
      "stateMutability": "nonpayable",
      "type": "function"
    },
    {
      "inputs": [],
      "name": "paused",
      "outputs": [
        {
          "internalType": "bool",
          "name": "",
          "type": "bool"
        }
      ],
      "stateMutability": "view",
      "type": "function"
    },
    {
      "inputs": [
        {
          "internalType": "address",
          "name": "tlnAddr",
          "type": "address"
        }
      ],
      "name": "remainingRewards",
      "outputs": [
        {
          "internalType": "uint256",
          "name": "",
          "type": "uint256"
        }
      ],
      "stateMutability": "view",
      "type": "function"
    },
    {
      "inputs": [],
      "name": "renounceOwnership",
      "outputs": [],
      "stateMutability": "nonpayable",
      "type": "function"
    },
    {
      "inputs": [
        {
          "internalType": "address",
          "name": "trnAddr",
          "type": "address"
        },
        {
          "internalType": "uint256[]",
          "name": "tokenIds",
          "type": "uint256[]"
        }
      ],
      "name": "sellTRNsToPool",
      "outputs": [],
      "stateMutability": "nonpayable",
      "type": "function"
    },
    {
      "inputs": [
        {
          "internalType": "address",
          "name": "trnAddr",
          "type": "address"
        },
        {
          "internalType": "uint256",
          "name": "price",
          "type": "uint256"
        }
      ],
      "name": "setPriceOfTRN",
      "outputs": [],
      "stateMutability": "nonpayable",
      "type": "function"
    },
    {
      "inputs": [
        {
          "internalType": "address",
          "name": "tlnAddr",
          "type": "address"
        },
        {
          "internalType": "uint256[]",
          "name": "tokenIds",
          "type": "uint256[]"
        }
      ],
      "name": "stakeTLNs",
      "outputs": [],
      "stateMutability": "nonpayable",
      "type": "function"
    },
    {
      "inputs": [],
      "name": "totalClaimedRewards",
      "outputs": [
        {
          "internalType": "uint256",
          "name": "",
          "type": "uint256"
        }
      ],
      "stateMutability": "view",
      "type": "function"
    },
    {
      "inputs": [],
      "name": "totalStakedTokens",
      "outputs": [
        {
          "internalType": "uint256",
          "name": "",
          "type": "uint256"
        }
      ],
      "stateMutability": "view",
      "type": "function"
    },
    {
      "inputs": [
        {
          "internalType": "address",
          "name": "newOwner",
          "type": "address"
        }
      ],
      "name": "transferOwnership",
      "outputs": [],
      "stateMutability": "nonpayable",
      "type": "function"
    },
    {
      "inputs": [
        {
          "internalType": "address",
          "name": "tlnAddr",
          "type": "address"
        },
        {
          "internalType": "uint256",
          "name": "tokenId",
          "type": "uint256"
        }
      ],
      "name": "unStakeTLN",
      "outputs": [],
      "stateMutability": "nonpayable",
      "type": "function"
    },
    {
      "inputs": [],
      "name": "unpause",
      "outputs": [],
      "stateMutability": "nonpayable",
      "type": "function"
    }
  ],
  "bytecode": "0x60806040523480156200001157600080fd5b506001600055620000223362000035565b6001805460ff60a01b1916905562000087565b600180546001600160a01b038381166001600160a01b0319831681179093556040519116919082907f8be0079c531659141344cd1fd0a4f28419497f9722a3daafe3b4186f6b6457e090600090a35050565b6133c180620000976000396000f3fe608060405234801561001057600080fd5b50600436106101725760003560e01c80637665273c116100de5780639f3fecb611610097578063d2dcc8e311610071578063d2dcc8e314610359578063d578ceab1461036c578063da4b194514610374578063f2fde38b1461038757600080fd5b80639f3fecb614610306578063bc40d3aa14610326578063cb34f2151461033957600080fd5b80637665273c14610288578063841875781461029b5780638456cb59146102b057806389af0195146102b85780638da5cb5b146102d857806399d75aa1146102f357600080fd5b806340f33b921161013057806340f33b9214610217578063470b0def1461022a5780635c975abb1461023d57806366fc623e1461025a57806369b853ef1461026d578063715018a61461028057600080fd5b806284fc3c14610177578063150b7a021461018e5780631e83409a146101df5780632adcdc40146101f45780633ae73259146102075780633f4ba83a1461020f575b600080fd5b600e545b6040519081526020015b60405180910390f35b6101c661019c366004612dc0565b7f150b7a023d4804d13e8c85fb27262cb750cf6ba9f9dd3bb30d90f482ceeb4b1f95945050505050565b6040516001600160e01b03199091168152602001610185565b6101f26101ed366004612e5f565b61039a565b005b6101f2610202366004612e7c565b61059e565b600f5461017b565b6101f261068c565b6101f2610225366004612f6e565b61069e565b6101f2610238366004612f6e565b610cdc565b600154600160a01b900460ff166040519015158152602001610185565b61017b610268366004612e5f565b61113e565b6101f261027b366004612fbe565b611150565b6101f2611199565b6101f2610296366004612e5f565b6111ab565b6102a361138d565b6040516101859190612fea565b6101f2611493565b6102cb6102c6366004612e5f565b6114a3565b604051610185919061305a565b6001546040516001600160a01b039091168152602001610185565b6101f2610301366004612fbe565b61156f565b610319610314366004612e5f565b61181e565b60405161018591906130c4565b6101f2610334366004613130565b6119c9565b61034c610347366004612e5f565b611d46565b604051610185919061319c565b6101f2610367366004612e5f565b611e90565b600d5461017b565b61017b610382366004612e5f565b6123b3565b6101f2610395366004612e5f565b6123fb565b6103a2612471565b6103aa6124ca565b6000600e54116103f85760405162461bcd60e51b815260206004820152601460248201527354533a206e6f207374616b656420746f6b656e7360601b60448201526064015b60405180910390fd5b60006104048233612517565b9050600081116104455760405162461bcd60e51b815260206004820152600c60248201526b054533a20616d6f756e743d360a41b60448201526064016103ef565b80600e600082825461045791906131c5565b90915550506001600160a01b0382166000908152600c60209081526040808320338452909152812042905561048b8361181e565b602081015160405163a9059cbb60e01b8152336004820152602481018590529192506001600160a01b03169063a9059cbb906044016020604051808303816000875af11580156104df573d6000803e3d6000fd5b505050506040513d601f19601f8201168201806040525081019061050391906131d8565b61054f5760405162461bcd60e51b815260206004820152601960248201527f54533a207472616e7366657220746f6b656e206661696c65640000000000000060448201526064016103ef565b60405182815233906001600160a01b038516907f70eb43c4a8ae8c40502dcf22436c509c28d6ff421cf07c491be56984bd9870689060200160405180910390a3505061059b6001600055565b50565b6105a6612752565b6003805461ffff908116600090815260026020819052604080832080546001600160a01b03808b166001600160a01b0319928316179092558654861685528285206001018054928a169290911691909117905584548416835282200184905582549091169190610615836131fa565b91906101000a81548161ffff021916908361ffff16021790555050826001600160a01b03167fd2678e38a3553371eff62fc36a783bd86a2eee5c65f44da394138dbfff1bf749838360405161067f9291906001600160a01b03929092168252602082015260400190565b60405180910390a2505050565b610694612752565b61069c6127ac565b565b6106a6612471565b6106ae6124ca565b6106b782612801565b6106d35760405162461bcd60e51b81526004016103ef9061321b565b600081511161071a5760405162461bcd60e51b81526020600482015260136024820152721514ce88139bc81514939cc81d1bc81cd95b1b606a1b60448201526064016103ef565b60405163e985e9c560e01b815233600482015230602482015282906001600160a01b0382169063e985e9c590604401602060405180830381865afa158015610766573d6000803e3d6000fd5b505050506040513d601f19601f8201168201806040525081019061078a91906131d8565b6107d15760405162461bcd60e51b81526020600482015260186024820152771514ce88139bdd08185c1c1c9bdd995908199bdc88185b1b60421b60448201526064016103ef565b6001600160a01b038316600090815260076020526040902054806108325760405162461bcd60e51b81526020600482015260186024820152771514ce88141c9a58d9481bd988151493881b9bdd081cd95d60421b60448201526064016103ef565b60008184516108419190613246565b905060008060009050826010541061085c578551915061087c565b8360105461086a9190613273565b915081865161087991906131c5565b90505b60006108888584613246565b90506000610895896114a3565b602001516040516370a0823160e01b815230600482015290915082906001600160a01b038316906370a0823190602401602060405180830381865afa1580156108e2573d6000803e3d6000fd5b505050506040513d601f19601f820116820180604052508101906109069190613287565b10156109545760405162461bcd60e51b815260206004820152601c60248201527f544d3a206e6f7420656e6f75676820746f6b656e2062616c616e63650000000060448201526064016103ef565b60008467ffffffffffffffff81111561096f5761096f612ebd565b604051908082528060200260200182016040528015610998578160200160208202803683370190505b50905060005b85811015610b6b5760008a82815181106109ba576109ba6132a0565b6020026020010151905060008a6001600160a01b0316636352211e836040518263ffffffff1660e01b81526004016109f491815260200190565b602060405180830381865afa158015610a11573d6000803e3d6000fd5b505050506040513d601f19601f82011682018060405250810190610a3591906132b6565b90506001600160a01b0381163014610a8f5760405162461bcd60e51b815260206004820152601960248201527f54533a2054524e206e6f74206f776e656420627920706f6f6c0000000000000060448201526064016103ef565b604051632142170760e11b81526001600160a01b038c16906342842e0e90610abf908490309087906004016132d3565b600060405180830381600087803b158015610ad957600080fd5b505af1158015610aed573d6000803e3d6000fd5b5050506001600160a01b038e166000908152600660205260409020610b139150836128be565b506001600160a01b038d166000908152600860205260409020610b3690836128d1565b5081848481518110610b4a57610b4a6132a0565b60200260200101818152505050508080610b63906132f7565b91505061099e565b5060405163a9059cbb60e01b8152336004820152602481018490526001600160a01b0383169063a9059cbb906044016020604051808303816000875af1158015610bb9573d6000803e3d6000fd5b505050506040513d601f19601f82011682018060405250810190610bdd91906131d8565b5082600e6000828254610bf091906131c5565b90915550508315610c7b576000848a51610c0a91906131c5565b9050805b8a51811015610c785760008b8281518110610c2b57610c2b6132a0565b60200260200101519050610c63600660008f6001600160a01b03166001600160a01b03168152602001908152602001600020826128be565b50508080610c70906132f7565b915050610c0e565b50505b306001600160a01b03168a6001600160a01b03167f32ffae8ccc1ecdf2aab4ea113e39e83c9972a044497703db0e0cd354600cf78083604051610cbe919061319c565b60405180910390a35050505050505050610cd86001600055565b5050565b610ce4612471565b610cec6124ca565b6000610cf78361181e565b8051835191925090610d425760405162461bcd60e51b815260206004820152601460248201527354533a204e6f20544c4e7320746f207374616b6560601b60448201526064016103ef565b60405163e985e9c560e01b81523360048201523060248201526001600160a01b0382169063e985e9c590604401602060405180830381865afa158015610d8c573d6000803e3d6000fd5b505050506040513d601f19601f82011682018060405250810190610db091906131d8565b610df75760405162461bcd60e51b81526020600482015260186024820152771514ce88139bdd08185c1c1c9bdd995908199bdc88185b1b60421b60448201526064016103ef565b600082604001518451610e0a9190613246565b60208401516040516370a0823160e01b81526001600160a01b0388811660048301529293508392909116906370a0823190602401602060405180830381865afa158015610e5b573d6000803e3d6000fd5b505050506040513d601f19601f82011682018060405250810190610e7f9190613287565b1015610ecd5760405162461bcd60e51b815260206004820152601c60248201527f54533a206e6f7420656e6f75676820746f6b656e2062616c616e63650000000060448201526064016103ef565b60005b8451811015610ff5576000858281518110610eed57610eed6132a0565b60200260200101519050836001600160a01b03166342842e0e3330846040518463ffffffff1660e01b8152600401610f27939291906132d3565b600060405180830381600087803b158015610f4157600080fd5b505af1158015610f55573d6000803e3d6000fd5b5050604051632e1a7d4d60e01b8152600481018490526001600160a01b0387169250632e1a7d4d9150602401600060405180830381600087803b158015610f9b57600080fd5b505af1158015610faf573d6000803e3d6000fd5b5050506001600160a01b0388166000908152600b602090815260408083203384529091529020610fe09150826128be565b50508080610fed906132f7565b915050610ed0565b508351600f60008282546110099190613310565b9250508190555080601060008282546110229190613310565b90915550506001600160a01b03851660009081526012602090815260408083203384529091528120549003611078576001600160a01b0385166000908152600c6020908152604080832033845290915290204290555b6001600160a01b0385166000818152601160209081526040808320338085529083528184209484526012835281842081855280845282852080548652958452828520429055600f54865486529285206001908101939093559084529091528254909291906110e7908490613310565b909155505060405133906001600160a01b038716907f3f1d6292b9b4cd901acb52fd56c9620b455884300556019f26847f5f5956278f9061112990889061319c565b60405180910390a3505050610cd86001600055565b600061114a8233612517565b92915050565b611158612752565b61116182612801565b61117d5760405162461bcd60e51b81526004016103ef9061321b565b6001600160a01b03909116600090815260076020526040902055565b6111a1612752565b61069c60006128dd565b6111b3612752565b6111bb612471565b6111c481612801565b6111e05760405162461bcd60e51b81526004016103ef9061321b565b6001600160a01b03811660009081526008602052604081206112019061292f565b9050600081116112475760405162461bcd60e51b81526020600482015260116024820152701514ce88139bc81514939cc81bdddb9959607a1b60448201526064016103ef565b60008290506000816001600160a01b0316632e2d651e6040518163ffffffff1660e01b81526004016020604051808303816000875af115801561128e573d6000803e3d6000fd5b505050506040513d601f19601f820116820180604052508101906112b29190613287565b9050806000036112c457505050611383565b80600d60008282546112d69190613310565b9250508190555080600e60008282546112ef9190613310565b90915550506001600160a01b0384166000818152600960209081526040808320600a80845282852080548652918452918420429055938352905281549190611336836132f7565b909155505060408051828152602081018590526001600160a01b038616917fd45faa58a4ae1d7bbde51c194a52ab6127cc422bbdc393058ac270c5613702d1910160405180910390a25050505b61059b6001600055565b60035460609060009061ffff1667ffffffffffffffff8111156113b2576113b2612ebd565b6040519080825280602002602001820160405280156113fd57816020015b60408051606081018252600080825260208083018290529282015282526000199092019101816113d05790505b50905060005b60035461ffff908116908216101561148d5761ffff8116600081815260026020818152604092839020835160608101855281546001600160a01b039081168252600183015416928101929092529091015491810191909152835190918491811061146f5761146f6132a0565b60200260200101819052508080611485906131fa565b915050611403565b50919050565b61149b612752565b61069c612939565b60408051606081018252600080825260208201819052918101829052905b60035461ffff90811690821610156115565761ffff81166000908152600260205260409020546001600160a01b038085169116036115445761ffff16600090815260026020818152604092839020835160608101855281546001600160a01b03908116825260018301541692810192909252909101549181019190915292915050565b8061154e816131fa565b9150506114c1565b5060405162461bcd60e51b81526004016103ef9061321b565b611577612471565b61157f6124ca565b600061158a8361181e565b8051604080830151602084015191516370a0823160e01b8152306004820152939450919282916001600160a01b0316906370a0823190602401602060405180830381865afa1580156115e0573d6000803e3d6000fd5b505050506040513d601f19601f820116820180604052508101906116049190613287565b10156116525760405162461bcd60e51b815260206004820152601c60248201527f54533a206e6f7420656e6f75676820746f6b656e2062616c616e63650000000060448201526064016103ef565b604051632142170760e11b81526001600160a01b038316906342842e0e90611682903090339089906004016132d3565b600060405180830381600087803b15801561169c57600080fd5b505af11580156116b0573d6000803e3d6000fd5b5050604051636215be7760e01b8152600481018790526001600160a01b0385169250636215be779150602401600060405180830381600087803b1580156116f657600080fd5b505af115801561170a573d6000803e3d6000fd5b5050506001600160a01b0386166000908152600b60209081526040808320338452909152902061173b9150856128d1565b506001600f600082825461174f91906131c5565b92505081905550806010600082825461176891906131c5565b90915550506001600160a01b0385166000818152601160209081526040808320338085529083528184209484526012835281842081855280845282852080548652958452828520429055600f54865486529285206001908101939093559084529091528254909291906117dc908490613310565b909155505060405184815233906001600160a01b038716907f7b27bce7bf7aa41550b7036466196a4945982919995548af33e981397cad095990602001611129565b6040805160a08101825260008082526020820181905291810182905260608082018190526080820152905b60055461ffff908116908216101561198c5761ffff81166000908152600460205260409020546001600160a01b0380851691160361197a5761ffff8116600090815260046020908152604091829020825160a08101845281546001600160a01b03908116825260018301541681840152600282015481850152600382018054855181860281018601909652808652919492936060860193929083018282801561191157602002820191906000526020600020905b8154815260200190600101908083116118fd575b505050505081526020016004820180548060200260200160405190810160405280929190818152602001828054801561196957602002820191906000526020600020905b815481526020019060010190808311611955575b505050505081525050915050919050565b80611984816131fa565b915050611849565b5060405162461bcd60e51b81526020600482015260116024820152701514ce88151313881b9bdd08195e1a5cdd607a1b60448201526064016103ef565b6119d1612752565b6119da8461297c565b15611a1f5760405162461bcd60e51b81526020600482015260156024820152741514ce8815131388185b1c9958591e48195e1a5cdd605a1b60448201526064016103ef565b60008211611a5d5760405162461bcd60e51b815260206004820152600b60248201526a054533a2070726963653d360ac1b60448201526064016103ef565b6000815111611aa35760405162461bcd60e51b8152602060048201526012602482015271054533a207261746573206c656e6774683d360741b60448201526064016103ef565b80518067ffffffffffffffff811115611abe57611abe612ebd565b604051908082528060200260200182016040528015611ae7578160200160208202803683370190505b5060055461ffff1660009081526004602090815260409091208251611b16936003909201929190910190612d4b565b508067ffffffffffffffff811115611b3057611b30612ebd565b604051908082528060200260200182016040528015611b59578160200160208202803683370190505b5060055461ffff1660009081526004602081815260409092208351611b849491909201920190612d4b565b5060005b81811015611c6f57828181518110611ba257611ba26132a0565b60209081029190910181015160055461ffff16600090815260049092526040909120600301805483908110611bd957611bd96132a0565b906000526020600020018190555061016d612710848381518110611bff57611bff6132a0565b602002602001015186611c129190613246565b611c1c9190613273565b611c269190613273565b60055461ffff16600090815260046020819052604090912001805483908110611c5157611c516132a0565b60009182526020909120015580611c67816132f7565b915050611b88565b506005805461ffff90811660009081526004602052604080822080546001600160a01b03808c166001600160a01b0319928316179092558554851684528284206001018054928b1692909116919091179055835483168252812060020186905582549091169190611cdf836131fa565b91906101000a81548161ffff021916908361ffff16021790555050846001600160a01b03167fbf1079bb0d233b03156a8d5ce7972d6454b7b21a44b354921850c70e0e4c64bf858585604051611d3793929190613323565b60405180910390a25050505050565b6060611d518261297c565b611d915760405162461bcd60e51b81526020600482015260116024820152701514ce88151313881b9bdd08195e1a5cdd607a1b60448201526064016103ef565b6001600160a01b0382166000908152600b602090815260408083203384529091528120611dbd9061292f565b905080600003611ddd575050604080516000815260208101909152919050565b8067ffffffffffffffff811115611df657611df6612ebd565b604051908082528060200260200182016040528015611e1f578160200160208202803683370190505b50915060005b81811015611e89576001600160a01b0384166000908152600b602090815260408083203384529091529020611e5a9082612a30565b838281518110611e6c57611e6c6132a0565b602090810291909101015280611e81816132f7565b915050611e25565b5050919050565b611e98612752565b611ea0612471565b600080611eac836114a3565b6001600160a01b0384166000908152600660205260409020909150611ed09061292f565b915060008211611f225760405162461bcd60e51b815260206004820152601760248201527f54533a204e6f2054524e7320746f20707572636861736500000000000000000060448201526064016103ef565b6001600160a01b03831660009081526007602052604090205480611f835760405162461bcd60e51b81526020600482015260186024820152771514ce88141c9a58d9481bd988151493881b9bdd081cd95d60421b60448201526064016103ef565b6000611f8f8285613246565b905060008160105410611fa3575083611fb4565b82601054611fb19190613273565b90505b856000611fc18584613246565b90508060105410156120155760405162461bcd60e51b815260206004820152601c60248201527f54533a204e6f7420656e6f756768207374616b656420746f6b656e730000000060448201526064016103ef565b60208601516040516370a0823160e01b815230600482015282906001600160a01b038316906370a0823190602401602060405180830381865afa158015612060573d6000803e3d6000fd5b505050506040513d601f19601f820116820180604052508101906120849190613287565b10156120d25760405162461bcd60e51b815260206004820152601c60248201527f544d3a206e6f7420656e6f75676820746f6b656e2062616c616e63650000000060448201526064016103ef565b60008467ffffffffffffffff8111156120ed576120ed612ebd565b604051908082528060200260200182016040528015612116578160200160208202803683370190505b50905060005b858110156122e5576001600160a01b038b1660009081526006602052604081206121469083612a30565b6040516331a9108f60e11b8152600481018290529091506000906001600160a01b03881690636352211e90602401602060405180830381865afa158015612191573d6000803e3d6000fd5b505050506040513d601f19601f820116820180604052508101906121b591906132b6565b604051632142170760e11b81529091506001600160a01b038816906342842e0e906121e8908490309087906004016132d3565b600060405180830381600087803b15801561220257600080fd5b505af1158015612216573d6000803e3d6000fd5b505060405163a9059cbb60e01b81526001600160a01b038481166004830152602482018e90528816925063a9059cbb91506044016020604051808303816000875af1158015612269573d6000803e3d6000fd5b505050506040513d601f19601f8201168201806040525081019061228d91906131d8565b506001600160a01b038d1660009081526008602052604090206122b090836128be565b50818484815181106122c4576122c46132a0565b602002602001018181525050505080806122dd906132f7565b91505061211c565b5060005b8151811015612343576001600160a01b038b16600090815260066020526040902082516123309190849084908110612323576123236132a0565b60200260200101516128d1565b508061233b816132f7565b9150506122e9565b50826010600082825461235691906131c5565b909155505060405130906001600160a01b038c16907f32ffae8ccc1ecdf2aab4ea113e39e83c9972a044497703db0e0cd354600cf7809061239890859061319c565b60405180910390a350505050505050505061059b6001600055565b60006123be82612801565b6123da5760405162461bcd60e51b81526004016103ef9061321b565b6001600160a01b038216600090815260066020526040902061114a9061292f565b612403612752565b6001600160a01b0381166124685760405162461bcd60e51b815260206004820152602660248201527f4f776e61626c653a206e6577206f776e657220697320746865207a65726f206160448201526564647265737360d01b60648201526084016103ef565b61059b816128dd565b6002600054036124c35760405162461bcd60e51b815260206004820152601f60248201527f5265656e7472616e637947756172643a207265656e7472616e742063616c6c0060448201526064016103ef565b6002600055565b600154600160a01b900460ff161561069c5760405162461bcd60e51b815260206004820152601060248201526f14185d5cd8589b194e881c185d5cd95960821b60448201526064016103ef565b6001600160a01b038083166000908152600c6020908152604080832093851683529290529081205481908161254d868684612a3c565b6001600160a01b038088166000908152601260209081526040808320938a16835292905290812054919250806125846001846131c5565b600003612621576001600160a01b03808a166000908152601160209081526040808320938c168352928152828220828052905220546125c390426131c5565b6001600160a01b03808b166000908152601160209081526040808320938d16835292815282822082805290522060010154909250905061261082826126078c61181e565b60800151612ac9565b61261a9087613310565b9550612745565b600061262e6001856131c5565b90505b8481106127435760006126456001866131c5565b820361265257504261269a565b6001600160a01b03808c166000908152601160209081526040808320938e16835292905290812090612685846001613310565b81526020019081526020016000206000015490505b6001600160a01b03808c166000908152601160209081526040808320938e168352928152828220858352905220546126d290826131c5565b6001600160a01b03808d166000908152601160209081526040808320938f16835292815282822086835290522060010154909450925061271684846126078e61181e565b6127209089613310565b9750816000036127305750612743565b508061273b8161334a565b915050612631565b505b5093979650505050505050565b6001546001600160a01b0316331461069c5760405162461bcd60e51b815260206004820181905260248201527f4f776e61626c653a2063616c6c6572206973206e6f7420746865206f776e657260448201526064016103ef565b6127b4612b8f565b6001805460ff60a01b191690557f5db9ee0a495bf2e6ff9c91a7834c1ba4fdd244a5e8aa4e537bd38aeae4b073aa335b6040516001600160a01b03909116815260200160405180910390a1565b60006001600160a01b0382166128495760405162461bcd60e51b815260206004820152600d60248201526c04c503a2074726e416464723d3609c1b60448201526064016103ef565b60035461ffff1660000361285f57506000919050565b60005b60035461ffff90811690821610156128b55761ffff81166000908152600260205260409020546001600160a01b038085169116036128a35750600192915050565b806128ad816131fa565b915050612862565b50600092915050565b60006128ca8383612bdf565b9392505050565b60006128ca8383612c2e565b600180546001600160a01b038381166001600160a01b0319831681179093556040519116919082907f8be0079c531659141344cd1fd0a4f28419497f9722a3daafe3b4186f6b6457e090600090a35050565b600061114a825490565b6129416124ca565b6001805460ff60a01b1916600160a01b1790557f62e78cea01bee320cd4e420270b5ea74000d11b0c9f74754ebdbfc544b05a2586127e43390565b60006001600160a01b0382166129c45760405162461bcd60e51b815260206004820152600d60248201526c054533a20746c6e416464723d3609c1b60448201526064016103ef565b60035461ffff166000036129da57506000919050565b60005b60055461ffff90811690821610156128b55761ffff81166000908152600460205260409020546001600160a01b03808516911603612a1e5750600192915050565b80612a28816131fa565b9150506129dd565b60006128ca8383612d21565b6001600160a01b0380841660009081526012602090815260408083209386168352929052908120548190815b81811015612abe576001600160a01b038088166000908152601160209081526040808320938a168352928152828220848352905220548511612aac57809250612abe565b80612ab6816132f7565b915050612a68565b509095945050505050565b805160009081908190612adc9086613273565b90506000612aed6201518088613273565b90508460018651612afe91906131c5565b81518110612b0e57612b0e6132a0565b60200260200101518282612b229190613246565b612b2c9190613246565b612b369084613310565b92506000855187612b479190613361565b9050858181518110612b5b57612b5b6132a0565b60200260200101518183612b6f9190613246565b612b799190613246565b612b839085613310565b98975050505050505050565b600154600160a01b900460ff1661069c5760405162461bcd60e51b815260206004820152601460248201527314185d5cd8589b194e881b9bdd081c185d5cd95960621b60448201526064016103ef565b6000818152600183016020526040812054612c265750815460018181018455600084815260208082209093018490558454848252828601909352604090209190915561114a565b50600061114a565b60008181526001830160205260408120548015612d17576000612c526001836131c5565b8554909150600090612c66906001906131c5565b9050818114612ccb576000866000018281548110612c8657612c866132a0565b9060005260206000200154905080876000018481548110612ca957612ca96132a0565b6000918252602080832090910192909255918252600188019052604090208390555b8554869080612cdc57612cdc613375565b60019003818190600052602060002001600090559055856001016000868152602001908152602001600020600090556001935050505061114a565b600091505061114a565b6000826000018281548110612d3857612d386132a0565b9060005260206000200154905092915050565b828054828255906000526020600020908101928215612d86579160200282015b82811115612d86578251825591602001919060010190612d6b565b50612d92929150612d96565b5090565b5b80821115612d925760008155600101612d97565b6001600160a01b038116811461059b57600080fd5b600080600080600060808688031215612dd857600080fd5b8535612de381612dab565b94506020860135612df381612dab565b935060408601359250606086013567ffffffffffffffff80821115612e1757600080fd5b818801915088601f830112612e2b57600080fd5b813581811115612e3a57600080fd5b896020828501011115612e4c57600080fd5b9699959850939650602001949392505050565b600060208284031215612e7157600080fd5b81356128ca81612dab565b600080600060608486031215612e9157600080fd5b8335612e9c81612dab565b92506020840135612eac81612dab565b929592945050506040919091013590565b634e487b7160e01b600052604160045260246000fd5b600082601f830112612ee457600080fd5b8135602067ffffffffffffffff80831115612f0157612f01612ebd565b8260051b604051601f19603f83011681018181108482111715612f2657612f26612ebd565b604052938452858101830193838101925087851115612f4457600080fd5b83870191505b84821015612f6357813583529183019190830190612f4a565b979650505050505050565b60008060408385031215612f8157600080fd5b8235612f8c81612dab565b9150602083013567ffffffffffffffff811115612fa857600080fd5b612fb485828601612ed3565b9150509250929050565b60008060408385031215612fd157600080fd5b8235612fdc81612dab565b946020939093013593505050565b6020808252825182820181905260009190848201906040850190845b8181101561304e5761303b83855180516001600160a01b03908116835260208083015190911690830152604090810151910152565b9284019260609290920191600101613006565b50909695505050505050565b81516001600160a01b03908116825260208084015190911690820152604080830151908201526060810161114a565b600081518084526020808501945080840160005b838110156130b95781518752958201959082019060010161309d565b509495945050505050565b60208152600060018060a01b038084511660208401528060208501511660408401525060408301516060830152606083015160a0608084015261310a60c0840182613089565b90506080840151601f198483030160a08501526131278282613089565b95945050505050565b6000806000806080858703121561314657600080fd5b843561315181612dab565b9350602085013561316181612dab565b925060408501359150606085013567ffffffffffffffff81111561318457600080fd5b61319087828801612ed3565b91505092959194509250565b6020815260006128ca6020830184613089565b634e487b7160e01b600052601160045260246000fd5b8181038181111561114a5761114a6131af565b6000602082840312156131ea57600080fd5b815180151581146128ca57600080fd5b600061ffff808316818103613211576132116131af565b6001019392505050565b6020808252601190820152701514ce88151493881b9bdd08195e1a5cdd607a1b604082015260600190565b808202811582820484141761114a5761114a6131af565b634e487b7160e01b600052601260045260246000fd5b6000826132825761328261325d565b500490565b60006020828403121561329957600080fd5b5051919050565b634e487b7160e01b600052603260045260246000fd5b6000602082840312156132c857600080fd5b81516128ca81612dab565b6001600160a01b039384168152919092166020820152604081019190915260600190565b600060018201613309576133096131af565b5060010190565b8082018082111561114a5761114a6131af565b60018060a01b03841681528260208201526060604082015260006131276060830184613089565b600081613359576133596131af565b506000190190565b6000826133705761337061325d565b500690565b634e487b7160e01b600052603160045260246000fdfea26469706673582212209f2d30d2076da46bdf8b89378b92f8048073d17f7e06115b816c8503820915ac64736f6c63430008110033",
  "linkReferences": {},
  "deployedLinkReferences": {}
}