{
  "_format": "hh-sol-artifact-1",
  "contractName": "TomaasMarketplace",
  "sourceName": "contracts/TomaasMarketplace.sol",
  "abi": [
    {
      "inputs": [
        {
          "internalType": "address",
          "name": "lendingProtocolAddress",
          "type": "address"
        }
      ],
      "stateMutability": "nonpayable",
      "type": "constructor"
    },
    {
      "anonymous": false,
      "inputs": [
        {
          "indexed": true,
          "internalType": "address",
          "name": "collection",
          "type": "address"
        },
        {
          "indexed": false,
          "internalType": "uint256",
          "name": "tokenId",
          "type": "uint256"
        },
        {
          "indexed": false,
          "internalType": "uint256",
          "name": "price",
          "type": "uint256"
        }
      ],
      "name": "NFTBought",
      "type": "event"
    },
    {
      "anonymous": false,
      "inputs": [
        {
          "indexed": true,
          "internalType": "address",
          "name": "collection",
          "type": "address"
        },
        {
          "indexed": false,
          "internalType": "uint256",
          "name": "tokenId",
          "type": "uint256"
        },
        {
          "indexed": false,
          "internalType": "uint256",
          "name": "price",
          "type": "uint256"
        }
      ],
      "name": "NFTListedForSale",
      "type": "event"
    },
    {
      "anonymous": false,
      "inputs": [
        {
          "indexed": true,
          "internalType": "address",
          "name": "collection",
          "type": "address"
        },
        {
          "indexed": false,
          "internalType": "uint256[]",
          "name": "prices",
          "type": "uint256[]"
        },
        {
          "indexed": false,
          "internalType": "uint256[]",
          "name": "tokenIds",
          "type": "uint256[]"
        }
      ],
      "name": "NFTsBought",
      "type": "event"
    },
    {
      "anonymous": false,
      "inputs": [
        {
          "indexed": true,
          "internalType": "address",
          "name": "collection",
          "type": "address"
        },
        {
          "indexed": false,
          "internalType": "uint256",
          "name": "price",
          "type": "uint256"
        },
        {
          "indexed": false,
          "internalType": "uint256[]",
          "name": "tokenIds",
          "type": "uint256[]"
        }
      ],
      "name": "NFTsListedForSale",
      "type": "event"
    },
    {
      "anonymous": false,
      "inputs": [
        {
          "indexed": true,
          "internalType": "address",
          "name": "previousOwner",
          "type": "address"
        },
        {
          "indexed": true,
          "internalType": "address",
          "name": "newOwner",
          "type": "address"
        }
      ],
      "name": "OwnershipTransferred",
      "type": "event"
    },
    {
      "anonymous": false,
      "inputs": [
        {
          "indexed": false,
          "internalType": "address",
          "name": "account",
          "type": "address"
        }
      ],
      "name": "Paused",
      "type": "event"
    },
    {
      "anonymous": false,
      "inputs": [
        {
          "indexed": false,
          "internalType": "address",
          "name": "account",
          "type": "address"
        }
      ],
      "name": "Unpaused",
      "type": "event"
    },
    {
      "inputs": [],
      "name": "_salesFee",
      "outputs": [
        {
          "internalType": "uint8",
          "name": "",
          "type": "uint8"
        }
      ],
      "stateMutability": "view",
      "type": "function"
    },
    {
      "inputs": [
        {
          "internalType": "address",
          "name": "nftAddress",
          "type": "address"
        },
        {
          "internalType": "uint256[]",
          "name": "prices",
          "type": "uint256[]"
        },
        {
          "internalType": "uint256[]",
          "name": "tokenIds",
          "type": "uint256[]"
        }
      ],
      "name": "buyMultipleNFT",
      "outputs": [],
      "stateMutability": "nonpayable",
      "type": "function"
    },
    {
      "inputs": [
        {
          "internalType": "address",
          "name": "nftAddress",
          "type": "address"
        },
        {
          "internalType": "uint256",
          "name": "tokenId",
          "type": "uint256"
        },
        {
          "internalType": "uint256",
          "name": "price",
          "type": "uint256"
        }
      ],
      "name": "buyNFT",
      "outputs": [],
      "stateMutability": "nonpayable",
      "type": "function"
    },
    {
      "inputs": [
        {
          "internalType": "address",
          "name": "nftAddress",
          "type": "address"
        }
      ],
      "name": "getListedNFTs",
      "outputs": [
        {
          "components": [
            {
              "internalType": "uint256",
              "name": "tokenId",
              "type": "uint256"
            },
            {
              "internalType": "address",
              "name": "seller",
              "type": "address"
            },
            {
              "internalType": "uint256",
              "name": "price",
              "type": "uint256"
            },
            {
              "internalType": "bool",
              "name": "isAvailable",
              "type": "bool"
            }
          ],
          "internalType": "struct TomaasMarketplace.SaleInfo[]",
          "name": "",
          "type": "tuple[]"
        }
      ],
      "stateMutability": "view",
      "type": "function"
    },
    {
      "inputs": [
        {
          "internalType": "address",
          "name": "nftAddress",
          "type": "address"
        },
        {
          "internalType": "uint256",
          "name": "tokenId",
          "type": "uint256"
        }
      ],
      "name": "getSaleInfo",
      "outputs": [
        {
          "components": [
            {
              "internalType": "uint256",
              "name": "tokenId",
              "type": "uint256"
            },
            {
              "internalType": "address",
              "name": "seller",
              "type": "address"
            },
            {
              "internalType": "uint256",
              "name": "price",
              "type": "uint256"
            },
            {
              "internalType": "bool",
              "name": "isAvailable",
              "type": "bool"
            }
          ],
          "internalType": "struct TomaasMarketplace.SaleInfo",
          "name": "",
          "type": "tuple"
        }
      ],
      "stateMutability": "view",
      "type": "function"
    },
    {
      "inputs": [],
      "name": "getSalesFee",
      "outputs": [
        {
          "internalType": "uint256",
          "name": "",
          "type": "uint256"
        }
      ],
      "stateMutability": "view",
      "type": "function"
    },
    {
      "inputs": [
        {
          "internalType": "address",
          "name": "nftAddress",
          "type": "address"
        },
        {
          "internalType": "uint256",
          "name": "tokenId",
          "type": "uint256"
        }
      ],
      "name": "isForSale",
      "outputs": [
        {
          "internalType": "bool",
          "name": "",
          "type": "bool"
        }
      ],
      "stateMutability": "view",
      "type": "function"
    },
    {
      "inputs": [
        {
          "internalType": "address",
          "name": "nftAddress",
          "type": "address"
        },
        {
          "internalType": "uint256",
          "name": "tokenId",
          "type": "uint256"
        },
        {
          "internalType": "uint256",
          "name": "price",
          "type": "uint256"
        }
      ],
      "name": "listingForSale",
      "outputs": [],
      "stateMutability": "nonpayable",
      "type": "function"
    },
    {
      "inputs": [
        {
          "internalType": "address",
          "name": "nftAddress",
          "type": "address"
        },
        {
          "internalType": "uint256",
          "name": "price",
          "type": "uint256"
        },
        {
          "internalType": "uint256[]",
          "name": "tokenIds",
          "type": "uint256[]"
        }
      ],
      "name": "listingMultipleForSale",
      "outputs": [],
      "stateMutability": "nonpayable",
      "type": "function"
    },
    {
      "inputs": [],
      "name": "owner",
      "outputs": [
        {
          "internalType": "address",
          "name": "",
          "type": "address"
        }
      ],
      "stateMutability": "view",
      "type": "function"
    },
    {
      "inputs": [],
      "name": "pause",
      "outputs": [],
      "stateMutability": "nonpayable",
      "type": "function"
    },
    {
      "inputs": [],
      "name": "paused",
      "outputs": [
        {
          "internalType": "bool",
          "name": "",
          "type": "bool"
        }
      ],
      "stateMutability": "view",
      "type": "function"
    },
    {
      "inputs": [],
      "name": "renounceOwnership",
      "outputs": [],
      "stateMutability": "nonpayable",
      "type": "function"
    },
    {
      "inputs": [
        {
          "internalType": "uint8",
          "name": "salesFee",
          "type": "uint8"
        }
      ],
      "name": "setProtocolFee",
      "outputs": [],
      "stateMutability": "nonpayable",
      "type": "function"
    },
    {
      "inputs": [
        {
          "internalType": "address",
          "name": "newOwner",
          "type": "address"
        }
      ],
      "name": "transferOwnership",
      "outputs": [],
      "stateMutability": "nonpayable",
      "type": "function"
    },
    {
      "inputs": [],
      "name": "unpause",
      "outputs": [],
      "stateMutability": "nonpayable",
      "type": "function"
    }
  ],
  "bytecode": "0x60806040523480156200001157600080fd5b5060405162002708380380620027088339810160408190526200003491620000d0565b600160005562000044336200007e565b6001805461ffff60a01b1916601960aa1b179055600280546001600160a01b0319166001600160a01b039290921691909117905562000102565b600180546001600160a01b038381166001600160a01b0319831681179093556040519116919082907f8be0079c531659141344cd1fd0a4f28419497f9722a3daafe3b4186f6b6457e090600090a35050565b600060208284031215620000e357600080fd5b81516001600160a01b0381168114620000fb57600080fd5b9392505050565b6125f680620001126000396000f3fe608060405234801561001057600080fd5b50600436106101005760003560e01c8063715018a6116100975780639cc938e2116100665780639cc938e2146101fb5780639f1bdb201461021b578063da7a37c014610241578063f2fde38b1461025457600080fd5b8063715018a6146101bd5780637d3193ad146101c55780638456cb59146101d85780638da5cb5b146101e057600080fd5b80634e91f811116100d35780634e91f8111461016657806352b8be841461017957806353da6f011461018c5780635c975abb1461019f57600080fd5b8063087db5b8146101055780632f5ab9721461012e57806334c47d79146101495780633f4ba83a1461015e575b600080fd5b610118610113366004611ecf565b610267565b6040516101259190611efb565b60405180910390f35b600154600160a81b900460ff16604051908152602001610125565b61015c610157366004611f31565b61037a565b005b61015c6105c0565b61015c610174366004611f66565b6105d2565b61015c610187366004612041565b6105fa565b61015c61019a366004611f31565b6108a2565b600154600160a01b900460ff165b6040519015158152602001610125565b61015c610e2a565b61015c6101d336600461209a565b610e3c565b61015c6116f3565b6001546040516001600160a01b039091168152602001610125565b61020e610209366004612106565b611703565b6040516101259190612123565b60015461022f90600160a81b900460ff1681565b60405160ff9091168152602001610125565b6101ad61024f366004611ecf565b61170e565b61015c610262366004612106565b611857565b6040805160808101825260008082526020808301829052828401829052606083018290526001600160a01b0386168252600481528382208583529052918220600201549091036102d25760405162461bcd60e51b81526004016102c99061219a565b60405180910390fd5b6001600160a01b038316600090815260046020908152604080832085845290915290206003015460ff166103185760405162461bcd60e51b81526004016102c9906121db565b506001600160a01b0380831660009081526004602090815260408083208584528252918290208251608081018452815481526001820154909416918401919091526002810154918301919091526003015460ff16151560608201525b92915050565b6103826118d0565b600081116103a25760405162461bcd60e51b81526004016102c990612212565b600254604051639056a04b60e01b81526001600160a01b0385811660048301526000921690639056a04b90602401606060405180830381865afa1580156103ed573d6000803e3d6000fd5b505050506040513d601f19601f820116820180604052508101906104119190612265565b80516040516331a9108f60e11b8152600481018690529192509033906001600160a01b03831690636352211e90602401602060405180830381865afa15801561045e573d6000803e3d6000fd5b505050506040513d601f19601f8201168201806040525081019061048291906122d0565b6001600160a01b0316146104a85760405162461bcd60e51b81526004016102c9906122ed565b604051633578778760e21b8152600481018590526001600160a01b0382169063d5e1de1c90602401602060405180830381865afa1580156104ed573d6000803e3d6000fd5b505050506040513d601f19601f820116820180604052508101906105119190612332565b1561055e5760405162461bcd60e51b815260206004820152601a60248201527f544d3a20796f7520686176652072657374206f66207969656c6400000000000060448201526064016102c9565b61056a85853386611929565b60408051858152602081018590526001600160a01b038716917fcc4e2c49e4691d84c728880220112cb4635c11200d1c91215e401744f6a597ee91015b60405180910390a250506105bb6001600055565b505050565b6105c8611a0b565b6105d0611a65565b565b6105da611a0b565b6001805460ff909216600160a81b0260ff60a81b19909216919091179055565b6106026118d0565b600082116106225760405162461bcd60e51b81526004016102c990612212565b600254604051639056a04b60e01b81526001600160a01b0385811660048301526000921690639056a04b90602401606060405180830381865afa15801561066d573d6000803e3d6000fd5b505050506040513d601f19601f820116820180604052508101906106919190612265565b805190915060005b835181101561086657336001600160a01b0316826001600160a01b0316636352211e8684815181106106cd576106cd61234b565b60200260200101516040518263ffffffff1660e01b81526004016106f391815260200190565b602060405180830381865afa158015610710573d6000803e3d6000fd5b505050506040513d601f19601f8201168201806040525081019061073491906122d0565b6001600160a01b03161461075a5760405162461bcd60e51b81526004016102c9906122ed565b816001600160a01b031663d5e1de1c85838151811061077b5761077b61234b565b60200260200101516040518263ffffffff1660e01b81526004016107a191815260200190565b602060405180830381865afa1580156107be573d6000803e3d6000fd5b505050506040513d601f19601f820116820180604052508101906107e29190612332565b1561082f5760405162461bcd60e51b815260206004820152601a60248201527f544d3a20796f7520686176652072657374206f66207969656c6400000000000060448201526064016102c9565b610854868583815181106108455761084561234b565b60200260200101513388611929565b8061085e81612377565b915050610699565b50846001600160a01b03167fa0861f3051511f37f28b6bc5c97ecbad657444d11d913212e580015f3966db6e85856040516105a79291906123cb565b6108aa6118d0565b600081116108ee5760405162461bcd60e51b8152602060048201526011602482015270544d3a207072696365206973207a65726f60781b60448201526064016102c9565b600254604051639056a04b60e01b81526001600160a01b0385811660048301526000921690639056a04b90602401606060405180830381865afa158015610939573d6000803e3d6000fd5b505050506040513d601f19601f8201168201806040525081019061095d9190612265565b6040516331a9108f60e11b81526004810185905290915084906000906001600160a01b03831690636352211e90602401602060405180830381865afa1580156109aa573d6000803e3d6000fd5b505050506040513d601f19601f820116820180604052508101906109ce91906122d0565b6001600160a01b0387811660009081526004602090815260408083208a8452909152902060010154919250828116911614610a1b5760405162461bcd60e51b81526004016102c9906123ec565b6001600160a01b038616600090815260046020908152604080832088845290915290206003015460ff16610a615760405162461bcd60e51b81526004016102c9906121db565b6001600160a01b03861660009081526004602090815260408083208884529091529020600201548414610ad15760405162461bcd60e51b815260206004820152601860248201527715134e881c1c9a58d9481a5cc81b9bdd0818dbdc9c9958dd60421b60448201526064016102c9565b60208301516040516370a0823160e01b815233600482015285906001600160a01b038316906370a0823190602401602060405180830381865afa158015610b1c573d6000803e3d6000fd5b505050506040513d601f19601f82011682018060405250810190610b409190612332565b1015610b8e5760405162461bcd60e51b815260206004820152601c60248201527f544d3a206e6f7420656e6f75676820746f6b656e2062616c616e63650000000060448201526064016102c9565b600154600090610bab9061271090600160a81b900460ff16612433565b610bb99061ffff1687612462565b90506000610bc78288612479565b6001600160a01b038a811660009081526004602081815260408084208e8552909152918290206001015491516323b872dd60e01b8152939450828716936323b872dd93610c1b93339391169187910161248c565b6020604051808303816000875af1158015610c3a573d6000803e3d6000fd5b505050506040513d601f19601f82011682018060405250810190610c5e91906124b0565b610c7a5760405162461bcd60e51b81526004016102c9906124d2565b826001600160a01b031663a9059cbb610c9b6001546001600160a01b031690565b6040516001600160e01b031960e084901b1681526001600160a01b039091166004820152602481018590526044016020604051808303816000875af1158015610ce8573d6000803e3d6000fd5b505050506040513d601f19601f82011682018060405250810190610d0c91906124b0565b610d285760405162461bcd60e51b81526004016102c99061251f565b6001600160a01b0389811660009081526004602081815260408084208d85529091528083206001810180546001600160a01b031916905560028101939093556003909201805460ff191690559051632142170760e11b8152918716916342842e0e91610d9a91889133918e910161248c565b600060405180830381600087803b158015610db457600080fd5b505af1158015610dc8573d6000803e3d6000fd5b50505050610dd68989611aba565b60408051898152602081018990526001600160a01b038b16917f38bb180d23818aef357ad4b3806bac3fa13c3492c0ac9d1727381fb2422aaada910160405180910390a25050505050506105bb6001600055565b610e32611a0b565b6105d06000611c2f565b610e446118d0565b8051825114610ea95760405162461bcd60e51b815260206004820152602b60248201527f544d3a2070726963657320616e6420746f6b656e496473206c656e677468206960448201526a1cc81b9bdd08195c5d585b60aa1b60648201526084016102c9565b6000805b8351811015610f4c576000848281518110610eca57610eca61234b565b602002602001015111610f135760405162461bcd60e51b8152602060048201526011602482015270544d3a207072696365206973207a65726f60781b60448201526064016102c9565b838181518110610f2557610f2561234b565b602002602001015182610f389190612569565b915080610f4481612377565b915050610ead565b50600254604051639056a04b60e01b81526001600160a01b0386811660048301526000921690639056a04b90602401606060405180830381865afa158015610f98573d6000803e3d6000fd5b505050506040513d601f19601f82011682018060405250810190610fbc9190612265565b60208101516040516370a0823160e01b8152336004820152919250869184906001600160a01b038316906370a0823190602401602060405180830381865afa15801561100c573d6000803e3d6000fd5b505050506040513d601f19601f820116820180604052508101906110309190612332565b101561107e5760405162461bcd60e51b815260206004820152601c60248201527f544d3a206e6f7420656e6f75676820746f6b656e2062616c616e63650000000060448201526064016102c9565b60005b85518110156116a1576000836001600160a01b0316636352211e8884815181106110ad576110ad61234b565b60200260200101516040518263ffffffff1660e01b81526004016110d391815260200190565b602060405180830381865afa1580156110f0573d6000803e3d6000fd5b505050506040513d601f19601f8201168201806040525081019061111491906122d0565b6001600160a01b038a811660009081526004602052604081208a51939450918416928a90869081106111485761114861234b565b6020908102919091018101518252810191909152604001600020600101546001600160a01b03161461118c5760405162461bcd60e51b81526004016102c9906123ec565b6001600160a01b038916600090815260046020526040812088519091908990859081106111bb576111bb61234b565b60209081029190910181015182528101919091526040016000206003015460ff166111f85760405162461bcd60e51b81526004016102c9906121db565b87828151811061120a5761120a61234b565b6020026020010151600460008b6001600160a01b03166001600160a01b03168152602001908152602001600020600089858151811061124b5761124b61234b565b6020026020010151815260200190815260200160002060020154146112ad5760405162461bcd60e51b815260206004820152601860248201527715134e881c1c9a58d9481a5cc81b9bdd0818dbdc9c9958dd60421b60448201526064016102c9565b6001546000906112ca9061271090600160a81b900460ff16612433565b61ffff168984815181106112e0576112e061234b565b60200260200101516112f29190612462565b90506000818a85815181106113095761130961234b565b602002602001015161131b9190612479565b9050846001600160a01b031663a9059cbb61133e6001546001600160a01b031690565b6040516001600160e01b031960e084901b1681526001600160a01b039091166004820152602481018590526044016020604051808303816000875af115801561138b573d6000803e3d6000fd5b505050506040513d601f19601f820116820180604052508101906113af91906124b0565b6113cb5760405162461bcd60e51b81526004016102c99061251f565b846001600160a01b03166323b872dd33600460008f6001600160a01b03166001600160a01b0316815260200190815260200160002060008d89815181106114145761141461234b565b6020026020010151815260200190815260200160002060010160009054906101000a90046001600160a01b0316846040518463ffffffff1660e01b81526004016114609392919061248c565b6020604051808303816000875af115801561147f573d6000803e3d6000fd5b505050506040513d601f19601f820116820180604052508101906114a391906124b0565b6114bf5760405162461bcd60e51b81526004016102c9906124d2565b6001600160a01b038b1660009081526004602052604081208a5182908c90889081106114ed576114ed61234b565b6020026020010151815260200190815260200160002060010160006101000a8154816001600160a01b0302191690836001600160a01b031602179055506000600460008d6001600160a01b03166001600160a01b0316815260200190815260200160002060008b87815181106115655761156561234b565b60200260200101518152602001908152602001600020600201819055506000600460008d6001600160a01b03166001600160a01b0316815260200190815260200160002060008b87815181106115bd576115bd61234b565b6020026020010151815260200190815260200160002060030160006101000a81548160ff021916908315150217905550856001600160a01b03166342842e0e84338c88815181106116105761161061234b565b60200260200101516040518463ffffffff1660e01b81526004016116369392919061248c565b600060405180830381600087803b15801561165057600080fd5b505af1158015611664573d6000803e3d6000fd5b5050505061168b8b8a868151811061167e5761167e61234b565b6020026020010151611aba565b505050808061169990612377565b915050611081565b50866001600160a01b03167fa6108a3c7fb8ca74d8694ba0a6e3b846f84add7cd69a6b214c540259d1abf8ae87876040516116dd92919061257c565b60405180910390a2505050506105bb6001600055565b6116fb611a0b565b6105d0611c81565b606061037482611cc4565b6001600160a01b038216600090815260046020908152604080832084845290915281206002015481036117535760405162461bcd60e51b81526004016102c99061219a565b6040516331a9108f60e11b81526004810183905283906001600160a01b03821690636352211e90602401602060405180830381865afa15801561179a573d6000803e3d6000fd5b505050506040513d601f19601f820116820180604052508101906117be91906122d0565b6001600160a01b03858116600090815260046020908152604080832088845290915290206001015481169116146118075760405162461bcd60e51b81526004016102c9906123ec565b6001600160a01b038416600090815260046020908152604080832086845290915290206003015460ff1661184d5760405162461bcd60e51b81526004016102c9906121db565b5060019392505050565b61185f611a0b565b6001600160a01b0381166118c45760405162461bcd60e51b815260206004820152602660248201527f4f776e61626c653a206e6577206f776e657220697320746865207a65726f206160448201526564647265737360d01b60648201526084016102c9565b6118cd81611c2f565b50565b6002600054036119225760405162461bcd60e51b815260206004820152601f60248201527f5265656e7472616e637947756172643a207265656e7472616e742063616c6c0060448201526064016102c9565b6002600055565b6001600160a01b038416600090815260046020908152604080832086845290915281206003015460ff1615159003611987576001600160a01b0384166000908152600360209081526040822080546001810182559083529120018390555b604080516080810182528481526001600160a01b039384166020808301918252828401948552600160608401818152988716600090815260048352858120988152979091529290952090518155935190840180546001600160a01b031916919093161790915551600282015590516003909101805460ff1916911515919091179055565b6001546001600160a01b031633146105d05760405162461bcd60e51b815260206004820181905260248201527f4f776e61626c653a2063616c6c6572206973206e6f7420746865206f776e657260448201526064016102c9565b611a6d611e1d565b6001805460ff60a01b191690557f5db9ee0a495bf2e6ff9c91a7834c1ba4fdd244a5e8aa4e537bd38aeae4b073aa335b6040516001600160a01b03909116815260200160405180910390a1565b6001600160a01b0382166000908152600360205260408120805490915b8254811015611b1d5783838281548110611af357611af361234b565b906000526020600020015403611b0b57809150611b1d565b80611b1581612377565b915050611ad7565b5081548110611b6e5760405162461bcd60e51b815260206004820152601860248201527f544d3a20746f6b656e4964206973206e6f7420666f756e64000000000000000060448201526064016102c9565b81548290611b7e90600190612479565b81548110611b8e57611b8e61234b565b9060005260206000200154828281548110611bab57611bab61234b565b906000526020600020018190555081805480611bc957611bc96125aa565b6000828152602080822083016000199081018390559092019092556001600160a01b03909516815260048552604080822094825293909452505081208181556001810180546001600160a01b03191690556002810191909155600301805460ff19169055565b600180546001600160a01b038381166001600160a01b0319831681179093556040519116919082907f8be0079c531659141344cd1fd0a4f28419497f9722a3daafe3b4186f6b6457e090600090a35050565b611c89611e6d565b6001805460ff60a01b1916600160a01b1790557f62e78cea01bee320cd4e420270b5ea74000d11b0c9f74754ebdbfc544b05a258611a9d3390565b6001600160a01b038116600090815260036020526040812080546060929067ffffffffffffffff811115611cfa57611cfa611f90565b604051908082528060200260200182016040528015611d4c57816020015b604080516080810182526000808252602080830182905292820181905260608201528252600019909201910181611d185790505b50905060005b8254811015611e15576001600160a01b03851660009081526004602052604081208454909190859084908110611d8a57611d8a61234b565b60009182526020808320909101548352828101939093526040918201902081516080810183528154815260018201546001600160a01b0316938101939093526002810154918301919091526003015460ff16151560608201528251839083908110611df757611df761234b565b60200260200101819052508080611e0d90612377565b915050611d52565b509392505050565b600154600160a01b900460ff166105d05760405162461bcd60e51b815260206004820152601460248201527314185d5cd8589b194e881b9bdd081c185d5cd95960621b60448201526064016102c9565b600154600160a01b900460ff16156105d05760405162461bcd60e51b815260206004820152601060248201526f14185d5cd8589b194e881c185d5cd95960821b60448201526064016102c9565b6001600160a01b03811681146118cd57600080fd5b60008060408385031215611ee257600080fd5b8235611eed81611eba565b946020939093013593505050565b815181526020808301516001600160a01b0316908201526040808301519082015260608083015115159082015260808101610374565b600080600060608486031215611f4657600080fd5b8335611f5181611eba565b95602085013595506040909401359392505050565b600060208284031215611f7857600080fd5b813560ff81168114611f8957600080fd5b9392505050565b634e487b7160e01b600052604160045260246000fd5b600082601f830112611fb757600080fd5b8135602067ffffffffffffffff80831115611fd457611fd4611f90565b8260051b604051601f19603f83011681018181108482111715611ff957611ff9611f90565b60405293845285810183019383810192508785111561201757600080fd5b83870191505b848210156120365781358352918301919083019061201d565b979650505050505050565b60008060006060848603121561205657600080fd5b833561206181611eba565b925060208401359150604084013567ffffffffffffffff81111561208457600080fd5b61209086828701611fa6565b9150509250925092565b6000806000606084860312156120af57600080fd5b83356120ba81611eba565b9250602084013567ffffffffffffffff808211156120d757600080fd5b6120e387838801611fa6565b935060408601359150808211156120f957600080fd5b5061209086828701611fa6565b60006020828403121561211857600080fd5b8135611f8981611eba565b6020808252825182820181905260009190848201906040850190845b8181101561218e5761217b838551805182526020808201516001600160a01b031690830152604080820151908301526060908101511515910152565b928401926080929092019160010161213f565b50909695505050505050565b60208082526021908201527f544d3a2074686572652069736e6f742074686973204e465420666f722073616c6040820152606560f81b606082015260800190565b60208082526017908201527f544d3a204e4654206973206e6f7420666f722073616c65000000000000000000604082015260600190565b60208082526033908201527f544d3a206e66744164647265737320697320746865207a65726f2061646472656040820152727373206f72207072696365206973207a65726f60681b606082015260800190565b60006060828403121561227757600080fd5b6040516060810181811067ffffffffffffffff8211171561229a5761229a611f90565b60405282516122a881611eba565b815260208301516122b881611eba565b60208201526040928301519281019290925250919050565b6000602082840312156122e257600080fd5b8151611f8981611eba565b60208082526025908201527f544d3a20796f7520617265206e6f7420746865206f776e6572206f66207468696040820152641cc813919560da1b606082015260800190565b60006020828403121561234457600080fd5b5051919050565b634e487b7160e01b600052603260045260246000fd5b634e487b7160e01b600052601160045260246000fd5b60006001820161238957612389612361565b5060010190565b600081518084526020808501945080840160005b838110156123c0578151875295820195908201906001016123a4565b509495945050505050565b8281526040602082015260006123e46040830184612390565b949350505050565b60208082526027908201527f544d3a2073656c6c6572206973206e6f7420746865206f776e6572206f6620746040820152661a1a5cc813919560ca1b606082015260800190565b600061ffff8084168061245657634e487b7160e01b600052601260045260246000fd5b92169190910492915050565b808202811582820484141761037457610374612361565b8181038181111561037457610374612361565b6001600160a01b039384168152919092166020820152604081019190915260600190565b6000602082840312156124c257600080fd5b81518015158114611f8957600080fd5b6020808252602d908201527f544d3a206661696c656420746f207472616e7366657220746f6b656e2072656e60408201526c1d081d1bc818dbdb9d1c9858dd609a1b606082015260800190565b6020808252602a908201527f544d3a206661696c656420746f207472616e7366657220746f6b656e2072656e6040820152693a103a379037bbb732b960b11b606082015260800190565b8082018082111561037457610374612361565b60408152600061258f6040830185612390565b82810360208401526125a18185612390565b95945050505050565b634e487b7160e01b600052603160045260246000fdfea2646970667358221220bbea0a34b124595aa453813fb6b6f3aeb15a324ddb32f7370891ac7e20a2e62164736f6c63430008110033",
  "linkReferences": {},
  "deployedLinkReferences": {}
}